{
  "_format": "hh-sol-artifact-1",
  "contractName": "ERC721A",
  "sourceName": "contracts/felinesoulmate.sol",
  "abi": [
    {
      "inputs": [
        {
          "internalType": "string",
          "name": "name_",
          "type": "string"
        },
        {
          "internalType": "string",
          "name": "symbol_",
          "type": "string"
        }
      ],
      "stateMutability": "nonpayable",
      "type": "constructor"
    },
    {
      "inputs": [],
      "name": "ApprovalCallerNotOwnerNorApproved",
      "type": "error"
    },
    {
      "inputs": [],
      "name": "ApprovalQueryForNonexistentToken",
      "type": "error"
    },
    {
      "inputs": [],
      "name": "ApprovalToCurrentOwner",
      "type": "error"
    },
    {
      "inputs": [],
      "name": "ApproveToCaller",
      "type": "error"
    },
    {
      "inputs": [],
      "name": "BalanceQueryForZeroAddress",
      "type": "error"
    },
    {
      "inputs": [],
      "name": "OwnerIndexOutOfBounds",
      "type": "error"
    },
    {
      "inputs": [],
      "name": "OwnerQueryForNonexistentToken",
      "type": "error"
    },
    {
      "inputs": [],
      "name": "TokenIndexOutOfBounds",
      "type": "error"
    },
    {
      "inputs": [],
      "name": "TransferCallerNotOwnerNorApproved",
      "type": "error"
    },
    {
      "inputs": [],
      "name": "TransferFromIncorrectOwner",
      "type": "error"
    },
    {
      "inputs": [],
      "name": "TransferToNonERC721ReceiverImplementer",
      "type": "error"
    },
    {
      "inputs": [],
      "name": "TransferToZeroAddress",
      "type": "error"
    },
    {
      "anonymous": false,
      "inputs": [
        {
          "indexed": true,
          "internalType": "address",
          "name": "owner",
          "type": "address"
        },
        {
          "indexed": true,
          "internalType": "address",
          "name": "approved",
          "type": "address"
        },
        {
          "indexed": true,
          "internalType": "uint256",
          "name": "tokenId",
          "type": "uint256"
        }
      ],
      "name": "Approval",
      "type": "event"
    },
    {
      "anonymous": false,
      "inputs": [
        {
          "indexed": true,
          "internalType": "address",
          "name": "owner",
          "type": "address"
        },
        {
          "indexed": true,
          "internalType": "address",
          "name": "operator",
          "type": "address"
        },
        {
          "indexed": false,
          "internalType": "bool",
          "name": "approved",
          "type": "bool"
        }
      ],
      "name": "ApprovalForAll",
      "type": "event"
    },
    {
      "anonymous": false,
      "inputs": [
        {
          "indexed": true,
          "internalType": "address",
          "name": "previousOwner",
          "type": "address"
        },
        {
          "indexed": true,
          "internalType": "address",
          "name": "newOwner",
          "type": "address"
        }
      ],
      "name": "OwnershipTransferred",
      "type": "event"
    },
    {
      "anonymous": false,
      "inputs": [
        {
          "indexed": true,
          "internalType": "address",
          "name": "from",
          "type": "address"
        },
        {
          "indexed": true,
          "internalType": "address",
          "name": "to",
          "type": "address"
        },
        {
          "indexed": true,
          "internalType": "uint256",
          "name": "tokenId",
          "type": "uint256"
        }
      ],
      "name": "Transfer",
      "type": "event"
    },
    {
      "inputs": [
        {
          "internalType": "uint256",
          "name": "",
          "type": "uint256"
        }
      ],
      "name": "_transferToContract",
      "outputs": [
        {
          "internalType": "bool",
          "name": "",
          "type": "bool"
        }
      ],
      "stateMutability": "view",
      "type": "function"
    },
    {
      "inputs": [],
      "name": "allowedToContract",
      "outputs": [
        {
          "internalType": "bool",
          "name": "",
          "type": "bool"
        }
      ],
      "stateMutability": "view",
      "type": "function"
    },
    {
      "inputs": [
        {
          "internalType": "address",
          "name": "to",
          "type": "address"
        },
        {
          "internalType": "uint256",
          "name": "tokenId",
          "type": "uint256"
        }
      ],
      "name": "approve",
      "outputs": [],
      "stateMutability": "nonpayable",
      "type": "function"
    },
    {
      "inputs": [
        {
          "internalType": "address",
          "name": "owner",
          "type": "address"
        }
      ],
      "name": "balanceOf",
      "outputs": [
        {
          "internalType": "uint256",
          "name": "",
          "type": "uint256"
        }
      ],
      "stateMutability": "view",
      "type": "function"
    },
    {
      "inputs": [
        {
          "internalType": "uint256",
          "name": "tokenId",
          "type": "uint256"
        }
      ],
      "name": "getApproved",
      "outputs": [
        {
          "internalType": "address",
          "name": "",
          "type": "address"
        }
      ],
      "stateMutability": "view",
      "type": "function"
    },
    {
      "inputs": [
        {
          "internalType": "address",
          "name": "owner",
          "type": "address"
        },
        {
          "internalType": "address",
          "name": "operator",
          "type": "address"
        }
      ],
      "name": "isApprovedForAll",
      "outputs": [
        {
          "internalType": "bool",
          "name": "",
          "type": "bool"
        }
      ],
      "stateMutability": "view",
      "type": "function"
    },
    {
      "inputs": [],
      "name": "name",
      "outputs": [
        {
          "internalType": "string",
          "name": "",
          "type": "string"
        }
      ],
      "stateMutability": "view",
      "type": "function"
    },
    {
      "inputs": [],
      "name": "owner",
      "outputs": [
        {
          "internalType": "address",
          "name": "",
          "type": "address"
        }
      ],
      "stateMutability": "view",
      "type": "function"
    },
    {
      "inputs": [
        {
          "internalType": "uint256",
          "name": "tokenId",
          "type": "uint256"
        }
      ],
      "name": "ownerOf",
      "outputs": [
        {
          "internalType": "address",
          "name": "",
          "type": "address"
        }
      ],
      "stateMutability": "view",
      "type": "function"
    },
    {
      "inputs": [],
      "name": "renounceOwnership",
      "outputs": [],
      "stateMutability": "nonpayable",
      "type": "function"
    },
    {
      "inputs": [
        {
          "internalType": "address",
          "name": "from",
          "type": "address"
        },
        {
          "internalType": "address",
          "name": "to",
          "type": "address"
        },
        {
          "internalType": "uint256",
          "name": "tokenId",
          "type": "uint256"
        }
      ],
      "name": "safeTransferFrom",
      "outputs": [],
      "stateMutability": "nonpayable",
      "type": "function"
    },
    {
      "inputs": [
        {
          "internalType": "address",
          "name": "from",
          "type": "address"
        },
        {
          "internalType": "address",
          "name": "to",
          "type": "address"
        },
        {
          "internalType": "uint256",
          "name": "tokenId",
          "type": "uint256"
        },
        {
          "internalType": "bytes",
          "name": "_data",
          "type": "bytes"
        }
      ],
      "name": "safeTransferFrom",
      "outputs": [],
      "stateMutability": "nonpayable",
      "type": "function"
    },
    {
      "inputs": [],
      "name": "setAllowToContract",
      "outputs": [],
      "stateMutability": "nonpayable",
      "type": "function"
    },
    {
      "inputs": [
        {
          "internalType": "uint256",
          "name": "_tokenId",
          "type": "uint256"
        },
        {
          "internalType": "bool",
          "name": "_allow",
          "type": "bool"
        }
      ],
      "name": "setAllowTokenToContract",
      "outputs": [],
      "stateMutability": "nonpayable",
      "type": "function"
    },
    {
      "inputs": [
        {
          "internalType": "address",
          "name": "operator",
          "type": "address"
        },
        {
          "internalType": "bool",
          "name": "approved",
          "type": "bool"
        }
      ],
      "name": "setApprovalForAll",
      "outputs": [],
      "stateMutability": "nonpayable",
      "type": "function"
    },
    {
      "inputs": [
        {
          "internalType": "bytes4",
          "name": "interfaceId",
          "type": "bytes4"
        }
      ],
      "name": "supportsInterface",
      "outputs": [
        {
          "internalType": "bool",
          "name": "",
          "type": "bool"
        }
      ],
      "stateMutability": "view",
      "type": "function"
    },
    {
      "inputs": [],
      "name": "symbol",
      "outputs": [
        {
          "internalType": "string",
          "name": "",
          "type": "string"
        }
      ],
      "stateMutability": "view",
      "type": "function"
    },
    {
      "inputs": [
        {
          "internalType": "uint256",
          "name": "index",
          "type": "uint256"
        }
      ],
      "name": "tokenByIndex",
      "outputs": [
        {
          "internalType": "uint256",
          "name": "",
          "type": "uint256"
        }
      ],
      "stateMutability": "view",
      "type": "function"
    },
    {
      "inputs": [
        {
          "internalType": "address",
          "name": "owner",
          "type": "address"
        },
        {
          "internalType": "uint256",
          "name": "index",
          "type": "uint256"
        }
      ],
      "name": "tokenOfOwnerByIndex",
      "outputs": [
        {
          "internalType": "uint256",
          "name": "",
          "type": "uint256"
        }
      ],
      "stateMutability": "view",
      "type": "function"
    },
    {
      "inputs": [
        {
          "internalType": "uint256",
          "name": "tokenId",
          "type": "uint256"
        }
      ],
      "name": "tokenURI",
      "outputs": [
        {
          "internalType": "string",
          "name": "",
          "type": "string"
        }
      ],
      "stateMutability": "nonpayable",
      "type": "function"
    },
    {
      "inputs": [],
      "name": "totalSupply",
      "outputs": [
        {
          "internalType": "uint256",
          "name": "",
          "type": "uint256"
        }
      ],
      "stateMutability": "view",
      "type": "function"
    },
    {
      "inputs": [
        {
          "internalType": "address",
          "name": "from",
          "type": "address"
        },
        {
          "internalType": "address",
          "name": "to",
          "type": "address"
        },
        {
          "internalType": "uint256",
          "name": "tokenId",
          "type": "uint256"
        }
      ],
      "name": "transferFrom",
      "outputs": [],
      "stateMutability": "nonpayable",
      "type": "function"
    },
    {
      "inputs": [
        {
          "internalType": "address",
          "name": "newOwner",
          "type": "address"
        }
      ],
      "name": "transferOwnership",
      "outputs": [],
      "stateMutability": "nonpayable",
      "type": "function"
    }
  ],
  "bytecode": "0x6080604052600180556000600560006101000a81548160ff0219169083151502179055503480156200003057600080fd5b506040516200319f3803806200319f83398181016040528101906200005691906200026a565b6000620000686200014060201b60201c565b9050806000806101000a81548173ffffffffffffffffffffffffffffffffffffffff021916908373ffffffffffffffffffffffffffffffffffffffff1602179055508073ffffffffffffffffffffffffffffffffffffffff16600073ffffffffffffffffffffffffffffffffffffffff167f8be0079c531659141344cd1fd0a4f28419497f9722a3daafe3b4186f6b6457e060405160405180910390a35081600390805190602001906200011e92919062000148565b5080600490805190602001906200013792919062000148565b5050506200044d565b600033905090565b828054620001569062000372565b90600052602060002090601f0160209004810192826200017a5760008555620001c6565b82601f106200019557805160ff1916838001178555620001c6565b82800160010185558215620001c6579182015b82811115620001c5578251825591602001919060010190620001a8565b5b509050620001d59190620001d9565b5090565b5b80821115620001f4576000816000905550600101620001da565b5090565b60006200020f620002098462000306565b620002dd565b9050828152602081018484840111156200022857600080fd5b620002358482856200033c565b509392505050565b600082601f8301126200024f57600080fd5b815162000261848260208601620001f8565b91505092915050565b600080604083850312156200027e57600080fd5b600083015167ffffffffffffffff8111156200029957600080fd5b620002a7858286016200023d565b925050602083015167ffffffffffffffff811115620002c557600080fd5b620002d3858286016200023d565b9150509250929050565b6000620002e9620002fc565b9050620002f78282620003a8565b919050565b6000604051905090565b600067ffffffffffffffff8211156200032457620003236200040d565b5b6200032f826200043c565b9050602081019050919050565b60005b838110156200035c5780820151818401526020810190506200033f565b838111156200036c576000848401525b50505050565b600060028204905060018216806200038b57607f821691505b60208210811415620003a257620003a1620003de565b5b50919050565b620003b3826200043c565b810181811067ffffffffffffffff82111715620003d557620003d46200040d565b5b80604052505050565b7f4e487b7100000000000000000000000000000000000000000000000000000000600052602260045260246000fd5b7f4e487b7100000000000000000000000000000000000000000000000000000000600052604160045260246000fd5b6000601f19601f8301169050919050565b612d42806200045d6000396000f3fe608060405234801561001057600080fd5b506004361061014d5760003560e01c80636352211e116100c3578063a22cb4651161007c578063a22cb4651461038c578063b88d4fde146103a8578063c0805197146103c4578063c87b56dd146103f4578063e985e9c514610424578063f2fde38b146104545761014d565b80636352211e146102dc57806370a082311461030c578063715018a61461033c578063801fe59b146103465780638da5cb5b1461035057806395d89b411461036e5761014d565b806323b872dd1161011557806323b872dd1461020a5780632f745c591461022657806342842e0e146102565780634aaf78f1146102725780634f6ccce71461029057806355a55465146102c05761014d565b806301ffc9a71461015257806306fdde0314610182578063081812fc146101a0578063095ea7b3146101d057806318160ddd146101ec575b600080fd5b61016c600480360381019061016791906124ce565b610470565b60405161017991906126e1565b60405180910390f35b61018a6105ba565b60405161019791906126fc565b60405180910390f35b6101ba60048036038101906101b591906124f7565b61064c565b6040516101c791906126c6565b60405180910390f35b6101ea60048036038101906101e59190612492565b6106c8565b005b6101f4610883565b60405161020191906127be565b60405180910390f35b610224600480360381019061021f919061238c565b610891565b005b610240600480360381019061023b9190612492565b6108a1565b60405161024d91906127be565b60405180910390f35b610270600480360381019061026b919061238c565b610a7b565b005b61027a610a9b565b60405161028791906126e1565b60405180910390f35b6102aa60048036038101906102a591906124f7565b610aae565b6040516102b791906127be565b60405180910390f35b6102da60048036038101906102d59190612520565b610bf3565b005b6102f660048036038101906102f191906124f7565b610c9e565b60405161030391906126c6565b60405180910390f35b61032660048036038101906103219190612327565b610cb4565b60405161033391906127be565b60405180910390f35b610344610d84565b005b61034e610ebe565b005b610358610f66565b60405161036591906126c6565b60405180910390f35b610376610f8f565b60405161038391906126fc565b60405180910390f35b6103a660048036038101906103a19190612456565b611021565b005b6103c260048036038101906103bd91906123db565b611319565b005b6103de60048036038101906103d991906124f7565b61136c565b6040516103eb91906126e1565b60405180910390f35b61040e600480360381019061040991906124f7565b61138c565b60405161041b91906126fc565b60405180910390f35b61043e60048036038101906104399190612350565b611433565b60405161044b91906126e1565b60405180910390f35b61046e60048036038101906104699190612327565b6114c7565b005b60007f80ac58cd000000000000000000000000000000000000000000000000000000007bffffffffffffffffffffffffffffffffffffffffffffffffffffffff1916827bffffffffffffffffffffffffffffffffffffffffffffffffffffffff1916148061053b57507f5b5e139f000000000000000000000000000000000000000000000000000000007bffffffffffffffffffffffffffffffffffffffffffffffffffffffff1916827bffffffffffffffffffffffffffffffffffffffffffffffffffffffff1916145b806105a357507f780e9d63000000000000000000000000000000000000000000000000000000007bffffffffffffffffffffffffffffffffffffffffffffffffffffffff1916827bffffffffffffffffffffffffffffffffffffffffffffffffffffffff1916145b806105b357506105b282611670565b5b9050919050565b6060600380546105c9906129c7565b80601f01602080910402602001604051908101604052809291908181526020018280546105f5906129c7565b80156106425780601f1061061757610100808354040283529160200191610642565b820191906000526020600020905b81548152906001019060200180831161062557829003601f168201915b5050505050905090565b6000610657826116da565b61068d576040517fcf4700e400000000000000000000000000000000000000000000000000000000815260040160405180910390fd5b6008600083815260200190815260200160002060009054906101000a900473ffffffffffffffffffffffffffffffffffffffff169050919050565b60006106d382610c9e565b90508073ffffffffffffffffffffffffffffffffffffffff168373ffffffffffffffffffffffffffffffffffffffff16141561073b576040517f943f7b8c00000000000000000000000000000000000000000000000000000000815260040160405180910390fd5b8073ffffffffffffffffffffffffffffffffffffffff1661075a611757565b73ffffffffffffffffffffffffffffffffffffffff161415801561078c575061078a81610785611757565b611433565b155b156107c3576040517fcfb3b94200000000000000000000000000000000000000000000000000000000815260040160405180910390fd5b600560009054906101000a900460ff161580156107fe5750600a600083815260200190815260200160002060009054906101000a900460ff16155b15610872576108228373ffffffffffffffffffffffffffffffffffffffff1661175f565b15610862576040517f08c379a00000000000000000000000000000000000000000000000000000000081526004016108599061273e565b60405180910390fd5b61086d838383611782565b61087e565b61087d838383611782565b5b505050565b600060025460015403905090565b61089c838383611834565b505050565b60006108ac83610cb4565b82106108e4576040517f0ddac30e00000000000000000000000000000000000000000000000000000000815260040160405180910390fd5b6000600154905060008060005b83811015610a6f576000600660008381526020019081526020016000206040518060600160405290816000820160009054906101000a900473ffffffffffffffffffffffffffffffffffffffff1673ffffffffffffffffffffffffffffffffffffffff1673ffffffffffffffffffffffffffffffffffffffff1681526020016000820160149054906101000a900467ffffffffffffffff1667ffffffffffffffff1667ffffffffffffffff16815260200160008201601c9054906101000a900460ff16151515158152505090508060400151156109ce5750610a62565b600073ffffffffffffffffffffffffffffffffffffffff16816000015173ffffffffffffffffffffffffffffffffffffffff1614610a0e57806000015192505b8773ffffffffffffffffffffffffffffffffffffffff168373ffffffffffffffffffffffffffffffffffffffff161415610a605786841415610a57578195505050505050610a75565b83806001019450505b505b80806001019150506108f1565b50600080fd5b92915050565b610a9683838360405180602001604052806000815250611319565b505050565b600560009054906101000a900460ff1681565b60008060015490506000805b82811015610bbb576000600660008381526020019081526020016000206040518060600160405290816000820160009054906101000a900473ffffffffffffffffffffffffffffffffffffffff1673ffffffffffffffffffffffffffffffffffffffff1673ffffffffffffffffffffffffffffffffffffffff1681526020016000820160149054906101000a900467ffffffffffffffff1667ffffffffffffffff1667ffffffffffffffff16815260200160008201601c9054906101000a900460ff16151515158152505090508060400151610bad5785831415610ba45781945050505050610bee565b82806001019350505b508080600101915050610aba565b506040517fa723001c00000000000000000000000000000000000000000000000000000000815260040160405180910390fd5b919050565b610bfb611757565b73ffffffffffffffffffffffffffffffffffffffff16610c19610f66565b73ffffffffffffffffffffffffffffffffffffffff1614610c6f576040517f08c379a0000000000000000000000000000000000000000000000000000000008152600401610c669061277e565b60405180910390fd5b80600a600084815260200190815260200160002060006101000a81548160ff0219169083151502179055505050565b6000610ca982611d25565b600001519050919050565b60008073ffffffffffffffffffffffffffffffffffffffff168273ffffffffffffffffffffffffffffffffffffffff161415610d1c576040517f8f4eb60400000000000000000000000000000000000000000000000000000000815260040160405180910390fd5b600760008373ffffffffffffffffffffffffffffffffffffffff1673ffffffffffffffffffffffffffffffffffffffff16815260200190815260200160002060000160009054906101000a900467ffffffffffffffff1667ffffffffffffffff169050919050565b610d8c611757565b73ffffffffffffffffffffffffffffffffffffffff16610daa610f66565b73ffffffffffffffffffffffffffffffffffffffff1614610e00576040517f08c379a0000000000000000000000000000000000000000000000000000000008152600401610df79061277e565b60405180910390fd5b600073ffffffffffffffffffffffffffffffffffffffff1660008054906101000a900473ffffffffffffffffffffffffffffffffffffffff1673ffffffffffffffffffffffffffffffffffffffff167f8be0079c531659141344cd1fd0a4f28419497f9722a3daafe3b4186f6b6457e060405160405180910390a360008060006101000a81548173ffffffffffffffffffffffffffffffffffffffff021916908373ffffffffffffffffffffffffffffffffffffffff160217905550565b610ec6611757565b73ffffffffffffffffffffffffffffffffffffffff16610ee4610f66565b73ffffffffffffffffffffffffffffffffffffffff1614610f3a576040517f08c379a0000000000000000000000000000000000000000000000000000000008152600401610f319061277e565b60405180910390fd5b600560009054906101000a900460ff1615600560006101000a81548160ff021916908315150217905550565b60008060009054906101000a900473ffffffffffffffffffffffffffffffffffffffff16905090565b606060048054610f9e906129c7565b80601f0160208091040260200160405190810160405280929190818152602001828054610fca906129c7565b80156110175780601f10610fec57610100808354040283529160200191611017565b820191906000526020600020905b815481529060010190602001808311610ffa57829003601f168201915b5050505050905090565b611029611757565b73ffffffffffffffffffffffffffffffffffffffff168273ffffffffffffffffffffffffffffffffffffffff16141561108e576040517fb06307db00000000000000000000000000000000000000000000000000000000815260040160405180910390fd5b600560009054906101000a900460ff1661120d576110c18273ffffffffffffffffffffffffffffffffffffffff1661175f565b15611101576040517f08c379a00000000000000000000000000000000000000000000000000000000081526004016110f89061273e565b60405180910390fd5b806009600061110e611757565b73ffffffffffffffffffffffffffffffffffffffff1673ffffffffffffffffffffffffffffffffffffffff16815260200190815260200160002060008473ffffffffffffffffffffffffffffffffffffffff1673ffffffffffffffffffffffffffffffffffffffff16815260200190815260200160002060006101000a81548160ff0219169083151502179055508173ffffffffffffffffffffffffffffffffffffffff166111bb611757565b73ffffffffffffffffffffffffffffffffffffffff167f17307eab39ab6107e8899845ad3d59bd9653f200f220920489ca2b5937696c318360405161120091906126e1565b60405180910390a3611315565b806009600061121a611757565b73ffffffffffffffffffffffffffffffffffffffff1673ffffffffffffffffffffffffffffffffffffffff16815260200190815260200160002060008473ffffffffffffffffffffffffffffffffffffffff1673ffffffffffffffffffffffffffffffffffffffff16815260200190815260200160002060006101000a81548160ff0219169083151502179055508173ffffffffffffffffffffffffffffffffffffffff166112c7611757565b73ffffffffffffffffffffffffffffffffffffffff167f17307eab39ab6107e8899845ad3d59bd9653f200f220920489ca2b5937696c318360405161130c91906126e1565b60405180910390a35b5050565b611324848484611834565b61133084848484611fa1565b611366576040517fd1a57ed600000000000000000000000000000000000000000000000000000000815260040160405180910390fd5b50505050565b600a6020528060005260406000206000915054906101000a900460ff1681565b6060611397826116da565b6113d6576040517f08c379a00000000000000000000000000000000000000000000000000000000081526004016113cd9061279e565b60405180910390fd5b60006113e0612058565b90506000815111611400576040518060200160405280600081525061142b565b8061140a8461206f565b60405160200161141b9291906126a2565b6040516020818303038152906040525b915050919050565b6000600960008473ffffffffffffffffffffffffffffffffffffffff1673ffffffffffffffffffffffffffffffffffffffff16815260200190815260200160002060008373ffffffffffffffffffffffffffffffffffffffff1673ffffffffffffffffffffffffffffffffffffffff16815260200190815260200160002060009054906101000a900460ff16905092915050565b6114cf611757565b73ffffffffffffffffffffffffffffffffffffffff166114ed610f66565b73ffffffffffffffffffffffffffffffffffffffff1614611543576040517f08c379a000000000000000000000000000000000000000000000000000000000815260040161153a9061277e565b60405180910390fd5b600073ffffffffffffffffffffffffffffffffffffffff168173ffffffffffffffffffffffffffffffffffffffff1614156115b3576040517f08c379a00000000000000000000000000000000000000000000000000000000081526004016115aa9061271e565b60405180910390fd5b8073ffffffffffffffffffffffffffffffffffffffff1660008054906101000a900473ffffffffffffffffffffffffffffffffffffffff1673ffffffffffffffffffffffffffffffffffffffff167f8be0079c531659141344cd1fd0a4f28419497f9722a3daafe3b4186f6b6457e060405160405180910390a3806000806101000a81548173ffffffffffffffffffffffffffffffffffffffff021916908373ffffffffffffffffffffffffffffffffffffffff16021790555050565b60007f01ffc9a7000000000000000000000000000000000000000000000000000000007bffffffffffffffffffffffffffffffffffffffffffffffffffffffff1916827bffffffffffffffffffffffffffffffffffffffffffffffffffffffff1916149050919050565b600080821161171e576040517f08c379a00000000000000000000000000000000000000000000000000000000081526004016117159061275e565b60405180910390fd5b60015482108015611750575060066000838152602001908152602001600020600001601c9054906101000a900460ff16155b9050919050565b600033905090565b6000808273ffffffffffffffffffffffffffffffffffffffff163b119050919050565b826008600084815260200190815260200160002060006101000a81548173ffffffffffffffffffffffffffffffffffffffff021916908373ffffffffffffffffffffffffffffffffffffffff160217905550818373ffffffffffffffffffffffffffffffffffffffff168273ffffffffffffffffffffffffffffffffffffffff167f8c5be1e5ebec7d5bd14f71427d1e84f3dd0314c0f7b2291e5b200ac8c7c3b92560405160405180910390a4505050565b600061183f82611d25565b90506000816000015173ffffffffffffffffffffffffffffffffffffffff16611866611757565b73ffffffffffffffffffffffffffffffffffffffff16148061189957506118988260000151611893611757565b611433565b5b806118de57506118a7611757565b73ffffffffffffffffffffffffffffffffffffffff166118c68461064c565b73ffffffffffffffffffffffffffffffffffffffff16145b905080611917576040517f59c896be00000000000000000000000000000000000000000000000000000000815260040160405180910390fd5b8473ffffffffffffffffffffffffffffffffffffffff16826000015173ffffffffffffffffffffffffffffffffffffffff1614611980576040517fa114810000000000000000000000000000000000000000000000000000000000815260040160405180910390fd5b600073ffffffffffffffffffffffffffffffffffffffff168473ffffffffffffffffffffffffffffffffffffffff1614156119e7576040517fea553b3400000000000000000000000000000000000000000000000000000000815260040160405180910390fd5b6119f4858585600161221c565b611a046000848460000151611782565b6001600760008773ffffffffffffffffffffffffffffffffffffffff1673ffffffffffffffffffffffffffffffffffffffff16815260200190815260200160002060000160008282829054906101000a900467ffffffffffffffff160392506101000a81548167ffffffffffffffff021916908367ffffffffffffffff1602179055506001600760008673ffffffffffffffffffffffffffffffffffffffff1673ffffffffffffffffffffffffffffffffffffffff16815260200190815260200160002060000160008282829054906101000a900467ffffffffffffffff160192506101000a81548167ffffffffffffffff021916908367ffffffffffffffff160217905550836006600085815260200190815260200160002060000160006101000a81548173ffffffffffffffffffffffffffffffffffffffff021916908373ffffffffffffffffffffffffffffffffffffffff160217905550426006600085815260200190815260200160002060000160146101000a81548167ffffffffffffffff021916908367ffffffffffffffff1602179055506000600184019050600073ffffffffffffffffffffffffffffffffffffffff166006600083815260200190815260200160002060000160009054906101000a900473ffffffffffffffffffffffffffffffffffffffff1673ffffffffffffffffffffffffffffffffffffffff161415611cb557600154811015611cb45782600001516006600083815260200190815260200160002060000160006101000a81548173ffffffffffffffffffffffffffffffffffffffff021916908373ffffffffffffffffffffffffffffffffffffffff16021790555082602001516006600083815260200190815260200160002060000160146101000a81548167ffffffffffffffff021916908367ffffffffffffffff1602179055505b5b50828473ffffffffffffffffffffffffffffffffffffffff168673ffffffffffffffffffffffffffffffffffffffff167fddf252ad1be2c89b69c2b068fc378daa952ba7f163c4a11628f55a4df523b3ef60405160405180910390a4611d1e8585856001612222565b5050505050565b611d2d612228565b6000829050600154811015611f6a576000600660008381526020019081526020016000206040518060600160405290816000820160009054906101000a900473ffffffffffffffffffffffffffffffffffffffff1673ffffffffffffffffffffffffffffffffffffffff1673ffffffffffffffffffffffffffffffffffffffff1681526020016000820160149054906101000a900467ffffffffffffffff1667ffffffffffffffff1667ffffffffffffffff16815260200160008201601c9054906101000a900460ff16151515158152505090508060400151611f6857600073ffffffffffffffffffffffffffffffffffffffff16816000015173ffffffffffffffffffffffffffffffffffffffff1614611e4c578092505050611f9c565b5b600115611f6757818060019003925050600660008381526020019081526020016000206040518060600160405290816000820160009054906101000a900473ffffffffffffffffffffffffffffffffffffffff1673ffffffffffffffffffffffffffffffffffffffff1673ffffffffffffffffffffffffffffffffffffffff1681526020016000820160149054906101000a900467ffffffffffffffff1667ffffffffffffffff1667ffffffffffffffff16815260200160008201601c9054906101000a900460ff1615151515815250509050600073ffffffffffffffffffffffffffffffffffffffff16816000015173ffffffffffffffffffffffffffffffffffffffff1614611f62578092505050611f9c565b611e4d565b5b505b6040517fdf2d9b4200000000000000000000000000000000000000000000000000000000815260040160405180910390fd5b919050565b6000600560009054906101000a900460ff16158015611fde5750600a600084815260200190815260200160002060009054906101000a900460ff16155b1561204b576120028473ffffffffffffffffffffffffffffffffffffffff1661175f565b15612042576040517f08c379a00000000000000000000000000000000000000000000000000000000081526004016120399061273e565b60405180910390fd5b60019050612050565b600190505b949350505050565b606060405180602001604052806000815250905090565b606060008214156120b7576040518060400160405280600181526020017f30000000000000000000000000000000000000000000000000000000000000008152509050612217565b600082905060005b600082146120e95780806120d290612a2a565b915050600a826120e291906128ac565b91506120bf565b60008167ffffffffffffffff81111561212b577f4e487b7100000000000000000000000000000000000000000000000000000000600052604160045260246000fd5b6040519080825280601f01601f19166020018201604052801561215d5781602001600182028036833780820191505090505b5090505b600085146122105760018261217691906128dd565b9150600a856121859190612a73565b60306121919190612856565b60f81b8183815181106121cd577f4e487b7100000000000000000000000000000000000000000000000000000000600052603260045260246000fd5b60200101907effffffffffffffffffffffffffffffffffffffffffffffffffffffffffffff1916908160001a905350600a8561220991906128ac565b9450612161565b8093505050505b919050565b50505050565b50505050565b6040518060600160405280600073ffffffffffffffffffffffffffffffffffffffff168152602001600067ffffffffffffffff1681526020016000151581525090565b600061227e612279846127fe565b6127d9565b90508281526020810184848401111561229657600080fd5b6122a1848285612985565b509392505050565b6000813590506122b881612cb0565b92915050565b6000813590506122cd81612cc7565b92915050565b6000813590506122e281612cde565b92915050565b600082601f8301126122f957600080fd5b813561230984826020860161226b565b91505092915050565b60008135905061232181612cf5565b92915050565b60006020828403121561233957600080fd5b6000612347848285016122a9565b91505092915050565b6000806040838503121561236357600080fd5b6000612371858286016122a9565b9250506020612382858286016122a9565b9150509250929050565b6000806000606084860312156123a157600080fd5b60006123af868287016122a9565b93505060206123c0868287016122a9565b92505060406123d186828701612312565b9150509250925092565b600080600080608085870312156123f157600080fd5b60006123ff878288016122a9565b9450506020612410878288016122a9565b935050604061242187828801612312565b925050606085013567ffffffffffffffff81111561243e57600080fd5b61244a878288016122e8565b91505092959194509250565b6000806040838503121561246957600080fd5b6000612477858286016122a9565b9250506020612488858286016122be565b9150509250929050565b600080604083850312156124a557600080fd5b60006124b3858286016122a9565b92505060206124c485828601612312565b9150509250929050565b6000602082840312156124e057600080fd5b60006124ee848285016122d3565b91505092915050565b60006020828403121561250957600080fd5b600061251784828501612312565b91505092915050565b6000806040838503121561253357600080fd5b600061254185828601612312565b9250506020612552858286016122be565b9150509250929050565b61256581612911565b82525050565b61257481612923565b82525050565b60006125858261282f565b61258f818561283a565b935061259f818560208601612994565b6125a881612b60565b840191505092915050565b60006125be8261282f565b6125c8818561284b565b93506125d8818560208601612994565b80840191505092915050565b60006125f160268361283a565b91506125fc82612b71565b604082019050919050565b600061261460328361283a565b915061261f82612bc0565b604082019050919050565b6000612637600f8361283a565b915061264282612c0f565b602082019050919050565b600061265a60208361283a565b915061266582612c38565b602082019050919050565b600061267d602f8361283a565b915061268882612c61565b604082019050919050565b61269c8161297b565b82525050565b60006126ae82856125b3565b91506126ba82846125b3565b91508190509392505050565b60006020820190506126db600083018461255c565b92915050565b60006020820190506126f6600083018461256b565b92915050565b60006020820190508181036000830152612716818461257a565b905092915050565b60006020820190508181036000830152612737816125e4565b9050919050565b6000602082019050818103600083015261275781612607565b9050919050565b600060208201905081810360008301526127778161262a565b9050919050565b600060208201905081810360008301526127978161264d565b9050919050565b600060208201905081810360008301526127b781612670565b9050919050565b60006020820190506127d36000830184612693565b92915050565b60006127e36127f4565b90506127ef82826129f9565b919050565b6000604051905090565b600067ffffffffffffffff82111561281957612818612b31565b5b61282282612b60565b9050602081019050919050565b600081519050919050565b600082825260208201905092915050565b600081905092915050565b60006128618261297b565b915061286c8361297b565b9250827fffffffffffffffffffffffffffffffffffffffffffffffffffffffffffffffff038211156128a1576128a0612aa4565b5b828201905092915050565b60006128b78261297b565b91506128c28361297b565b9250826128d2576128d1612ad3565b5b828204905092915050565b60006128e88261297b565b91506128f38361297b565b92508282101561290657612905612aa4565b5b828203905092915050565b600061291c8261295b565b9050919050565b60008115159050919050565b60007fffffffff0000000000000000000000000000000000000000000000000000000082169050919050565b600073ffffffffffffffffffffffffffffffffffffffff82169050919050565b6000819050919050565b82818337600083830152505050565b60005b838110156129b2578082015181840152602081019050612997565b838111156129c1576000848401525b50505050565b600060028204905060018216806129df57607f821691505b602082108114156129f3576129f2612b02565b5b50919050565b612a0282612b60565b810181811067ffffffffffffffff82111715612a2157612a20612b31565b5b80604052505050565b6000612a358261297b565b91507fffffffffffffffffffffffffffffffffffffffffffffffffffffffffffffffff821415612a6857612a67612aa4565b5b600182019050919050565b6000612a7e8261297b565b9150612a898361297b565b925082612a9957612a98612ad3565b5b828206905092915050565b7f4e487b7100000000000000000000000000000000000000000000000000000000600052601160045260246000fd5b7f4e487b7100000000000000000000000000000000000000000000000000000000600052601260045260246000fd5b7f4e487b7100000000000000000000000000000000000000000000000000000000600052602260045260246000fd5b7f4e487b7100000000000000000000000000000000000000000000000000000000600052604160045260246000fd5b6000601f19601f8301169050919050565b7f4f776e61626c653a206e6577206f776e657220697320746865207a65726f206160008201527f6464726573730000000000000000000000000000000000000000000000000000602082015250565b7f546f6b656e207472616e7366657220746f20636f6e747261637420616464726560008201527f7373206973206e6f7420616c6c6f7765642e0000000000000000000000000000602082015250565b7f496e76616c696420546f6b656e49640000000000000000000000000000000000600082015250565b7f4f776e61626c653a2063616c6c6572206973206e6f7420746865206f776e6572600082015250565b7f4552433732314d657461646174613a2055524920717565727920666f72206e6f60008201527f6e6578697374656e7420746f6b656e0000000000000000000000000000000000602082015250565b612cb981612911565b8114612cc457600080fd5b50565b612cd081612923565b8114612cdb57600080fd5b50565b612ce78161292f565b8114612cf257600080fd5b50565b612cfe8161297b565b8114612d0957600080fd5b5056fea26469706673582212207848d8e8284ff2dfc0efff5345c9502c22ef24fa18133d392efb5f8325a6970c64736f6c63430008040033",
  "linkReferences": {},
  "deployedLinkReferences": {}
}