{
  "_format": "hh-sol-artifact-1",
  "contractName": "FelineSoulmate",
  "sourceName": "contracts/felinesoulmate.sol",
  "abi": [
    {
      "inputs": [],
      "stateMutability": "nonpayable",
      "type": "constructor"
    },
    {
      "inputs": [],
      "name": "ApprovalCallerNotOwnerNorApproved",
      "type": "error"
    },
    {
      "inputs": [],
      "name": "ApprovalQueryForNonexistentToken",
      "type": "error"
    },
    {
      "inputs": [],
      "name": "ApprovalToCurrentOwner",
      "type": "error"
    },
    {
      "inputs": [],
      "name": "ApproveToCaller",
      "type": "error"
    },
    {
      "inputs": [],
      "name": "BalanceQueryForZeroAddress",
      "type": "error"
    },
    {
      "inputs": [],
      "name": "MintToZeroAddress",
      "type": "error"
    },
    {
      "inputs": [],
      "name": "MintZeroQuantity",
      "type": "error"
    },
    {
      "inputs": [],
      "name": "OwnerIndexOutOfBounds",
      "type": "error"
    },
    {
      "inputs": [],
      "name": "OwnerQueryForNonexistentToken",
      "type": "error"
    },
    {
      "inputs": [],
      "name": "TokenIndexOutOfBounds",
      "type": "error"
    },
    {
      "inputs": [],
      "name": "TransferCallerNotOwnerNorApproved",
      "type": "error"
    },
    {
      "inputs": [],
      "name": "TransferFromIncorrectOwner",
      "type": "error"
    },
    {
      "inputs": [],
      "name": "TransferToNonERC721ReceiverImplementer",
      "type": "error"
    },
    {
      "inputs": [],
      "name": "TransferToZeroAddress",
      "type": "error"
    },
    {
      "anonymous": false,
      "inputs": [
        {
          "indexed": true,
          "internalType": "address",
          "name": "owner",
          "type": "address"
        },
        {
          "indexed": true,
          "internalType": "address",
          "name": "approved",
          "type": "address"
        },
        {
          "indexed": true,
          "internalType": "uint256",
          "name": "tokenId",
          "type": "uint256"
        }
      ],
      "name": "Approval",
      "type": "event"
    },
    {
      "anonymous": false,
      "inputs": [
        {
          "indexed": true,
          "internalType": "address",
          "name": "owner",
          "type": "address"
        },
        {
          "indexed": true,
          "internalType": "address",
          "name": "operator",
          "type": "address"
        },
        {
          "indexed": false,
          "internalType": "bool",
          "name": "approved",
          "type": "bool"
        }
      ],
      "name": "ApprovalForAll",
      "type": "event"
    },
    {
      "anonymous": false,
      "inputs": [
        {
          "indexed": false,
          "internalType": "uint256",
          "name": "totalMinted",
          "type": "uint256"
        }
      ],
      "name": "Minted",
      "type": "event"
    },
    {
      "anonymous": false,
      "inputs": [
        {
          "indexed": true,
          "internalType": "address",
          "name": "previousOwner",
          "type": "address"
        },
        {
          "indexed": true,
          "internalType": "address",
          "name": "newOwner",
          "type": "address"
        }
      ],
      "name": "OwnershipTransferred",
      "type": "event"
    },
    {
      "anonymous": false,
      "inputs": [
        {
          "indexed": true,
          "internalType": "address",
          "name": "from",
          "type": "address"
        },
        {
          "indexed": true,
          "internalType": "address",
          "name": "to",
          "type": "address"
        },
        {
          "indexed": true,
          "internalType": "uint256",
          "name": "tokenId",
          "type": "uint256"
        }
      ],
      "name": "Transfer",
      "type": "event"
    },
    {
      "inputs": [
        {
          "internalType": "uint256",
          "name": "",
          "type": "uint256"
        }
      ],
      "name": "_transferToContract",
      "outputs": [
        {
          "internalType": "bool",
          "name": "",
          "type": "bool"
        }
      ],
      "stateMutability": "view",
      "type": "function"
    },
    {
      "inputs": [
        {
          "internalType": "address",
          "name": "",
          "type": "address"
        }
      ],
      "name": "addressMintedBalance",
      "outputs": [
        {
          "internalType": "uint256",
          "name": "",
          "type": "uint256"
        }
      ],
      "stateMutability": "view",
      "type": "function"
    },
    {
      "inputs": [],
      "name": "allowedToContract",
      "outputs": [
        {
          "internalType": "bool",
          "name": "",
          "type": "bool"
        }
      ],
      "stateMutability": "view",
      "type": "function"
    },
    {
      "inputs": [
        {
          "internalType": "address",
          "name": "to",
          "type": "address"
        },
        {
          "internalType": "uint256",
          "name": "tokenId",
          "type": "uint256"
        }
      ],
      "name": "approve",
      "outputs": [],
      "stateMutability": "nonpayable",
      "type": "function"
    },
    {
      "inputs": [
        {
          "internalType": "address",
          "name": "owner",
          "type": "address"
        }
      ],
      "name": "balanceOf",
      "outputs": [
        {
          "internalType": "uint256",
          "name": "",
          "type": "uint256"
        }
      ],
      "stateMutability": "view",
      "type": "function"
    },
    {
      "inputs": [
        {
          "internalType": "uint256",
          "name": "_newMaxMintPerTx",
          "type": "uint256"
        }
      ],
      "name": "changeMaxMintPerTx",
      "outputs": [],
      "stateMutability": "nonpayable",
      "type": "function"
    },
    {
      "inputs": [
        {
          "internalType": "uint256",
          "name": "_newMaxMintPerWallet",
          "type": "uint256"
        }
      ],
      "name": "changeMaxMintPerWallet",
      "outputs": [],
      "stateMutability": "nonpayable",
      "type": "function"
    },
    {
      "inputs": [
        {
          "internalType": "uint256",
          "name": "_newMaxSupply",
          "type": "uint256"
        }
      ],
      "name": "changeMaxSupply",
      "outputs": [],
      "stateMutability": "nonpayable",
      "type": "function"
    },
    {
      "inputs": [
        {
          "internalType": "uint256",
          "name": "_newPrice",
          "type": "uint256"
        }
      ],
      "name": "changePrice",
      "outputs": [],
      "stateMutability": "nonpayable",
      "type": "function"
    },
    {
      "inputs": [
        {
          "internalType": "uint256",
          "name": "tokenId",
          "type": "uint256"
        }
      ],
      "name": "getApproved",
      "outputs": [
        {
          "internalType": "address",
          "name": "",
          "type": "address"
        }
      ],
      "stateMutability": "view",
      "type": "function"
    },
    {
      "inputs": [
        {
          "internalType": "address",
          "name": "owner",
          "type": "address"
        },
        {
          "internalType": "address",
          "name": "operator",
          "type": "address"
        }
      ],
      "name": "isApprovedForAll",
      "outputs": [
        {
          "internalType": "bool",
          "name": "",
          "type": "bool"
        }
      ],
      "stateMutability": "view",
      "type": "function"
    },
    {
      "inputs": [],
      "name": "isPrivateMintEnabled",
      "outputs": [
        {
          "internalType": "bool",
          "name": "",
          "type": "bool"
        }
      ],
      "stateMutability": "view",
      "type": "function"
    },
    {
      "inputs": [],
      "name": "isPublicMintEnabled",
      "outputs": [
        {
          "internalType": "bool",
          "name": "",
          "type": "bool"
        }
      ],
      "stateMutability": "view",
      "type": "function"
    },
    {
      "inputs": [],
      "name": "isRevealed",
      "outputs": [
        {
          "internalType": "bool",
          "name": "",
          "type": "bool"
        }
      ],
      "stateMutability": "view",
      "type": "function"
    },
    {
      "inputs": [],
      "name": "maxMintPerTx",
      "outputs": [
        {
          "internalType": "uint256",
          "name": "",
          "type": "uint256"
        }
      ],
      "stateMutability": "view",
      "type": "function"
    },
    {
      "inputs": [],
      "name": "maxMintPerWallet",
      "outputs": [
        {
          "internalType": "uint256",
          "name": "",
          "type": "uint256"
        }
      ],
      "stateMutability": "view",
      "type": "function"
    },
    {
      "inputs": [],
      "name": "maxSupply",
      "outputs": [
        {
          "internalType": "uint256",
          "name": "",
          "type": "uint256"
        }
      ],
      "stateMutability": "view",
      "type": "function"
    },
    {
      "inputs": [
        {
          "internalType": "uint256",
          "name": "_count",
          "type": "uint256"
        }
      ],
      "name": "mint",
      "outputs": [],
      "stateMutability": "payable",
      "type": "function"
    },
    {
      "inputs": [],
      "name": "name",
      "outputs": [
        {
          "internalType": "string",
          "name": "",
          "type": "string"
        }
      ],
      "stateMutability": "view",
      "type": "function"
    },
    {
      "inputs": [],
      "name": "owner",
      "outputs": [
        {
          "internalType": "address",
          "name": "",
          "type": "address"
        }
      ],
      "stateMutability": "view",
      "type": "function"
    },
    {
      "inputs": [
        {
          "internalType": "uint256",
          "name": "tokenId",
          "type": "uint256"
        }
      ],
      "name": "ownerOf",
      "outputs": [
        {
          "internalType": "address",
          "name": "",
          "type": "address"
        }
      ],
      "stateMutability": "view",
      "type": "function"
    },
    {
      "inputs": [],
      "name": "price",
      "outputs": [
        {
          "internalType": "uint256",
          "name": "",
          "type": "uint256"
        }
      ],
      "stateMutability": "view",
      "type": "function"
    },
    {
      "inputs": [
        {
          "internalType": "bytes32[]",
          "name": "_merkleProof",
          "type": "bytes32[]"
        },
        {
          "internalType": "uint256",
          "name": "_count",
          "type": "uint256"
        }
      ],
      "name": "privateMint",
      "outputs": [],
      "stateMutability": "payable",
      "type": "function"
    },
    {
      "inputs": [],
      "name": "privateMintMerkleRoot",
      "outputs": [
        {
          "internalType": "bytes32",
          "name": "",
          "type": "bytes32"
        }
      ],
      "stateMutability": "view",
      "type": "function"
    },
    {
      "inputs": [
        {
          "internalType": "address",
          "name": "",
          "type": "address"
        }
      ],
      "name": "privateMintParticipants",
      "outputs": [
        {
          "internalType": "bool",
          "name": "",
          "type": "bool"
        }
      ],
      "stateMutability": "view",
      "type": "function"
    },
    {
      "inputs": [],
      "name": "renounceOwnership",
      "outputs": [],
      "stateMutability": "nonpayable",
      "type": "function"
    },
    {
      "inputs": [
        {
          "internalType": "address",
          "name": "from",
          "type": "address"
        },
        {
          "internalType": "address",
          "name": "to",
          "type": "address"
        },
        {
          "internalType": "uint256",
          "name": "tokenId",
          "type": "uint256"
        }
      ],
      "name": "safeTransferFrom",
      "outputs": [],
      "stateMutability": "nonpayable",
      "type": "function"
    },
    {
      "inputs": [
        {
          "internalType": "address",
          "name": "from",
          "type": "address"
        },
        {
          "internalType": "address",
          "name": "to",
          "type": "address"
        },
        {
          "internalType": "uint256",
          "name": "tokenId",
          "type": "uint256"
        },
        {
          "internalType": "bytes",
          "name": "_data",
          "type": "bytes"
        }
      ],
      "name": "safeTransferFrom",
      "outputs": [],
      "stateMutability": "nonpayable",
      "type": "function"
    },
    {
      "inputs": [],
      "name": "setAllowToContract",
      "outputs": [],
      "stateMutability": "nonpayable",
      "type": "function"
    },
    {
      "inputs": [
        {
          "internalType": "uint256",
          "name": "_tokenId",
          "type": "uint256"
        },
        {
          "internalType": "bool",
          "name": "_allow",
          "type": "bool"
        }
      ],
      "name": "setAllowTokenToContract",
      "outputs": [],
      "stateMutability": "nonpayable",
      "type": "function"
    },
    {
      "inputs": [
        {
          "internalType": "address",
          "name": "operator",
          "type": "address"
        },
        {
          "internalType": "bool",
          "name": "approved",
          "type": "bool"
        }
      ],
      "name": "setApprovalForAll",
      "outputs": [],
      "stateMutability": "nonpayable",
      "type": "function"
    },
    {
      "inputs": [
        {
          "internalType": "string",
          "name": "_hiddenMetadataUri",
          "type": "string"
        }
      ],
      "name": "setHiddenMetadataUri",
      "outputs": [],
      "stateMutability": "nonpayable",
      "type": "function"
    },
    {
      "inputs": [
        {
          "internalType": "bool",
          "name": "isPrivateMintEnabled_",
          "type": "bool"
        }
      ],
      "name": "setIsPrivateMintEnabled",
      "outputs": [],
      "stateMutability": "nonpayable",
      "type": "function"
    },
    {
      "inputs": [
        {
          "internalType": "bool",
          "name": "isPublicMintEnabled_",
          "type": "bool"
        }
      ],
      "name": "setIsPublicMintEnabled",
      "outputs": [],
      "stateMutability": "nonpayable",
      "type": "function"
    },
    {
      "inputs": [
        {
          "internalType": "bool",
          "name": "_state",
          "type": "bool"
        }
      ],
      "name": "setIsRevealed",
      "outputs": [],
      "stateMutability": "nonpayable",
      "type": "function"
    },
    {
      "inputs": [
        {
          "internalType": "uint256",
          "name": "_maxMintPerTx",
          "type": "uint256"
        }
      ],
      "name": "setMaxMintPerTx",
      "outputs": [],
      "stateMutability": "nonpayable",
      "type": "function"
    },
    {
      "inputs": [
        {
          "internalType": "uint256",
          "name": "_maxMintPerWallet",
          "type": "uint256"
        }
      ],
      "name": "setMaxMintPerWallet",
      "outputs": [],
      "stateMutability": "nonpayable",
      "type": "function"
    },
    {
      "inputs": [
        {
          "internalType": "bytes32",
          "name": "_privateMintMerkleRoot",
          "type": "bytes32"
        }
      ],
      "name": "setPrivateMintMerkleRoot",
      "outputs": [],
      "stateMutability": "nonpayable",
      "type": "function"
    },
    {
      "inputs": [
        {
          "internalType": "string",
          "name": "_uriPrefix",
          "type": "string"
        }
      ],
      "name": "setUriPrefix",
      "outputs": [],
      "stateMutability": "nonpayable",
      "type": "function"
    },
    {
      "inputs": [
        {
          "internalType": "string",
          "name": "_uriSuffix",
          "type": "string"
        }
      ],
      "name": "setUriSuffix",
      "outputs": [],
      "stateMutability": "nonpayable",
      "type": "function"
    },
    {
      "inputs": [
        {
          "internalType": "address",
          "name": "withdrawWalletAddress_",
          "type": "address"
        }
      ],
      "name": "setWithdrawWallet",
      "outputs": [],
      "stateMutability": "nonpayable",
      "type": "function"
    },
    {
      "inputs": [
        {
          "internalType": "bytes4",
          "name": "interfaceId",
          "type": "bytes4"
        }
      ],
      "name": "supportsInterface",
      "outputs": [
        {
          "internalType": "bool",
          "name": "",
          "type": "bool"
        }
      ],
      "stateMutability": "view",
      "type": "function"
    },
    {
      "inputs": [],
      "name": "symbol",
      "outputs": [
        {
          "internalType": "string",
          "name": "",
          "type": "string"
        }
      ],
      "stateMutability": "view",
      "type": "function"
    },
    {
      "inputs": [
        {
          "internalType": "address[]",
          "name": "tos",
          "type": "address[]"
        }
      ],
      "name": "teamMint",
      "outputs": [],
      "stateMutability": "nonpayable",
      "type": "function"
    },
    {
      "inputs": [
        {
          "internalType": "uint256",
          "name": "index",
          "type": "uint256"
        }
      ],
      "name": "tokenByIndex",
      "outputs": [
        {
          "internalType": "uint256",
          "name": "",
          "type": "uint256"
        }
      ],
      "stateMutability": "view",
      "type": "function"
    },
    {
      "inputs": [
        {
          "internalType": "address",
          "name": "owner",
          "type": "address"
        },
        {
          "internalType": "uint256",
          "name": "index",
          "type": "uint256"
        }
      ],
      "name": "tokenOfOwnerByIndex",
      "outputs": [
        {
          "internalType": "uint256",
          "name": "",
          "type": "uint256"
        }
      ],
      "stateMutability": "view",
      "type": "function"
    },
    {
      "inputs": [
        {
          "internalType": "uint256",
          "name": "_tokenId",
          "type": "uint256"
        }
      ],
      "name": "tokenURI",
      "outputs": [
        {
          "internalType": "string",
          "name": "",
          "type": "string"
        }
      ],
      "stateMutability": "nonpayable",
      "type": "function"
    },
    {
      "inputs": [],
      "name": "totalSupply",
      "outputs": [
        {
          "internalType": "uint256",
          "name": "",
          "type": "uint256"
        }
      ],
      "stateMutability": "view",
      "type": "function"
    },
    {
      "inputs": [
        {
          "internalType": "address",
          "name": "from",
          "type": "address"
        },
        {
          "internalType": "address",
          "name": "to",
          "type": "address"
        },
        {
          "internalType": "uint256",
          "name": "tokenId",
          "type": "uint256"
        }
      ],
      "name": "transferFrom",
      "outputs": [],
      "stateMutability": "nonpayable",
      "type": "function"
    },
    {
      "inputs": [
        {
          "internalType": "address",
          "name": "newOwner",
          "type": "address"
        }
      ],
      "name": "transferOwnership",
      "outputs": [],
      "stateMutability": "nonpayable",
      "type": "function"
    },
    {
      "inputs": [],
      "name": "uriSuffix",
      "outputs": [
        {
          "internalType": "string",
          "name": "",
          "type": "string"
        }
      ],
      "stateMutability": "view",
      "type": "function"
    },
    {
      "inputs": [
        {
          "internalType": "address",
          "name": "_owner",
          "type": "address"
        }
      ],
      "name": "walletOfOwner",
      "outputs": [
        {
          "internalType": "uint256[]",
          "name": "",
          "type": "uint256[]"
        }
      ],
      "stateMutability": "view",
      "type": "function"
    },
    {
      "inputs": [],
      "name": "withdraw",
      "outputs": [],
      "stateMutability": "nonpayable",
      "type": "function"
    },
    {
      "inputs": [],
      "name": "withdrawWallet",
      "outputs": [
        {
          "internalType": "address payable",
          "name": "",
          "type": "address"
        }
      ],
      "stateMutability": "view",
      "type": "function"
    }
  ],
  "bytecode": "0x6080604052600180556000600560006101000a81548160ff02191690831515021790555060405180602001604052806000815250600e90805190602001906200004a929190620003d2565b506040518060400160405280600581526020017f2e6a736f6e000000000000000000000000000000000000000000000000000000815250600f908051906020019062000098929190620003d2565b506115b360115560006012556005601355600560145567016345785d8a00006015556001601760146101000a81548160ff0219169083151502179055506001601760156101000a81548160ff0219169083151502179055506000601760166101000a81548160ff0219169083151502179055503480156200011857600080fd5b506040518060400160405280600e81526020017f46656c696e65536f756c6d6174650000000000000000000000000000000000008152506040518060400160405280600281526020017f4653000000000000000000000000000000000000000000000000000000000000815250600062000197620002f660201b60201c565b9050806000806101000a81548173ffffffffffffffffffffffffffffffffffffffff021916908373ffffffffffffffffffffffffffffffffffffffff1602179055508073ffffffffffffffffffffffffffffffffffffffff16600073ffffffffffffffffffffffffffffffffffffffff167f8be0079c531659141344cd1fd0a4f28419497f9722a3daafe3b4186f6b6457e060405160405180910390a35081600390805190602001906200024d929190620003d2565b50806004908051906020019062000266929190620003d2565b50505033601760006101000a81548173ffffffffffffffffffffffffffffffffffffffff021916908373ffffffffffffffffffffffffffffffffffffffff160217905550620002f06040518060400160405280601a81526020017f697066733a2f2f5f5f4349445f5f2f68696464656e2e6a736f6e000000000000815250620002fe60201b60201c565b6200056a565b600033905090565b6200030e620002f660201b60201c565b73ffffffffffffffffffffffffffffffffffffffff1662000334620003a960201b60201c565b73ffffffffffffffffffffffffffffffffffffffff16146200038d576040517f08c379a00000000000000000000000000000000000000000000000000000000081526004016200038490620004a9565b60405180910390fd5b8060109080519060200190620003a5929190620003d2565b5050565b60008060009054906101000a900473ffffffffffffffffffffffffffffffffffffffff16905090565b828054620003e090620004dc565b90600052602060002090601f01602090048101928262000404576000855562000450565b82601f106200041f57805160ff191683800117855562000450565b8280016001018555821562000450579182015b828111156200044f57825182559160200191906001019062000432565b5b5090506200045f919062000463565b5090565b5b808211156200047e57600081600090555060010162000464565b5090565b600062000491602083620004cb565b91506200049e8262000541565b602082019050919050565b60006020820190508181036000830152620004c48162000482565b9050919050565b600082825260208201905092915050565b60006002820490506001821680620004f557607f821691505b602082108114156200050c576200050b62000512565b5b50919050565b7f4e487b7100000000000000000000000000000000000000000000000000000000600052602260045260246000fd5b7f4f776e61626c653a2063616c6c6572206973206e6f7420746865206f776e6572600082015250565b615b4f806200057a6000396000f3fe6080604052600436106103355760003560e01c8063616cdb1e116101ab578063a0712d68116100f7578063c87b56dd11610095578063e80d1a1c1161006f578063e80d1a1c14610be4578063e985e9c514610c0f578063f002858514610c4c578063f2fde38b14610c7557610335565b8063c87b56dd14610b51578063d5abeb0114610b8e578063de7fcb1d14610bb957610335565b8063afdf6134116100d1578063afdf613414610a97578063b228d92514610ac0578063b88d4fde14610aeb578063c080519714610b1457610335565b8063a0712d6814610a29578063a22cb46514610a45578063a2b40d1914610a6e57610335565b806385d178f41161016457806395d89b411161013e57806395d89b411461097f5780639ad01e6f146109aa5780639e8b30eb146109d3578063a035b1fe146109fe57610335565b806385d178f4146109005780638da5cb5b1461092b5780639373f4321461095657610335565b8063616cdb1e146108065780636352211e1461082f57806370a082311461086c578063715018a6146108a95780637ec4a659146108c0578063801fe59b146108e957610335565b806328818b96116102855780634aaf78f11161022357806354214f69116101fd57806354214f691461075e5780635503a0e814610789578063559e75b3146107b457806355a55465146107dd57610335565b80634aaf78f1146106cd5780634f6ccce7146106f85780634fdd43cb1461073557610335565b8063404c7cdd1161025f578063404c7cdd1461061557806342842e0e1461063e578063438b63001461066757806349a5980a146106a457610335565b806328818b96146105a55780632f745c59146105c15780633ccfd60b146105fe57610335565b80631465f531116102f257806318cae269116102cc57806318cae269146104d95780631d778165146105165780632373ac221461055357806323b872dd1461057c57610335565b80631465f5311461045c57806316ba10e01461048557806318160ddd146104ae57610335565b80630116bc2d1461033a57806301ffc9a71461036557806306fdde03146103a2578063081812fc146103cd57806308ea92651461040a578063095ea7b314610433575b600080fd5b34801561034657600080fd5b5061034f610c9e565b60405161035c9190615010565b60405180910390f35b34801561037157600080fd5b5061038c60048036038101906103879190614a88565b610cb1565b6040516103999190615010565b60405180910390f35b3480156103ae57600080fd5b506103b7610dfb565b6040516103c49190615046565b60405180910390f35b3480156103d957600080fd5b506103f460048036038101906103ef9190614af2565b610e8d565b6040516104019190614fb8565b60405180910390f35b34801561041657600080fd5b50610431600480360381019061042c9190614af2565b610f09565b005b34801561043f57600080fd5b5061045a60048036038101906104559190614961565b610f8f565b005b34801561046857600080fd5b50610483600480360381019061047e9190614a5f565b61114a565b005b34801561049157600080fd5b506104ac60048036038101906104a79190614ab1565b6111d0565b005b3480156104ba57600080fd5b506104c3611266565b6040516104d09190615248565b60405180910390f35b3480156104e557600080fd5b5061050060048036038101906104fb91906147f6565b611270565b60405161050d9190615248565b60405180910390f35b34801561052257600080fd5b5061053d600480360381019061053891906147f6565b611288565b60405161054a9190615010565b60405180910390f35b34801561055f57600080fd5b5061057a60048036038101906105759190614a36565b6112a8565b005b34801561058857600080fd5b506105a3600480360381019061059e919061485b565b611341565b005b6105bf60048036038101906105ba91906149de565b611351565b005b3480156105cd57600080fd5b506105e860048036038101906105e39190614961565b611861565b6040516105f59190615248565b60405180910390f35b34801561060a57600080fd5b50610613611a3b565b005b34801561062157600080fd5b5061063c60048036038101906106379190614af2565b611b88565b005b34801561064a57600080fd5b506106656004803603810190610660919061485b565b611c0e565b005b34801561067357600080fd5b5061068e600480360381019061068991906147f6565b611c2e565b60405161069b9190614fee565b60405180910390f35b3480156106b057600080fd5b506106cb60048036038101906106c69190614a36565b611d85565b005b3480156106d957600080fd5b506106e2611e1e565b6040516106ef9190615010565b60405180910390f35b34801561070457600080fd5b5061071f600480360381019061071a9190614af2565b611e31565b60405161072c9190615248565b60405180910390f35b34801561074157600080fd5b5061075c60048036038101906107579190614ab1565b611f76565b005b34801561076a57600080fd5b5061077361200c565b6040516107809190615010565b60405180910390f35b34801561079557600080fd5b5061079e61201f565b6040516107ab9190615046565b60405180910390f35b3480156107c057600080fd5b506107db60048036038101906107d69190614a36565b6120ad565b005b3480156107e957600080fd5b5061080460048036038101906107ff9190614b1b565b612146565b005b34801561081257600080fd5b5061082d60048036038101906108289190614af2565b6121f1565b005b34801561083b57600080fd5b5061085660048036038101906108519190614af2565b612277565b6040516108639190614fb8565b60405180910390f35b34801561087857600080fd5b50610893600480360381019061088e91906147f6565b61228d565b6040516108a09190615248565b60405180910390f35b3480156108b557600080fd5b506108be61235d565b005b3480156108cc57600080fd5b506108e760048036038101906108e29190614ab1565b612497565b005b3480156108f557600080fd5b506108fe61252d565b005b34801561090c57600080fd5b506109156125d5565b6040516109229190614fd3565b60405180910390f35b34801561093757600080fd5b506109406125fb565b60405161094d9190614fb8565b60405180910390f35b34801561096257600080fd5b5061097d600480360381019061097891906147f6565b612624565b005b34801561098b57600080fd5b506109946126e4565b6040516109a19190615046565b60405180910390f35b3480156109b657600080fd5b506109d160048036038101906109cc9190614af2565b612776565b005b3480156109df57600080fd5b506109e86127fc565b6040516109f5919061502b565b60405180910390f35b348015610a0a57600080fd5b50610a13612802565b604051610a209190615248565b60405180910390f35b610a436004803603810190610a3e9190614af2565b612808565b005b348015610a5157600080fd5b50610a6c6004803603810190610a679190614925565b612b77565b005b348015610a7a57600080fd5b50610a956004803603810190610a909190614af2565b612e6f565b005b348015610aa357600080fd5b50610abe6004803603810190610ab99190614af2565b612ef5565b005b348015610acc57600080fd5b50610ad5612f7b565b604051610ae29190615248565b60405180910390f35b348015610af757600080fd5b50610b126004803603810190610b0d91906148aa565b612f81565b005b348015610b2057600080fd5b50610b3b6004803603810190610b369190614af2565b612fd4565b604051610b489190615010565b60405180910390f35b348015610b5d57600080fd5b50610b786004803603810190610b739190614af2565b612ff4565b604051610b859190615046565b60405180910390f35b348015610b9a57600080fd5b50610ba361314d565b604051610bb09190615248565b60405180910390f35b348015610bc557600080fd5b50610bce613153565b604051610bdb9190615248565b60405180910390f35b348015610bf057600080fd5b50610bf9613159565b604051610c069190615010565b60405180910390f35b348015610c1b57600080fd5b50610c366004803603810190610c31919061481f565b61316c565b604051610c439190615010565b60405180910390f35b348015610c5857600080fd5b50610c736004803603810190610c6e919061499d565b613200565b005b348015610c8157600080fd5b50610c9c6004803603810190610c9791906147f6565b6132ea565b005b601760169054906101000a900460ff1681565b60007f80ac58cd000000000000000000000000000000000000000000000000000000007bffffffffffffffffffffffffffffffffffffffffffffffffffffffff1916827bffffffffffffffffffffffffffffffffffffffffffffffffffffffff19161480610d7c57507f5b5e139f000000000000000000000000000000000000000000000000000000007bffffffffffffffffffffffffffffffffffffffffffffffffffffffff1916827bffffffffffffffffffffffffffffffffffffffffffffffffffffffff1916145b80610de457507f780e9d63000000000000000000000000000000000000000000000000000000007bffffffffffffffffffffffffffffffffffffffffffffffffffffffff1916827bffffffffffffffffffffffffffffffffffffffffffffffffffffffff1916145b80610df45750610df382613493565b5b9050919050565b606060038054610e0a9061557d565b80601f0160208091040260200160405190810160405280929190818152602001828054610e369061557d565b8015610e835780601f10610e5857610100808354040283529160200191610e83565b820191906000526020600020905b815481529060010190602001808311610e6657829003601f168201915b5050505050905090565b6000610e98826134fd565b610ece576040517fcf4700e400000000000000000000000000000000000000000000000000000000815260040160405180910390fd5b6008600083815260200190815260200160002060009054906101000a900473ffffffffffffffffffffffffffffffffffffffff169050919050565b610f1161357a565b73ffffffffffffffffffffffffffffffffffffffff16610f2f6125fb565b73ffffffffffffffffffffffffffffffffffffffff1614610f85576040517f08c379a0000000000000000000000000000000000000000000000000000000008152600401610f7c906151a8565b60405180910390fd5b8060148190555050565b6000610f9a82612277565b90508073ffffffffffffffffffffffffffffffffffffffff168373ffffffffffffffffffffffffffffffffffffffff161415611002576040517f943f7b8c00000000000000000000000000000000000000000000000000000000815260040160405180910390fd5b8073ffffffffffffffffffffffffffffffffffffffff1661102161357a565b73ffffffffffffffffffffffffffffffffffffffff161415801561105357506110518161104c61357a565b61316c565b155b1561108a576040517fcfb3b94200000000000000000000000000000000000000000000000000000000815260040160405180910390fd5b600560009054906101000a900460ff161580156110c55750600a600083815260200190815260200160002060009054906101000a900460ff16155b15611139576110e98373ffffffffffffffffffffffffffffffffffffffff16613582565b15611129576040517f08c379a0000000000000000000000000000000000000000000000000000000008152600401611120906150e8565b60405180910390fd5b6111348383836135a5565b611145565b6111448383836135a5565b5b505050565b61115261357a565b73ffffffffffffffffffffffffffffffffffffffff166111706125fb565b73ffffffffffffffffffffffffffffffffffffffff16146111c6576040517f08c379a00000000000000000000000000000000000000000000000000000000081526004016111bd906151a8565b60405180910390fd5b8060188190555050565b6111d861357a565b73ffffffffffffffffffffffffffffffffffffffff166111f66125fb565b73ffffffffffffffffffffffffffffffffffffffff161461124c576040517f08c379a0000000000000000000000000000000000000000000000000000000008152600401611243906151a8565b60405180910390fd5b80600f90805190602001906112629291906144f7565b5050565b6000601254905090565b60166020528060005260406000206000915090505481565b60196020528060005260406000206000915054906101000a900460ff1681565b6112b061357a565b73ffffffffffffffffffffffffffffffffffffffff166112ce6125fb565b73ffffffffffffffffffffffffffffffffffffffff1614611324576040517f08c379a000000000000000000000000000000000000000000000000000000000815260040161131b906151a8565b60405180910390fd5b80601760166101000a81548160ff02191690831515021790555050565b61134c838383613657565b505050565b601760169054906101000a900460ff16156113a1576040517f08c379a0000000000000000000000000000000000000000000000000000000008152600401611398906150c8565b60405180910390fd5b3373ffffffffffffffffffffffffffffffffffffffff163273ffffffffffffffffffffffffffffffffffffffff161461140f576040517f08c379a0000000000000000000000000000000000000000000000000000000008152600401611406906150a8565b60405180910390fd5b6011548161141b611266565b6114259190615396565b1115611466576040517f08c379a000000000000000000000000000000000000000000000000000000000815260040161145d906151e8565b60405180910390fd5b600081116114a9576040517f08c379a00000000000000000000000000000000000000000000000000000000081526004016114a090615068565b60405180910390fd5b601960003373ffffffffffffffffffffffffffffffffffffffff1673ffffffffffffffffffffffffffffffffffffffff16815260200190815260200160002060009054906101000a900460ff1615611536576040517f08c379a000000000000000000000000000000000000000000000000000000000815260040161152d90615148565b60405180910390fd5b61153e6125fb565b73ffffffffffffffffffffffffffffffffffffffff163373ffffffffffffffffffffffffffffffffffffffff161461169b576013548111156115b5576040517f08c379a00000000000000000000000000000000000000000000000000000000081526004016115ac90615208565b60405180910390fd5b806015546115c3919061541d565b341015611605576040517f08c379a00000000000000000000000000000000000000000000000000000000081526004016115fc90615188565b60405180910390fd5b6000601660003373ffffffffffffffffffffffffffffffffffffffff1673ffffffffffffffffffffffffffffffffffffffff16815260200190815260200160002054905060145482826116589190615396565b1115611699576040517f08c379a000000000000000000000000000000000000000000000000000000000815260040161169090615128565b60405180910390fd5b505b6000336040516020016116ae9190614f57565b604051602081830303815290604052805190602001209050611714848480806020026020016040519081016040528093929190818152602001838360200280828437600081840152601f19601f8201169050808301925050505050505060185483613b48565b611753576040517f08c379a000000000000000000000000000000000000000000000000000000000815260040161174a90615168565b60405180910390fd5b81601260008282546117659190615396565b9250508190555081601660003373ffffffffffffffffffffffffffffffffffffffff1673ffffffffffffffffffffffffffffffffffffffff16815260200190815260200160002060008282546117bb9190615396565b925050819055506117cc3383613b5f565b6001601960003373ffffffffffffffffffffffffffffffffffffffff1673ffffffffffffffffffffffffffffffffffffffff16815260200190815260200160002060006101000a81548160ff0219169083151502179055507f176b02bb2d12439ff7a20b59f402cca16c76f50508b13ef3166a600eb719354a826040516118539190615248565b60405180910390a150505050565b600061186c8361228d565b82106118a4576040517f0ddac30e00000000000000000000000000000000000000000000000000000000815260040160405180910390fd5b6000600154905060008060005b83811015611a2f576000600660008381526020019081526020016000206040518060600160405290816000820160009054906101000a900473ffffffffffffffffffffffffffffffffffffffff1673ffffffffffffffffffffffffffffffffffffffff1673ffffffffffffffffffffffffffffffffffffffff1681526020016000820160149054906101000a900467ffffffffffffffff1667ffffffffffffffff1667ffffffffffffffff16815260200160008201601c9054906101000a900460ff161515151581525050905080604001511561198e5750611a22565b600073ffffffffffffffffffffffffffffffffffffffff16816000015173ffffffffffffffffffffffffffffffffffffffff16146119ce57806000015192505b8773ffffffffffffffffffffffffffffffffffffffff168373ffffffffffffffffffffffffffffffffffffffff161415611a205786841415611a17578195505050505050611a35565b83806001019450505b505b80806001019150506118b1565b50600080fd5b92915050565b611a4361357a565b73ffffffffffffffffffffffffffffffffffffffff16611a616125fb565b73ffffffffffffffffffffffffffffffffffffffff1614611ab7576040517f08c379a0000000000000000000000000000000000000000000000000000000008152600401611aae906151a8565b60405180910390fd5b6000601760009054906101000a900473ffffffffffffffffffffffffffffffffffffffff1673ffffffffffffffffffffffffffffffffffffffff1647604051611aff90614fa3565b60006040518083038185875af1925050503d8060008114611b3c576040519150601f19603f3d011682016040523d82523d6000602084013e611b41565b606091505b5050905080611b85576040517f08c379a0000000000000000000000000000000000000000000000000000000008152600401611b7c90615228565b60405180910390fd5b50565b611b9061357a565b73ffffffffffffffffffffffffffffffffffffffff16611bae6125fb565b73ffffffffffffffffffffffffffffffffffffffff1614611c04576040517f08c379a0000000000000000000000000000000000000000000000000000000008152600401611bfb906151a8565b60405180910390fd5b8060118190555050565b611c2983838360405180602001604052806000815250612f81565b505050565b60606000611c3b8361228d565b905060008167ffffffffffffffff811115611c7f577f4e487b7100000000000000000000000000000000000000000000000000000000600052604160045260246000fd5b604051908082528060200260200182016040528015611cad5781602001602082028036833780820191505090505b50905060006001905060005b8381108015611cca57506011548211155b15611d79576000611cda83612277565b90508673ffffffffffffffffffffffffffffffffffffffff168173ffffffffffffffffffffffffffffffffffffffff161415611d655782848381518110611d4a577f4e487b7100000000000000000000000000000000000000000000000000000000600052603260045260246000fd5b6020026020010181815250508180611d61906155e0565b9250505b8280611d70906155e0565b93505050611cb9565b82945050505050919050565b611d8d61357a565b73ffffffffffffffffffffffffffffffffffffffff16611dab6125fb565b73ffffffffffffffffffffffffffffffffffffffff1614611e01576040517f08c379a0000000000000000000000000000000000000000000000000000000008152600401611df8906151a8565b60405180910390fd5b80601760146101000a81548160ff02191690831515021790555050565b600560009054906101000a900460ff1681565b60008060015490506000805b82811015611f3e576000600660008381526020019081526020016000206040518060600160405290816000820160009054906101000a900473ffffffffffffffffffffffffffffffffffffffff1673ffffffffffffffffffffffffffffffffffffffff1673ffffffffffffffffffffffffffffffffffffffff1681526020016000820160149054906101000a900467ffffffffffffffff1667ffffffffffffffff1667ffffffffffffffff16815260200160008201601c9054906101000a900460ff16151515158152505090508060400151611f305785831415611f275781945050505050611f71565b82806001019350505b508080600101915050611e3d565b506040517fa723001c00000000000000000000000000000000000000000000000000000000815260040160405180910390fd5b919050565b611f7e61357a565b73ffffffffffffffffffffffffffffffffffffffff16611f9c6125fb565b73ffffffffffffffffffffffffffffffffffffffff1614611ff2576040517f08c379a0000000000000000000000000000000000000000000000000000000008152600401611fe9906151a8565b60405180910390fd5b80601090805190602001906120089291906144f7565b5050565b601760149054906101000a900460ff1681565b600f805461202c9061557d565b80601f01602080910402602001604051908101604052809291908181526020018280546120589061557d565b80156120a55780601f1061207a576101008083540402835291602001916120a5565b820191906000526020600020905b81548152906001019060200180831161208857829003601f168201915b505050505081565b6120b561357a565b73ffffffffffffffffffffffffffffffffffffffff166120d36125fb565b73ffffffffffffffffffffffffffffffffffffffff1614612129576040517f08c379a0000000000000000000000000000000000000000000000000000000008152600401612120906151a8565b60405180910390fd5b80601760156101000a81548160ff02191690831515021790555050565b61214e61357a565b73ffffffffffffffffffffffffffffffffffffffff1661216c6125fb565b73ffffffffffffffffffffffffffffffffffffffff16146121c2576040517f08c379a00000000000000000000000000000000000000000000000000000000081526004016121b9906151a8565b60405180910390fd5b80600a600084815260200190815260200160002060006101000a81548160ff0219169083151502179055505050565b6121f961357a565b73ffffffffffffffffffffffffffffffffffffffff166122176125fb565b73ffffffffffffffffffffffffffffffffffffffff161461226d576040517f08c379a0000000000000000000000000000000000000000000000000000000008152600401612264906151a8565b60405180910390fd5b8060138190555050565b600061228282613b7d565b600001519050919050565b60008073ffffffffffffffffffffffffffffffffffffffff168273ffffffffffffffffffffffffffffffffffffffff1614156122f5576040517f8f4eb60400000000000000000000000000000000000000000000000000000000815260040160405180910390fd5b600760008373ffffffffffffffffffffffffffffffffffffffff1673ffffffffffffffffffffffffffffffffffffffff16815260200190815260200160002060000160009054906101000a900467ffffffffffffffff1667ffffffffffffffff169050919050565b61236561357a565b73ffffffffffffffffffffffffffffffffffffffff166123836125fb565b73ffffffffffffffffffffffffffffffffffffffff16146123d9576040517f08c379a00000000000000000000000000000000000000000000000000000000081526004016123d0906151a8565b60405180910390fd5b600073ffffffffffffffffffffffffffffffffffffffff1660008054906101000a900473ffffffffffffffffffffffffffffffffffffffff1673ffffffffffffffffffffffffffffffffffffffff167f8be0079c531659141344cd1fd0a4f28419497f9722a3daafe3b4186f6b6457e060405160405180910390a360008060006101000a81548173ffffffffffffffffffffffffffffffffffffffff021916908373ffffffffffffffffffffffffffffffffffffffff160217905550565b61249f61357a565b73ffffffffffffffffffffffffffffffffffffffff166124bd6125fb565b73ffffffffffffffffffffffffffffffffffffffff1614612513576040517f08c379a000000000000000000000000000000000000000000000000000000000815260040161250a906151a8565b60405180910390fd5b80600e90805190602001906125299291906144f7565b5050565b61253561357a565b73ffffffffffffffffffffffffffffffffffffffff166125536125fb565b73ffffffffffffffffffffffffffffffffffffffff16146125a9576040517f08c379a00000000000000000000000000000000000000000000000000000000081526004016125a0906151a8565b60405180910390fd5b600560009054906101000a900460ff1615600560006101000a81548160ff021916908315150217905550565b601760009054906101000a900473ffffffffffffffffffffffffffffffffffffffff1681565b60008060009054906101000a900473ffffffffffffffffffffffffffffffffffffffff16905090565b61262c61357a565b73ffffffffffffffffffffffffffffffffffffffff1661264a6125fb565b73ffffffffffffffffffffffffffffffffffffffff16146126a0576040517f08c379a0000000000000000000000000000000000000000000000000000000008152600401612697906151a8565b60405180910390fd5b80601760006101000a81548173ffffffffffffffffffffffffffffffffffffffff021916908373ffffffffffffffffffffffffffffffffffffffff16021790555050565b6060600480546126f39061557d565b80601f016020809104026020016040519081016040528092919081815260200182805461271f9061557d565b801561276c5780601f106127415761010080835404028352916020019161276c565b820191906000526020600020905b81548152906001019060200180831161274f57829003601f168201915b5050505050905090565b61277e61357a565b73ffffffffffffffffffffffffffffffffffffffff1661279c6125fb565b73ffffffffffffffffffffffffffffffffffffffff16146127f2576040517f08c379a00000000000000000000000000000000000000000000000000000000081526004016127e9906151a8565b60405180910390fd5b8060138190555050565b60185481565b60155481565b601760169054906101000a900460ff16612857576040517f08c379a000000000000000000000000000000000000000000000000000000000815260040161284e906150c8565b60405180910390fd5b3373ffffffffffffffffffffffffffffffffffffffff163273ffffffffffffffffffffffffffffffffffffffff16146128c5576040517f08c379a00000000000000000000000000000000000000000000000000000000081526004016128bc906150a8565b60405180910390fd5b601154816128d1611266565b6128db9190615396565b111561291c576040517f08c379a0000000000000000000000000000000000000000000000000000000008152600401612913906151e8565b60405180910390fd5b6000811161295f576040517f08c379a000000000000000000000000000000000000000000000000000000000815260040161295690615068565b60405180910390fd5b6129676125fb565b73ffffffffffffffffffffffffffffffffffffffff163373ffffffffffffffffffffffffffffffffffffffff1614612ac4576013548111156129de576040517f08c379a00000000000000000000000000000000000000000000000000000000081526004016129d590615208565b60405180910390fd5b806015546129ec919061541d565b341015612a2e576040517f08c379a0000000000000000000000000000000000000000000000000000000008152600401612a2590615188565b60405180910390fd5b6000601660003373ffffffffffffffffffffffffffffffffffffffff1673ffffffffffffffffffffffffffffffffffffffff1681526020019081526020016000205490506014548282612a819190615396565b1115612ac2576040517f08c379a0000000000000000000000000000000000000000000000000000000008152600401612ab990615128565b60405180910390fd5b505b8060126000828254612ad69190615396565b9250508190555080601660003373ffffffffffffffffffffffffffffffffffffffff1673ffffffffffffffffffffffffffffffffffffffff1681526020019081526020016000206000828254612b2c9190615396565b92505081905550612b3d3382613b5f565b7f176b02bb2d12439ff7a20b59f402cca16c76f50508b13ef3166a600eb719354a81604051612b6c9190615248565b60405180910390a150565b612b7f61357a565b73ffffffffffffffffffffffffffffffffffffffff168273ffffffffffffffffffffffffffffffffffffffff161415612be4576040517fb06307db00000000000000000000000000000000000000000000000000000000815260040160405180910390fd5b600560009054906101000a900460ff16612d6357612c178273ffffffffffffffffffffffffffffffffffffffff16613582565b15612c57576040517f08c379a0000000000000000000000000000000000000000000000000000000008152600401612c4e906150e8565b60405180910390fd5b8060096000612c6461357a565b73ffffffffffffffffffffffffffffffffffffffff1673ffffffffffffffffffffffffffffffffffffffff16815260200190815260200160002060008473ffffffffffffffffffffffffffffffffffffffff1673ffffffffffffffffffffffffffffffffffffffff16815260200190815260200160002060006101000a81548160ff0219169083151502179055508173ffffffffffffffffffffffffffffffffffffffff16612d1161357a565b73ffffffffffffffffffffffffffffffffffffffff167f17307eab39ab6107e8899845ad3d59bd9653f200f220920489ca2b5937696c3183604051612d569190615010565b60405180910390a3612e6b565b8060096000612d7061357a565b73ffffffffffffffffffffffffffffffffffffffff1673ffffffffffffffffffffffffffffffffffffffff16815260200190815260200160002060008473ffffffffffffffffffffffffffffffffffffffff1673ffffffffffffffffffffffffffffffffffffffff16815260200190815260200160002060006101000a81548160ff0219169083151502179055508173ffffffffffffffffffffffffffffffffffffffff16612e1d61357a565b73ffffffffffffffffffffffffffffffffffffffff167f17307eab39ab6107e8899845ad3d59bd9653f200f220920489ca2b5937696c3183604051612e629190615010565b60405180910390a35b5050565b612e7761357a565b73ffffffffffffffffffffffffffffffffffffffff16612e956125fb565b73ffffffffffffffffffffffffffffffffffffffff1614612eeb576040517f08c379a0000000000000000000000000000000000000000000000000000000008152600401612ee2906151a8565b60405180910390fd5b8060158190555050565b612efd61357a565b73ffffffffffffffffffffffffffffffffffffffff16612f1b6125fb565b73ffffffffffffffffffffffffffffffffffffffff1614612f71576040517f08c379a0000000000000000000000000000000000000000000000000000000008152600401612f68906151a8565b60405180910390fd5b8060148190555050565b60145481565b612f8c848484613657565b612f9884848484613df9565b612fce576040517fd1a57ed600000000000000000000000000000000000000000000000000000000815260040160405180910390fd5b50505050565b600a6020528060005260406000206000915054906101000a900460ff1681565b6060612fff826134fd565b61303e576040517f08c379a0000000000000000000000000000000000000000000000000000000008152600401613035906151c8565b60405180910390fd5b60001515601760149054906101000a900460ff16151514156130ec57601080546130679061557d565b80601f01602080910402602001604051908101604052809291908181526020018280546130939061557d565b80156130e05780601f106130b5576101008083540402835291602001916130e0565b820191906000526020600020905b8154815290600101906020018083116130c357829003601f168201915b50505050509050613148565b60006130f6613eb0565b905060008151116131165760405180602001604052806000815250613144565b8061312084613f42565b600f60405160200161313493929190614f72565b6040516020818303038152906040525b9150505b919050565b60115481565b60135481565b601760159054906101000a900460ff1681565b6000600960008473ffffffffffffffffffffffffffffffffffffffff1673ffffffffffffffffffffffffffffffffffffffff16815260200190815260200160002060008373ffffffffffffffffffffffffffffffffffffffff1673ffffffffffffffffffffffffffffffffffffffff16815260200190815260200160002060009054906101000a900460ff16905092915050565b61320861357a565b73ffffffffffffffffffffffffffffffffffffffff166132266125fb565b73ffffffffffffffffffffffffffffffffffffffff161461327c576040517f08c379a0000000000000000000000000000000000000000000000000000000008152600401613273906151a8565b60405180910390fd5b60005b81518110156132e6576132d38282815181106132c4577f4e487b7100000000000000000000000000000000000000000000000000000000600052603260045260246000fd5b60200260200101516001613b5f565b80806132de906155e0565b91505061327f565b5050565b6132f261357a565b73ffffffffffffffffffffffffffffffffffffffff166133106125fb565b73ffffffffffffffffffffffffffffffffffffffff1614613366576040517f08c379a000000000000000000000000000000000000000000000000000000000815260040161335d906151a8565b60405180910390fd5b600073ffffffffffffffffffffffffffffffffffffffff168173ffffffffffffffffffffffffffffffffffffffff1614156133d6576040517f08c379a00000000000000000000000000000000000000000000000000000000081526004016133cd90615088565b60405180910390fd5b8073ffffffffffffffffffffffffffffffffffffffff1660008054906101000a900473ffffffffffffffffffffffffffffffffffffffff1673ffffffffffffffffffffffffffffffffffffffff167f8be0079c531659141344cd1fd0a4f28419497f9722a3daafe3b4186f6b6457e060405160405180910390a3806000806101000a81548173ffffffffffffffffffffffffffffffffffffffff021916908373ffffffffffffffffffffffffffffffffffffffff16021790555050565b60007f01ffc9a7000000000000000000000000000000000000000000000000000000007bffffffffffffffffffffffffffffffffffffffffffffffffffffffff1916827bffffffffffffffffffffffffffffffffffffffffffffffffffffffff1916149050919050565b6000808211613541576040517f08c379a000000000000000000000000000000000000000000000000000000000815260040161353890615108565b60405180910390fd5b60015482108015613573575060066000838152602001908152602001600020600001601c9054906101000a900460ff16155b9050919050565b600033905090565b6000808273ffffffffffffffffffffffffffffffffffffffff163b119050919050565b826008600084815260200190815260200160002060006101000a81548173ffffffffffffffffffffffffffffffffffffffff021916908373ffffffffffffffffffffffffffffffffffffffff160217905550818373ffffffffffffffffffffffffffffffffffffffff168273ffffffffffffffffffffffffffffffffffffffff167f8c5be1e5ebec7d5bd14f71427d1e84f3dd0314c0f7b2291e5b200ac8c7c3b92560405160405180910390a4505050565b600061366282613b7d565b90506000816000015173ffffffffffffffffffffffffffffffffffffffff1661368961357a565b73ffffffffffffffffffffffffffffffffffffffff1614806136bc57506136bb82600001516136b661357a565b61316c565b5b8061370157506136ca61357a565b73ffffffffffffffffffffffffffffffffffffffff166136e984610e8d565b73ffffffffffffffffffffffffffffffffffffffff16145b90508061373a576040517f59c896be00000000000000000000000000000000000000000000000000000000815260040160405180910390fd5b8473ffffffffffffffffffffffffffffffffffffffff16826000015173ffffffffffffffffffffffffffffffffffffffff16146137a3576040517fa114810000000000000000000000000000000000000000000000000000000000815260040160405180910390fd5b600073ffffffffffffffffffffffffffffffffffffffff168473ffffffffffffffffffffffffffffffffffffffff16141561380a576040517fea553b3400000000000000000000000000000000000000000000000000000000815260040160405180910390fd5b61381785858560016140ef565b61382760008484600001516135a5565b6001600760008773ffffffffffffffffffffffffffffffffffffffff1673ffffffffffffffffffffffffffffffffffffffff16815260200190815260200160002060000160008282829054906101000a900467ffffffffffffffff160392506101000a81548167ffffffffffffffff021916908367ffffffffffffffff1602179055506001600760008673ffffffffffffffffffffffffffffffffffffffff1673ffffffffffffffffffffffffffffffffffffffff16815260200190815260200160002060000160008282829054906101000a900467ffffffffffffffff160192506101000a81548167ffffffffffffffff021916908367ffffffffffffffff160217905550836006600085815260200190815260200160002060000160006101000a81548173ffffffffffffffffffffffffffffffffffffffff021916908373ffffffffffffffffffffffffffffffffffffffff160217905550426006600085815260200190815260200160002060000160146101000a81548167ffffffffffffffff021916908367ffffffffffffffff1602179055506000600184019050600073ffffffffffffffffffffffffffffffffffffffff166006600083815260200190815260200160002060000160009054906101000a900473ffffffffffffffffffffffffffffffffffffffff1673ffffffffffffffffffffffffffffffffffffffff161415613ad857600154811015613ad75782600001516006600083815260200190815260200160002060000160006101000a81548173ffffffffffffffffffffffffffffffffffffffff021916908373ffffffffffffffffffffffffffffffffffffffff16021790555082602001516006600083815260200190815260200160002060000160146101000a81548167ffffffffffffffff021916908367ffffffffffffffff1602179055505b5b50828473ffffffffffffffffffffffffffffffffffffffff168673ffffffffffffffffffffffffffffffffffffffff167fddf252ad1be2c89b69c2b068fc378daa952ba7f163c4a11628f55a4df523b3ef60405160405180910390a4613b4185858560016140f5565b5050505050565b600082613b5585846140fb565b1490509392505050565b613b79828260405180602001604052806000815250614196565b5050565b613b8561457d565b6000829050600154811015613dc2576000600660008381526020019081526020016000206040518060600160405290816000820160009054906101000a900473ffffffffffffffffffffffffffffffffffffffff1673ffffffffffffffffffffffffffffffffffffffff1673ffffffffffffffffffffffffffffffffffffffff1681526020016000820160149054906101000a900467ffffffffffffffff1667ffffffffffffffff1667ffffffffffffffff16815260200160008201601c9054906101000a900460ff16151515158152505090508060400151613dc057600073ffffffffffffffffffffffffffffffffffffffff16816000015173ffffffffffffffffffffffffffffffffffffffff1614613ca4578092505050613df4565b5b600115613dbf57818060019003925050600660008381526020019081526020016000206040518060600160405290816000820160009054906101000a900473ffffffffffffffffffffffffffffffffffffffff1673ffffffffffffffffffffffffffffffffffffffff1673ffffffffffffffffffffffffffffffffffffffff1681526020016000820160149054906101000a900467ffffffffffffffff1667ffffffffffffffff1667ffffffffffffffff16815260200160008201601c9054906101000a900460ff1615151515815250509050600073ffffffffffffffffffffffffffffffffffffffff16816000015173ffffffffffffffffffffffffffffffffffffffff1614613dba578092505050613df4565b613ca5565b5b505b6040517fdf2d9b4200000000000000000000000000000000000000000000000000000000815260040160405180910390fd5b919050565b6000600560009054906101000a900460ff16158015613e365750600a600084815260200190815260200160002060009054906101000a900460ff16155b15613ea357613e5a8473ffffffffffffffffffffffffffffffffffffffff16613582565b15613e9a576040517f08c379a0000000000000000000000000000000000000000000000000000000008152600401613e91906150e8565b60405180910390fd5b60019050613ea8565b600190505b949350505050565b6060600e8054613ebf9061557d565b80601f0160208091040260200160405190810160405280929190818152602001828054613eeb9061557d565b8015613f385780601f10613f0d57610100808354040283529160200191613f38565b820191906000526020600020905b815481529060010190602001808311613f1b57829003601f168201915b5050505050905090565b60606000821415613f8a576040518060400160405280600181526020017f300000000000000000000000000000000000000000000000000000000000000081525090506140ea565b600082905060005b60008214613fbc578080613fa5906155e0565b915050600a82613fb591906153ec565b9150613f92565b60008167ffffffffffffffff811115613ffe577f4e487b7100000000000000000000000000000000000000000000000000000000600052604160045260246000fd5b6040519080825280601f01601f1916602001820160405280156140305781602001600182028036833780820191505090505b5090505b600085146140e3576001826140499190615477565b9150600a85614058919061564d565b60306140649190615396565b60f81b8183815181106140a0577f4e487b7100000000000000000000000000000000000000000000000000000000600052603260045260246000fd5b60200101907effffffffffffffffffffffffffffffffffffffffffffffffffffffffffffff1916908160001a905350600a856140dc91906153ec565b9450614034565b8093505050505b919050565b50505050565b50505050565b60008082905060005b845181101561418b576000858281518110614148577f4e487b7100000000000000000000000000000000000000000000000000000000600052603260045260246000fd5b6020026020010151905080831161416a5761416383826141a8565b9250614177565b61417481846141a8565b92505b508080614183906155e0565b915050614104565b508091505092915050565b6141a383838360016141bf565b505050565b600082600052816020526040600020905092915050565b60006001549050600073ffffffffffffffffffffffffffffffffffffffff168573ffffffffffffffffffffffffffffffffffffffff16141561422d576040517f2e07630000000000000000000000000000000000000000000000000000000000815260040160405180910390fd5b6000841415614268576040517fb562e8dd00000000000000000000000000000000000000000000000000000000815260040160405180910390fd5b61427560008683876140ef565b83600760008773ffffffffffffffffffffffffffffffffffffffff1673ffffffffffffffffffffffffffffffffffffffff16815260200190815260200160002060000160008282829054906101000a900467ffffffffffffffff160192506101000a81548167ffffffffffffffff021916908367ffffffffffffffff16021790555083600760008773ffffffffffffffffffffffffffffffffffffffff1673ffffffffffffffffffffffffffffffffffffffff16815260200190815260200160002060000160088282829054906101000a900467ffffffffffffffff160192506101000a81548167ffffffffffffffff021916908367ffffffffffffffff160217905550846006600083815260200190815260200160002060000160006101000a81548173ffffffffffffffffffffffffffffffffffffffff021916908373ffffffffffffffffffffffffffffffffffffffff160217905550426006600083815260200190815260200160002060000160146101000a81548167ffffffffffffffff021916908367ffffffffffffffff160217905550600081905060005b858110156144da57818773ffffffffffffffffffffffffffffffffffffffff16600073ffffffffffffffffffffffffffffffffffffffff167fddf252ad1be2c89b69c2b068fc378daa952ba7f163c4a11628f55a4df523b3ef60405160405180910390a483801561448e575061448c6000888488613df9565b155b156144c5576040517fd1a57ed600000000000000000000000000000000000000000000000000000000815260040160405180910390fd5b81806001019250508080600101915050614413565b5080600181905550506144f060008683876140f5565b5050505050565b8280546145039061557d565b90600052602060002090601f016020900481019282614525576000855561456c565b82601f1061453e57805160ff191683800117855561456c565b8280016001018555821561456c579182015b8281111561456b578251825591602001919060010190614550565b5b50905061457991906145c0565b5090565b6040518060600160405280600073ffffffffffffffffffffffffffffffffffffffff168152602001600067ffffffffffffffff1681526020016000151581525090565b5b808211156145d95760008160009055506001016145c1565b5090565b60006145f06145eb84615288565b615263565b9050808382526020820190508285602086028201111561460f57600080fd5b60005b8581101561463f578161462588826146c5565b845260208401935060208301925050600181019050614612565b5050509392505050565b600061465c614657846152b4565b615263565b90508281526020810184848401111561467457600080fd5b61467f84828561553b565b509392505050565b600061469a614695846152e5565b615263565b9050828152602081018484840111156146b257600080fd5b6146bd84828561553b565b509392505050565b6000813590506146d481615aa6565b92915050565b600082601f8301126146eb57600080fd5b81356146fb8482602086016145dd565b91505092915050565b60008083601f84011261471657600080fd5b8235905067ffffffffffffffff81111561472f57600080fd5b60208301915083602082028301111561474757600080fd5b9250929050565b60008135905061475d81615abd565b92915050565b60008135905061477281615ad4565b92915050565b60008135905061478781615aeb565b92915050565b600082601f83011261479e57600080fd5b81356147ae848260208601614649565b91505092915050565b600082601f8301126147c857600080fd5b81356147d8848260208601614687565b91505092915050565b6000813590506147f081615b02565b92915050565b60006020828403121561480857600080fd5b6000614816848285016146c5565b91505092915050565b6000806040838503121561483257600080fd5b6000614840858286016146c5565b9250506020614851858286016146c5565b9150509250929050565b60008060006060848603121561487057600080fd5b600061487e868287016146c5565b935050602061488f868287016146c5565b92505060406148a0868287016147e1565b9150509250925092565b600080600080608085870312156148c057600080fd5b60006148ce878288016146c5565b94505060206148df878288016146c5565b93505060406148f0878288016147e1565b925050606085013567ffffffffffffffff81111561490d57600080fd5b6149198782880161478d565b91505092959194509250565b6000806040838503121561493857600080fd5b6000614946858286016146c5565b92505060206149578582860161474e565b9150509250929050565b6000806040838503121561497457600080fd5b6000614982858286016146c5565b9250506020614993858286016147e1565b9150509250929050565b6000602082840312156149af57600080fd5b600082013567ffffffffffffffff8111156149c957600080fd5b6149d5848285016146da565b91505092915050565b6000806000604084860312156149f357600080fd5b600084013567ffffffffffffffff811115614a0d57600080fd5b614a1986828701614704565b93509350506020614a2c868287016147e1565b9150509250925092565b600060208284031215614a4857600080fd5b6000614a568482850161474e565b91505092915050565b600060208284031215614a7157600080fd5b6000614a7f84828501614763565b91505092915050565b600060208284031215614a9a57600080fd5b6000614aa884828501614778565b91505092915050565b600060208284031215614ac357600080fd5b600082013567ffffffffffffffff811115614add57600080fd5b614ae9848285016147b7565b91505092915050565b600060208284031215614b0457600080fd5b6000614b12848285016147e1565b91505092915050565b60008060408385031215614b2e57600080fd5b6000614b3c858286016147e1565b9250506020614b4d8582860161474e565b9150509250929050565b6000614b638383614f39565b60208301905092915050565b614b78816154bd565b82525050565b614b87816154ab565b82525050565b614b9e614b99826154ab565b615629565b82525050565b6000614baf8261533b565b614bb9818561535e565b9350614bc483615316565b8060005b83811015614bf5578151614bdc8882614b57565b9750614be783615351565b925050600181019050614bc8565b5085935050505092915050565b614c0b816154cf565b82525050565b614c1a816154db565b82525050565b6000614c2b82615346565b614c35818561537a565b9350614c4581856020860161554a565b614c4e8161573a565b840191505092915050565b6000614c6482615346565b614c6e818561538b565b9350614c7e81856020860161554a565b80840191505092915050565b60008154614c978161557d565b614ca1818661538b565b94506001821660008114614cbc5760018114614ccd57614d00565b60ff19831686528186019350614d00565b614cd685615326565b60005b83811015614cf857815481890152600182019150602081019050614cd9565b838801955050505b50505092915050565b6000614d16602e8361537a565b9150614d2182615758565b604082019050919050565b6000614d3960268361537a565b9150614d44826157a7565b604082019050919050565b6000614d5c60108361537a565b9150614d67826157f6565b602082019050919050565b6000614d7f60188361537a565b9150614d8a8261581f565b602082019050919050565b6000614da260328361537a565b9150614dad82615848565b604082019050919050565b6000614dc5600f8361537a565b9150614dd082615897565b602082019050919050565b6000614de860198361537a565b9150614df3826158c0565b602082019050919050565b6000614e0b60158361537a565b9150614e16826158e9565b602082019050919050565b6000614e2e600d8361537a565b9150614e3982615912565b602082019050919050565b6000614e51602f8361537a565b9150614e5c8261593b565b604082019050919050565b6000614e7460208361537a565b9150614e7f8261598a565b602082019050919050565b6000614e97602f8361537a565b9150614ea2826159b3565b604082019050919050565b6000614eba60168361537a565b9150614ec582615a02565b602082019050919050565b6000614edd602a8361537a565b9150614ee882615a2b565b604082019050919050565b6000614f0060008361536f565b9150614f0b82615a7a565b600082019050919050565b6000614f2360108361537a565b9150614f2e82615a7d565b602082019050919050565b614f4281615531565b82525050565b614f5181615531565b82525050565b6000614f638284614b8d565b60148201915081905092915050565b6000614f7e8286614c59565b9150614f8a8285614c59565b9150614f968284614c8a565b9150819050949350505050565b6000614fae82614ef3565b9150819050919050565b6000602082019050614fcd6000830184614b7e565b92915050565b6000602082019050614fe86000830184614b6f565b92915050565b600060208201905081810360008301526150088184614ba4565b905092915050565b60006020820190506150256000830184614c02565b92915050565b60006020820190506150406000830184614c11565b92915050565b600060208201905081810360008301526150608184614c20565b905092915050565b6000602082019050818103600083015261508181614d09565b9050919050565b600060208201905081810360008301526150a181614d2c565b9050919050565b600060208201905081810360008301526150c181614d4f565b9050919050565b600060208201905081810360008301526150e181614d72565b9050919050565b6000602082019050818103600083015261510181614d95565b9050919050565b6000602082019050818103600083015261512181614db8565b9050919050565b6000602082019050818103600083015261514181614ddb565b9050919050565b6000602082019050818103600083015261516181614dfe565b9050919050565b6000602082019050818103600083015261518181614e21565b9050919050565b600060208201905081810360008301526151a181614e44565b9050919050565b600060208201905081810360008301526151c181614e67565b9050919050565b600060208201905081810360008301526151e181614e8a565b9050919050565b6000602082019050818103600083015261520181614ead565b9050919050565b6000602082019050818103600083015261522181614ed0565b9050919050565b6000602082019050818103600083015261524181614f16565b9050919050565b600060208201905061525d6000830184614f48565b92915050565b600061526d61527e565b905061527982826155af565b919050565b6000604051905090565b600067ffffffffffffffff8211156152a3576152a261570b565b5b602082029050602081019050919050565b600067ffffffffffffffff8211156152cf576152ce61570b565b5b6152d88261573a565b9050602081019050919050565b600067ffffffffffffffff821115615300576152ff61570b565b5b6153098261573a565b9050602081019050919050565b6000819050602082019050919050565b60008190508160005260206000209050919050565b600081519050919050565b600081519050919050565b6000602082019050919050565b600082825260208201905092915050565b600081905092915050565b600082825260208201905092915050565b600081905092915050565b60006153a182615531565b91506153ac83615531565b9250827fffffffffffffffffffffffffffffffffffffffffffffffffffffffffffffffff038211156153e1576153e061567e565b5b828201905092915050565b60006153f782615531565b915061540283615531565b925082615412576154116156ad565b5b828204905092915050565b600061542882615531565b915061543383615531565b9250817fffffffffffffffffffffffffffffffffffffffffffffffffffffffffffffffff048311821515161561546c5761546b61567e565b5b828202905092915050565b600061548282615531565b915061548d83615531565b9250828210156154a05761549f61567e565b5b828203905092915050565b60006154b682615511565b9050919050565b60006154c882615511565b9050919050565b60008115159050919050565b6000819050919050565b60007fffffffff0000000000000000000000000000000000000000000000000000000082169050919050565b600073ffffffffffffffffffffffffffffffffffffffff82169050919050565b6000819050919050565b82818337600083830152505050565b60005b8381101561556857808201518184015260208101905061554d565b83811115615577576000848401525b50505050565b6000600282049050600182168061559557607f821691505b602082108114156155a9576155a86156dc565b5b50919050565b6155b88261573a565b810181811067ffffffffffffffff821117156155d7576155d661570b565b5b80604052505050565b60006155eb82615531565b91507fffffffffffffffffffffffffffffffffffffffffffffffffffffffffffffffff82141561561e5761561d61567e565b5b600182019050919050565b60006156348261563b565b9050919050565b60006156468261574b565b9050919050565b600061565882615531565b915061566383615531565b925082615673576156726156ad565b5b828206905092915050565b7f4e487b7100000000000000000000000000000000000000000000000000000000600052601160045260246000fd5b7f4e487b7100000000000000000000000000000000000000000000000000000000600052601260045260246000fd5b7f4e487b7100000000000000000000000000000000000000000000000000000000600052602260045260246000fd5b7f4e487b7100000000000000000000000000000000000000000000000000000000600052604160045260246000fd5b6000601f19601f8301169050919050565b60008160601b9050919050565b7f4d696e696d756d2031204e46542068617320746f206265206d696e746564207060008201527f6572207472616e73616374696f6e000000000000000000000000000000000000602082015250565b7f4f776e61626c653a206e6577206f776e657220697320746865207a65726f206160008201527f6464726573730000000000000000000000000000000000000000000000000000602082015250565b7f436f6e74726163742044656e6965642e00000000000000000000000000000000600082015250565b7f5075626c6963206d696e74206e6f7420656e61626c6564210000000000000000600082015250565b7f546f6b656e207472616e7366657220746f20636f6e747261637420616464726560008201527f7373206973206e6f7420616c6c6f7765642e0000000000000000000000000000602082015250565b7f496e76616c696420546f6b656e49640000000000000000000000000000000000600082015250565b7f6d61782070657220616464726573732065786365656465642100000000000000600082015250565b7f4d696e7420616c726561647920636c61696d6564210000000000000000000000600082015250565b7f50726f6f6620496e76616c696400000000000000000000000000000000000000600082015250565b7f45746865722073656e7420776974682074686973207472616e73616374696f6e60008201527f206973206e6f7420636f72726563740000000000000000000000000000000000602082015250565b7f4f776e61626c653a2063616c6c6572206973206e6f7420746865206f776e6572600082015250565b7f4552433732314d657461646174613a2055524920717565727920666f72206e6f60008201527f6e6578697374656e7420746f6b656e0000000000000000000000000000000000602082015250565b7f45786365656473206d6178696d756d20737570706c7900000000000000000000600082015250565b7f4d6178696d756d204e4654732063616e206265206d696e74656420706572207460008201527f72616e73616374696f6e00000000000000000000000000000000000000000000602082015250565b50565b7f5472616e73666572206661696c65642e00000000000000000000000000000000600082015250565b615aaf816154ab565b8114615aba57600080fd5b50565b615ac6816154cf565b8114615ad157600080fd5b50565b615add816154db565b8114615ae857600080fd5b50565b615af4816154e5565b8114615aff57600080fd5b50565b615b0b81615531565b8114615b1657600080fd5b5056fea26469706673582212203ca0c5d57f0ad38e952621ec2e561d3aa852f086be026f5850bf29c0b52b5d7f64736f6c63430008040033",
  "linkReferences": {},
  "deployedLinkReferences": {}
}