{
  "_format": "hh-sol-artifact-1",
  "contractName": "FelineSoulmate",
  "sourceName": "contracts/felinesoulmate.sol",
  "abi": [
    {
      "inputs": [],
      "stateMutability": "nonpayable",
      "type": "constructor"
    },
    {
      "inputs": [],
      "name": "ApprovalCallerNotOwnerNorApproved",
      "type": "error"
    },
    {
      "inputs": [],
      "name": "ApprovalQueryForNonexistentToken",
      "type": "error"
    },
    {
      "inputs": [],
      "name": "ApprovalToCurrentOwner",
      "type": "error"
    },
    {
      "inputs": [],
      "name": "ApproveToCaller",
      "type": "error"
    },
    {
      "inputs": [],
      "name": "BalanceQueryForZeroAddress",
      "type": "error"
    },
    {
      "inputs": [],
      "name": "MintToZeroAddress",
      "type": "error"
    },
    {
      "inputs": [],
      "name": "MintZeroQuantity",
      "type": "error"
    },
    {
      "inputs": [],
      "name": "OwnerIndexOutOfBounds",
      "type": "error"
    },
    {
      "inputs": [],
      "name": "OwnerQueryForNonexistentToken",
      "type": "error"
    },
    {
      "inputs": [],
      "name": "TokenIndexOutOfBounds",
      "type": "error"
    },
    {
      "inputs": [],
      "name": "TransferCallerNotOwnerNorApproved",
      "type": "error"
    },
    {
      "inputs": [],
      "name": "TransferFromIncorrectOwner",
      "type": "error"
    },
    {
      "inputs": [],
      "name": "TransferToNonERC721ReceiverImplementer",
      "type": "error"
    },
    {
      "inputs": [],
      "name": "TransferToZeroAddress",
      "type": "error"
    },
    {
      "anonymous": false,
      "inputs": [
        {
          "indexed": true,
          "internalType": "address",
          "name": "owner",
          "type": "address"
        },
        {
          "indexed": true,
          "internalType": "address",
          "name": "approved",
          "type": "address"
        },
        {
          "indexed": true,
          "internalType": "uint256",
          "name": "tokenId",
          "type": "uint256"
        }
      ],
      "name": "Approval",
      "type": "event"
    },
    {
      "anonymous": false,
      "inputs": [
        {
          "indexed": true,
          "internalType": "address",
          "name": "owner",
          "type": "address"
        },
        {
          "indexed": true,
          "internalType": "address",
          "name": "operator",
          "type": "address"
        },
        {
          "indexed": false,
          "internalType": "bool",
          "name": "approved",
          "type": "bool"
        }
      ],
      "name": "ApprovalForAll",
      "type": "event"
    },
    {
      "anonymous": false,
      "inputs": [
        {
          "indexed": false,
          "internalType": "uint256",
          "name": "totalMinted",
          "type": "uint256"
        }
      ],
      "name": "Minted",
      "type": "event"
    },
    {
      "anonymous": false,
      "inputs": [
        {
          "indexed": true,
          "internalType": "address",
          "name": "previousOwner",
          "type": "address"
        },
        {
          "indexed": true,
          "internalType": "address",
          "name": "newOwner",
          "type": "address"
        }
      ],
      "name": "OwnershipTransferred",
      "type": "event"
    },
    {
      "anonymous": false,
      "inputs": [
        {
          "indexed": true,
          "internalType": "address",
          "name": "from",
          "type": "address"
        },
        {
          "indexed": true,
          "internalType": "address",
          "name": "to",
          "type": "address"
        },
        {
          "indexed": true,
          "internalType": "uint256",
          "name": "tokenId",
          "type": "uint256"
        }
      ],
      "name": "Transfer",
      "type": "event"
    },
    {
      "inputs": [
        {
          "internalType": "uint256",
          "name": "",
          "type": "uint256"
        }
      ],
      "name": "_transferToContract",
      "outputs": [
        {
          "internalType": "bool",
          "name": "",
          "type": "bool"
        }
      ],
      "stateMutability": "view",
      "type": "function"
    },
    {
      "inputs": [
        {
          "internalType": "address",
          "name": "",
          "type": "address"
        }
      ],
      "name": "addressMintedBalance",
      "outputs": [
        {
          "internalType": "uint256",
          "name": "",
          "type": "uint256"
        }
      ],
      "stateMutability": "view",
      "type": "function"
    },
    {
      "inputs": [],
      "name": "allowedToContract",
      "outputs": [
        {
          "internalType": "bool",
          "name": "",
          "type": "bool"
        }
      ],
      "stateMutability": "view",
      "type": "function"
    },
    {
      "inputs": [
        {
          "internalType": "address",
          "name": "to",
          "type": "address"
        },
        {
          "internalType": "uint256",
          "name": "tokenId",
          "type": "uint256"
        }
      ],
      "name": "approve",
      "outputs": [],
      "stateMutability": "nonpayable",
      "type": "function"
    },
    {
      "inputs": [
        {
          "internalType": "address",
          "name": "owner",
          "type": "address"
        }
      ],
      "name": "balanceOf",
      "outputs": [
        {
          "internalType": "uint256",
          "name": "",
          "type": "uint256"
        }
      ],
      "stateMutability": "view",
      "type": "function"
    },
    {
      "inputs": [
        {
          "internalType": "uint256",
          "name": "_newMaxMintPerTx",
          "type": "uint256"
        }
      ],
      "name": "changeMaxMintPerTx",
      "outputs": [],
      "stateMutability": "nonpayable",
      "type": "function"
    },
    {
      "inputs": [
        {
          "internalType": "uint256",
          "name": "_newMaxMintPerWallet",
          "type": "uint256"
        }
      ],
      "name": "changeMaxMintPerWallet",
      "outputs": [],
      "stateMutability": "nonpayable",
      "type": "function"
    },
    {
      "inputs": [
        {
          "internalType": "uint256",
          "name": "_newMaxSupply",
          "type": "uint256"
        }
      ],
      "name": "changeMaxSupply",
      "outputs": [],
      "stateMutability": "nonpayable",
      "type": "function"
    },
    {
      "inputs": [
        {
          "internalType": "uint256",
          "name": "_newPrice",
          "type": "uint256"
        }
      ],
      "name": "changePrice",
      "outputs": [],
      "stateMutability": "nonpayable",
      "type": "function"
    },
    {
      "inputs": [
        {
          "internalType": "uint256",
          "name": "tokenId",
          "type": "uint256"
        }
      ],
      "name": "getApproved",
      "outputs": [
        {
          "internalType": "address",
          "name": "",
          "type": "address"
        }
      ],
      "stateMutability": "view",
      "type": "function"
    },
    {
      "inputs": [
        {
          "internalType": "address",
          "name": "owner",
          "type": "address"
        },
        {
          "internalType": "address",
          "name": "operator",
          "type": "address"
        }
      ],
      "name": "isApprovedForAll",
      "outputs": [
        {
          "internalType": "bool",
          "name": "",
          "type": "bool"
        }
      ],
      "stateMutability": "view",
      "type": "function"
    },
    {
      "inputs": [],
      "name": "isPrivateMintEnabled",
      "outputs": [
        {
          "internalType": "bool",
          "name": "",
          "type": "bool"
        }
      ],
      "stateMutability": "view",
      "type": "function"
    },
    {
      "inputs": [],
      "name": "isPublicMintEnabled",
      "outputs": [
        {
          "internalType": "bool",
          "name": "",
          "type": "bool"
        }
      ],
      "stateMutability": "view",
      "type": "function"
    },
    {
      "inputs": [],
      "name": "isRevealed",
      "outputs": [
        {
          "internalType": "bool",
          "name": "",
          "type": "bool"
        }
      ],
      "stateMutability": "view",
      "type": "function"
    },
    {
      "inputs": [],
      "name": "maxMintPerTx",
      "outputs": [
        {
          "internalType": "uint256",
          "name": "",
          "type": "uint256"
        }
      ],
      "stateMutability": "view",
      "type": "function"
    },
    {
      "inputs": [],
      "name": "maxMintPerWallet",
      "outputs": [
        {
          "internalType": "uint256",
          "name": "",
          "type": "uint256"
        }
      ],
      "stateMutability": "view",
      "type": "function"
    },
    {
      "inputs": [],
      "name": "maxSupply",
      "outputs": [
        {
          "internalType": "uint256",
          "name": "",
          "type": "uint256"
        }
      ],
      "stateMutability": "view",
      "type": "function"
    },
    {
      "inputs": [
        {
          "internalType": "uint256",
          "name": "_count",
          "type": "uint256"
        }
      ],
      "name": "mint",
      "outputs": [],
      "stateMutability": "payable",
      "type": "function"
    },
    {
      "inputs": [],
      "name": "name",
      "outputs": [
        {
          "internalType": "string",
          "name": "",
          "type": "string"
        }
      ],
      "stateMutability": "view",
      "type": "function"
    },
    {
      "inputs": [],
      "name": "owner",
      "outputs": [
        {
          "internalType": "address",
          "name": "",
          "type": "address"
        }
      ],
      "stateMutability": "view",
      "type": "function"
    },
    {
      "inputs": [
        {
          "internalType": "uint256",
          "name": "tokenId",
          "type": "uint256"
        }
      ],
      "name": "ownerOf",
      "outputs": [
        {
          "internalType": "address",
          "name": "",
          "type": "address"
        }
      ],
      "stateMutability": "view",
      "type": "function"
    },
    {
      "inputs": [],
      "name": "price",
      "outputs": [
        {
          "internalType": "uint256",
          "name": "",
          "type": "uint256"
        }
      ],
      "stateMutability": "view",
      "type": "function"
    },
    {
      "inputs": [
        {
          "internalType": "bytes32[]",
          "name": "_merkleProof",
          "type": "bytes32[]"
        },
        {
          "internalType": "uint256",
          "name": "_count",
          "type": "uint256"
        }
      ],
      "name": "privateMint",
      "outputs": [],
      "stateMutability": "payable",
      "type": "function"
    },
    {
      "inputs": [],
      "name": "privateMintMerkleRoot",
      "outputs": [
        {
          "internalType": "bytes32",
          "name": "",
          "type": "bytes32"
        }
      ],
      "stateMutability": "view",
      "type": "function"
    },
    {
      "inputs": [
        {
          "internalType": "address",
          "name": "",
          "type": "address"
        }
      ],
      "name": "privateMintParticipants",
      "outputs": [
        {
          "internalType": "bool",
          "name": "",
          "type": "bool"
        }
      ],
      "stateMutability": "view",
      "type": "function"
    },
    {
      "inputs": [],
      "name": "renounceOwnership",
      "outputs": [],
      "stateMutability": "nonpayable",
      "type": "function"
    },
    {
      "inputs": [
        {
          "internalType": "address",
          "name": "from",
          "type": "address"
        },
        {
          "internalType": "address",
          "name": "to",
          "type": "address"
        },
        {
          "internalType": "uint256",
          "name": "tokenId",
          "type": "uint256"
        }
      ],
      "name": "safeTransferFrom",
      "outputs": [],
      "stateMutability": "nonpayable",
      "type": "function"
    },
    {
      "inputs": [
        {
          "internalType": "address",
          "name": "from",
          "type": "address"
        },
        {
          "internalType": "address",
          "name": "to",
          "type": "address"
        },
        {
          "internalType": "uint256",
          "name": "tokenId",
          "type": "uint256"
        },
        {
          "internalType": "bytes",
          "name": "_data",
          "type": "bytes"
        }
      ],
      "name": "safeTransferFrom",
      "outputs": [],
      "stateMutability": "nonpayable",
      "type": "function"
    },
    {
      "inputs": [],
      "name": "setAllowToContract",
      "outputs": [],
      "stateMutability": "nonpayable",
      "type": "function"
    },
    {
      "inputs": [
        {
          "internalType": "uint256",
          "name": "_tokenId",
          "type": "uint256"
        },
        {
          "internalType": "bool",
          "name": "_allow",
          "type": "bool"
        }
      ],
      "name": "setAllowTokenToContract",
      "outputs": [],
      "stateMutability": "nonpayable",
      "type": "function"
    },
    {
      "inputs": [
        {
          "internalType": "address",
          "name": "operator",
          "type": "address"
        },
        {
          "internalType": "bool",
          "name": "approved",
          "type": "bool"
        }
      ],
      "name": "setApprovalForAll",
      "outputs": [],
      "stateMutability": "nonpayable",
      "type": "function"
    },
    {
      "inputs": [
        {
          "internalType": "string",
          "name": "_hiddenMetadataUri",
          "type": "string"
        }
      ],
      "name": "setHiddenMetadataUri",
      "outputs": [],
      "stateMutability": "nonpayable",
      "type": "function"
    },
    {
      "inputs": [
        {
          "internalType": "bool",
          "name": "isPrivateMintEnabled_",
          "type": "bool"
        }
      ],
      "name": "setIsPrivateMintEnabled",
      "outputs": [],
      "stateMutability": "nonpayable",
      "type": "function"
    },
    {
      "inputs": [
        {
          "internalType": "bool",
          "name": "isPublicMintEnabled_",
          "type": "bool"
        }
      ],
      "name": "setIsPublicMintEnabled",
      "outputs": [],
      "stateMutability": "nonpayable",
      "type": "function"
    },
    {
      "inputs": [
        {
          "internalType": "bool",
          "name": "_state",
          "type": "bool"
        }
      ],
      "name": "setIsRevealed",
      "outputs": [],
      "stateMutability": "nonpayable",
      "type": "function"
    },
    {
      "inputs": [
        {
          "internalType": "uint256",
          "name": "_maxMintPerTx",
          "type": "uint256"
        }
      ],
      "name": "setMaxMintPerTx",
      "outputs": [],
      "stateMutability": "nonpayable",
      "type": "function"
    },
    {
      "inputs": [
        {
          "internalType": "uint256",
          "name": "_maxMintPerWallet",
          "type": "uint256"
        }
      ],
      "name": "setMaxMintPerWallet",
      "outputs": [],
      "stateMutability": "nonpayable",
      "type": "function"
    },
    {
      "inputs": [
        {
          "internalType": "bytes32",
          "name": "_privateMintMerkleRoot",
          "type": "bytes32"
        }
      ],
      "name": "setPrivateMintMerkleRoot",
      "outputs": [],
      "stateMutability": "nonpayable",
      "type": "function"
    },
    {
      "inputs": [
        {
          "internalType": "string",
          "name": "_uriPrefix",
          "type": "string"
        }
      ],
      "name": "setUriPrefix",
      "outputs": [],
      "stateMutability": "nonpayable",
      "type": "function"
    },
    {
      "inputs": [
        {
          "internalType": "string",
          "name": "_uriSuffix",
          "type": "string"
        }
      ],
      "name": "setUriSuffix",
      "outputs": [],
      "stateMutability": "nonpayable",
      "type": "function"
    },
    {
      "inputs": [
        {
          "internalType": "address",
          "name": "withdrawWalletAddress_",
          "type": "address"
        }
      ],
      "name": "setWithdrawWallet",
      "outputs": [],
      "stateMutability": "nonpayable",
      "type": "function"
    },
    {
      "inputs": [
        {
          "internalType": "bytes4",
          "name": "interfaceId",
          "type": "bytes4"
        }
      ],
      "name": "supportsInterface",
      "outputs": [
        {
          "internalType": "bool",
          "name": "",
          "type": "bool"
        }
      ],
      "stateMutability": "view",
      "type": "function"
    },
    {
      "inputs": [],
      "name": "symbol",
      "outputs": [
        {
          "internalType": "string",
          "name": "",
          "type": "string"
        }
      ],
      "stateMutability": "view",
      "type": "function"
    },
    {
      "inputs": [
        {
          "internalType": "address[]",
          "name": "tos",
          "type": "address[]"
        }
      ],
      "name": "teamMint",
      "outputs": [],
      "stateMutability": "nonpayable",
      "type": "function"
    },
    {
      "inputs": [
        {
          "internalType": "uint256",
          "name": "index",
          "type": "uint256"
        }
      ],
      "name": "tokenByIndex",
      "outputs": [
        {
          "internalType": "uint256",
          "name": "",
          "type": "uint256"
        }
      ],
      "stateMutability": "view",
      "type": "function"
    },
    {
      "inputs": [
        {
          "internalType": "address",
          "name": "owner",
          "type": "address"
        },
        {
          "internalType": "uint256",
          "name": "index",
          "type": "uint256"
        }
      ],
      "name": "tokenOfOwnerByIndex",
      "outputs": [
        {
          "internalType": "uint256",
          "name": "",
          "type": "uint256"
        }
      ],
      "stateMutability": "view",
      "type": "function"
    },
    {
      "inputs": [
        {
          "internalType": "uint256",
          "name": "_tokenId",
          "type": "uint256"
        }
      ],
      "name": "tokenURI",
      "outputs": [
        {
          "internalType": "string",
          "name": "",
          "type": "string"
        }
      ],
      "stateMutability": "nonpayable",
      "type": "function"
    },
    {
      "inputs": [],
      "name": "totalSupply",
      "outputs": [
        {
          "internalType": "uint256",
          "name": "",
          "type": "uint256"
        }
      ],
      "stateMutability": "view",
      "type": "function"
    },
    {
      "inputs": [
        {
          "internalType": "address",
          "name": "from",
          "type": "address"
        },
        {
          "internalType": "address",
          "name": "to",
          "type": "address"
        },
        {
          "internalType": "uint256",
          "name": "tokenId",
          "type": "uint256"
        }
      ],
      "name": "transferFrom",
      "outputs": [],
      "stateMutability": "nonpayable",
      "type": "function"
    },
    {
      "inputs": [
        {
          "internalType": "address",
          "name": "newOwner",
          "type": "address"
        }
      ],
      "name": "transferOwnership",
      "outputs": [],
      "stateMutability": "nonpayable",
      "type": "function"
    },
    {
      "inputs": [],
      "name": "uriSuffix",
      "outputs": [
        {
          "internalType": "string",
          "name": "",
          "type": "string"
        }
      ],
      "stateMutability": "view",
      "type": "function"
    },
    {
      "inputs": [
        {
          "internalType": "address",
          "name": "_owner",
          "type": "address"
        }
      ],
      "name": "walletOfOwner",
      "outputs": [
        {
          "internalType": "uint256[]",
          "name": "",
          "type": "uint256[]"
        }
      ],
      "stateMutability": "view",
      "type": "function"
    },
    {
      "inputs": [],
      "name": "withdraw",
      "outputs": [],
      "stateMutability": "nonpayable",
      "type": "function"
    },
    {
      "inputs": [],
      "name": "withdrawWallet",
      "outputs": [
        {
          "internalType": "address payable",
          "name": "",
          "type": "address"
        }
      ],
      "stateMutability": "view",
      "type": "function"
    }
  ],
  "bytecode": "0x6080604052600180556000600560006101000a81548160ff02191690831515021790555060405180602001604052806000815250600e90805190602001906200004a929190620003d1565b506040518060400160405280600581526020017f2e6a736f6e000000000000000000000000000000000000000000000000000000815250600f908051906020019062000098929190620003d1565b506115b3601155600060125560056013556005601455662386f26fc100006015556001601760146101000a81548160ff0219169083151502179055506001601760156101000a81548160ff0219169083151502179055506000601760166101000a81548160ff0219169083151502179055503480156200011757600080fd5b506040518060400160405280600e81526020017f46656c696e65536f756c6d6174650000000000000000000000000000000000008152506040518060400160405280600281526020017f4653000000000000000000000000000000000000000000000000000000000000815250600062000196620002f560201b60201c565b9050806000806101000a81548173ffffffffffffffffffffffffffffffffffffffff021916908373ffffffffffffffffffffffffffffffffffffffff1602179055508073ffffffffffffffffffffffffffffffffffffffff16600073ffffffffffffffffffffffffffffffffffffffff167f8be0079c531659141344cd1fd0a4f28419497f9722a3daafe3b4186f6b6457e060405160405180910390a35081600390805190602001906200024c929190620003d1565b50806004908051906020019062000265929190620003d1565b50505033601760006101000a81548173ffffffffffffffffffffffffffffffffffffffff021916908373ffffffffffffffffffffffffffffffffffffffff160217905550620002ef6040518060400160405280601a81526020017f697066733a2f2f5f5f4349445f5f2f68696464656e2e6a736f6e000000000000815250620002fd60201b60201c565b62000569565b600033905090565b6200030d620002f560201b60201c565b73ffffffffffffffffffffffffffffffffffffffff1662000333620003a860201b60201c565b73ffffffffffffffffffffffffffffffffffffffff16146200038c576040517f08c379a00000000000000000000000000000000000000000000000000000000081526004016200038390620004a8565b60405180910390fd5b8060109080519060200190620003a4929190620003d1565b5050565b60008060009054906101000a900473ffffffffffffffffffffffffffffffffffffffff16905090565b828054620003df90620004db565b90600052602060002090601f0160209004810192826200040357600085556200044f565b82601f106200041e57805160ff19168380011785556200044f565b828001600101855582156200044f579182015b828111156200044e57825182559160200191906001019062000431565b5b5090506200045e919062000462565b5090565b5b808211156200047d57600081600090555060010162000463565b5090565b600062000490602083620004ca565b91506200049d8262000540565b602082019050919050565b60006020820190508181036000830152620004c38162000481565b9050919050565b600082825260208201905092915050565b60006002820490506001821680620004f457607f821691505b602082108114156200050b576200050a62000511565b5b50919050565b7f4e487b7100000000000000000000000000000000000000000000000000000000600052602260045260246000fd5b7f4f776e61626c653a2063616c6c6572206973206e6f7420746865206f776e6572600082015250565b615b2e80620005796000396000f3fe6080604052600436106103355760003560e01c8063616cdb1e116101ab578063a0712d68116100f7578063c87b56dd11610095578063e80d1a1c1161006f578063e80d1a1c14610be4578063e985e9c514610c0f578063f002858514610c4c578063f2fde38b14610c7557610335565b8063c87b56dd14610b51578063d5abeb0114610b8e578063de7fcb1d14610bb957610335565b8063afdf6134116100d1578063afdf613414610a97578063b228d92514610ac0578063b88d4fde14610aeb578063c080519714610b1457610335565b8063a0712d6814610a29578063a22cb46514610a45578063a2b40d1914610a6e57610335565b806385d178f41161016457806395d89b411161013e57806395d89b411461097f5780639ad01e6f146109aa5780639e8b30eb146109d3578063a035b1fe146109fe57610335565b806385d178f4146109005780638da5cb5b1461092b5780639373f4321461095657610335565b8063616cdb1e146108065780636352211e1461082f57806370a082311461086c578063715018a6146108a95780637ec4a659146108c0578063801fe59b146108e957610335565b806328818b96116102855780634aaf78f11161022357806354214f69116101fd57806354214f691461075e5780635503a0e814610789578063559e75b3146107b457806355a55465146107dd57610335565b80634aaf78f1146106cd5780634f6ccce7146106f85780634fdd43cb1461073557610335565b8063404c7cdd1161025f578063404c7cdd1461061557806342842e0e1461063e578063438b63001461066757806349a5980a146106a457610335565b806328818b96146105a55780632f745c59146105c15780633ccfd60b146105fe57610335565b80631465f531116102f257806318cae269116102cc57806318cae269146104d95780631d778165146105165780632373ac221461055357806323b872dd1461057c57610335565b80631465f5311461045c57806316ba10e01461048557806318160ddd146104ae57610335565b80630116bc2d1461033a57806301ffc9a71461036557806306fdde03146103a2578063081812fc146103cd57806308ea92651461040a578063095ea7b314610433575b600080fd5b34801561034657600080fd5b5061034f610c9e565b60405161035c9190614fef565b60405180910390f35b34801561037157600080fd5b5061038c60048036038101906103879190614a67565b610cb1565b6040516103999190614fef565b60405180910390f35b3480156103ae57600080fd5b506103b7610dfb565b6040516103c49190615025565b60405180910390f35b3480156103d957600080fd5b506103f460048036038101906103ef9190614ad1565b610e8d565b6040516104019190614f97565b60405180910390f35b34801561041657600080fd5b50610431600480360381019061042c9190614ad1565b610f09565b005b34801561043f57600080fd5b5061045a60048036038101906104559190614940565b610f8f565b005b34801561046857600080fd5b50610483600480360381019061047e9190614a3e565b61114a565b005b34801561049157600080fd5b506104ac60048036038101906104a79190614a90565b6111d0565b005b3480156104ba57600080fd5b506104c3611266565b6040516104d09190615227565b60405180910390f35b3480156104e557600080fd5b5061050060048036038101906104fb91906147d5565b611270565b60405161050d9190615227565b60405180910390f35b34801561052257600080fd5b5061053d600480360381019061053891906147d5565b611288565b60405161054a9190614fef565b60405180910390f35b34801561055f57600080fd5b5061057a60048036038101906105759190614a15565b6112a8565b005b34801561058857600080fd5b506105a3600480360381019061059e919061483a565b611341565b005b6105bf60048036038101906105ba91906149bd565b611351565b005b3480156105cd57600080fd5b506105e860048036038101906105e39190614940565b611861565b6040516105f59190615227565b60405180910390f35b34801561060a57600080fd5b50610613611a3b565b005b34801561062157600080fd5b5061063c60048036038101906106379190614ad1565b611b66565b005b34801561064a57600080fd5b506106656004803603810190610660919061483a565b611bec565b005b34801561067357600080fd5b5061068e600480360381019061068991906147d5565b611c0c565b60405161069b9190614fcd565b60405180910390f35b3480156106b057600080fd5b506106cb60048036038101906106c69190614a15565b611d63565b005b3480156106d957600080fd5b506106e2611dfc565b6040516106ef9190614fef565b60405180910390f35b34801561070457600080fd5b5061071f600480360381019061071a9190614ad1565b611e0f565b60405161072c9190615227565b60405180910390f35b34801561074157600080fd5b5061075c60048036038101906107579190614a90565b611f54565b005b34801561076a57600080fd5b50610773611fea565b6040516107809190614fef565b60405180910390f35b34801561079557600080fd5b5061079e611ffd565b6040516107ab9190615025565b60405180910390f35b3480156107c057600080fd5b506107db60048036038101906107d69190614a15565b61208b565b005b3480156107e957600080fd5b5061080460048036038101906107ff9190614afa565b612124565b005b34801561081257600080fd5b5061082d60048036038101906108289190614ad1565b6121cf565b005b34801561083b57600080fd5b5061085660048036038101906108519190614ad1565b612255565b6040516108639190614f97565b60405180910390f35b34801561087857600080fd5b50610893600480360381019061088e91906147d5565b61226b565b6040516108a09190615227565b60405180910390f35b3480156108b557600080fd5b506108be61233b565b005b3480156108cc57600080fd5b506108e760048036038101906108e29190614a90565b612475565b005b3480156108f557600080fd5b506108fe61250b565b005b34801561090c57600080fd5b506109156125b3565b6040516109229190614fb2565b60405180910390f35b34801561093757600080fd5b506109406125d9565b60405161094d9190614f97565b60405180910390f35b34801561096257600080fd5b5061097d600480360381019061097891906147d5565b612602565b005b34801561098b57600080fd5b506109946126c2565b6040516109a19190615025565b60405180910390f35b3480156109b657600080fd5b506109d160048036038101906109cc9190614ad1565b612754565b005b3480156109df57600080fd5b506109e86127da565b6040516109f5919061500a565b60405180910390f35b348015610a0a57600080fd5b50610a136127e0565b604051610a209190615227565b60405180910390f35b610a436004803603810190610a3e9190614ad1565b6127e6565b005b348015610a5157600080fd5b50610a6c6004803603810190610a679190614904565b612b56565b005b348015610a7a57600080fd5b50610a956004803603810190610a909190614ad1565b612e4e565b005b348015610aa357600080fd5b50610abe6004803603810190610ab99190614ad1565b612ed4565b005b348015610acc57600080fd5b50610ad5612f5a565b604051610ae29190615227565b60405180910390f35b348015610af757600080fd5b50610b126004803603810190610b0d9190614889565b612f60565b005b348015610b2057600080fd5b50610b3b6004803603810190610b369190614ad1565b612fb3565b604051610b489190614fef565b60405180910390f35b348015610b5d57600080fd5b50610b786004803603810190610b739190614ad1565b612fd3565b604051610b859190615025565b60405180910390f35b348015610b9a57600080fd5b50610ba361312c565b604051610bb09190615227565b60405180910390f35b348015610bc557600080fd5b50610bce613132565b604051610bdb9190615227565b60405180910390f35b348015610bf057600080fd5b50610bf9613138565b604051610c069190614fef565b60405180910390f35b348015610c1b57600080fd5b50610c366004803603810190610c3191906147fe565b61314b565b604051610c439190614fef565b60405180910390f35b348015610c5857600080fd5b50610c736004803603810190610c6e919061497c565b6131df565b005b348015610c8157600080fd5b50610c9c6004803603810190610c9791906147d5565b6132c9565b005b601760169054906101000a900460ff1681565b60007f80ac58cd000000000000000000000000000000000000000000000000000000007bffffffffffffffffffffffffffffffffffffffffffffffffffffffff1916827bffffffffffffffffffffffffffffffffffffffffffffffffffffffff19161480610d7c57507f5b5e139f000000000000000000000000000000000000000000000000000000007bffffffffffffffffffffffffffffffffffffffffffffffffffffffff1916827bffffffffffffffffffffffffffffffffffffffffffffffffffffffff1916145b80610de457507f780e9d63000000000000000000000000000000000000000000000000000000007bffffffffffffffffffffffffffffffffffffffffffffffffffffffff1916827bffffffffffffffffffffffffffffffffffffffffffffffffffffffff1916145b80610df45750610df382613472565b5b9050919050565b606060038054610e0a9061555c565b80601f0160208091040260200160405190810160405280929190818152602001828054610e369061555c565b8015610e835780601f10610e5857610100808354040283529160200191610e83565b820191906000526020600020905b815481529060010190602001808311610e6657829003601f168201915b5050505050905090565b6000610e98826134dc565b610ece576040517fcf4700e400000000000000000000000000000000000000000000000000000000815260040160405180910390fd5b6008600083815260200190815260200160002060009054906101000a900473ffffffffffffffffffffffffffffffffffffffff169050919050565b610f11613559565b73ffffffffffffffffffffffffffffffffffffffff16610f2f6125d9565b73ffffffffffffffffffffffffffffffffffffffff1614610f85576040517f08c379a0000000000000000000000000000000000000000000000000000000008152600401610f7c90615187565b60405180910390fd5b8060148190555050565b6000610f9a82612255565b90508073ffffffffffffffffffffffffffffffffffffffff168373ffffffffffffffffffffffffffffffffffffffff161415611002576040517f943f7b8c00000000000000000000000000000000000000000000000000000000815260040160405180910390fd5b8073ffffffffffffffffffffffffffffffffffffffff16611021613559565b73ffffffffffffffffffffffffffffffffffffffff161415801561105357506110518161104c613559565b61314b565b155b1561108a576040517fcfb3b94200000000000000000000000000000000000000000000000000000000815260040160405180910390fd5b600560009054906101000a900460ff161580156110c55750600a600083815260200190815260200160002060009054906101000a900460ff16155b15611139576110e98373ffffffffffffffffffffffffffffffffffffffff16613561565b15611129576040517f08c379a0000000000000000000000000000000000000000000000000000000008152600401611120906150c7565b60405180910390fd5b611134838383613584565b611145565b611144838383613584565b5b505050565b611152613559565b73ffffffffffffffffffffffffffffffffffffffff166111706125d9565b73ffffffffffffffffffffffffffffffffffffffff16146111c6576040517f08c379a00000000000000000000000000000000000000000000000000000000081526004016111bd90615187565b60405180910390fd5b8060188190555050565b6111d8613559565b73ffffffffffffffffffffffffffffffffffffffff166111f66125d9565b73ffffffffffffffffffffffffffffffffffffffff161461124c576040517f08c379a000000000000000000000000000000000000000000000000000000000815260040161124390615187565b60405180910390fd5b80600f90805190602001906112629291906144d6565b5050565b6000601254905090565b60166020528060005260406000206000915090505481565b60196020528060005260406000206000915054906101000a900460ff1681565b6112b0613559565b73ffffffffffffffffffffffffffffffffffffffff166112ce6125d9565b73ffffffffffffffffffffffffffffffffffffffff1614611324576040517f08c379a000000000000000000000000000000000000000000000000000000000815260040161131b90615187565b60405180910390fd5b80601760166101000a81548160ff02191690831515021790555050565b61134c838383613636565b505050565b601760169054906101000a900460ff16156113a1576040517f08c379a0000000000000000000000000000000000000000000000000000000008152600401611398906150a7565b60405180910390fd5b3373ffffffffffffffffffffffffffffffffffffffff163273ffffffffffffffffffffffffffffffffffffffff161461140f576040517f08c379a000000000000000000000000000000000000000000000000000000000815260040161140690615087565b60405180910390fd5b6011548161141b611266565b6114259190615375565b1115611466576040517f08c379a000000000000000000000000000000000000000000000000000000000815260040161145d906151c7565b60405180910390fd5b600081116114a9576040517f08c379a00000000000000000000000000000000000000000000000000000000081526004016114a090615047565b60405180910390fd5b601960003373ffffffffffffffffffffffffffffffffffffffff1673ffffffffffffffffffffffffffffffffffffffff16815260200190815260200160002060009054906101000a900460ff1615611536576040517f08c379a000000000000000000000000000000000000000000000000000000000815260040161152d90615127565b60405180910390fd5b61153e6125d9565b73ffffffffffffffffffffffffffffffffffffffff163373ffffffffffffffffffffffffffffffffffffffff161461169b576013548111156115b5576040517f08c379a00000000000000000000000000000000000000000000000000000000081526004016115ac906151e7565b60405180910390fd5b806015546115c391906153fc565b341015611605576040517f08c379a00000000000000000000000000000000000000000000000000000000081526004016115fc90615167565b60405180910390fd5b6000601660003373ffffffffffffffffffffffffffffffffffffffff1673ffffffffffffffffffffffffffffffffffffffff16815260200190815260200160002054905060145482826116589190615375565b1115611699576040517f08c379a000000000000000000000000000000000000000000000000000000000815260040161169090615107565b60405180910390fd5b505b6000336040516020016116ae9190614f36565b604051602081830303815290604052805190602001209050611714848480806020026020016040519081016040528093929190818152602001838360200280828437600081840152601f19601f8201169050808301925050505050505060185483613b27565b611753576040517f08c379a000000000000000000000000000000000000000000000000000000000815260040161174a90615147565b60405180910390fd5b81601260008282546117659190615375565b9250508190555081601660003373ffffffffffffffffffffffffffffffffffffffff1673ffffffffffffffffffffffffffffffffffffffff16815260200190815260200160002060008282546117bb9190615375565b925050819055506117cc3383613b3e565b6001601960003373ffffffffffffffffffffffffffffffffffffffff1673ffffffffffffffffffffffffffffffffffffffff16815260200190815260200160002060006101000a81548160ff0219169083151502179055507f176b02bb2d12439ff7a20b59f402cca16c76f50508b13ef3166a600eb719354a826040516118539190615227565b60405180910390a150505050565b600061186c8361226b565b82106118a4576040517f0ddac30e00000000000000000000000000000000000000000000000000000000815260040160405180910390fd5b6000600154905060008060005b83811015611a2f576000600660008381526020019081526020016000206040518060600160405290816000820160009054906101000a900473ffffffffffffffffffffffffffffffffffffffff1673ffffffffffffffffffffffffffffffffffffffff1673ffffffffffffffffffffffffffffffffffffffff1681526020016000820160149054906101000a900467ffffffffffffffff1667ffffffffffffffff1667ffffffffffffffff16815260200160008201601c9054906101000a900460ff161515151581525050905080604001511561198e5750611a22565b600073ffffffffffffffffffffffffffffffffffffffff16816000015173ffffffffffffffffffffffffffffffffffffffff16146119ce57806000015192505b8773ffffffffffffffffffffffffffffffffffffffff168373ffffffffffffffffffffffffffffffffffffffff161415611a205786841415611a17578195505050505050611a35565b83806001019450505b505b80806001019150506118b1565b50600080fd5b92915050565b611a43613559565b73ffffffffffffffffffffffffffffffffffffffff16611a616125d9565b73ffffffffffffffffffffffffffffffffffffffff1614611ab7576040517f08c379a0000000000000000000000000000000000000000000000000000000008152600401611aae90615187565b60405180910390fd5b60003373ffffffffffffffffffffffffffffffffffffffff1647604051611add90614f82565b60006040518083038185875af1925050503d8060008114611b1a576040519150601f19603f3d011682016040523d82523d6000602084013e611b1f565b606091505b5050905080611b63576040517f08c379a0000000000000000000000000000000000000000000000000000000008152600401611b5a90615207565b60405180910390fd5b50565b611b6e613559565b73ffffffffffffffffffffffffffffffffffffffff16611b8c6125d9565b73ffffffffffffffffffffffffffffffffffffffff1614611be2576040517f08c379a0000000000000000000000000000000000000000000000000000000008152600401611bd990615187565b60405180910390fd5b8060118190555050565b611c0783838360405180602001604052806000815250612f60565b505050565b60606000611c198361226b565b905060008167ffffffffffffffff811115611c5d577f4e487b7100000000000000000000000000000000000000000000000000000000600052604160045260246000fd5b604051908082528060200260200182016040528015611c8b5781602001602082028036833780820191505090505b50905060006001905060005b8381108015611ca857506011548211155b15611d57576000611cb883612255565b90508673ffffffffffffffffffffffffffffffffffffffff168173ffffffffffffffffffffffffffffffffffffffff161415611d435782848381518110611d28577f4e487b7100000000000000000000000000000000000000000000000000000000600052603260045260246000fd5b6020026020010181815250508180611d3f906155bf565b9250505b8280611d4e906155bf565b93505050611c97565b82945050505050919050565b611d6b613559565b73ffffffffffffffffffffffffffffffffffffffff16611d896125d9565b73ffffffffffffffffffffffffffffffffffffffff1614611ddf576040517f08c379a0000000000000000000000000000000000000000000000000000000008152600401611dd690615187565b60405180910390fd5b80601760146101000a81548160ff02191690831515021790555050565b600560009054906101000a900460ff1681565b60008060015490506000805b82811015611f1c576000600660008381526020019081526020016000206040518060600160405290816000820160009054906101000a900473ffffffffffffffffffffffffffffffffffffffff1673ffffffffffffffffffffffffffffffffffffffff1673ffffffffffffffffffffffffffffffffffffffff1681526020016000820160149054906101000a900467ffffffffffffffff1667ffffffffffffffff1667ffffffffffffffff16815260200160008201601c9054906101000a900460ff16151515158152505090508060400151611f0e5785831415611f055781945050505050611f4f565b82806001019350505b508080600101915050611e1b565b506040517fa723001c00000000000000000000000000000000000000000000000000000000815260040160405180910390fd5b919050565b611f5c613559565b73ffffffffffffffffffffffffffffffffffffffff16611f7a6125d9565b73ffffffffffffffffffffffffffffffffffffffff1614611fd0576040517f08c379a0000000000000000000000000000000000000000000000000000000008152600401611fc790615187565b60405180910390fd5b8060109080519060200190611fe69291906144d6565b5050565b601760149054906101000a900460ff1681565b600f805461200a9061555c565b80601f01602080910402602001604051908101604052809291908181526020018280546120369061555c565b80156120835780601f1061205857610100808354040283529160200191612083565b820191906000526020600020905b81548152906001019060200180831161206657829003601f168201915b505050505081565b612093613559565b73ffffffffffffffffffffffffffffffffffffffff166120b16125d9565b73ffffffffffffffffffffffffffffffffffffffff1614612107576040517f08c379a00000000000000000000000000000000000000000000000000000000081526004016120fe90615187565b60405180910390fd5b80601760156101000a81548160ff02191690831515021790555050565b61212c613559565b73ffffffffffffffffffffffffffffffffffffffff1661214a6125d9565b73ffffffffffffffffffffffffffffffffffffffff16146121a0576040517f08c379a000000000000000000000000000000000000000000000000000000000815260040161219790615187565b60405180910390fd5b80600a600084815260200190815260200160002060006101000a81548160ff0219169083151502179055505050565b6121d7613559565b73ffffffffffffffffffffffffffffffffffffffff166121f56125d9565b73ffffffffffffffffffffffffffffffffffffffff161461224b576040517f08c379a000000000000000000000000000000000000000000000000000000000815260040161224290615187565b60405180910390fd5b8060138190555050565b600061226082613b5c565b600001519050919050565b60008073ffffffffffffffffffffffffffffffffffffffff168273ffffffffffffffffffffffffffffffffffffffff1614156122d3576040517f8f4eb60400000000000000000000000000000000000000000000000000000000815260040160405180910390fd5b600760008373ffffffffffffffffffffffffffffffffffffffff1673ffffffffffffffffffffffffffffffffffffffff16815260200190815260200160002060000160009054906101000a900467ffffffffffffffff1667ffffffffffffffff169050919050565b612343613559565b73ffffffffffffffffffffffffffffffffffffffff166123616125d9565b73ffffffffffffffffffffffffffffffffffffffff16146123b7576040517f08c379a00000000000000000000000000000000000000000000000000000000081526004016123ae90615187565b60405180910390fd5b600073ffffffffffffffffffffffffffffffffffffffff1660008054906101000a900473ffffffffffffffffffffffffffffffffffffffff1673ffffffffffffffffffffffffffffffffffffffff167f8be0079c531659141344cd1fd0a4f28419497f9722a3daafe3b4186f6b6457e060405160405180910390a360008060006101000a81548173ffffffffffffffffffffffffffffffffffffffff021916908373ffffffffffffffffffffffffffffffffffffffff160217905550565b61247d613559565b73ffffffffffffffffffffffffffffffffffffffff1661249b6125d9565b73ffffffffffffffffffffffffffffffffffffffff16146124f1576040517f08c379a00000000000000000000000000000000000000000000000000000000081526004016124e890615187565b60405180910390fd5b80600e90805190602001906125079291906144d6565b5050565b612513613559565b73ffffffffffffffffffffffffffffffffffffffff166125316125d9565b73ffffffffffffffffffffffffffffffffffffffff1614612587576040517f08c379a000000000000000000000000000000000000000000000000000000000815260040161257e90615187565b60405180910390fd5b600560009054906101000a900460ff1615600560006101000a81548160ff021916908315150217905550565b601760009054906101000a900473ffffffffffffffffffffffffffffffffffffffff1681565b60008060009054906101000a900473ffffffffffffffffffffffffffffffffffffffff16905090565b61260a613559565b73ffffffffffffffffffffffffffffffffffffffff166126286125d9565b73ffffffffffffffffffffffffffffffffffffffff161461267e576040517f08c379a000000000000000000000000000000000000000000000000000000000815260040161267590615187565b60405180910390fd5b80601760006101000a81548173ffffffffffffffffffffffffffffffffffffffff021916908373ffffffffffffffffffffffffffffffffffffffff16021790555050565b6060600480546126d19061555c565b80601f01602080910402602001604051908101604052809291908181526020018280546126fd9061555c565b801561274a5780601f1061271f5761010080835404028352916020019161274a565b820191906000526020600020905b81548152906001019060200180831161272d57829003601f168201915b5050505050905090565b61275c613559565b73ffffffffffffffffffffffffffffffffffffffff1661277a6125d9565b73ffffffffffffffffffffffffffffffffffffffff16146127d0576040517f08c379a00000000000000000000000000000000000000000000000000000000081526004016127c790615187565b60405180910390fd5b8060138190555050565b60185481565b60155481565b601760169054906101000a900460ff1615612836576040517f08c379a000000000000000000000000000000000000000000000000000000000815260040161282d906150a7565b60405180910390fd5b3373ffffffffffffffffffffffffffffffffffffffff163273ffffffffffffffffffffffffffffffffffffffff16146128a4576040517f08c379a000000000000000000000000000000000000000000000000000000000815260040161289b90615087565b60405180910390fd5b601154816128b0611266565b6128ba9190615375565b11156128fb576040517f08c379a00000000000000000000000000000000000000000000000000000000081526004016128f2906151c7565b60405180910390fd5b6000811161293e576040517f08c379a000000000000000000000000000000000000000000000000000000000815260040161293590615047565b60405180910390fd5b6129466125d9565b73ffffffffffffffffffffffffffffffffffffffff163373ffffffffffffffffffffffffffffffffffffffff1614612aa3576013548111156129bd576040517f08c379a00000000000000000000000000000000000000000000000000000000081526004016129b4906151e7565b60405180910390fd5b806015546129cb91906153fc565b341015612a0d576040517f08c379a0000000000000000000000000000000000000000000000000000000008152600401612a0490615167565b60405180910390fd5b6000601660003373ffffffffffffffffffffffffffffffffffffffff1673ffffffffffffffffffffffffffffffffffffffff1681526020019081526020016000205490506014548282612a609190615375565b1115612aa1576040517f08c379a0000000000000000000000000000000000000000000000000000000008152600401612a9890615107565b60405180910390fd5b505b8060126000828254612ab59190615375565b9250508190555080601660003373ffffffffffffffffffffffffffffffffffffffff1673ffffffffffffffffffffffffffffffffffffffff1681526020019081526020016000206000828254612b0b9190615375565b92505081905550612b1c3382613b3e565b7f176b02bb2d12439ff7a20b59f402cca16c76f50508b13ef3166a600eb719354a81604051612b4b9190615227565b60405180910390a150565b612b5e613559565b73ffffffffffffffffffffffffffffffffffffffff168273ffffffffffffffffffffffffffffffffffffffff161415612bc3576040517fb06307db00000000000000000000000000000000000000000000000000000000815260040160405180910390fd5b600560009054906101000a900460ff16612d4257612bf68273ffffffffffffffffffffffffffffffffffffffff16613561565b15612c36576040517f08c379a0000000000000000000000000000000000000000000000000000000008152600401612c2d906150c7565b60405180910390fd5b8060096000612c43613559565b73ffffffffffffffffffffffffffffffffffffffff1673ffffffffffffffffffffffffffffffffffffffff16815260200190815260200160002060008473ffffffffffffffffffffffffffffffffffffffff1673ffffffffffffffffffffffffffffffffffffffff16815260200190815260200160002060006101000a81548160ff0219169083151502179055508173ffffffffffffffffffffffffffffffffffffffff16612cf0613559565b73ffffffffffffffffffffffffffffffffffffffff167f17307eab39ab6107e8899845ad3d59bd9653f200f220920489ca2b5937696c3183604051612d359190614fef565b60405180910390a3612e4a565b8060096000612d4f613559565b73ffffffffffffffffffffffffffffffffffffffff1673ffffffffffffffffffffffffffffffffffffffff16815260200190815260200160002060008473ffffffffffffffffffffffffffffffffffffffff1673ffffffffffffffffffffffffffffffffffffffff16815260200190815260200160002060006101000a81548160ff0219169083151502179055508173ffffffffffffffffffffffffffffffffffffffff16612dfc613559565b73ffffffffffffffffffffffffffffffffffffffff167f17307eab39ab6107e8899845ad3d59bd9653f200f220920489ca2b5937696c3183604051612e419190614fef565b60405180910390a35b5050565b612e56613559565b73ffffffffffffffffffffffffffffffffffffffff16612e746125d9565b73ffffffffffffffffffffffffffffffffffffffff1614612eca576040517f08c379a0000000000000000000000000000000000000000000000000000000008152600401612ec190615187565b60405180910390fd5b8060158190555050565b612edc613559565b73ffffffffffffffffffffffffffffffffffffffff16612efa6125d9565b73ffffffffffffffffffffffffffffffffffffffff1614612f50576040517f08c379a0000000000000000000000000000000000000000000000000000000008152600401612f4790615187565b60405180910390fd5b8060148190555050565b60145481565b612f6b848484613636565b612f7784848484613dd8565b612fad576040517fd1a57ed600000000000000000000000000000000000000000000000000000000815260040160405180910390fd5b50505050565b600a6020528060005260406000206000915054906101000a900460ff1681565b6060612fde826134dc565b61301d576040517f08c379a0000000000000000000000000000000000000000000000000000000008152600401613014906151a7565b60405180910390fd5b60001515601760149054906101000a900460ff16151514156130cb57601080546130469061555c565b80601f01602080910402602001604051908101604052809291908181526020018280546130729061555c565b80156130bf5780601f10613094576101008083540402835291602001916130bf565b820191906000526020600020905b8154815290600101906020018083116130a257829003601f168201915b50505050509050613127565b60006130d5613e8f565b905060008151116130f55760405180602001604052806000815250613123565b806130ff84613f21565b600f60405160200161311393929190614f51565b6040516020818303038152906040525b9150505b919050565b60115481565b60135481565b601760159054906101000a900460ff1681565b6000600960008473ffffffffffffffffffffffffffffffffffffffff1673ffffffffffffffffffffffffffffffffffffffff16815260200190815260200160002060008373ffffffffffffffffffffffffffffffffffffffff1673ffffffffffffffffffffffffffffffffffffffff16815260200190815260200160002060009054906101000a900460ff16905092915050565b6131e7613559565b73ffffffffffffffffffffffffffffffffffffffff166132056125d9565b73ffffffffffffffffffffffffffffffffffffffff161461325b576040517f08c379a000000000000000000000000000000000000000000000000000000000815260040161325290615187565b60405180910390fd5b60005b81518110156132c5576132b28282815181106132a3577f4e487b7100000000000000000000000000000000000000000000000000000000600052603260045260246000fd5b60200260200101516001613b3e565b80806132bd906155bf565b91505061325e565b5050565b6132d1613559565b73ffffffffffffffffffffffffffffffffffffffff166132ef6125d9565b73ffffffffffffffffffffffffffffffffffffffff1614613345576040517f08c379a000000000000000000000000000000000000000000000000000000000815260040161333c90615187565b60405180910390fd5b600073ffffffffffffffffffffffffffffffffffffffff168173ffffffffffffffffffffffffffffffffffffffff1614156133b5576040517f08c379a00000000000000000000000000000000000000000000000000000000081526004016133ac90615067565b60405180910390fd5b8073ffffffffffffffffffffffffffffffffffffffff1660008054906101000a900473ffffffffffffffffffffffffffffffffffffffff1673ffffffffffffffffffffffffffffffffffffffff167f8be0079c531659141344cd1fd0a4f28419497f9722a3daafe3b4186f6b6457e060405160405180910390a3806000806101000a81548173ffffffffffffffffffffffffffffffffffffffff021916908373ffffffffffffffffffffffffffffffffffffffff16021790555050565b60007f01ffc9a7000000000000000000000000000000000000000000000000000000007bffffffffffffffffffffffffffffffffffffffffffffffffffffffff1916827bffffffffffffffffffffffffffffffffffffffffffffffffffffffff1916149050919050565b6000808211613520576040517f08c379a0000000000000000000000000000000000000000000000000000000008152600401613517906150e7565b60405180910390fd5b60015482108015613552575060066000838152602001908152602001600020600001601c9054906101000a900460ff16155b9050919050565b600033905090565b6000808273ffffffffffffffffffffffffffffffffffffffff163b119050919050565b826008600084815260200190815260200160002060006101000a81548173ffffffffffffffffffffffffffffffffffffffff021916908373ffffffffffffffffffffffffffffffffffffffff160217905550818373ffffffffffffffffffffffffffffffffffffffff168273ffffffffffffffffffffffffffffffffffffffff167f8c5be1e5ebec7d5bd14f71427d1e84f3dd0314c0f7b2291e5b200ac8c7c3b92560405160405180910390a4505050565b600061364182613b5c565b90506000816000015173ffffffffffffffffffffffffffffffffffffffff16613668613559565b73ffffffffffffffffffffffffffffffffffffffff16148061369b575061369a8260000151613695613559565b61314b565b5b806136e057506136a9613559565b73ffffffffffffffffffffffffffffffffffffffff166136c884610e8d565b73ffffffffffffffffffffffffffffffffffffffff16145b905080613719576040517f59c896be00000000000000000000000000000000000000000000000000000000815260040160405180910390fd5b8473ffffffffffffffffffffffffffffffffffffffff16826000015173ffffffffffffffffffffffffffffffffffffffff1614613782576040517fa114810000000000000000000000000000000000000000000000000000000000815260040160405180910390fd5b600073ffffffffffffffffffffffffffffffffffffffff168473ffffffffffffffffffffffffffffffffffffffff1614156137e9576040517fea553b3400000000000000000000000000000000000000000000000000000000815260040160405180910390fd5b6137f685858560016140ce565b6138066000848460000151613584565b6001600760008773ffffffffffffffffffffffffffffffffffffffff1673ffffffffffffffffffffffffffffffffffffffff16815260200190815260200160002060000160008282829054906101000a900467ffffffffffffffff160392506101000a81548167ffffffffffffffff021916908367ffffffffffffffff1602179055506001600760008673ffffffffffffffffffffffffffffffffffffffff1673ffffffffffffffffffffffffffffffffffffffff16815260200190815260200160002060000160008282829054906101000a900467ffffffffffffffff160192506101000a81548167ffffffffffffffff021916908367ffffffffffffffff160217905550836006600085815260200190815260200160002060000160006101000a81548173ffffffffffffffffffffffffffffffffffffffff021916908373ffffffffffffffffffffffffffffffffffffffff160217905550426006600085815260200190815260200160002060000160146101000a81548167ffffffffffffffff021916908367ffffffffffffffff1602179055506000600184019050600073ffffffffffffffffffffffffffffffffffffffff166006600083815260200190815260200160002060000160009054906101000a900473ffffffffffffffffffffffffffffffffffffffff1673ffffffffffffffffffffffffffffffffffffffff161415613ab757600154811015613ab65782600001516006600083815260200190815260200160002060000160006101000a81548173ffffffffffffffffffffffffffffffffffffffff021916908373ffffffffffffffffffffffffffffffffffffffff16021790555082602001516006600083815260200190815260200160002060000160146101000a81548167ffffffffffffffff021916908367ffffffffffffffff1602179055505b5b50828473ffffffffffffffffffffffffffffffffffffffff168673ffffffffffffffffffffffffffffffffffffffff167fddf252ad1be2c89b69c2b068fc378daa952ba7f163c4a11628f55a4df523b3ef60405160405180910390a4613b2085858560016140d4565b5050505050565b600082613b3485846140da565b1490509392505050565b613b58828260405180602001604052806000815250614175565b5050565b613b6461455c565b6000829050600154811015613da1576000600660008381526020019081526020016000206040518060600160405290816000820160009054906101000a900473ffffffffffffffffffffffffffffffffffffffff1673ffffffffffffffffffffffffffffffffffffffff1673ffffffffffffffffffffffffffffffffffffffff1681526020016000820160149054906101000a900467ffffffffffffffff1667ffffffffffffffff1667ffffffffffffffff16815260200160008201601c9054906101000a900460ff16151515158152505090508060400151613d9f57600073ffffffffffffffffffffffffffffffffffffffff16816000015173ffffffffffffffffffffffffffffffffffffffff1614613c83578092505050613dd3565b5b600115613d9e57818060019003925050600660008381526020019081526020016000206040518060600160405290816000820160009054906101000a900473ffffffffffffffffffffffffffffffffffffffff1673ffffffffffffffffffffffffffffffffffffffff1673ffffffffffffffffffffffffffffffffffffffff1681526020016000820160149054906101000a900467ffffffffffffffff1667ffffffffffffffff1667ffffffffffffffff16815260200160008201601c9054906101000a900460ff1615151515815250509050600073ffffffffffffffffffffffffffffffffffffffff16816000015173ffffffffffffffffffffffffffffffffffffffff1614613d99578092505050613dd3565b613c84565b5b505b6040517fdf2d9b4200000000000000000000000000000000000000000000000000000000815260040160405180910390fd5b919050565b6000600560009054906101000a900460ff16158015613e155750600a600084815260200190815260200160002060009054906101000a900460ff16155b15613e8257613e398473ffffffffffffffffffffffffffffffffffffffff16613561565b15613e79576040517f08c379a0000000000000000000000000000000000000000000000000000000008152600401613e70906150c7565b60405180910390fd5b60019050613e87565b600190505b949350505050565b6060600e8054613e9e9061555c565b80601f0160208091040260200160405190810160405280929190818152602001828054613eca9061555c565b8015613f175780601f10613eec57610100808354040283529160200191613f17565b820191906000526020600020905b815481529060010190602001808311613efa57829003601f168201915b5050505050905090565b60606000821415613f69576040518060400160405280600181526020017f300000000000000000000000000000000000000000000000000000000000000081525090506140c9565b600082905060005b60008214613f9b578080613f84906155bf565b915050600a82613f9491906153cb565b9150613f71565b60008167ffffffffffffffff811115613fdd577f4e487b7100000000000000000000000000000000000000000000000000000000600052604160045260246000fd5b6040519080825280601f01601f19166020018201604052801561400f5781602001600182028036833780820191505090505b5090505b600085146140c2576001826140289190615456565b9150600a85614037919061562c565b60306140439190615375565b60f81b81838151811061407f577f4e487b7100000000000000000000000000000000000000000000000000000000600052603260045260246000fd5b60200101907effffffffffffffffffffffffffffffffffffffffffffffffffffffffffffff1916908160001a905350600a856140bb91906153cb565b9450614013565b8093505050505b919050565b50505050565b50505050565b60008082905060005b845181101561416a576000858281518110614127577f4e487b7100000000000000000000000000000000000000000000000000000000600052603260045260246000fd5b60200260200101519050808311614149576141428382614187565b9250614156565b6141538184614187565b92505b508080614162906155bf565b9150506140e3565b508091505092915050565b614182838383600161419e565b505050565b600082600052816020526040600020905092915050565b60006001549050600073ffffffffffffffffffffffffffffffffffffffff168573ffffffffffffffffffffffffffffffffffffffff16141561420c576040517f2e07630000000000000000000000000000000000000000000000000000000000815260040160405180910390fd5b6000841415614247576040517fb562e8dd00000000000000000000000000000000000000000000000000000000815260040160405180910390fd5b61425460008683876140ce565b83600760008773ffffffffffffffffffffffffffffffffffffffff1673ffffffffffffffffffffffffffffffffffffffff16815260200190815260200160002060000160008282829054906101000a900467ffffffffffffffff160192506101000a81548167ffffffffffffffff021916908367ffffffffffffffff16021790555083600760008773ffffffffffffffffffffffffffffffffffffffff1673ffffffffffffffffffffffffffffffffffffffff16815260200190815260200160002060000160088282829054906101000a900467ffffffffffffffff160192506101000a81548167ffffffffffffffff021916908367ffffffffffffffff160217905550846006600083815260200190815260200160002060000160006101000a81548173ffffffffffffffffffffffffffffffffffffffff021916908373ffffffffffffffffffffffffffffffffffffffff160217905550426006600083815260200190815260200160002060000160146101000a81548167ffffffffffffffff021916908367ffffffffffffffff160217905550600081905060005b858110156144b957818773ffffffffffffffffffffffffffffffffffffffff16600073ffffffffffffffffffffffffffffffffffffffff167fddf252ad1be2c89b69c2b068fc378daa952ba7f163c4a11628f55a4df523b3ef60405160405180910390a483801561446d575061446b6000888488613dd8565b155b156144a4576040517fd1a57ed600000000000000000000000000000000000000000000000000000000815260040160405180910390fd5b818060010192505080806001019150506143f2565b5080600181905550506144cf60008683876140d4565b5050505050565b8280546144e29061555c565b90600052602060002090601f016020900481019282614504576000855561454b565b82601f1061451d57805160ff191683800117855561454b565b8280016001018555821561454b579182015b8281111561454a57825182559160200191906001019061452f565b5b509050614558919061459f565b5090565b6040518060600160405280600073ffffffffffffffffffffffffffffffffffffffff168152602001600067ffffffffffffffff1681526020016000151581525090565b5b808211156145b85760008160009055506001016145a0565b5090565b60006145cf6145ca84615267565b615242565b905080838252602082019050828560208602820111156145ee57600080fd5b60005b8581101561461e578161460488826146a4565b8452602084019350602083019250506001810190506145f1565b5050509392505050565b600061463b61463684615293565b615242565b90508281526020810184848401111561465357600080fd5b61465e84828561551a565b509392505050565b6000614679614674846152c4565b615242565b90508281526020810184848401111561469157600080fd5b61469c84828561551a565b509392505050565b6000813590506146b381615a85565b92915050565b600082601f8301126146ca57600080fd5b81356146da8482602086016145bc565b91505092915050565b60008083601f8401126146f557600080fd5b8235905067ffffffffffffffff81111561470e57600080fd5b60208301915083602082028301111561472657600080fd5b9250929050565b60008135905061473c81615a9c565b92915050565b60008135905061475181615ab3565b92915050565b60008135905061476681615aca565b92915050565b600082601f83011261477d57600080fd5b813561478d848260208601614628565b91505092915050565b600082601f8301126147a757600080fd5b81356147b7848260208601614666565b91505092915050565b6000813590506147cf81615ae1565b92915050565b6000602082840312156147e757600080fd5b60006147f5848285016146a4565b91505092915050565b6000806040838503121561481157600080fd5b600061481f858286016146a4565b9250506020614830858286016146a4565b9150509250929050565b60008060006060848603121561484f57600080fd5b600061485d868287016146a4565b935050602061486e868287016146a4565b925050604061487f868287016147c0565b9150509250925092565b6000806000806080858703121561489f57600080fd5b60006148ad878288016146a4565b94505060206148be878288016146a4565b93505060406148cf878288016147c0565b925050606085013567ffffffffffffffff8111156148ec57600080fd5b6148f88782880161476c565b91505092959194509250565b6000806040838503121561491757600080fd5b6000614925858286016146a4565b92505060206149368582860161472d565b9150509250929050565b6000806040838503121561495357600080fd5b6000614961858286016146a4565b9250506020614972858286016147c0565b9150509250929050565b60006020828403121561498e57600080fd5b600082013567ffffffffffffffff8111156149a857600080fd5b6149b4848285016146b9565b91505092915050565b6000806000604084860312156149d257600080fd5b600084013567ffffffffffffffff8111156149ec57600080fd5b6149f8868287016146e3565b93509350506020614a0b868287016147c0565b9150509250925092565b600060208284031215614a2757600080fd5b6000614a358482850161472d565b91505092915050565b600060208284031215614a5057600080fd5b6000614a5e84828501614742565b91505092915050565b600060208284031215614a7957600080fd5b6000614a8784828501614757565b91505092915050565b600060208284031215614aa257600080fd5b600082013567ffffffffffffffff811115614abc57600080fd5b614ac884828501614796565b91505092915050565b600060208284031215614ae357600080fd5b6000614af1848285016147c0565b91505092915050565b60008060408385031215614b0d57600080fd5b6000614b1b858286016147c0565b9250506020614b2c8582860161472d565b9150509250929050565b6000614b428383614f18565b60208301905092915050565b614b578161549c565b82525050565b614b668161548a565b82525050565b614b7d614b788261548a565b615608565b82525050565b6000614b8e8261531a565b614b98818561533d565b9350614ba3836152f5565b8060005b83811015614bd4578151614bbb8882614b36565b9750614bc683615330565b925050600181019050614ba7565b5085935050505092915050565b614bea816154ae565b82525050565b614bf9816154ba565b82525050565b6000614c0a82615325565b614c148185615359565b9350614c24818560208601615529565b614c2d81615719565b840191505092915050565b6000614c4382615325565b614c4d818561536a565b9350614c5d818560208601615529565b80840191505092915050565b60008154614c768161555c565b614c80818661536a565b94506001821660008114614c9b5760018114614cac57614cdf565b60ff19831686528186019350614cdf565b614cb585615305565b60005b83811015614cd757815481890152600182019150602081019050614cb8565b838801955050505b50505092915050565b6000614cf5602e83615359565b9150614d0082615737565b604082019050919050565b6000614d18602683615359565b9150614d2382615786565b604082019050919050565b6000614d3b601083615359565b9150614d46826157d5565b602082019050919050565b6000614d5e601883615359565b9150614d69826157fe565b602082019050919050565b6000614d81603283615359565b9150614d8c82615827565b604082019050919050565b6000614da4600f83615359565b9150614daf82615876565b602082019050919050565b6000614dc7601983615359565b9150614dd28261589f565b602082019050919050565b6000614dea601583615359565b9150614df5826158c8565b602082019050919050565b6000614e0d600d83615359565b9150614e18826158f1565b602082019050919050565b6000614e30602f83615359565b9150614e3b8261591a565b604082019050919050565b6000614e53602083615359565b9150614e5e82615969565b602082019050919050565b6000614e76602f83615359565b9150614e8182615992565b604082019050919050565b6000614e99601683615359565b9150614ea4826159e1565b602082019050919050565b6000614ebc602a83615359565b9150614ec782615a0a565b604082019050919050565b6000614edf60008361534e565b9150614eea82615a59565b600082019050919050565b6000614f02601083615359565b9150614f0d82615a5c565b602082019050919050565b614f2181615510565b82525050565b614f3081615510565b82525050565b6000614f428284614b6c565b60148201915081905092915050565b6000614f5d8286614c38565b9150614f698285614c38565b9150614f758284614c69565b9150819050949350505050565b6000614f8d82614ed2565b9150819050919050565b6000602082019050614fac6000830184614b5d565b92915050565b6000602082019050614fc76000830184614b4e565b92915050565b60006020820190508181036000830152614fe78184614b83565b905092915050565b60006020820190506150046000830184614be1565b92915050565b600060208201905061501f6000830184614bf0565b92915050565b6000602082019050818103600083015261503f8184614bff565b905092915050565b6000602082019050818103600083015261506081614ce8565b9050919050565b6000602082019050818103600083015261508081614d0b565b9050919050565b600060208201905081810360008301526150a081614d2e565b9050919050565b600060208201905081810360008301526150c081614d51565b9050919050565b600060208201905081810360008301526150e081614d74565b9050919050565b6000602082019050818103600083015261510081614d97565b9050919050565b6000602082019050818103600083015261512081614dba565b9050919050565b6000602082019050818103600083015261514081614ddd565b9050919050565b6000602082019050818103600083015261516081614e00565b9050919050565b6000602082019050818103600083015261518081614e23565b9050919050565b600060208201905081810360008301526151a081614e46565b9050919050565b600060208201905081810360008301526151c081614e69565b9050919050565b600060208201905081810360008301526151e081614e8c565b9050919050565b6000602082019050818103600083015261520081614eaf565b9050919050565b6000602082019050818103600083015261522081614ef5565b9050919050565b600060208201905061523c6000830184614f27565b92915050565b600061524c61525d565b9050615258828261558e565b919050565b6000604051905090565b600067ffffffffffffffff821115615282576152816156ea565b5b602082029050602081019050919050565b600067ffffffffffffffff8211156152ae576152ad6156ea565b5b6152b782615719565b9050602081019050919050565b600067ffffffffffffffff8211156152df576152de6156ea565b5b6152e882615719565b9050602081019050919050565b6000819050602082019050919050565b60008190508160005260206000209050919050565b600081519050919050565b600081519050919050565b6000602082019050919050565b600082825260208201905092915050565b600081905092915050565b600082825260208201905092915050565b600081905092915050565b600061538082615510565b915061538b83615510565b9250827fffffffffffffffffffffffffffffffffffffffffffffffffffffffffffffffff038211156153c0576153bf61565d565b5b828201905092915050565b60006153d682615510565b91506153e183615510565b9250826153f1576153f061568c565b5b828204905092915050565b600061540782615510565b915061541283615510565b9250817fffffffffffffffffffffffffffffffffffffffffffffffffffffffffffffffff048311821515161561544b5761544a61565d565b5b828202905092915050565b600061546182615510565b915061546c83615510565b92508282101561547f5761547e61565d565b5b828203905092915050565b6000615495826154f0565b9050919050565b60006154a7826154f0565b9050919050565b60008115159050919050565b6000819050919050565b60007fffffffff0000000000000000000000000000000000000000000000000000000082169050919050565b600073ffffffffffffffffffffffffffffffffffffffff82169050919050565b6000819050919050565b82818337600083830152505050565b60005b8381101561554757808201518184015260208101905061552c565b83811115615556576000848401525b50505050565b6000600282049050600182168061557457607f821691505b60208210811415615588576155876156bb565b5b50919050565b61559782615719565b810181811067ffffffffffffffff821117156155b6576155b56156ea565b5b80604052505050565b60006155ca82615510565b91507fffffffffffffffffffffffffffffffffffffffffffffffffffffffffffffffff8214156155fd576155fc61565d565b5b600182019050919050565b60006156138261561a565b9050919050565b60006156258261572a565b9050919050565b600061563782615510565b915061564283615510565b9250826156525761565161568c565b5b828206905092915050565b7f4e487b7100000000000000000000000000000000000000000000000000000000600052601160045260246000fd5b7f4e487b7100000000000000000000000000000000000000000000000000000000600052601260045260246000fd5b7f4e487b7100000000000000000000000000000000000000000000000000000000600052602260045260246000fd5b7f4e487b7100000000000000000000000000000000000000000000000000000000600052604160045260246000fd5b6000601f19601f8301169050919050565b60008160601b9050919050565b7f4d696e696d756d2031204e46542068617320746f206265206d696e746564207060008201527f6572207472616e73616374696f6e000000000000000000000000000000000000602082015250565b7f4f776e61626c653a206e6577206f776e657220697320746865207a65726f206160008201527f6464726573730000000000000000000000000000000000000000000000000000602082015250565b7f436f6e74726163742044656e6965642e00000000000000000000000000000000600082015250565b7f5075626c6963206d696e74206e6f7420656e61626c6564210000000000000000600082015250565b7f546f6b656e207472616e7366657220746f20636f6e747261637420616464726560008201527f7373206973206e6f7420616c6c6f7765642e0000000000000000000000000000602082015250565b7f496e76616c696420546f6b656e49640000000000000000000000000000000000600082015250565b7f6d61782070657220616464726573732065786365656465642100000000000000600082015250565b7f4d696e7420616c726561647920636c61696d6564210000000000000000000000600082015250565b7f50726f6f6620496e76616c696400000000000000000000000000000000000000600082015250565b7f45746865722073656e7420776974682074686973207472616e73616374696f6e60008201527f206973206e6f7420636f72726563740000000000000000000000000000000000602082015250565b7f4f776e61626c653a2063616c6c6572206973206e6f7420746865206f776e6572600082015250565b7f4552433732314d657461646174613a2055524920717565727920666f72206e6f60008201527f6e6578697374656e7420746f6b656e0000000000000000000000000000000000602082015250565b7f45786365656473206d6178696d756d20737570706c7900000000000000000000600082015250565b7f4d6178696d756d204e4654732063616e206265206d696e74656420706572207460008201527f72616e73616374696f6e00000000000000000000000000000000000000000000602082015250565b50565b7f5472616e73666572206661696c65642e00000000000000000000000000000000600082015250565b615a8e8161548a565b8114615a9957600080fd5b50565b615aa5816154ae565b8114615ab057600080fd5b50565b615abc816154ba565b8114615ac757600080fd5b50565b615ad3816154c4565b8114615ade57600080fd5b50565b615aea81615510565b8114615af557600080fd5b5056fea26469706673582212209b92b159e92e8c3f539af707f8707e1cbb9c5e48e8034d7af6d3b2906f9a8b3c64736f6c63430008040033",
  "linkReferences": {},
  "deployedLinkReferences": {}
}