{
  "_format": "hh-sol-artifact-1",
  "contractName": "FelineSoulmate",
  "sourceName": "contracts/felinesoulmate.sol",
  "abi": [
    {
      "inputs": [],
      "stateMutability": "payable",
      "type": "constructor"
    },
    {
      "anonymous": false,
      "inputs": [
        {
          "indexed": true,
          "internalType": "address",
          "name": "owner",
          "type": "address"
        },
        {
          "indexed": true,
          "internalType": "address",
          "name": "approved",
          "type": "address"
        },
        {
          "indexed": true,
          "internalType": "uint256",
          "name": "tokenId",
          "type": "uint256"
        }
      ],
      "name": "Approval",
      "type": "event"
    },
    {
      "anonymous": false,
      "inputs": [
        {
          "indexed": true,
          "internalType": "address",
          "name": "owner",
          "type": "address"
        },
        {
          "indexed": true,
          "internalType": "address",
          "name": "operator",
          "type": "address"
        },
        {
          "indexed": false,
          "internalType": "bool",
          "name": "approved",
          "type": "bool"
        }
      ],
      "name": "ApprovalForAll",
      "type": "event"
    },
    {
      "anonymous": false,
      "inputs": [
        {
          "indexed": true,
          "internalType": "address",
          "name": "previousOwner",
          "type": "address"
        },
        {
          "indexed": true,
          "internalType": "address",
          "name": "newOwner",
          "type": "address"
        }
      ],
      "name": "OwnershipTransferred",
      "type": "event"
    },
    {
      "anonymous": false,
      "inputs": [
        {
          "indexed": true,
          "internalType": "address",
          "name": "from",
          "type": "address"
        },
        {
          "indexed": true,
          "internalType": "address",
          "name": "to",
          "type": "address"
        },
        {
          "indexed": true,
          "internalType": "uint256",
          "name": "tokenId",
          "type": "uint256"
        }
      ],
      "name": "Transfer",
      "type": "event"
    },
    {
      "inputs": [
        {
          "internalType": "address",
          "name": "to",
          "type": "address"
        },
        {
          "internalType": "uint256",
          "name": "tokenId",
          "type": "uint256"
        }
      ],
      "name": "approve",
      "outputs": [],
      "stateMutability": "nonpayable",
      "type": "function"
    },
    {
      "inputs": [
        {
          "internalType": "address",
          "name": "owner",
          "type": "address"
        }
      ],
      "name": "balanceOf",
      "outputs": [
        {
          "internalType": "uint256",
          "name": "",
          "type": "uint256"
        }
      ],
      "stateMutability": "view",
      "type": "function"
    },
    {
      "inputs": [
        {
          "internalType": "uint256",
          "name": "tokenId",
          "type": "uint256"
        }
      ],
      "name": "getApproved",
      "outputs": [
        {
          "internalType": "address",
          "name": "",
          "type": "address"
        }
      ],
      "stateMutability": "view",
      "type": "function"
    },
    {
      "inputs": [
        {
          "internalType": "address",
          "name": "owner",
          "type": "address"
        },
        {
          "internalType": "address",
          "name": "operator",
          "type": "address"
        }
      ],
      "name": "isApprovedForAll",
      "outputs": [
        {
          "internalType": "bool",
          "name": "",
          "type": "bool"
        }
      ],
      "stateMutability": "view",
      "type": "function"
    },
    {
      "inputs": [],
      "name": "isPrivateMintEnabled",
      "outputs": [
        {
          "internalType": "bool",
          "name": "",
          "type": "bool"
        }
      ],
      "stateMutability": "view",
      "type": "function"
    },
    {
      "inputs": [],
      "name": "isPublicMintEnabled",
      "outputs": [
        {
          "internalType": "bool",
          "name": "",
          "type": "bool"
        }
      ],
      "stateMutability": "view",
      "type": "function"
    },
    {
      "inputs": [],
      "name": "maxPerWallet",
      "outputs": [
        {
          "internalType": "uint256",
          "name": "",
          "type": "uint256"
        }
      ],
      "stateMutability": "view",
      "type": "function"
    },
    {
      "inputs": [],
      "name": "maxSupply",
      "outputs": [
        {
          "internalType": "uint256",
          "name": "",
          "type": "uint256"
        }
      ],
      "stateMutability": "view",
      "type": "function"
    },
    {
      "inputs": [
        {
          "internalType": "uint256",
          "name": "quantity_",
          "type": "uint256"
        }
      ],
      "name": "mint",
      "outputs": [],
      "stateMutability": "payable",
      "type": "function"
    },
    {
      "inputs": [],
      "name": "mintPrice",
      "outputs": [
        {
          "internalType": "uint256",
          "name": "",
          "type": "uint256"
        }
      ],
      "stateMutability": "view",
      "type": "function"
    },
    {
      "inputs": [],
      "name": "name",
      "outputs": [
        {
          "internalType": "string",
          "name": "",
          "type": "string"
        }
      ],
      "stateMutability": "view",
      "type": "function"
    },
    {
      "inputs": [],
      "name": "owner",
      "outputs": [
        {
          "internalType": "address",
          "name": "",
          "type": "address"
        }
      ],
      "stateMutability": "view",
      "type": "function"
    },
    {
      "inputs": [
        {
          "internalType": "uint256",
          "name": "tokenId",
          "type": "uint256"
        }
      ],
      "name": "ownerOf",
      "outputs": [
        {
          "internalType": "address",
          "name": "",
          "type": "address"
        }
      ],
      "stateMutability": "view",
      "type": "function"
    },
    {
      "inputs": [
        {
          "internalType": "bytes32[]",
          "name": "_merkleProof",
          "type": "bytes32[]"
        },
        {
          "internalType": "uint256",
          "name": "quantity_",
          "type": "uint256"
        }
      ],
      "name": "privateMint",
      "outputs": [],
      "stateMutability": "payable",
      "type": "function"
    },
    {
      "inputs": [],
      "name": "privateMintMerkleRoot",
      "outputs": [
        {
          "internalType": "bytes32",
          "name": "",
          "type": "bytes32"
        }
      ],
      "stateMutability": "view",
      "type": "function"
    },
    {
      "inputs": [
        {
          "internalType": "address",
          "name": "",
          "type": "address"
        }
      ],
      "name": "privateMintParticipants",
      "outputs": [
        {
          "internalType": "bool",
          "name": "",
          "type": "bool"
        }
      ],
      "stateMutability": "view",
      "type": "function"
    },
    {
      "inputs": [],
      "name": "renounceOwnership",
      "outputs": [],
      "stateMutability": "nonpayable",
      "type": "function"
    },
    {
      "inputs": [
        {
          "internalType": "address",
          "name": "from",
          "type": "address"
        },
        {
          "internalType": "address",
          "name": "to",
          "type": "address"
        },
        {
          "internalType": "uint256",
          "name": "tokenId",
          "type": "uint256"
        }
      ],
      "name": "safeTransferFrom",
      "outputs": [],
      "stateMutability": "nonpayable",
      "type": "function"
    },
    {
      "inputs": [
        {
          "internalType": "address",
          "name": "from",
          "type": "address"
        },
        {
          "internalType": "address",
          "name": "to",
          "type": "address"
        },
        {
          "internalType": "uint256",
          "name": "tokenId",
          "type": "uint256"
        },
        {
          "internalType": "bytes",
          "name": "_data",
          "type": "bytes"
        }
      ],
      "name": "safeTransferFrom",
      "outputs": [],
      "stateMutability": "nonpayable",
      "type": "function"
    },
    {
      "inputs": [
        {
          "internalType": "address",
          "name": "operator",
          "type": "address"
        },
        {
          "internalType": "bool",
          "name": "approved",
          "type": "bool"
        }
      ],
      "name": "setApprovalForAll",
      "outputs": [],
      "stateMutability": "nonpayable",
      "type": "function"
    },
    {
      "inputs": [
        {
          "internalType": "string",
          "name": "baseTokenUri_",
          "type": "string"
        }
      ],
      "name": "setBaseTokenUri",
      "outputs": [],
      "stateMutability": "nonpayable",
      "type": "function"
    },
    {
      "inputs": [
        {
          "internalType": "bool",
          "name": "isPrivateMintEnabled_",
          "type": "bool"
        }
      ],
      "name": "setIsPrivateMintEnabled",
      "outputs": [],
      "stateMutability": "nonpayable",
      "type": "function"
    },
    {
      "inputs": [
        {
          "internalType": "bool",
          "name": "isPublicMintEnabled_",
          "type": "bool"
        }
      ],
      "name": "setIsPublicMintEnabled",
      "outputs": [],
      "stateMutability": "nonpayable",
      "type": "function"
    },
    {
      "inputs": [
        {
          "internalType": "bytes32",
          "name": "_privateMintMerkleRoot",
          "type": "bytes32"
        }
      ],
      "name": "setPrivateMintMerkleRoot",
      "outputs": [],
      "stateMutability": "nonpayable",
      "type": "function"
    },
    {
      "inputs": [
        {
          "internalType": "bytes4",
          "name": "interfaceId",
          "type": "bytes4"
        }
      ],
      "name": "supportsInterface",
      "outputs": [
        {
          "internalType": "bool",
          "name": "",
          "type": "bool"
        }
      ],
      "stateMutability": "view",
      "type": "function"
    },
    {
      "inputs": [],
      "name": "symbol",
      "outputs": [
        {
          "internalType": "string",
          "name": "",
          "type": "string"
        }
      ],
      "stateMutability": "view",
      "type": "function"
    },
    {
      "inputs": [
        {
          "internalType": "uint256",
          "name": "tokenId_",
          "type": "uint256"
        }
      ],
      "name": "tokenURI",
      "outputs": [
        {
          "internalType": "string",
          "name": "",
          "type": "string"
        }
      ],
      "stateMutability": "view",
      "type": "function"
    },
    {
      "inputs": [],
      "name": "totalSupply",
      "outputs": [
        {
          "internalType": "uint256",
          "name": "",
          "type": "uint256"
        }
      ],
      "stateMutability": "view",
      "type": "function"
    },
    {
      "inputs": [
        {
          "internalType": "address",
          "name": "from",
          "type": "address"
        },
        {
          "internalType": "address",
          "name": "to",
          "type": "address"
        },
        {
          "internalType": "uint256",
          "name": "tokenId",
          "type": "uint256"
        }
      ],
      "name": "transferFrom",
      "outputs": [],
      "stateMutability": "nonpayable",
      "type": "function"
    },
    {
      "inputs": [
        {
          "internalType": "address",
          "name": "newOwner",
          "type": "address"
        }
      ],
      "name": "transferOwnership",
      "outputs": [],
      "stateMutability": "nonpayable",
      "type": "function"
    },
    {
      "inputs": [
        {
          "internalType": "address",
          "name": "",
          "type": "address"
        }
      ],
      "name": "walletMints",
      "outputs": [
        {
          "internalType": "uint256",
          "name": "",
          "type": "uint256"
        }
      ],
      "stateMutability": "view",
      "type": "function"
    },
    {
      "inputs": [],
      "name": "withdraw",
      "outputs": [],
      "stateMutability": "nonpayable",
      "type": "function"
    },
    {
      "inputs": [],
      "name": "withdrawWallet",
      "outputs": [
        {
          "internalType": "address payable",
          "name": "",
          "type": "address"
        }
      ],
      "stateMutability": "view",
      "type": "function"
    }
  ],
  "bytecode": "0x60806040526040518060400160405280600e81526020017f46656c696e65536f756c6d6174650000000000000000000000000000000000008152506040518060400160405280600281526020017f4653000000000000000000000000000000000000000000000000000000000000815250816000908051906020019062000088929190620001bf565b508060019080519060200190620000a1929190620001bf565b505050620000c4620000b8620000f160201b60201c565b620000f960201b60201c565b66470de4df82000060078190555060006008819055506113886009819055506003600a81905550620002d4565b600033905090565b6000600660009054906101000a900473ffffffffffffffffffffffffffffffffffffffff16905081600660006101000a81548173ffffffffffffffffffffffffffffffffffffffff021916908373ffffffffffffffffffffffffffffffffffffffff1602179055508173ffffffffffffffffffffffffffffffffffffffff168173ffffffffffffffffffffffffffffffffffffffff167f8be0079c531659141344cd1fd0a4f28419497f9722a3daafe3b4186f6b6457e060405160405180910390a35050565b828054620001cd906200026f565b90600052602060002090601f016020900481019282620001f157600085556200023d565b82601f106200020c57805160ff19168380011785556200023d565b828001600101855582156200023d579182015b828111156200023c5782518255916020019190600101906200021f565b5b5090506200024c919062000250565b5090565b5b808211156200026b57600081600090555060010162000251565b5090565b600060028204905060018216806200028857607f821691505b602082108114156200029f576200029e620002a5565b5b50919050565b7f4e487b7100000000000000000000000000000000000000000000000000000000600052602260045260246000fd5b61429880620002e46000396000f3fe6080604052600436106101ee5760003560e01c80636817c76c1161010d578063a0712d68116100a0578063d5abeb011161006f578063d5abeb01146106bb578063e80d1a1c146106e6578063e985e9c514610711578063f0293fd31461074e578063f2fde38b1461078b576101ee565b8063a0712d6814610610578063a22cb4651461062c578063b88d4fde14610655578063c87b56dd1461067e576101ee565b80638da5cb5b116100dc5780638da5cb5b1461056657806395652cfa1461059157806395d89b41146105ba5780639e8b30eb146105e5576101ee565b80636817c76c146104bc57806370a08231146104e7578063715018a61461052457806385d178f41461053b576101ee565b80632373ac221161018557806342842e0e1161015457806342842e0e14610402578063453c23101461042b578063559e75b3146104565780636352211e1461047f576101ee565b80632373ac221461037d57806323b872dd146103a657806328818b96146103cf5780633ccfd60b146103eb576101ee565b8063095ea7b3116101c1578063095ea7b3146102c35780631465f531146102ec57806318160ddd146103155780631d77816514610340576101ee565b80630116bc2d146101f357806301ffc9a71461021e57806306fdde031461025b578063081812fc14610286575b600080fd5b3480156101ff57600080fd5b506102086107b4565b6040516102159190613412565b60405180910390f35b34801561022a57600080fd5b5061024560048036038101906102409190612d3c565b6107c7565b6040516102529190613412565b60405180910390f35b34801561026757600080fd5b506102706108a9565b60405161027d9190613448565b60405180910390f35b34801561029257600080fd5b506102ad60048036038101906102a89190612dd3565b61093b565b6040516102ba9190613390565b60405180910390f35b3480156102cf57600080fd5b506102ea60048036038101906102e59190612c56565b6109c0565b005b3480156102f857600080fd5b50610313600480360381019061030e9190612d13565b610ad8565b005b34801561032157600080fd5b5061032a610b5e565b604051610337919061378a565b60405180910390f35b34801561034c57600080fd5b5061036760048036038101906103629190612aeb565b610b64565b6040516103749190613412565b60405180910390f35b34801561038957600080fd5b506103a4600480360381019061039f9190612cea565b610b84565b005b3480156103b257600080fd5b506103cd60048036038101906103c89190612b50565b610c1d565b005b6103e960048036038101906103e49190612c92565b610c7d565b005b3480156103f757600080fd5b50610400611062565b005b34801561040e57600080fd5b5061042960048036038101906104249190612b50565b6111af565b005b34801561043757600080fd5b506104406111cf565b60405161044d919061378a565b60405180910390f35b34801561046257600080fd5b5061047d60048036038101906104789190612cea565b6111d5565b005b34801561048b57600080fd5b506104a660048036038101906104a19190612dd3565b61126e565b6040516104b39190613390565b60405180910390f35b3480156104c857600080fd5b506104d1611320565b6040516104de919061378a565b60405180910390f35b3480156104f357600080fd5b5061050e60048036038101906105099190612aeb565b611326565b60405161051b919061378a565b60405180910390f35b34801561053057600080fd5b506105396113de565b005b34801561054757600080fd5b50610550611466565b60405161055d91906133ab565b60405180910390f35b34801561057257600080fd5b5061057b61148c565b6040516105889190613390565b60405180910390f35b34801561059d57600080fd5b506105b860048036038101906105b39190612d8e565b6114b6565b005b3480156105c657600080fd5b506105cf611548565b6040516105dc9190613448565b60405180910390f35b3480156105f157600080fd5b506105fa6115da565b604051610607919061342d565b60405180910390f35b61062a60048036038101906106259190612dd3565b6115e0565b005b34801561063857600080fd5b50610653600480360381019061064e9190612c1a565b611825565b005b34801561066157600080fd5b5061067c60048036038101906106779190612b9f565b61183b565b005b34801561068a57600080fd5b506106a560048036038101906106a09190612dd3565b61189d565b6040516106b29190613448565b60405180910390f35b3480156106c757600080fd5b506106d0611919565b6040516106dd919061378a565b60405180910390f35b3480156106f257600080fd5b506106fb61191f565b6040516107089190613412565b60405180910390f35b34801561071d57600080fd5b5061073860048036038101906107339190612b14565b611932565b6040516107459190613412565b60405180910390f35b34801561075a57600080fd5b5061077560048036038101906107709190612aeb565b6119c6565b604051610782919061378a565b60405180910390f35b34801561079757600080fd5b506107b260048036038101906107ad9190612aeb565b6119de565b005b600b60019054906101000a900460ff1681565b60007f80ac58cd000000000000000000000000000000000000000000000000000000007bffffffffffffffffffffffffffffffffffffffffffffffffffffffff1916827bffffffffffffffffffffffffffffffffffffffffffffffffffffffff1916148061089257507f5b5e139f000000000000000000000000000000000000000000000000000000007bffffffffffffffffffffffffffffffffffffffffffffffffffffffff1916827bffffffffffffffffffffffffffffffffffffffffffffffffffffffff1916145b806108a257506108a182611ad6565b5b9050919050565b6060600080546108b890613a45565b80601f01602080910402602001604051908101604052809291908181526020018280546108e490613a45565b80156109315780601f1061090657610100808354040283529160200191610931565b820191906000526020600020905b81548152906001019060200180831161091457829003601f168201915b5050505050905090565b600061094682611b40565b610985576040517f08c379a000000000000000000000000000000000000000000000000000000000815260040161097c9061364a565b60405180910390fd5b6004600083815260200190815260200160002060009054906101000a900473ffffffffffffffffffffffffffffffffffffffff169050919050565b60006109cb8261126e565b90508073ffffffffffffffffffffffffffffffffffffffff168373ffffffffffffffffffffffffffffffffffffffff161415610a3c576040517f08c379a0000000000000000000000000000000000000000000000000000000008152600401610a339061368a565b60405180910390fd5b8073ffffffffffffffffffffffffffffffffffffffff16610a5b611bac565b73ffffffffffffffffffffffffffffffffffffffff161480610a8a5750610a8981610a84611bac565b611932565b5b610ac9576040517f08c379a0000000000000000000000000000000000000000000000000000000008152600401610ac09061358a565b60405180910390fd5b610ad38383611bb4565b505050565b610ae0611bac565b73ffffffffffffffffffffffffffffffffffffffff16610afe61148c565b73ffffffffffffffffffffffffffffffffffffffff1614610b54576040517f08c379a0000000000000000000000000000000000000000000000000000000008152600401610b4b9061366a565b60405180910390fd5b80600f8190555050565b60085481565b60106020528060005260406000206000915054906101000a900460ff1681565b610b8c611bac565b73ffffffffffffffffffffffffffffffffffffffff16610baa61148c565b73ffffffffffffffffffffffffffffffffffffffff1614610c00576040517f08c379a0000000000000000000000000000000000000000000000000000000008152600401610bf79061366a565b60405180910390fd5b80600b60016101000a81548160ff02191690831515021790555050565b610c2e610c28611bac565b82611c6d565b610c6d576040517f08c379a0000000000000000000000000000000000000000000000000000000008152600401610c64906136aa565b60405180910390fd5b610c78838383611d4b565b505050565b600b60009054906101000a900460ff16610ccc576040517f08c379a0000000000000000000000000000000000000000000000000000000008152600401610cc3906136ca565b60405180910390fd5b3373ffffffffffffffffffffffffffffffffffffffff163273ffffffffffffffffffffffffffffffffffffffff1614610d3a576040517f08c379a0000000000000000000000000000000000000000000000000000000008152600401610d319061350a565b60405180910390fd5b60075481610d4891906138e5565b3414610d89576040517f08c379a0000000000000000000000000000000000000000000000000000000008152600401610d80906134ea565b60405180910390fd5b60095481600854610d9a919061385e565b1115610ddb576040517f08c379a0000000000000000000000000000000000000000000000000000000008152600401610dd29061376a565b60405180910390fd5b600a5481600e60003373ffffffffffffffffffffffffffffffffffffffff1673ffffffffffffffffffffffffffffffffffffffff16815260200190815260200160002054610e29919061385e565b1115610e6a576040517f08c379a0000000000000000000000000000000000000000000000000000000008152600401610e619061370a565b60405180910390fd5b601060003373ffffffffffffffffffffffffffffffffffffffff1673ffffffffffffffffffffffffffffffffffffffff16815260200190815260200160002060009054906101000a900460ff1615610ef7576040517f08c379a0000000000000000000000000000000000000000000000000000000008152600401610eee906135ea565b60405180910390fd5b600033604051602001610f0a9190613331565b604051602081830303815290604052805190602001209050610f70848480806020026020016040519081016040528093929190818152602001838360200280828437600081840152601f19601f82011690508083019250505050505050600f5483611fb2565b610faf576040517f08c379a0000000000000000000000000000000000000000000000000000000008152600401610fa69061360a565b60405180910390fd5b60005b828110156110035760006001600854610fcb919061385e565b905060086000815480929190610fe090613aa8565b9190505550610fef3382611fc9565b508080610ffb90613aa8565b915050610fb2565b506001601060003373ffffffffffffffffffffffffffffffffffffffff1673ffffffffffffffffffffffffffffffffffffffff16815260200190815260200160002060006101000a81548160ff02191690831515021790555050505050565b61106a611bac565b73ffffffffffffffffffffffffffffffffffffffff1661108861148c565b73ffffffffffffffffffffffffffffffffffffffff16146110de576040517f08c379a00000000000000000000000000000000000000000000000000000000081526004016110d59061366a565b60405180910390fd5b6000600d60009054906101000a900473ffffffffffffffffffffffffffffffffffffffff1673ffffffffffffffffffffffffffffffffffffffff16476040516111269061337b565b60006040518083038185875af1925050503d8060008114611163576040519150601f19603f3d011682016040523d82523d6000602084013e611168565b606091505b50509050806111ac576040517f08c379a00000000000000000000000000000000000000000000000000000000081526004016111a39061374a565b60405180910390fd5b50565b6111ca8383836040518060200160405280600081525061183b565b505050565b600a5481565b6111dd611bac565b73ffffffffffffffffffffffffffffffffffffffff166111fb61148c565b73ffffffffffffffffffffffffffffffffffffffff1614611251576040517f08c379a00000000000000000000000000000000000000000000000000000000081526004016112489061366a565b60405180910390fd5b80600b60006101000a81548160ff02191690831515021790555050565b6000806002600084815260200190815260200160002060009054906101000a900473ffffffffffffffffffffffffffffffffffffffff169050600073ffffffffffffffffffffffffffffffffffffffff168173ffffffffffffffffffffffffffffffffffffffff161415611317576040517f08c379a000000000000000000000000000000000000000000000000000000000815260040161130e906135ca565b60405180910390fd5b80915050919050565b60075481565b60008073ffffffffffffffffffffffffffffffffffffffff168273ffffffffffffffffffffffffffffffffffffffff161415611397576040517f08c379a000000000000000000000000000000000000000000000000000000000815260040161138e906135aa565b60405180910390fd5b600360008373ffffffffffffffffffffffffffffffffffffffff1673ffffffffffffffffffffffffffffffffffffffff168152602001908152602001600020549050919050565b6113e6611bac565b73ffffffffffffffffffffffffffffffffffffffff1661140461148c565b73ffffffffffffffffffffffffffffffffffffffff161461145a576040517f08c379a00000000000000000000000000000000000000000000000000000000081526004016114519061366a565b60405180910390fd5b6114646000611fe7565b565b600d60009054906101000a900473ffffffffffffffffffffffffffffffffffffffff1681565b6000600660009054906101000a900473ffffffffffffffffffffffffffffffffffffffff16905090565b6114be611bac565b73ffffffffffffffffffffffffffffffffffffffff166114dc61148c565b73ffffffffffffffffffffffffffffffffffffffff1614611532576040517f08c379a00000000000000000000000000000000000000000000000000000000081526004016115299061366a565b60405180910390fd5b8181600c91906115439291906128ce565b505050565b60606001805461155790613a45565b80601f016020809104026020016040519081016040528092919081815260200182805461158390613a45565b80156115d05780601f106115a5576101008083540402835291602001916115d0565b820191906000526020600020905b8154815290600101906020018083116115b357829003601f168201915b5050505050905090565b600f5481565b600b60019054906101000a900460ff1661162f576040517f08c379a0000000000000000000000000000000000000000000000000000000008152600401611626906136ea565b60405180910390fd5b3373ffffffffffffffffffffffffffffffffffffffff163273ffffffffffffffffffffffffffffffffffffffff161461169d576040517f08c379a00000000000000000000000000000000000000000000000000000000081526004016116949061350a565b60405180910390fd5b600754816116ab91906138e5565b34146116ec576040517f08c379a00000000000000000000000000000000000000000000000000000000081526004016116e3906134ea565b60405180910390fd5b600954816008546116fd919061385e565b111561173e576040517f08c379a00000000000000000000000000000000000000000000000000000000081526004016117359061376a565b60405180910390fd5b600a5481600e60003373ffffffffffffffffffffffffffffffffffffffff1673ffffffffffffffffffffffffffffffffffffffff1681526020019081526020016000205461178c919061385e565b11156117cd576040517f08c379a00000000000000000000000000000000000000000000000000000000081526004016117c49061370a565b60405180910390fd5b60005b8181101561182157600060016008546117e9919061385e565b9050600860008154809291906117fe90613aa8565b919050555061180d3382611fc9565b50808061181990613aa8565b9150506117d0565b5050565b611837611830611bac565b83836120ad565b5050565b61184c611846611bac565b83611c6d565b61188b576040517f08c379a0000000000000000000000000000000000000000000000000000000008152600401611882906136aa565b60405180910390fd5b6118978484848461221a565b50505050565b60606118a882611b40565b6118e7576040517f08c379a00000000000000000000000000000000000000000000000000000000081526004016118de9061372a565b60405180910390fd5b600c6118f283612276565b60405160200161190392919061334c565b6040516020818303038152906040529050919050565b60095481565b600b60009054906101000a900460ff1681565b6000600560008473ffffffffffffffffffffffffffffffffffffffff1673ffffffffffffffffffffffffffffffffffffffff16815260200190815260200160002060008373ffffffffffffffffffffffffffffffffffffffff1673ffffffffffffffffffffffffffffffffffffffff16815260200190815260200160002060009054906101000a900460ff16905092915050565b600e6020528060005260406000206000915090505481565b6119e6611bac565b73ffffffffffffffffffffffffffffffffffffffff16611a0461148c565b73ffffffffffffffffffffffffffffffffffffffff1614611a5a576040517f08c379a0000000000000000000000000000000000000000000000000000000008152600401611a519061366a565b60405180910390fd5b600073ffffffffffffffffffffffffffffffffffffffff168173ffffffffffffffffffffffffffffffffffffffff161415611aca576040517f08c379a0000000000000000000000000000000000000000000000000000000008152600401611ac19061348a565b60405180910390fd5b611ad381611fe7565b50565b60007f01ffc9a7000000000000000000000000000000000000000000000000000000007bffffffffffffffffffffffffffffffffffffffffffffffffffffffff1916827bffffffffffffffffffffffffffffffffffffffffffffffffffffffff1916149050919050565b60008073ffffffffffffffffffffffffffffffffffffffff166002600084815260200190815260200160002060009054906101000a900473ffffffffffffffffffffffffffffffffffffffff1673ffffffffffffffffffffffffffffffffffffffff1614159050919050565b600033905090565b816004600083815260200190815260200160002060006101000a81548173ffffffffffffffffffffffffffffffffffffffff021916908373ffffffffffffffffffffffffffffffffffffffff160217905550808273ffffffffffffffffffffffffffffffffffffffff16611c278361126e565b73ffffffffffffffffffffffffffffffffffffffff167f8c5be1e5ebec7d5bd14f71427d1e84f3dd0314c0f7b2291e5b200ac8c7c3b92560405160405180910390a45050565b6000611c7882611b40565b611cb7576040517f08c379a0000000000000000000000000000000000000000000000000000000008152600401611cae9061356a565b60405180910390fd5b6000611cc28361126e565b90508073ffffffffffffffffffffffffffffffffffffffff168473ffffffffffffffffffffffffffffffffffffffff161480611d045750611d038185611932565b5b80611d4257508373ffffffffffffffffffffffffffffffffffffffff16611d2a8461093b565b73ffffffffffffffffffffffffffffffffffffffff16145b91505092915050565b8273ffffffffffffffffffffffffffffffffffffffff16611d6b8261126e565b73ffffffffffffffffffffffffffffffffffffffff1614611dc1576040517f08c379a0000000000000000000000000000000000000000000000000000000008152600401611db8906134aa565b60405180910390fd5b600073ffffffffffffffffffffffffffffffffffffffff168273ffffffffffffffffffffffffffffffffffffffff161415611e31576040517f08c379a0000000000000000000000000000000000000000000000000000000008152600401611e289061352a565b60405180910390fd5b611e3c838383612423565b611e47600082611bb4565b6001600360008573ffffffffffffffffffffffffffffffffffffffff1673ffffffffffffffffffffffffffffffffffffffff1681526020019081526020016000206000828254611e97919061393f565b925050819055506001600360008473ffffffffffffffffffffffffffffffffffffffff1673ffffffffffffffffffffffffffffffffffffffff1681526020019081526020016000206000828254611eee919061385e565b92505081905550816002600083815260200190815260200160002060006101000a81548173ffffffffffffffffffffffffffffffffffffffff021916908373ffffffffffffffffffffffffffffffffffffffff160217905550808273ffffffffffffffffffffffffffffffffffffffff168473ffffffffffffffffffffffffffffffffffffffff167fddf252ad1be2c89b69c2b068fc378daa952ba7f163c4a11628f55a4df523b3ef60405160405180910390a4611fad838383612428565b505050565b600082611fbf858461242d565b1490509392505050565b611fe38282604051806020016040528060008152506124c8565b5050565b6000600660009054906101000a900473ffffffffffffffffffffffffffffffffffffffff16905081600660006101000a81548173ffffffffffffffffffffffffffffffffffffffff021916908373ffffffffffffffffffffffffffffffffffffffff1602179055508173ffffffffffffffffffffffffffffffffffffffff168173ffffffffffffffffffffffffffffffffffffffff167f8be0079c531659141344cd1fd0a4f28419497f9722a3daafe3b4186f6b6457e060405160405180910390a35050565b8173ffffffffffffffffffffffffffffffffffffffff168373ffffffffffffffffffffffffffffffffffffffff16141561211c576040517f08c379a00000000000000000000000000000000000000000000000000000000081526004016121139061354a565b60405180910390fd5b80600560008573ffffffffffffffffffffffffffffffffffffffff1673ffffffffffffffffffffffffffffffffffffffff16815260200190815260200160002060008473ffffffffffffffffffffffffffffffffffffffff1673ffffffffffffffffffffffffffffffffffffffff16815260200190815260200160002060006101000a81548160ff0219169083151502179055508173ffffffffffffffffffffffffffffffffffffffff168373ffffffffffffffffffffffffffffffffffffffff167f17307eab39ab6107e8899845ad3d59bd9653f200f220920489ca2b5937696c318360405161220d9190613412565b60405180910390a3505050565b612225848484611d4b565b61223184848484612523565b612270576040517f08c379a00000000000000000000000000000000000000000000000000000000081526004016122679061346a565b60405180910390fd5b50505050565b606060008214156122be576040518060400160405280600181526020017f3000000000000000000000000000000000000000000000000000000000000000815250905061241e565b600082905060005b600082146122f05780806122d990613aa8565b915050600a826122e991906138b4565b91506122c6565b60008167ffffffffffffffff811115612332577f4e487b7100000000000000000000000000000000000000000000000000000000600052604160045260246000fd5b6040519080825280601f01601f1916602001820160405280156123645781602001600182028036833780820191505090505b5090505b600085146124175760018261237d919061393f565b9150600a8561238c9190613b15565b6030612398919061385e565b60f81b8183815181106123d4577f4e487b7100000000000000000000000000000000000000000000000000000000600052603260045260246000fd5b60200101907effffffffffffffffffffffffffffffffffffffffffffffffffffffffffffff1916908160001a905350600a8561241091906138b4565b9450612368565b8093505050505b919050565b505050565b505050565b60008082905060005b84518110156124bd57600085828151811061247a577f4e487b7100000000000000000000000000000000000000000000000000000000600052603260045260246000fd5b6020026020010151905080831161249c5761249583826126ba565b92506124a9565b6124a681846126ba565b92505b5080806124b590613aa8565b915050612436565b508091505092915050565b6124d283836126d1565b6124df6000848484612523565b61251e576040517f08c379a00000000000000000000000000000000000000000000000000000000081526004016125159061346a565b60405180910390fd5b505050565b60006125448473ffffffffffffffffffffffffffffffffffffffff166128ab565b156126ad578373ffffffffffffffffffffffffffffffffffffffff1663150b7a0261256d611bac565b8786866040518563ffffffff1660e01b815260040161258f94939291906133c6565b602060405180830381600087803b1580156125a957600080fd5b505af19250505080156125da57506040513d601f19601f820116820180604052508101906125d79190612d65565b60015b61265d573d806000811461260a576040519150601f19603f3d011682016040523d82523d6000602084013e61260f565b606091505b50600081511415612655576040517f08c379a000000000000000000000000000000000000000000000000000000000815260040161264c9061346a565b60405180910390fd5b805181602001fd5b63150b7a0260e01b7bffffffffffffffffffffffffffffffffffffffffffffffffffffffff1916817bffffffffffffffffffffffffffffffffffffffffffffffffffffffff1916149150506126b2565b600190505b949350505050565b600082600052816020526040600020905092915050565b600073ffffffffffffffffffffffffffffffffffffffff168273ffffffffffffffffffffffffffffffffffffffff161415612741576040517f08c379a00000000000000000000000000000000000000000000000000000000081526004016127389061362a565b60405180910390fd5b61274a81611b40565b1561278a576040517f08c379a0000000000000000000000000000000000000000000000000000000008152600401612781906134ca565b60405180910390fd5b61279660008383612423565b6001600360008473ffffffffffffffffffffffffffffffffffffffff1673ffffffffffffffffffffffffffffffffffffffff16815260200190815260200160002060008282546127e6919061385e565b92505081905550816002600083815260200190815260200160002060006101000a81548173ffffffffffffffffffffffffffffffffffffffff021916908373ffffffffffffffffffffffffffffffffffffffff160217905550808273ffffffffffffffffffffffffffffffffffffffff16600073ffffffffffffffffffffffffffffffffffffffff167fddf252ad1be2c89b69c2b068fc378daa952ba7f163c4a11628f55a4df523b3ef60405160405180910390a46128a760008383612428565b5050565b6000808273ffffffffffffffffffffffffffffffffffffffff163b119050919050565b8280546128da90613a45565b90600052602060002090601f0160209004810192826128fc5760008555612943565b82601f1061291557803560ff1916838001178555612943565b82800160010185558215612943579182015b82811115612942578235825591602001919060010190612927565b5b5090506129509190612954565b5090565b5b8082111561296d576000816000905550600101612955565b5090565b600061298461297f846137ca565b6137a5565b90508281526020810184848401111561299c57600080fd5b6129a7848285613a03565b509392505050565b6000813590506129be816141ef565b92915050565b60008083601f8401126129d657600080fd5b8235905067ffffffffffffffff8111156129ef57600080fd5b602083019150836020820283011115612a0757600080fd5b9250929050565b600081359050612a1d81614206565b92915050565b600081359050612a328161421d565b92915050565b600081359050612a4781614234565b92915050565b600081519050612a5c81614234565b92915050565b600082601f830112612a7357600080fd5b8135612a83848260208601612971565b91505092915050565b60008083601f840112612a9e57600080fd5b8235905067ffffffffffffffff811115612ab757600080fd5b602083019150836001820283011115612acf57600080fd5b9250929050565b600081359050612ae58161424b565b92915050565b600060208284031215612afd57600080fd5b6000612b0b848285016129af565b91505092915050565b60008060408385031215612b2757600080fd5b6000612b35858286016129af565b9250506020612b46858286016129af565b9150509250929050565b600080600060608486031215612b6557600080fd5b6000612b73868287016129af565b9350506020612b84868287016129af565b9250506040612b9586828701612ad6565b9150509250925092565b60008060008060808587031215612bb557600080fd5b6000612bc3878288016129af565b9450506020612bd4878288016129af565b9350506040612be587828801612ad6565b925050606085013567ffffffffffffffff811115612c0257600080fd5b612c0e87828801612a62565b91505092959194509250565b60008060408385031215612c2d57600080fd5b6000612c3b858286016129af565b9250506020612c4c85828601612a0e565b9150509250929050565b60008060408385031215612c6957600080fd5b6000612c77858286016129af565b9250506020612c8885828601612ad6565b9150509250929050565b600080600060408486031215612ca757600080fd5b600084013567ffffffffffffffff811115612cc157600080fd5b612ccd868287016129c4565b93509350506020612ce086828701612ad6565b9150509250925092565b600060208284031215612cfc57600080fd5b6000612d0a84828501612a0e565b91505092915050565b600060208284031215612d2557600080fd5b6000612d3384828501612a23565b91505092915050565b600060208284031215612d4e57600080fd5b6000612d5c84828501612a38565b91505092915050565b600060208284031215612d7757600080fd5b6000612d8584828501612a4d565b91505092915050565b60008060208385031215612da157600080fd5b600083013567ffffffffffffffff811115612dbb57600080fd5b612dc785828601612a8c565b92509250509250929050565b600060208284031215612de557600080fd5b6000612df384828501612ad6565b91505092915050565b612e0581613985565b82525050565b612e1481613973565b82525050565b612e2b612e2682613973565b613af1565b82525050565b612e3a81613997565b82525050565b612e49816139a3565b82525050565b6000612e5a82613810565b612e648185613826565b9350612e74818560208601613a12565b612e7d81613c02565b840191505092915050565b6000612e938261381b565b612e9d8185613842565b9350612ead818560208601613a12565b612eb681613c02565b840191505092915050565b6000612ecc8261381b565b612ed68185613853565b9350612ee6818560208601613a12565b80840191505092915050565b60008154612eff81613a45565b612f098186613853565b94506001821660008114612f245760018114612f3557612f68565b60ff19831686528186019350612f68565b612f3e856137fb565b60005b83811015612f6057815481890152600182019150602081019050612f41565b838801955050505b50505092915050565b6000612f7e603283613842565b9150612f8982613c20565b604082019050919050565b6000612fa1602683613842565b9150612fac82613c6f565b604082019050919050565b6000612fc4602583613842565b9150612fcf82613cbe565b604082019050919050565b6000612fe7601c83613842565b9150612ff282613d0d565b602082019050919050565b600061300a601383613842565b915061301582613d36565b602082019050919050565b600061302d601083613842565b915061303882613d5f565b602082019050919050565b6000613050602483613842565b915061305b82613d88565b604082019050919050565b6000613073601983613842565b915061307e82613dd7565b602082019050919050565b6000613096602c83613842565b91506130a182613e00565b604082019050919050565b60006130b9603883613842565b91506130c482613e4f565b604082019050919050565b60006130dc602a83613842565b91506130e782613e9e565b604082019050919050565b60006130ff602983613842565b915061310a82613eed565b604082019050919050565b6000613122601583613842565b915061312d82613f3c565b602082019050919050565b6000613145600d83613842565b915061315082613f65565b602082019050919050565b6000613168602083613842565b915061317382613f8e565b602082019050919050565b600061318b602c83613842565b915061319682613fb7565b604082019050919050565b60006131ae600583613853565b91506131b982614006565b600582019050919050565b60006131d1602083613842565b91506131dc8261402f565b602082019050919050565b60006131f4602183613842565b91506131ff82614058565b604082019050919050565b6000613217600083613837565b9150613222826140a7565b600082019050919050565b600061323a603183613842565b9150613245826140aa565b604082019050919050565b600061325d601c83613842565b9150613268826140f9565b602082019050919050565b6000613280601b83613842565b915061328b82614122565b602082019050919050565b60006132a3601283613842565b91506132ae8261414b565b602082019050919050565b60006132c6601583613842565b91506132d182614174565b602082019050919050565b60006132e9600f83613842565b91506132f48261419d565b602082019050919050565b600061330c600983613842565b9150613317826141c6565b602082019050919050565b61332b816139f9565b82525050565b600061333d8284612e1a565b60148201915081905092915050565b60006133588285612ef2565b91506133648284612ec1565b915061336f826131a1565b91508190509392505050565b60006133868261320a565b9150819050919050565b60006020820190506133a56000830184612e0b565b92915050565b60006020820190506133c06000830184612dfc565b92915050565b60006080820190506133db6000830187612e0b565b6133e86020830186612e0b565b6133f56040830185613322565b81810360608301526134078184612e4f565b905095945050505050565b60006020820190506134276000830184612e31565b92915050565b60006020820190506134426000830184612e40565b92915050565b600060208201905081810360008301526134628184612e88565b905092915050565b6000602082019050818103600083015261348381612f71565b9050919050565b600060208201905081810360008301526134a381612f94565b9050919050565b600060208201905081810360008301526134c381612fb7565b9050919050565b600060208201905081810360008301526134e381612fda565b9050919050565b6000602082019050818103600083015261350381612ffd565b9050919050565b6000602082019050818103600083015261352381613020565b9050919050565b6000602082019050818103600083015261354381613043565b9050919050565b6000602082019050818103600083015261356381613066565b9050919050565b6000602082019050818103600083015261358381613089565b9050919050565b600060208201905081810360008301526135a3816130ac565b9050919050565b600060208201905081810360008301526135c3816130cf565b9050919050565b600060208201905081810360008301526135e3816130f2565b9050919050565b6000602082019050818103600083015261360381613115565b9050919050565b6000602082019050818103600083015261362381613138565b9050919050565b600060208201905081810360008301526136438161315b565b9050919050565b600060208201905081810360008301526136638161317e565b9050919050565b60006020820190508181036000830152613683816131c4565b9050919050565b600060208201905081810360008301526136a3816131e7565b9050919050565b600060208201905081810360008301526136c38161322d565b9050919050565b600060208201905081810360008301526136e381613250565b9050919050565b6000602082019050818103600083015261370381613273565b9050919050565b6000602082019050818103600083015261372381613296565b9050919050565b60006020820190508181036000830152613743816132b9565b9050919050565b60006020820190508181036000830152613763816132dc565b9050919050565b60006020820190508181036000830152613783816132ff565b9050919050565b600060208201905061379f6000830184613322565b92915050565b60006137af6137c0565b90506137bb8282613a77565b919050565b6000604051905090565b600067ffffffffffffffff8211156137e5576137e4613bd3565b5b6137ee82613c02565b9050602081019050919050565b60008190508160005260206000209050919050565b600081519050919050565b600081519050919050565b600082825260208201905092915050565b600081905092915050565b600082825260208201905092915050565b600081905092915050565b6000613869826139f9565b9150613874836139f9565b9250827fffffffffffffffffffffffffffffffffffffffffffffffffffffffffffffffff038211156138a9576138a8613b46565b5b828201905092915050565b60006138bf826139f9565b91506138ca836139f9565b9250826138da576138d9613b75565b5b828204905092915050565b60006138f0826139f9565b91506138fb836139f9565b9250817fffffffffffffffffffffffffffffffffffffffffffffffffffffffffffffffff048311821515161561393457613933613b46565b5b828202905092915050565b600061394a826139f9565b9150613955836139f9565b92508282101561396857613967613b46565b5b828203905092915050565b600061397e826139d9565b9050919050565b6000613990826139d9565b9050919050565b60008115159050919050565b6000819050919050565b60007fffffffff0000000000000000000000000000000000000000000000000000000082169050919050565b600073ffffffffffffffffffffffffffffffffffffffff82169050919050565b6000819050919050565b82818337600083830152505050565b60005b83811015613a30578082015181840152602081019050613a15565b83811115613a3f576000848401525b50505050565b60006002820490506001821680613a5d57607f821691505b60208210811415613a7157613a70613ba4565b5b50919050565b613a8082613c02565b810181811067ffffffffffffffff82111715613a9f57613a9e613bd3565b5b80604052505050565b6000613ab3826139f9565b91507fffffffffffffffffffffffffffffffffffffffffffffffffffffffffffffffff821415613ae657613ae5613b46565b5b600182019050919050565b6000613afc82613b03565b9050919050565b6000613b0e82613c13565b9050919050565b6000613b20826139f9565b9150613b2b836139f9565b925082613b3b57613b3a613b75565b5b828206905092915050565b7f4e487b7100000000000000000000000000000000000000000000000000000000600052601160045260246000fd5b7f4e487b7100000000000000000000000000000000000000000000000000000000600052601260045260246000fd5b7f4e487b7100000000000000000000000000000000000000000000000000000000600052602260045260246000fd5b7f4e487b7100000000000000000000000000000000000000000000000000000000600052604160045260246000fd5b6000601f19601f8301169050919050565b60008160601b9050919050565b7f4552433732313a207472616e7366657220746f206e6f6e20455243373231526560008201527f63656976657220696d706c656d656e7465720000000000000000000000000000602082015250565b7f4f776e61626c653a206e6577206f776e657220697320746865207a65726f206160008201527f6464726573730000000000000000000000000000000000000000000000000000602082015250565b7f4552433732313a207472616e736665722066726f6d20696e636f72726563742060008201527f6f776e6572000000000000000000000000000000000000000000000000000000602082015250565b7f4552433732313a20746f6b656e20616c7265616479206d696e74656400000000600082015250565b7f496e76616c6964206d696e742076616c75652e00000000000000000000000000600082015250565b7f436f6e74726163742044656e6965642e00000000000000000000000000000000600082015250565b7f4552433732313a207472616e7366657220746f20746865207a65726f2061646460008201527f7265737300000000000000000000000000000000000000000000000000000000602082015250565b7f4552433732313a20617070726f766520746f2063616c6c657200000000000000600082015250565b7f4552433732313a206f70657261746f7220717565727920666f72206e6f6e657860008201527f697374656e7420746f6b656e0000000000000000000000000000000000000000602082015250565b7f4552433732313a20617070726f76652063616c6c6572206973206e6f74206f7760008201527f6e6572206e6f7220617070726f76656420666f7220616c6c0000000000000000602082015250565b7f4552433732313a2062616c616e636520717565727920666f7220746865207a6560008201527f726f206164647265737300000000000000000000000000000000000000000000602082015250565b7f4552433732313a206f776e657220717565727920666f72206e6f6e657869737460008201527f656e7420746f6b656e0000000000000000000000000000000000000000000000602082015250565b7f4d696e7420616c726561647920636c61696d6564210000000000000000000000600082015250565b7f50726f6f6620496e76616c696400000000000000000000000000000000000000600082015250565b7f4552433732313a206d696e7420746f20746865207a65726f2061646472657373600082015250565b7f4552433732313a20617070726f76656420717565727920666f72206e6f6e657860008201527f697374656e7420746f6b656e0000000000000000000000000000000000000000602082015250565b7f2e6a736f6e000000000000000000000000000000000000000000000000000000600082015250565b7f4f776e61626c653a2063616c6c6572206973206e6f7420746865206f776e6572600082015250565b7f4552433732313a20617070726f76616c20746f2063757272656e74206f776e6560008201527f7200000000000000000000000000000000000000000000000000000000000000602082015250565b50565b7f4552433732313a207472616e736665722063616c6c6572206973206e6f74206f60008201527f776e6572206e6f7220617070726f766564000000000000000000000000000000602082015250565b7f50726976617465204d696e74696e67206e6f7420656e61626c65642e00000000600082015250565b7f5075626c6963204d696e74696e67206e6f7420656e61626c65642e0000000000600082015250565b7f457863656564206d61782077616c6c6574210000000000000000000000000000600082015250565b7f546f6b656e20646f6573206e6f74206578697374210000000000000000000000600082015250565b7f7769746864726177206661696c65640000000000000000000000000000000000600082015250565b7f536f6c64206f7574210000000000000000000000000000000000000000000000600082015250565b6141f881613973565b811461420357600080fd5b50565b61420f81613997565b811461421a57600080fd5b50565b614226816139a3565b811461423157600080fd5b50565b61423d816139ad565b811461424857600080fd5b50565b614254816139f9565b811461425f57600080fd5b5056fea264697066735822122070cd82adf7f227b662b2d95add76b14e6c8042e21247c9e92b6e9853b681817164736f6c63430008040033",
  "linkReferences": {},
  "deployedLinkReferences": {}
}