{
  "_format": "hh-sol-artifact-1",
  "contractName": "FelineSoulmate",
  "sourceName": "contracts/felinesoulmate.sol",
  "abi": [
    {
      "inputs": [],
      "stateMutability": "payable",
      "type": "constructor"
    },
    {
      "inputs": [],
      "name": "ExceedMaxSupply",
      "type": "error"
    },
    {
      "anonymous": false,
      "inputs": [
        {
          "indexed": true,
          "internalType": "address",
          "name": "owner",
          "type": "address"
        },
        {
          "indexed": true,
          "internalType": "address",
          "name": "approved",
          "type": "address"
        },
        {
          "indexed": true,
          "internalType": "uint256",
          "name": "tokenId",
          "type": "uint256"
        }
      ],
      "name": "Approval",
      "type": "event"
    },
    {
      "anonymous": false,
      "inputs": [
        {
          "indexed": true,
          "internalType": "address",
          "name": "owner",
          "type": "address"
        },
        {
          "indexed": true,
          "internalType": "address",
          "name": "operator",
          "type": "address"
        },
        {
          "indexed": false,
          "internalType": "bool",
          "name": "approved",
          "type": "bool"
        }
      ],
      "name": "ApprovalForAll",
      "type": "event"
    },
    {
      "anonymous": false,
      "inputs": [
        {
          "indexed": true,
          "internalType": "address",
          "name": "previousOwner",
          "type": "address"
        },
        {
          "indexed": true,
          "internalType": "address",
          "name": "newOwner",
          "type": "address"
        }
      ],
      "name": "OwnershipTransferred",
      "type": "event"
    },
    {
      "anonymous": false,
      "inputs": [
        {
          "indexed": true,
          "internalType": "address",
          "name": "from",
          "type": "address"
        },
        {
          "indexed": true,
          "internalType": "address",
          "name": "to",
          "type": "address"
        },
        {
          "indexed": true,
          "internalType": "uint256",
          "name": "tokenId",
          "type": "uint256"
        }
      ],
      "name": "Transfer",
      "type": "event"
    },
    {
      "inputs": [
        {
          "internalType": "address",
          "name": "to",
          "type": "address"
        },
        {
          "internalType": "uint256",
          "name": "tokenId",
          "type": "uint256"
        }
      ],
      "name": "approve",
      "outputs": [],
      "stateMutability": "nonpayable",
      "type": "function"
    },
    {
      "inputs": [
        {
          "internalType": "address",
          "name": "owner",
          "type": "address"
        }
      ],
      "name": "balanceOf",
      "outputs": [
        {
          "internalType": "uint256",
          "name": "",
          "type": "uint256"
        }
      ],
      "stateMutability": "view",
      "type": "function"
    },
    {
      "inputs": [
        {
          "internalType": "uint256",
          "name": "tokenId",
          "type": "uint256"
        }
      ],
      "name": "getApproved",
      "outputs": [
        {
          "internalType": "address",
          "name": "",
          "type": "address"
        }
      ],
      "stateMutability": "view",
      "type": "function"
    },
    {
      "inputs": [
        {
          "internalType": "address",
          "name": "owner",
          "type": "address"
        },
        {
          "internalType": "address",
          "name": "operator",
          "type": "address"
        }
      ],
      "name": "isApprovedForAll",
      "outputs": [
        {
          "internalType": "bool",
          "name": "",
          "type": "bool"
        }
      ],
      "stateMutability": "view",
      "type": "function"
    },
    {
      "inputs": [],
      "name": "isPrivateMintEnabled",
      "outputs": [
        {
          "internalType": "bool",
          "name": "",
          "type": "bool"
        }
      ],
      "stateMutability": "view",
      "type": "function"
    },
    {
      "inputs": [],
      "name": "isPublicMintEnabled",
      "outputs": [
        {
          "internalType": "bool",
          "name": "",
          "type": "bool"
        }
      ],
      "stateMutability": "view",
      "type": "function"
    },
    {
      "inputs": [],
      "name": "maxPerWallet",
      "outputs": [
        {
          "internalType": "uint256",
          "name": "",
          "type": "uint256"
        }
      ],
      "stateMutability": "view",
      "type": "function"
    },
    {
      "inputs": [],
      "name": "maxSupply",
      "outputs": [
        {
          "internalType": "uint256",
          "name": "",
          "type": "uint256"
        }
      ],
      "stateMutability": "view",
      "type": "function"
    },
    {
      "inputs": [
        {
          "internalType": "uint256",
          "name": "quantity_",
          "type": "uint256"
        }
      ],
      "name": "mint",
      "outputs": [],
      "stateMutability": "payable",
      "type": "function"
    },
    {
      "inputs": [],
      "name": "mintPrice",
      "outputs": [
        {
          "internalType": "uint256",
          "name": "",
          "type": "uint256"
        }
      ],
      "stateMutability": "view",
      "type": "function"
    },
    {
      "inputs": [],
      "name": "name",
      "outputs": [
        {
          "internalType": "string",
          "name": "",
          "type": "string"
        }
      ],
      "stateMutability": "view",
      "type": "function"
    },
    {
      "inputs": [],
      "name": "owner",
      "outputs": [
        {
          "internalType": "address",
          "name": "",
          "type": "address"
        }
      ],
      "stateMutability": "view",
      "type": "function"
    },
    {
      "inputs": [
        {
          "internalType": "uint256",
          "name": "tokenId",
          "type": "uint256"
        }
      ],
      "name": "ownerOf",
      "outputs": [
        {
          "internalType": "address",
          "name": "",
          "type": "address"
        }
      ],
      "stateMutability": "view",
      "type": "function"
    },
    {
      "inputs": [
        {
          "internalType": "bytes32[]",
          "name": "_merkleProof",
          "type": "bytes32[]"
        },
        {
          "internalType": "uint256",
          "name": "quantity_",
          "type": "uint256"
        }
      ],
      "name": "privateMint",
      "outputs": [],
      "stateMutability": "payable",
      "type": "function"
    },
    {
      "inputs": [],
      "name": "privateMintMerkleRoot",
      "outputs": [
        {
          "internalType": "bytes32",
          "name": "",
          "type": "bytes32"
        }
      ],
      "stateMutability": "view",
      "type": "function"
    },
    {
      "inputs": [
        {
          "internalType": "address",
          "name": "",
          "type": "address"
        }
      ],
      "name": "privateMintParticipants",
      "outputs": [
        {
          "internalType": "bool",
          "name": "",
          "type": "bool"
        }
      ],
      "stateMutability": "view",
      "type": "function"
    },
    {
      "inputs": [],
      "name": "renounceOwnership",
      "outputs": [],
      "stateMutability": "nonpayable",
      "type": "function"
    },
    {
      "inputs": [
        {
          "internalType": "address",
          "name": "from",
          "type": "address"
        },
        {
          "internalType": "address",
          "name": "to",
          "type": "address"
        },
        {
          "internalType": "uint256",
          "name": "tokenId",
          "type": "uint256"
        }
      ],
      "name": "safeTransferFrom",
      "outputs": [],
      "stateMutability": "nonpayable",
      "type": "function"
    },
    {
      "inputs": [
        {
          "internalType": "address",
          "name": "from",
          "type": "address"
        },
        {
          "internalType": "address",
          "name": "to",
          "type": "address"
        },
        {
          "internalType": "uint256",
          "name": "tokenId",
          "type": "uint256"
        },
        {
          "internalType": "bytes",
          "name": "_data",
          "type": "bytes"
        }
      ],
      "name": "safeTransferFrom",
      "outputs": [],
      "stateMutability": "nonpayable",
      "type": "function"
    },
    {
      "inputs": [
        {
          "internalType": "address",
          "name": "operator",
          "type": "address"
        },
        {
          "internalType": "bool",
          "name": "approved",
          "type": "bool"
        }
      ],
      "name": "setApprovalForAll",
      "outputs": [],
      "stateMutability": "nonpayable",
      "type": "function"
    },
    {
      "inputs": [
        {
          "internalType": "string",
          "name": "baseTokenUri_",
          "type": "string"
        }
      ],
      "name": "setBaseTokenUri",
      "outputs": [],
      "stateMutability": "nonpayable",
      "type": "function"
    },
    {
      "inputs": [
        {
          "internalType": "bool",
          "name": "isPrivateMintEnabled_",
          "type": "bool"
        }
      ],
      "name": "setIsPrivateMintEnabled",
      "outputs": [],
      "stateMutability": "nonpayable",
      "type": "function"
    },
    {
      "inputs": [
        {
          "internalType": "bool",
          "name": "isPublicMintEnabled_",
          "type": "bool"
        }
      ],
      "name": "setIsPublicMintEnabled",
      "outputs": [],
      "stateMutability": "nonpayable",
      "type": "function"
    },
    {
      "inputs": [
        {
          "internalType": "uint256",
          "name": "_maxPerWallet",
          "type": "uint256"
        }
      ],
      "name": "setMaxPerWallet",
      "outputs": [],
      "stateMutability": "nonpayable",
      "type": "function"
    },
    {
      "inputs": [
        {
          "internalType": "uint256",
          "name": "_maxSupply",
          "type": "uint256"
        }
      ],
      "name": "setMaxSupply",
      "outputs": [],
      "stateMutability": "nonpayable",
      "type": "function"
    },
    {
      "inputs": [
        {
          "internalType": "uint256",
          "name": "_mintPrice",
          "type": "uint256"
        }
      ],
      "name": "setMintPrice",
      "outputs": [],
      "stateMutability": "nonpayable",
      "type": "function"
    },
    {
      "inputs": [
        {
          "internalType": "bytes32",
          "name": "_privateMintMerkleRoot",
          "type": "bytes32"
        }
      ],
      "name": "setPrivateMintMerkleRoot",
      "outputs": [],
      "stateMutability": "nonpayable",
      "type": "function"
    },
    {
      "inputs": [
        {
          "internalType": "bytes4",
          "name": "interfaceId",
          "type": "bytes4"
        }
      ],
      "name": "supportsInterface",
      "outputs": [
        {
          "internalType": "bool",
          "name": "",
          "type": "bool"
        }
      ],
      "stateMutability": "view",
      "type": "function"
    },
    {
      "inputs": [],
      "name": "symbol",
      "outputs": [
        {
          "internalType": "string",
          "name": "",
          "type": "string"
        }
      ],
      "stateMutability": "view",
      "type": "function"
    },
    {
      "inputs": [
        {
          "internalType": "address[]",
          "name": "tos",
          "type": "address[]"
        }
      ],
      "name": "teamMint",
      "outputs": [],
      "stateMutability": "nonpayable",
      "type": "function"
    },
    {
      "inputs": [
        {
          "internalType": "uint256",
          "name": "tokenId_",
          "type": "uint256"
        }
      ],
      "name": "tokenURI",
      "outputs": [
        {
          "internalType": "string",
          "name": "",
          "type": "string"
        }
      ],
      "stateMutability": "view",
      "type": "function"
    },
    {
      "inputs": [],
      "name": "totalSupply",
      "outputs": [
        {
          "internalType": "uint256",
          "name": "",
          "type": "uint256"
        }
      ],
      "stateMutability": "view",
      "type": "function"
    },
    {
      "inputs": [
        {
          "internalType": "address",
          "name": "from",
          "type": "address"
        },
        {
          "internalType": "address",
          "name": "to",
          "type": "address"
        },
        {
          "internalType": "uint256",
          "name": "tokenId",
          "type": "uint256"
        }
      ],
      "name": "transferFrom",
      "outputs": [],
      "stateMutability": "nonpayable",
      "type": "function"
    },
    {
      "inputs": [
        {
          "internalType": "address",
          "name": "newOwner",
          "type": "address"
        }
      ],
      "name": "transferOwnership",
      "outputs": [],
      "stateMutability": "nonpayable",
      "type": "function"
    },
    {
      "inputs": [
        {
          "internalType": "address",
          "name": "",
          "type": "address"
        }
      ],
      "name": "walletMints",
      "outputs": [
        {
          "internalType": "uint256",
          "name": "",
          "type": "uint256"
        }
      ],
      "stateMutability": "view",
      "type": "function"
    },
    {
      "inputs": [],
      "name": "withdraw",
      "outputs": [],
      "stateMutability": "nonpayable",
      "type": "function"
    },
    {
      "inputs": [],
      "name": "withdrawWallet",
      "outputs": [
        {
          "internalType": "address payable",
          "name": "",
          "type": "address"
        }
      ],
      "stateMutability": "view",
      "type": "function"
    }
  ],
  "bytecode": "0x60806040526040518060400160405280600e81526020017f46656c696e65536f756c6d6174650000000000000000000000000000000000008152506040518060400160405280600281526020017f465300000000000000000000000000000000000000000000000000000000000081525081600090805190602001906200008892919062000200565b508060019080519060200190620000a192919062000200565b505050620000c4620000b86200013260201b60201c565b6200013a60201b60201c565b66470de4df82000060078190555060006008819055506113886009819055506003600a8190555033600d60006101000a81548173ffffffffffffffffffffffffffffffffffffffff021916908373ffffffffffffffffffffffffffffffffffffffff16021790555062000315565b600033905090565b6000600660009054906101000a900473ffffffffffffffffffffffffffffffffffffffff16905081600660006101000a81548173ffffffffffffffffffffffffffffffffffffffff021916908373ffffffffffffffffffffffffffffffffffffffff1602179055508173ffffffffffffffffffffffffffffffffffffffff168173ffffffffffffffffffffffffffffffffffffffff167f8be0079c531659141344cd1fd0a4f28419497f9722a3daafe3b4186f6b6457e060405160405180910390a35050565b8280546200020e90620002b0565b90600052602060002090601f0160209004810192826200023257600085556200027e565b82601f106200024d57805160ff19168380011785556200027e565b828001600101855582156200027e579182015b828111156200027d57825182559160200191906001019062000260565b5b5090506200028d919062000291565b5090565b5b80821115620002ac57600081600090555060010162000292565b5090565b60006002820490506001821680620002c957607f821691505b60208210811415620002e057620002df620002e6565b5b50919050565b7f4e487b7100000000000000000000000000000000000000000000000000000000600052602260045260246000fd5b61476a80620003256000396000f3fe60806040526004361061021a5760003560e01c806370a0823111610123578063b88d4fde116100ab578063e985e9c51161006f578063e985e9c51461078f578063f0028585146107cc578063f0293fd3146107f5578063f2fde38b14610832578063f4a0a5281461085b5761021a565b8063b88d4fde146106aa578063c87b56dd146106d3578063d5abeb0114610710578063e268e4d31461073b578063e80d1a1c146107645761021a565b806395652cfa116100f257806395652cfa146105e657806395d89b411461060f5780639e8b30eb1461063a578063a0712d6814610665578063a22cb465146106815761021a565b806370a082311461053c578063715018a61461057957806385d178f4146105905780638da5cb5b146105bb5761021a565b806323b872dd116101a6578063453c231011610175578063453c231014610457578063559e75b3146104825780636352211e146104ab5780636817c76c146104e85780636f8b44b0146105135761021a565b806323b872dd146103d257806328818b96146103fb5780633ccfd60b1461041757806342842e0e1461042e5761021a565b8063095ea7b3116101ed578063095ea7b3146102ef5780631465f5311461031857806318160ddd146103415780631d7781651461036c5780632373ac22146103a95761021a565b80630116bc2d1461021f57806301ffc9a71461024a57806306fdde0314610287578063081812fc146102b2575b600080fd5b34801561022b57600080fd5b50610234610884565b60405161024191906138b8565b60405180910390f35b34801561025657600080fd5b50610271600480360381019061026c91906131e2565b610897565b60405161027e91906138b8565b60405180910390f35b34801561029357600080fd5b5061029c610979565b6040516102a991906138ee565b60405180910390f35b3480156102be57600080fd5b506102d960048036038101906102d49190613279565b610a0b565b6040516102e69190613836565b60405180910390f35b3480156102fb57600080fd5b50610316600480360381019061031191906130bb565b610a90565b005b34801561032457600080fd5b5061033f600480360381019061033a91906131b9565b610ba8565b005b34801561034d57600080fd5b50610356610c2e565b6040516103639190613c30565b60405180910390f35b34801561037857600080fd5b50610393600480360381019061038e9190612f50565b610c34565b6040516103a091906138b8565b60405180910390f35b3480156103b557600080fd5b506103d060048036038101906103cb9190613190565b610c54565b005b3480156103de57600080fd5b506103f960048036038101906103f49190612fb5565b610ced565b005b61041560048036038101906104109190613138565b610d4d565b005b34801561042357600080fd5b5061042c611132565b005b34801561043a57600080fd5b5061045560048036038101906104509190612fb5565b61127f565b005b34801561046357600080fd5b5061046c61129f565b6040516104799190613c30565b60405180910390f35b34801561048e57600080fd5b506104a960048036038101906104a49190613190565b6112a5565b005b3480156104b757600080fd5b506104d260048036038101906104cd9190613279565b61133e565b6040516104df9190613836565b60405180910390f35b3480156104f457600080fd5b506104fd6113f0565b60405161050a9190613c30565b60405180910390f35b34801561051f57600080fd5b5061053a60048036038101906105359190613279565b6113f6565b005b34801561054857600080fd5b50610563600480360381019061055e9190612f50565b61147c565b6040516105709190613c30565b60405180910390f35b34801561058557600080fd5b5061058e611534565b005b34801561059c57600080fd5b506105a56115bc565b6040516105b29190613851565b60405180910390f35b3480156105c757600080fd5b506105d06115e2565b6040516105dd9190613836565b60405180910390f35b3480156105f257600080fd5b5061060d60048036038101906106089190613234565b61160c565b005b34801561061b57600080fd5b5061062461169e565b60405161063191906138ee565b60405180910390f35b34801561064657600080fd5b5061064f611730565b60405161065c91906138d3565b60405180910390f35b61067f600480360381019061067a9190613279565b611736565b005b34801561068d57600080fd5b506106a860048036038101906106a3919061307f565b61197b565b005b3480156106b657600080fd5b506106d160048036038101906106cc9190613004565b611991565b005b3480156106df57600080fd5b506106fa60048036038101906106f59190613279565b6119f3565b60405161070791906138ee565b60405180910390f35b34801561071c57600080fd5b50610725611a6f565b6040516107329190613c30565b60405180910390f35b34801561074757600080fd5b50610762600480360381019061075d9190613279565b611a75565b005b34801561077057600080fd5b50610779611afb565b60405161078691906138b8565b60405180910390f35b34801561079b57600080fd5b506107b660048036038101906107b19190612f79565b611b0e565b6040516107c391906138b8565b60405180910390f35b3480156107d857600080fd5b506107f360048036038101906107ee91906130f7565b611ba2565b005b34801561080157600080fd5b5061081c60048036038101906108179190612f50565b611d0f565b6040516108299190613c30565b60405180910390f35b34801561083e57600080fd5b5061085960048036038101906108549190612f50565b611d27565b005b34801561086757600080fd5b50610882600480360381019061087d9190613279565b611e1f565b005b600b60019054906101000a900460ff1681565b60007f80ac58cd000000000000000000000000000000000000000000000000000000007bffffffffffffffffffffffffffffffffffffffffffffffffffffffff1916827bffffffffffffffffffffffffffffffffffffffffffffffffffffffff1916148061096257507f5b5e139f000000000000000000000000000000000000000000000000000000007bffffffffffffffffffffffffffffffffffffffffffffffffffffffff1916827bffffffffffffffffffffffffffffffffffffffffffffffffffffffff1916145b80610972575061097182611ea5565b5b9050919050565b60606000805461098890613f17565b80601f01602080910402602001604051908101604052809291908181526020018280546109b490613f17565b8015610a015780601f106109d657610100808354040283529160200191610a01565b820191906000526020600020905b8154815290600101906020018083116109e457829003601f168201915b5050505050905090565b6000610a1682611f0f565b610a55576040517f08c379a0000000000000000000000000000000000000000000000000000000008152600401610a4c90613af0565b60405180910390fd5b6004600083815260200190815260200160002060009054906101000a900473ffffffffffffffffffffffffffffffffffffffff169050919050565b6000610a9b8261133e565b90508073ffffffffffffffffffffffffffffffffffffffff168373ffffffffffffffffffffffffffffffffffffffff161415610b0c576040517f08c379a0000000000000000000000000000000000000000000000000000000008152600401610b0390613b30565b60405180910390fd5b8073ffffffffffffffffffffffffffffffffffffffff16610b2b611f7b565b73ffffffffffffffffffffffffffffffffffffffff161480610b5a5750610b5981610b54611f7b565b611b0e565b5b610b99576040517f08c379a0000000000000000000000000000000000000000000000000000000008152600401610b9090613a30565b60405180910390fd5b610ba38383611f83565b505050565b610bb0611f7b565b73ffffffffffffffffffffffffffffffffffffffff16610bce6115e2565b73ffffffffffffffffffffffffffffffffffffffff1614610c24576040517f08c379a0000000000000000000000000000000000000000000000000000000008152600401610c1b90613b10565b60405180910390fd5b80600f8190555050565b60085481565b60106020528060005260406000206000915054906101000a900460ff1681565b610c5c611f7b565b73ffffffffffffffffffffffffffffffffffffffff16610c7a6115e2565b73ffffffffffffffffffffffffffffffffffffffff1614610cd0576040517f08c379a0000000000000000000000000000000000000000000000000000000008152600401610cc790613b10565b60405180910390fd5b80600b60016101000a81548160ff02191690831515021790555050565b610cfe610cf8611f7b565b8261203c565b610d3d576040517f08c379a0000000000000000000000000000000000000000000000000000000008152600401610d3490613b50565b60405180910390fd5b610d4883838361211a565b505050565b600b60009054906101000a900460ff16610d9c576040517f08c379a0000000000000000000000000000000000000000000000000000000008152600401610d9390613b70565b60405180910390fd5b3373ffffffffffffffffffffffffffffffffffffffff163273ffffffffffffffffffffffffffffffffffffffff1614610e0a576040517f08c379a0000000000000000000000000000000000000000000000000000000008152600401610e01906139b0565b60405180910390fd5b60075481610e189190613db7565b3414610e59576040517f08c379a0000000000000000000000000000000000000000000000000000000008152600401610e5090613990565b60405180910390fd5b60095481600854610e6a9190613d30565b1115610eab576040517f08c379a0000000000000000000000000000000000000000000000000000000008152600401610ea290613c10565b60405180910390fd5b600a5481600e60003373ffffffffffffffffffffffffffffffffffffffff1673ffffffffffffffffffffffffffffffffffffffff16815260200190815260200160002054610ef99190613d30565b1115610f3a576040517f08c379a0000000000000000000000000000000000000000000000000000000008152600401610f3190613bb0565b60405180910390fd5b601060003373ffffffffffffffffffffffffffffffffffffffff1673ffffffffffffffffffffffffffffffffffffffff16815260200190815260200160002060009054906101000a900460ff1615610fc7576040517f08c379a0000000000000000000000000000000000000000000000000000000008152600401610fbe90613a90565b60405180910390fd5b600033604051602001610fda91906137d7565b604051602081830303815290604052805190602001209050611040848480806020026020016040519081016040528093929190818152602001838360200280828437600081840152601f19601f82011690508083019250505050505050600f5483612381565b61107f576040517f08c379a000000000000000000000000000000000000000000000000000000000815260040161107690613ab0565b60405180910390fd5b60005b828110156110d3576000600160085461109b9190613d30565b9050600860008154809291906110b090613f7a565b91905055506110bf3382612398565b5080806110cb90613f7a565b915050611082565b506001601060003373ffffffffffffffffffffffffffffffffffffffff1673ffffffffffffffffffffffffffffffffffffffff16815260200190815260200160002060006101000a81548160ff02191690831515021790555050505050565b61113a611f7b565b73ffffffffffffffffffffffffffffffffffffffff166111586115e2565b73ffffffffffffffffffffffffffffffffffffffff16146111ae576040517f08c379a00000000000000000000000000000000000000000000000000000000081526004016111a590613b10565b60405180910390fd5b6000600d60009054906101000a900473ffffffffffffffffffffffffffffffffffffffff1673ffffffffffffffffffffffffffffffffffffffff16476040516111f690613821565b60006040518083038185875af1925050503d8060008114611233576040519150601f19603f3d011682016040523d82523d6000602084013e611238565b606091505b505090508061127c576040517f08c379a000000000000000000000000000000000000000000000000000000000815260040161127390613bf0565b60405180910390fd5b50565b61129a83838360405180602001604052806000815250611991565b505050565b600a5481565b6112ad611f7b565b73ffffffffffffffffffffffffffffffffffffffff166112cb6115e2565b73ffffffffffffffffffffffffffffffffffffffff1614611321576040517f08c379a000000000000000000000000000000000000000000000000000000000815260040161131890613b10565b60405180910390fd5b80600b60006101000a81548160ff02191690831515021790555050565b6000806002600084815260200190815260200160002060009054906101000a900473ffffffffffffffffffffffffffffffffffffffff169050600073ffffffffffffffffffffffffffffffffffffffff168173ffffffffffffffffffffffffffffffffffffffff1614156113e7576040517f08c379a00000000000000000000000000000000000000000000000000000000081526004016113de90613a70565b60405180910390fd5b80915050919050565b60075481565b6113fe611f7b565b73ffffffffffffffffffffffffffffffffffffffff1661141c6115e2565b73ffffffffffffffffffffffffffffffffffffffff1614611472576040517f08c379a000000000000000000000000000000000000000000000000000000000815260040161146990613b10565b60405180910390fd5b8060098190555050565b60008073ffffffffffffffffffffffffffffffffffffffff168273ffffffffffffffffffffffffffffffffffffffff1614156114ed576040517f08c379a00000000000000000000000000000000000000000000000000000000081526004016114e490613a50565b60405180910390fd5b600360008373ffffffffffffffffffffffffffffffffffffffff1673ffffffffffffffffffffffffffffffffffffffff168152602001908152602001600020549050919050565b61153c611f7b565b73ffffffffffffffffffffffffffffffffffffffff1661155a6115e2565b73ffffffffffffffffffffffffffffffffffffffff16146115b0576040517f08c379a00000000000000000000000000000000000000000000000000000000081526004016115a790613b10565b60405180910390fd5b6115ba60006123b6565b565b600d60009054906101000a900473ffffffffffffffffffffffffffffffffffffffff1681565b6000600660009054906101000a900473ffffffffffffffffffffffffffffffffffffffff16905090565b611614611f7b565b73ffffffffffffffffffffffffffffffffffffffff166116326115e2565b73ffffffffffffffffffffffffffffffffffffffff1614611688576040517f08c379a000000000000000000000000000000000000000000000000000000000815260040161167f90613b10565b60405180910390fd5b8181600c9190611699929190612c9d565b505050565b6060600180546116ad90613f17565b80601f01602080910402602001604051908101604052809291908181526020018280546116d990613f17565b80156117265780601f106116fb57610100808354040283529160200191611726565b820191906000526020600020905b81548152906001019060200180831161170957829003601f168201915b5050505050905090565b600f5481565b600b60019054906101000a900460ff16611785576040517f08c379a000000000000000000000000000000000000000000000000000000000815260040161177c90613b90565b60405180910390fd5b3373ffffffffffffffffffffffffffffffffffffffff163273ffffffffffffffffffffffffffffffffffffffff16146117f3576040517f08c379a00000000000000000000000000000000000000000000000000000000081526004016117ea906139b0565b60405180910390fd5b600754816118019190613db7565b3414611842576040517f08c379a000000000000000000000000000000000000000000000000000000000815260040161183990613990565b60405180910390fd5b600954816008546118539190613d30565b1115611894576040517f08c379a000000000000000000000000000000000000000000000000000000000815260040161188b90613c10565b60405180910390fd5b600a5481600e60003373ffffffffffffffffffffffffffffffffffffffff1673ffffffffffffffffffffffffffffffffffffffff168152602001908152602001600020546118e29190613d30565b1115611923576040517f08c379a000000000000000000000000000000000000000000000000000000000815260040161191a90613bb0565b60405180910390fd5b60005b81811015611977576000600160085461193f9190613d30565b90506008600081548092919061195490613f7a565b91905055506119633382612398565b50808061196f90613f7a565b915050611926565b5050565b61198d611986611f7b565b838361247c565b5050565b6119a261199c611f7b565b8361203c565b6119e1576040517f08c379a00000000000000000000000000000000000000000000000000000000081526004016119d890613b50565b60405180910390fd5b6119ed848484846125e9565b50505050565b60606119fe82611f0f565b611a3d576040517f08c379a0000000000000000000000000000000000000000000000000000000008152600401611a3490613bd0565b60405180910390fd5b600c611a4883612645565b604051602001611a599291906137f2565b6040516020818303038152906040529050919050565b60095481565b611a7d611f7b565b73ffffffffffffffffffffffffffffffffffffffff16611a9b6115e2565b73ffffffffffffffffffffffffffffffffffffffff1614611af1576040517f08c379a0000000000000000000000000000000000000000000000000000000008152600401611ae890613b10565b60405180910390fd5b80600a8190555050565b600b60009054906101000a900460ff1681565b6000600560008473ffffffffffffffffffffffffffffffffffffffff1673ffffffffffffffffffffffffffffffffffffffff16815260200190815260200160002060008373ffffffffffffffffffffffffffffffffffffffff1673ffffffffffffffffffffffffffffffffffffffff16815260200190815260200160002060009054906101000a900460ff16905092915050565b611baa611f7b565b73ffffffffffffffffffffffffffffffffffffffff16611bc86115e2565b73ffffffffffffffffffffffffffffffffffffffff1614611c1e576040517f08c379a0000000000000000000000000000000000000000000000000000000008152600401611c1590613b10565b60405180910390fd5b60005b8151811015611cb35760006001600854611c3b9190613d30565b905060086000815480929190611c5090613f7a565b9190505550611c9f838381518110611c91577f4e487b7100000000000000000000000000000000000000000000000000000000600052603260045260246000fd5b602002602001015182612398565b508080611cab90613f7a565b915050611c21565b50805160086000828254611cc79190613d30565b925050819055506009546008541115611d0c576040517f1e186f7200000000000000000000000000000000000000000000000000000000815260040160405180910390fd5b50565b600e6020528060005260406000206000915090505481565b611d2f611f7b565b73ffffffffffffffffffffffffffffffffffffffff16611d4d6115e2565b73ffffffffffffffffffffffffffffffffffffffff1614611da3576040517f08c379a0000000000000000000000000000000000000000000000000000000008152600401611d9a90613b10565b60405180910390fd5b600073ffffffffffffffffffffffffffffffffffffffff168173ffffffffffffffffffffffffffffffffffffffff161415611e13576040517f08c379a0000000000000000000000000000000000000000000000000000000008152600401611e0a90613930565b60405180910390fd5b611e1c816123b6565b50565b611e27611f7b565b73ffffffffffffffffffffffffffffffffffffffff16611e456115e2565b73ffffffffffffffffffffffffffffffffffffffff1614611e9b576040517f08c379a0000000000000000000000000000000000000000000000000000000008152600401611e9290613b10565b60405180910390fd5b8060078190555050565b60007f01ffc9a7000000000000000000000000000000000000000000000000000000007bffffffffffffffffffffffffffffffffffffffffffffffffffffffff1916827bffffffffffffffffffffffffffffffffffffffffffffffffffffffff1916149050919050565b60008073ffffffffffffffffffffffffffffffffffffffff166002600084815260200190815260200160002060009054906101000a900473ffffffffffffffffffffffffffffffffffffffff1673ffffffffffffffffffffffffffffffffffffffff1614159050919050565b600033905090565b816004600083815260200190815260200160002060006101000a81548173ffffffffffffffffffffffffffffffffffffffff021916908373ffffffffffffffffffffffffffffffffffffffff160217905550808273ffffffffffffffffffffffffffffffffffffffff16611ff68361133e565b73ffffffffffffffffffffffffffffffffffffffff167f8c5be1e5ebec7d5bd14f71427d1e84f3dd0314c0f7b2291e5b200ac8c7c3b92560405160405180910390a45050565b600061204782611f0f565b612086576040517f08c379a000000000000000000000000000000000000000000000000000000000815260040161207d90613a10565b60405180910390fd5b60006120918361133e565b90508073ffffffffffffffffffffffffffffffffffffffff168473ffffffffffffffffffffffffffffffffffffffff1614806120d357506120d28185611b0e565b5b8061211157508373ffffffffffffffffffffffffffffffffffffffff166120f984610a0b565b73ffffffffffffffffffffffffffffffffffffffff16145b91505092915050565b8273ffffffffffffffffffffffffffffffffffffffff1661213a8261133e565b73ffffffffffffffffffffffffffffffffffffffff1614612190576040517f08c379a000000000000000000000000000000000000000000000000000000000815260040161218790613950565b60405180910390fd5b600073ffffffffffffffffffffffffffffffffffffffff168273ffffffffffffffffffffffffffffffffffffffff161415612200576040517f08c379a00000000000000000000000000000000000000000000000000000000081526004016121f7906139d0565b60405180910390fd5b61220b8383836127f2565b612216600082611f83565b6001600360008573ffffffffffffffffffffffffffffffffffffffff1673ffffffffffffffffffffffffffffffffffffffff16815260200190815260200160002060008282546122669190613e11565b925050819055506001600360008473ffffffffffffffffffffffffffffffffffffffff1673ffffffffffffffffffffffffffffffffffffffff16815260200190815260200160002060008282546122bd9190613d30565b92505081905550816002600083815260200190815260200160002060006101000a81548173ffffffffffffffffffffffffffffffffffffffff021916908373ffffffffffffffffffffffffffffffffffffffff160217905550808273ffffffffffffffffffffffffffffffffffffffff168473ffffffffffffffffffffffffffffffffffffffff167fddf252ad1be2c89b69c2b068fc378daa952ba7f163c4a11628f55a4df523b3ef60405160405180910390a461237c8383836127f7565b505050565b60008261238e85846127fc565b1490509392505050565b6123b2828260405180602001604052806000815250612897565b5050565b6000600660009054906101000a900473ffffffffffffffffffffffffffffffffffffffff16905081600660006101000a81548173ffffffffffffffffffffffffffffffffffffffff021916908373ffffffffffffffffffffffffffffffffffffffff1602179055508173ffffffffffffffffffffffffffffffffffffffff168173ffffffffffffffffffffffffffffffffffffffff167f8be0079c531659141344cd1fd0a4f28419497f9722a3daafe3b4186f6b6457e060405160405180910390a35050565b8173ffffffffffffffffffffffffffffffffffffffff168373ffffffffffffffffffffffffffffffffffffffff1614156124eb576040517f08c379a00000000000000000000000000000000000000000000000000000000081526004016124e2906139f0565b60405180910390fd5b80600560008573ffffffffffffffffffffffffffffffffffffffff1673ffffffffffffffffffffffffffffffffffffffff16815260200190815260200160002060008473ffffffffffffffffffffffffffffffffffffffff1673ffffffffffffffffffffffffffffffffffffffff16815260200190815260200160002060006101000a81548160ff0219169083151502179055508173ffffffffffffffffffffffffffffffffffffffff168373ffffffffffffffffffffffffffffffffffffffff167f17307eab39ab6107e8899845ad3d59bd9653f200f220920489ca2b5937696c31836040516125dc91906138b8565b60405180910390a3505050565b6125f484848461211a565b612600848484846128f2565b61263f576040517f08c379a000000000000000000000000000000000000000000000000000000000815260040161263690613910565b60405180910390fd5b50505050565b6060600082141561268d576040518060400160405280600181526020017f300000000000000000000000000000000000000000000000000000000000000081525090506127ed565b600082905060005b600082146126bf5780806126a890613f7a565b915050600a826126b89190613d86565b9150612695565b60008167ffffffffffffffff811115612701577f4e487b7100000000000000000000000000000000000000000000000000000000600052604160045260246000fd5b6040519080825280601f01601f1916602001820160405280156127335781602001600182028036833780820191505090505b5090505b600085146127e65760018261274c9190613e11565b9150600a8561275b9190613fe7565b60306127679190613d30565b60f81b8183815181106127a3577f4e487b7100000000000000000000000000000000000000000000000000000000600052603260045260246000fd5b60200101907effffffffffffffffffffffffffffffffffffffffffffffffffffffffffffff1916908160001a905350600a856127df9190613d86565b9450612737565b8093505050505b919050565b505050565b505050565b60008082905060005b845181101561288c576000858281518110612849577f4e487b7100000000000000000000000000000000000000000000000000000000600052603260045260246000fd5b6020026020010151905080831161286b576128648382612a89565b9250612878565b6128758184612a89565b92505b50808061288490613f7a565b915050612805565b508091505092915050565b6128a18383612aa0565b6128ae60008484846128f2565b6128ed576040517f08c379a00000000000000000000000000000000000000000000000000000000081526004016128e490613910565b60405180910390fd5b505050565b60006129138473ffffffffffffffffffffffffffffffffffffffff16612c7a565b15612a7c578373ffffffffffffffffffffffffffffffffffffffff1663150b7a0261293c611f7b565b8786866040518563ffffffff1660e01b815260040161295e949392919061386c565b602060405180830381600087803b15801561297857600080fd5b505af19250505080156129a957506040513d601f19601f820116820180604052508101906129a6919061320b565b60015b612a2c573d80600081146129d9576040519150601f19603f3d011682016040523d82523d6000602084013e6129de565b606091505b50600081511415612a24576040517f08c379a0000000000000000000000000000000000000000000000000000000008152600401612a1b90613910565b60405180910390fd5b805181602001fd5b63150b7a0260e01b7bffffffffffffffffffffffffffffffffffffffffffffffffffffffff1916817bffffffffffffffffffffffffffffffffffffffffffffffffffffffff191614915050612a81565b600190505b949350505050565b600082600052816020526040600020905092915050565b600073ffffffffffffffffffffffffffffffffffffffff168273ffffffffffffffffffffffffffffffffffffffff161415612b10576040517f08c379a0000000000000000000000000000000000000000000000000000000008152600401612b0790613ad0565b60405180910390fd5b612b1981611f0f565b15612b59576040517f08c379a0000000000000000000000000000000000000000000000000000000008152600401612b5090613970565b60405180910390fd5b612b65600083836127f2565b6001600360008473ffffffffffffffffffffffffffffffffffffffff1673ffffffffffffffffffffffffffffffffffffffff1681526020019081526020016000206000828254612bb59190613d30565b92505081905550816002600083815260200190815260200160002060006101000a81548173ffffffffffffffffffffffffffffffffffffffff021916908373ffffffffffffffffffffffffffffffffffffffff160217905550808273ffffffffffffffffffffffffffffffffffffffff16600073ffffffffffffffffffffffffffffffffffffffff167fddf252ad1be2c89b69c2b068fc378daa952ba7f163c4a11628f55a4df523b3ef60405160405180910390a4612c76600083836127f7565b5050565b6000808273ffffffffffffffffffffffffffffffffffffffff163b119050919050565b828054612ca990613f17565b90600052602060002090601f016020900481019282612ccb5760008555612d12565b82601f10612ce457803560ff1916838001178555612d12565b82800160010185558215612d12579182015b82811115612d11578235825591602001919060010190612cf6565b5b509050612d1f9190612d23565b5090565b5b80821115612d3c576000816000905550600101612d24565b5090565b6000612d53612d4e84613c70565b613c4b565b90508083825260208201905082856020860282011115612d7257600080fd5b60005b85811015612da25781612d888882612dea565b845260208401935060208301925050600181019050612d75565b5050509392505050565b6000612dbf612dba84613c9c565b613c4b565b905082815260208101848484011115612dd757600080fd5b612de2848285613ed5565b509392505050565b600081359050612df9816146c1565b92915050565b600082601f830112612e1057600080fd5b8135612e20848260208601612d40565b91505092915050565b60008083601f840112612e3b57600080fd5b8235905067ffffffffffffffff811115612e5457600080fd5b602083019150836020820283011115612e6c57600080fd5b9250929050565b600081359050612e82816146d8565b92915050565b600081359050612e97816146ef565b92915050565b600081359050612eac81614706565b92915050565b600081519050612ec181614706565b92915050565b600082601f830112612ed857600080fd5b8135612ee8848260208601612dac565b91505092915050565b60008083601f840112612f0357600080fd5b8235905067ffffffffffffffff811115612f1c57600080fd5b602083019150836001820283011115612f3457600080fd5b9250929050565b600081359050612f4a8161471d565b92915050565b600060208284031215612f6257600080fd5b6000612f7084828501612dea565b91505092915050565b60008060408385031215612f8c57600080fd5b6000612f9a85828601612dea565b9250506020612fab85828601612dea565b9150509250929050565b600080600060608486031215612fca57600080fd5b6000612fd886828701612dea565b9350506020612fe986828701612dea565b9250506040612ffa86828701612f3b565b9150509250925092565b6000806000806080858703121561301a57600080fd5b600061302887828801612dea565b945050602061303987828801612dea565b935050604061304a87828801612f3b565b925050606085013567ffffffffffffffff81111561306757600080fd5b61307387828801612ec7565b91505092959194509250565b6000806040838503121561309257600080fd5b60006130a085828601612dea565b92505060206130b185828601612e73565b9150509250929050565b600080604083850312156130ce57600080fd5b60006130dc85828601612dea565b92505060206130ed85828601612f3b565b9150509250929050565b60006020828403121561310957600080fd5b600082013567ffffffffffffffff81111561312357600080fd5b61312f84828501612dff565b91505092915050565b60008060006040848603121561314d57600080fd5b600084013567ffffffffffffffff81111561316757600080fd5b61317386828701612e29565b9350935050602061318686828701612f3b565b9150509250925092565b6000602082840312156131a257600080fd5b60006131b084828501612e73565b91505092915050565b6000602082840312156131cb57600080fd5b60006131d984828501612e88565b91505092915050565b6000602082840312156131f457600080fd5b600061320284828501612e9d565b91505092915050565b60006020828403121561321d57600080fd5b600061322b84828501612eb2565b91505092915050565b6000806020838503121561324757600080fd5b600083013567ffffffffffffffff81111561326157600080fd5b61326d85828601612ef1565b92509250509250929050565b60006020828403121561328b57600080fd5b600061329984828501612f3b565b91505092915050565b6132ab81613e57565b82525050565b6132ba81613e45565b82525050565b6132d16132cc82613e45565b613fc3565b82525050565b6132e081613e69565b82525050565b6132ef81613e75565b82525050565b600061330082613ce2565b61330a8185613cf8565b935061331a818560208601613ee4565b613323816140d4565b840191505092915050565b600061333982613ced565b6133438185613d14565b9350613353818560208601613ee4565b61335c816140d4565b840191505092915050565b600061337282613ced565b61337c8185613d25565b935061338c818560208601613ee4565b80840191505092915050565b600081546133a581613f17565b6133af8186613d25565b945060018216600081146133ca57600181146133db5761340e565b60ff1983168652818601935061340e565b6133e485613ccd565b60005b83811015613406578154818901526001820191506020810190506133e7565b838801955050505b50505092915050565b6000613424603283613d14565b915061342f826140f2565b604082019050919050565b6000613447602683613d14565b915061345282614141565b604082019050919050565b600061346a602583613d14565b915061347582614190565b604082019050919050565b600061348d601c83613d14565b9150613498826141df565b602082019050919050565b60006134b0601383613d14565b91506134bb82614208565b602082019050919050565b60006134d3601083613d14565b91506134de82614231565b602082019050919050565b60006134f6602483613d14565b91506135018261425a565b604082019050919050565b6000613519601983613d14565b9150613524826142a9565b602082019050919050565b600061353c602c83613d14565b9150613547826142d2565b604082019050919050565b600061355f603883613d14565b915061356a82614321565b604082019050919050565b6000613582602a83613d14565b915061358d82614370565b604082019050919050565b60006135a5602983613d14565b91506135b0826143bf565b604082019050919050565b60006135c8601583613d14565b91506135d38261440e565b602082019050919050565b60006135eb600d83613d14565b91506135f682614437565b602082019050919050565b600061360e602083613d14565b915061361982614460565b602082019050919050565b6000613631602c83613d14565b915061363c82614489565b604082019050919050565b6000613654600583613d25565b915061365f826144d8565b600582019050919050565b6000613677602083613d14565b915061368282614501565b602082019050919050565b600061369a602183613d14565b91506136a58261452a565b604082019050919050565b60006136bd600083613d09565b91506136c882614579565b600082019050919050565b60006136e0603183613d14565b91506136eb8261457c565b604082019050919050565b6000613703601c83613d14565b915061370e826145cb565b602082019050919050565b6000613726601b83613d14565b9150613731826145f4565b602082019050919050565b6000613749601283613d14565b91506137548261461d565b602082019050919050565b600061376c601583613d14565b915061377782614646565b602082019050919050565b600061378f600f83613d14565b915061379a8261466f565b602082019050919050565b60006137b2600983613d14565b91506137bd82614698565b602082019050919050565b6137d181613ecb565b82525050565b60006137e382846132c0565b60148201915081905092915050565b60006137fe8285613398565b915061380a8284613367565b915061381582613647565b91508190509392505050565b600061382c826136b0565b9150819050919050565b600060208201905061384b60008301846132b1565b92915050565b600060208201905061386660008301846132a2565b92915050565b600060808201905061388160008301876132b1565b61388e60208301866132b1565b61389b60408301856137c8565b81810360608301526138ad81846132f5565b905095945050505050565b60006020820190506138cd60008301846132d7565b92915050565b60006020820190506138e860008301846132e6565b92915050565b60006020820190508181036000830152613908818461332e565b905092915050565b6000602082019050818103600083015261392981613417565b9050919050565b600060208201905081810360008301526139498161343a565b9050919050565b600060208201905081810360008301526139698161345d565b9050919050565b6000602082019050818103600083015261398981613480565b9050919050565b600060208201905081810360008301526139a9816134a3565b9050919050565b600060208201905081810360008301526139c9816134c6565b9050919050565b600060208201905081810360008301526139e9816134e9565b9050919050565b60006020820190508181036000830152613a098161350c565b9050919050565b60006020820190508181036000830152613a298161352f565b9050919050565b60006020820190508181036000830152613a4981613552565b9050919050565b60006020820190508181036000830152613a6981613575565b9050919050565b60006020820190508181036000830152613a8981613598565b9050919050565b60006020820190508181036000830152613aa9816135bb565b9050919050565b60006020820190508181036000830152613ac9816135de565b9050919050565b60006020820190508181036000830152613ae981613601565b9050919050565b60006020820190508181036000830152613b0981613624565b9050919050565b60006020820190508181036000830152613b298161366a565b9050919050565b60006020820190508181036000830152613b498161368d565b9050919050565b60006020820190508181036000830152613b69816136d3565b9050919050565b60006020820190508181036000830152613b89816136f6565b9050919050565b60006020820190508181036000830152613ba981613719565b9050919050565b60006020820190508181036000830152613bc98161373c565b9050919050565b60006020820190508181036000830152613be98161375f565b9050919050565b60006020820190508181036000830152613c0981613782565b9050919050565b60006020820190508181036000830152613c29816137a5565b9050919050565b6000602082019050613c4560008301846137c8565b92915050565b6000613c55613c66565b9050613c618282613f49565b919050565b6000604051905090565b600067ffffffffffffffff821115613c8b57613c8a6140a5565b5b602082029050602081019050919050565b600067ffffffffffffffff821115613cb757613cb66140a5565b5b613cc0826140d4565b9050602081019050919050565b60008190508160005260206000209050919050565b600081519050919050565b600081519050919050565b600082825260208201905092915050565b600081905092915050565b600082825260208201905092915050565b600081905092915050565b6000613d3b82613ecb565b9150613d4683613ecb565b9250827fffffffffffffffffffffffffffffffffffffffffffffffffffffffffffffffff03821115613d7b57613d7a614018565b5b828201905092915050565b6000613d9182613ecb565b9150613d9c83613ecb565b925082613dac57613dab614047565b5b828204905092915050565b6000613dc282613ecb565b9150613dcd83613ecb565b9250817fffffffffffffffffffffffffffffffffffffffffffffffffffffffffffffffff0483118215151615613e0657613e05614018565b5b828202905092915050565b6000613e1c82613ecb565b9150613e2783613ecb565b925082821015613e3a57613e39614018565b5b828203905092915050565b6000613e5082613eab565b9050919050565b6000613e6282613eab565b9050919050565b60008115159050919050565b6000819050919050565b60007fffffffff0000000000000000000000000000000000000000000000000000000082169050919050565b600073ffffffffffffffffffffffffffffffffffffffff82169050919050565b6000819050919050565b82818337600083830152505050565b60005b83811015613f02578082015181840152602081019050613ee7565b83811115613f11576000848401525b50505050565b60006002820490506001821680613f2f57607f821691505b60208210811415613f4357613f42614076565b5b50919050565b613f52826140d4565b810181811067ffffffffffffffff82111715613f7157613f706140a5565b5b80604052505050565b6000613f8582613ecb565b91507fffffffffffffffffffffffffffffffffffffffffffffffffffffffffffffffff821415613fb857613fb7614018565b5b600182019050919050565b6000613fce82613fd5565b9050919050565b6000613fe0826140e5565b9050919050565b6000613ff282613ecb565b9150613ffd83613ecb565b92508261400d5761400c614047565b5b828206905092915050565b7f4e487b7100000000000000000000000000000000000000000000000000000000600052601160045260246000fd5b7f4e487b7100000000000000000000000000000000000000000000000000000000600052601260045260246000fd5b7f4e487b7100000000000000000000000000000000000000000000000000000000600052602260045260246000fd5b7f4e487b7100000000000000000000000000000000000000000000000000000000600052604160045260246000fd5b6000601f19601f8301169050919050565b60008160601b9050919050565b7f4552433732313a207472616e7366657220746f206e6f6e20455243373231526560008201527f63656976657220696d706c656d656e7465720000000000000000000000000000602082015250565b7f4f776e61626c653a206e6577206f776e657220697320746865207a65726f206160008201527f6464726573730000000000000000000000000000000000000000000000000000602082015250565b7f4552433732313a207472616e736665722066726f6d20696e636f72726563742060008201527f6f776e6572000000000000000000000000000000000000000000000000000000602082015250565b7f4552433732313a20746f6b656e20616c7265616479206d696e74656400000000600082015250565b7f496e76616c6964206d696e742076616c75652e00000000000000000000000000600082015250565b7f436f6e74726163742044656e6965642e00000000000000000000000000000000600082015250565b7f4552433732313a207472616e7366657220746f20746865207a65726f2061646460008201527f7265737300000000000000000000000000000000000000000000000000000000602082015250565b7f4552433732313a20617070726f766520746f2063616c6c657200000000000000600082015250565b7f4552433732313a206f70657261746f7220717565727920666f72206e6f6e657860008201527f697374656e7420746f6b656e0000000000000000000000000000000000000000602082015250565b7f4552433732313a20617070726f76652063616c6c6572206973206e6f74206f7760008201527f6e6572206e6f7220617070726f76656420666f7220616c6c0000000000000000602082015250565b7f4552433732313a2062616c616e636520717565727920666f7220746865207a6560008201527f726f206164647265737300000000000000000000000000000000000000000000602082015250565b7f4552433732313a206f776e657220717565727920666f72206e6f6e657869737460008201527f656e7420746f6b656e0000000000000000000000000000000000000000000000602082015250565b7f4d696e7420616c726561647920636c61696d6564210000000000000000000000600082015250565b7f50726f6f6620496e76616c696400000000000000000000000000000000000000600082015250565b7f4552433732313a206d696e7420746f20746865207a65726f2061646472657373600082015250565b7f4552433732313a20617070726f76656420717565727920666f72206e6f6e657860008201527f697374656e7420746f6b656e0000000000000000000000000000000000000000602082015250565b7f2e6a736f6e000000000000000000000000000000000000000000000000000000600082015250565b7f4f776e61626c653a2063616c6c6572206973206e6f7420746865206f776e6572600082015250565b7f4552433732313a20617070726f76616c20746f2063757272656e74206f776e6560008201527f7200000000000000000000000000000000000000000000000000000000000000602082015250565b50565b7f4552433732313a207472616e736665722063616c6c6572206973206e6f74206f60008201527f776e6572206e6f7220617070726f766564000000000000000000000000000000602082015250565b7f50726976617465204d696e74696e67206e6f7420656e61626c65642e00000000600082015250565b7f5075626c6963204d696e74696e67206e6f7420656e61626c65642e0000000000600082015250565b7f457863656564206d61782077616c6c6574210000000000000000000000000000600082015250565b7f546f6b656e20646f6573206e6f74206578697374210000000000000000000000600082015250565b7f7769746864726177206661696c65640000000000000000000000000000000000600082015250565b7f536f6c64206f7574210000000000000000000000000000000000000000000000600082015250565b6146ca81613e45565b81146146d557600080fd5b50565b6146e181613e69565b81146146ec57600080fd5b50565b6146f881613e75565b811461470357600080fd5b50565b61470f81613e7f565b811461471a57600080fd5b50565b61472681613ecb565b811461473157600080fd5b5056fea2646970667358221220aeaec5a197679f6b7e96c3a0287d953d1bcd5db4e86a412ef72d527cea811aba64736f6c63430008040033",
  "linkReferences": {},
  "deployedLinkReferences": {}
}