{
  "_format": "hh-sol-artifact-1",
  "contractName": "FelineSoulmate",
  "sourceName": "contracts/felinesoulmate.sol",
  "abi": [
    {
      "inputs": [],
      "stateMutability": "nonpayable",
      "type": "constructor"
    },
    {
      "inputs": [],
      "name": "ApprovalCallerNotOwnerNorApproved",
      "type": "error"
    },
    {
      "inputs": [],
      "name": "ApprovalQueryForNonexistentToken",
      "type": "error"
    },
    {
      "inputs": [],
      "name": "ApprovalToCurrentOwner",
      "type": "error"
    },
    {
      "inputs": [],
      "name": "ApproveToCaller",
      "type": "error"
    },
    {
      "inputs": [],
      "name": "BalanceQueryForZeroAddress",
      "type": "error"
    },
    {
      "inputs": [],
      "name": "MintToZeroAddress",
      "type": "error"
    },
    {
      "inputs": [],
      "name": "MintZeroQuantity",
      "type": "error"
    },
    {
      "inputs": [],
      "name": "OwnerIndexOutOfBounds",
      "type": "error"
    },
    {
      "inputs": [],
      "name": "OwnerQueryForNonexistentToken",
      "type": "error"
    },
    {
      "inputs": [],
      "name": "TokenIndexOutOfBounds",
      "type": "error"
    },
    {
      "inputs": [],
      "name": "TransferCallerNotOwnerNorApproved",
      "type": "error"
    },
    {
      "inputs": [],
      "name": "TransferFromIncorrectOwner",
      "type": "error"
    },
    {
      "inputs": [],
      "name": "TransferToNonERC721ReceiverImplementer",
      "type": "error"
    },
    {
      "inputs": [],
      "name": "TransferToZeroAddress",
      "type": "error"
    },
    {
      "anonymous": false,
      "inputs": [
        {
          "indexed": true,
          "internalType": "address",
          "name": "owner",
          "type": "address"
        },
        {
          "indexed": true,
          "internalType": "address",
          "name": "approved",
          "type": "address"
        },
        {
          "indexed": true,
          "internalType": "uint256",
          "name": "tokenId",
          "type": "uint256"
        }
      ],
      "name": "Approval",
      "type": "event"
    },
    {
      "anonymous": false,
      "inputs": [
        {
          "indexed": true,
          "internalType": "address",
          "name": "owner",
          "type": "address"
        },
        {
          "indexed": true,
          "internalType": "address",
          "name": "operator",
          "type": "address"
        },
        {
          "indexed": false,
          "internalType": "bool",
          "name": "approved",
          "type": "bool"
        }
      ],
      "name": "ApprovalForAll",
      "type": "event"
    },
    {
      "anonymous": false,
      "inputs": [
        {
          "indexed": false,
          "internalType": "uint256",
          "name": "totalMinted",
          "type": "uint256"
        }
      ],
      "name": "Minted",
      "type": "event"
    },
    {
      "anonymous": false,
      "inputs": [
        {
          "indexed": true,
          "internalType": "address",
          "name": "previousOwner",
          "type": "address"
        },
        {
          "indexed": true,
          "internalType": "address",
          "name": "newOwner",
          "type": "address"
        }
      ],
      "name": "OwnershipTransferred",
      "type": "event"
    },
    {
      "anonymous": false,
      "inputs": [
        {
          "indexed": true,
          "internalType": "address",
          "name": "from",
          "type": "address"
        },
        {
          "indexed": true,
          "internalType": "address",
          "name": "to",
          "type": "address"
        },
        {
          "indexed": true,
          "internalType": "uint256",
          "name": "tokenId",
          "type": "uint256"
        }
      ],
      "name": "Transfer",
      "type": "event"
    },
    {
      "inputs": [
        {
          "internalType": "uint256",
          "name": "",
          "type": "uint256"
        }
      ],
      "name": "_transferToContract",
      "outputs": [
        {
          "internalType": "bool",
          "name": "",
          "type": "bool"
        }
      ],
      "stateMutability": "view",
      "type": "function"
    },
    {
      "inputs": [
        {
          "internalType": "address",
          "name": "",
          "type": "address"
        }
      ],
      "name": "addressMintedBalance",
      "outputs": [
        {
          "internalType": "uint256",
          "name": "",
          "type": "uint256"
        }
      ],
      "stateMutability": "view",
      "type": "function"
    },
    {
      "inputs": [],
      "name": "allowedToContract",
      "outputs": [
        {
          "internalType": "bool",
          "name": "",
          "type": "bool"
        }
      ],
      "stateMutability": "view",
      "type": "function"
    },
    {
      "inputs": [
        {
          "internalType": "address",
          "name": "to",
          "type": "address"
        },
        {
          "internalType": "uint256",
          "name": "tokenId",
          "type": "uint256"
        }
      ],
      "name": "approve",
      "outputs": [],
      "stateMutability": "nonpayable",
      "type": "function"
    },
    {
      "inputs": [
        {
          "internalType": "address",
          "name": "owner",
          "type": "address"
        }
      ],
      "name": "balanceOf",
      "outputs": [
        {
          "internalType": "uint256",
          "name": "",
          "type": "uint256"
        }
      ],
      "stateMutability": "view",
      "type": "function"
    },
    {
      "inputs": [
        {
          "internalType": "uint256",
          "name": "_newPrice",
          "type": "uint256"
        }
      ],
      "name": "changePrice",
      "outputs": [],
      "stateMutability": "nonpayable",
      "type": "function"
    },
    {
      "inputs": [
        {
          "internalType": "uint256",
          "name": "tokenId",
          "type": "uint256"
        }
      ],
      "name": "getApproved",
      "outputs": [
        {
          "internalType": "address",
          "name": "",
          "type": "address"
        }
      ],
      "stateMutability": "view",
      "type": "function"
    },
    {
      "inputs": [
        {
          "internalType": "address",
          "name": "owner",
          "type": "address"
        },
        {
          "internalType": "address",
          "name": "operator",
          "type": "address"
        }
      ],
      "name": "isApprovedForAll",
      "outputs": [
        {
          "internalType": "bool",
          "name": "",
          "type": "bool"
        }
      ],
      "stateMutability": "view",
      "type": "function"
    },
    {
      "inputs": [],
      "name": "isPrivateMintEnabled",
      "outputs": [
        {
          "internalType": "bool",
          "name": "",
          "type": "bool"
        }
      ],
      "stateMutability": "view",
      "type": "function"
    },
    {
      "inputs": [],
      "name": "isPublicMintEnabled",
      "outputs": [
        {
          "internalType": "bool",
          "name": "",
          "type": "bool"
        }
      ],
      "stateMutability": "view",
      "type": "function"
    },
    {
      "inputs": [],
      "name": "isRevealed",
      "outputs": [
        {
          "internalType": "bool",
          "name": "",
          "type": "bool"
        }
      ],
      "stateMutability": "view",
      "type": "function"
    },
    {
      "inputs": [],
      "name": "maxMintPerTx",
      "outputs": [
        {
          "internalType": "uint256",
          "name": "",
          "type": "uint256"
        }
      ],
      "stateMutability": "view",
      "type": "function"
    },
    {
      "inputs": [],
      "name": "maxMintPerWallet",
      "outputs": [
        {
          "internalType": "uint256",
          "name": "",
          "type": "uint256"
        }
      ],
      "stateMutability": "view",
      "type": "function"
    },
    {
      "inputs": [],
      "name": "maxSupply",
      "outputs": [
        {
          "internalType": "uint256",
          "name": "",
          "type": "uint256"
        }
      ],
      "stateMutability": "view",
      "type": "function"
    },
    {
      "inputs": [
        {
          "internalType": "uint256",
          "name": "_count",
          "type": "uint256"
        }
      ],
      "name": "mint",
      "outputs": [],
      "stateMutability": "payable",
      "type": "function"
    },
    {
      "inputs": [],
      "name": "name",
      "outputs": [
        {
          "internalType": "string",
          "name": "",
          "type": "string"
        }
      ],
      "stateMutability": "view",
      "type": "function"
    },
    {
      "inputs": [],
      "name": "owner",
      "outputs": [
        {
          "internalType": "address",
          "name": "",
          "type": "address"
        }
      ],
      "stateMutability": "view",
      "type": "function"
    },
    {
      "inputs": [
        {
          "internalType": "uint256",
          "name": "tokenId",
          "type": "uint256"
        }
      ],
      "name": "ownerOf",
      "outputs": [
        {
          "internalType": "address",
          "name": "",
          "type": "address"
        }
      ],
      "stateMutability": "view",
      "type": "function"
    },
    {
      "inputs": [],
      "name": "price",
      "outputs": [
        {
          "internalType": "uint256",
          "name": "",
          "type": "uint256"
        }
      ],
      "stateMutability": "view",
      "type": "function"
    },
    {
      "inputs": [
        {
          "internalType": "bytes32[]",
          "name": "_merkleProof",
          "type": "bytes32[]"
        },
        {
          "internalType": "uint256",
          "name": "_count",
          "type": "uint256"
        }
      ],
      "name": "privateMint",
      "outputs": [],
      "stateMutability": "payable",
      "type": "function"
    },
    {
      "inputs": [],
      "name": "privateMintMerkleRoot",
      "outputs": [
        {
          "internalType": "bytes32",
          "name": "",
          "type": "bytes32"
        }
      ],
      "stateMutability": "view",
      "type": "function"
    },
    {
      "inputs": [
        {
          "internalType": "address",
          "name": "",
          "type": "address"
        }
      ],
      "name": "privateMintParticipants",
      "outputs": [
        {
          "internalType": "bool",
          "name": "",
          "type": "bool"
        }
      ],
      "stateMutability": "view",
      "type": "function"
    },
    {
      "inputs": [],
      "name": "renounceOwnership",
      "outputs": [],
      "stateMutability": "nonpayable",
      "type": "function"
    },
    {
      "inputs": [
        {
          "internalType": "address",
          "name": "from",
          "type": "address"
        },
        {
          "internalType": "address",
          "name": "to",
          "type": "address"
        },
        {
          "internalType": "uint256",
          "name": "tokenId",
          "type": "uint256"
        }
      ],
      "name": "safeTransferFrom",
      "outputs": [],
      "stateMutability": "nonpayable",
      "type": "function"
    },
    {
      "inputs": [
        {
          "internalType": "address",
          "name": "from",
          "type": "address"
        },
        {
          "internalType": "address",
          "name": "to",
          "type": "address"
        },
        {
          "internalType": "uint256",
          "name": "tokenId",
          "type": "uint256"
        },
        {
          "internalType": "bytes",
          "name": "_data",
          "type": "bytes"
        }
      ],
      "name": "safeTransferFrom",
      "outputs": [],
      "stateMutability": "nonpayable",
      "type": "function"
    },
    {
      "inputs": [],
      "name": "setAllowToContract",
      "outputs": [],
      "stateMutability": "nonpayable",
      "type": "function"
    },
    {
      "inputs": [
        {
          "internalType": "uint256",
          "name": "_tokenId",
          "type": "uint256"
        },
        {
          "internalType": "bool",
          "name": "_allow",
          "type": "bool"
        }
      ],
      "name": "setAllowTokenToContract",
      "outputs": [],
      "stateMutability": "nonpayable",
      "type": "function"
    },
    {
      "inputs": [
        {
          "internalType": "address",
          "name": "operator",
          "type": "address"
        },
        {
          "internalType": "bool",
          "name": "approved",
          "type": "bool"
        }
      ],
      "name": "setApprovalForAll",
      "outputs": [],
      "stateMutability": "nonpayable",
      "type": "function"
    },
    {
      "inputs": [
        {
          "internalType": "string",
          "name": "_hiddenMetadataUri",
          "type": "string"
        }
      ],
      "name": "setHiddenMetadataUri",
      "outputs": [],
      "stateMutability": "nonpayable",
      "type": "function"
    },
    {
      "inputs": [
        {
          "internalType": "bool",
          "name": "isPrivateMintEnabled_",
          "type": "bool"
        }
      ],
      "name": "setIsPrivateMintEnabled",
      "outputs": [],
      "stateMutability": "nonpayable",
      "type": "function"
    },
    {
      "inputs": [
        {
          "internalType": "bool",
          "name": "isPublicMintEnabled_",
          "type": "bool"
        }
      ],
      "name": "setIsPublicMintEnabled",
      "outputs": [],
      "stateMutability": "nonpayable",
      "type": "function"
    },
    {
      "inputs": [
        {
          "internalType": "bool",
          "name": "_state",
          "type": "bool"
        }
      ],
      "name": "setIsRevealed",
      "outputs": [],
      "stateMutability": "nonpayable",
      "type": "function"
    },
    {
      "inputs": [
        {
          "internalType": "uint256",
          "name": "_maxMintPerTx",
          "type": "uint256"
        }
      ],
      "name": "setMaxMintPerTx",
      "outputs": [],
      "stateMutability": "nonpayable",
      "type": "function"
    },
    {
      "inputs": [
        {
          "internalType": "uint256",
          "name": "_maxMintPerWallet",
          "type": "uint256"
        }
      ],
      "name": "setMaxMintPerWallet",
      "outputs": [],
      "stateMutability": "nonpayable",
      "type": "function"
    },
    {
      "inputs": [
        {
          "internalType": "bytes32",
          "name": "_privateMintMerkleRoot",
          "type": "bytes32"
        }
      ],
      "name": "setPrivateMintMerkleRoot",
      "outputs": [],
      "stateMutability": "nonpayable",
      "type": "function"
    },
    {
      "inputs": [
        {
          "internalType": "string",
          "name": "_uriPrefix",
          "type": "string"
        }
      ],
      "name": "setUriPrefix",
      "outputs": [],
      "stateMutability": "nonpayable",
      "type": "function"
    },
    {
      "inputs": [
        {
          "internalType": "string",
          "name": "_uriSuffix",
          "type": "string"
        }
      ],
      "name": "setUriSuffix",
      "outputs": [],
      "stateMutability": "nonpayable",
      "type": "function"
    },
    {
      "inputs": [
        {
          "internalType": "address",
          "name": "withdrawWalletAddress_",
          "type": "address"
        }
      ],
      "name": "setWithdrawWallet",
      "outputs": [],
      "stateMutability": "nonpayable",
      "type": "function"
    },
    {
      "inputs": [
        {
          "internalType": "bytes4",
          "name": "interfaceId",
          "type": "bytes4"
        }
      ],
      "name": "supportsInterface",
      "outputs": [
        {
          "internalType": "bool",
          "name": "",
          "type": "bool"
        }
      ],
      "stateMutability": "view",
      "type": "function"
    },
    {
      "inputs": [],
      "name": "symbol",
      "outputs": [
        {
          "internalType": "string",
          "name": "",
          "type": "string"
        }
      ],
      "stateMutability": "view",
      "type": "function"
    },
    {
      "inputs": [
        {
          "internalType": "address[]",
          "name": "tos",
          "type": "address[]"
        }
      ],
      "name": "teamMint",
      "outputs": [],
      "stateMutability": "nonpayable",
      "type": "function"
    },
    {
      "inputs": [
        {
          "internalType": "uint256",
          "name": "index",
          "type": "uint256"
        }
      ],
      "name": "tokenByIndex",
      "outputs": [
        {
          "internalType": "uint256",
          "name": "",
          "type": "uint256"
        }
      ],
      "stateMutability": "view",
      "type": "function"
    },
    {
      "inputs": [
        {
          "internalType": "address",
          "name": "owner",
          "type": "address"
        },
        {
          "internalType": "uint256",
          "name": "index",
          "type": "uint256"
        }
      ],
      "name": "tokenOfOwnerByIndex",
      "outputs": [
        {
          "internalType": "uint256",
          "name": "",
          "type": "uint256"
        }
      ],
      "stateMutability": "view",
      "type": "function"
    },
    {
      "inputs": [
        {
          "internalType": "uint256",
          "name": "_tokenId",
          "type": "uint256"
        }
      ],
      "name": "tokenURI",
      "outputs": [
        {
          "internalType": "string",
          "name": "",
          "type": "string"
        }
      ],
      "stateMutability": "nonpayable",
      "type": "function"
    },
    {
      "inputs": [],
      "name": "totalSupply",
      "outputs": [
        {
          "internalType": "uint256",
          "name": "",
          "type": "uint256"
        }
      ],
      "stateMutability": "view",
      "type": "function"
    },
    {
      "inputs": [
        {
          "internalType": "address",
          "name": "from",
          "type": "address"
        },
        {
          "internalType": "address",
          "name": "to",
          "type": "address"
        },
        {
          "internalType": "uint256",
          "name": "tokenId",
          "type": "uint256"
        }
      ],
      "name": "transferFrom",
      "outputs": [],
      "stateMutability": "nonpayable",
      "type": "function"
    },
    {
      "inputs": [
        {
          "internalType": "address",
          "name": "newOwner",
          "type": "address"
        }
      ],
      "name": "transferOwnership",
      "outputs": [],
      "stateMutability": "nonpayable",
      "type": "function"
    },
    {
      "inputs": [],
      "name": "uriSuffix",
      "outputs": [
        {
          "internalType": "string",
          "name": "",
          "type": "string"
        }
      ],
      "stateMutability": "view",
      "type": "function"
    },
    {
      "inputs": [
        {
          "internalType": "address",
          "name": "_owner",
          "type": "address"
        }
      ],
      "name": "walletOfOwner",
      "outputs": [
        {
          "internalType": "uint256[]",
          "name": "",
          "type": "uint256[]"
        }
      ],
      "stateMutability": "view",
      "type": "function"
    },
    {
      "inputs": [],
      "name": "withdraw",
      "outputs": [],
      "stateMutability": "nonpayable",
      "type": "function"
    },
    {
      "inputs": [],
      "name": "withdrawWallet",
      "outputs": [
        {
          "internalType": "address payable",
          "name": "",
          "type": "address"
        }
      ],
      "stateMutability": "view",
      "type": "function"
    }
  ],
  "bytecode": "0x6080604052600180556000600560006101000a81548160ff02191690831515021790555060405180602001604052806000815250600e90805190602001906200004a929190620003ca565b506040518060400160405280600581526020017f2e6a736f6e000000000000000000000000000000000000000000000000000000815250600f908051906020019062000098929190620003ca565b50600060115560056012556005601355662386f26fc100006014556001601660146101000a81548160ff0219169083151502179055506001601660156101000a81548160ff02191690831515021790555060006016806101000a81548160ff0219169083151502179055503480156200011057600080fd5b506040518060400160405280600e81526020017f46656c696e65536f756c6d6174650000000000000000000000000000000000008152506040518060400160405280600281526020017f465300000000000000000000000000000000000000000000000000000000000081525060006200018f620002ee60201b60201c565b9050806000806101000a81548173ffffffffffffffffffffffffffffffffffffffff021916908373ffffffffffffffffffffffffffffffffffffffff1602179055508073ffffffffffffffffffffffffffffffffffffffff16600073ffffffffffffffffffffffffffffffffffffffff167f8be0079c531659141344cd1fd0a4f28419497f9722a3daafe3b4186f6b6457e060405160405180910390a350816003908051906020019062000245929190620003ca565b5080600490805190602001906200025e929190620003ca565b50505033601660006101000a81548173ffffffffffffffffffffffffffffffffffffffff021916908373ffffffffffffffffffffffffffffffffffffffff160217905550620002e86040518060400160405280601a81526020017f697066733a2f2f5f5f4349445f5f2f68696464656e2e6a736f6e000000000000815250620002f660201b60201c565b62000562565b600033905090565b62000306620002ee60201b60201c565b73ffffffffffffffffffffffffffffffffffffffff166200032c620003a160201b60201c565b73ffffffffffffffffffffffffffffffffffffffff161462000385576040517f08c379a00000000000000000000000000000000000000000000000000000000081526004016200037c90620004a1565b60405180910390fd5b80601090805190602001906200039d929190620003ca565b5050565b60008060009054906101000a900473ffffffffffffffffffffffffffffffffffffffff16905090565b828054620003d890620004d4565b90600052602060002090601f016020900481019282620003fc576000855562000448565b82601f106200041757805160ff191683800117855562000448565b8280016001018555821562000448579182015b82811115620004475782518255916020019190600101906200042a565b5b5090506200045791906200045b565b5090565b5b80821115620004765760008160009055506001016200045c565b5090565b600062000489602083620004c3565b9150620004968262000539565b602082019050919050565b60006020820190508181036000830152620004bc816200047a565b9050919050565b600082825260208201905092915050565b60006002820490506001821680620004ed57607f821691505b602082108114156200050457620005036200050a565b5b50919050565b7f4e487b7100000000000000000000000000000000000000000000000000000000600052602260045260246000fd5b7f4f776e61626c653a2063616c6c6572206973206e6f7420746865206f776e6572600082015250565b6158c980620005726000396000f3fe6080604052600436106102e45760003560e01c8063616cdb1e11610190578063a22cb465116100dc578063c87b56dd11610095578063e80d1a1c1161006f578063e80d1a1c14610b18578063e985e9c514610b43578063f002858514610b80578063f2fde38b14610ba9576102e4565b8063c87b56dd14610a85578063d5abeb0114610ac2578063de7fcb1d14610aed576102e4565b8063a22cb46514610979578063a2b40d19146109a2578063afdf6134146109cb578063b228d925146109f4578063b88d4fde14610a1f578063c080519714610a48576102e4565b806385d178f41161014957806395d89b411161012357806395d89b41146108dc5780639e8b30eb14610907578063a035b1fe14610932578063a0712d681461095d576102e4565b806385d178f41461085d5780638da5cb5b146108885780639373f432146108b3576102e4565b8063616cdb1e146107635780636352211e1461078c57806370a08231146107c9578063715018a6146108065780637ec4a6591461081d578063801fe59b14610846576102e4565b806328818b961161024f5780634aaf78f11161020857806354214f69116101e257806354214f69146106bb5780635503a0e8146106e6578063559e75b31461071157806355a554651461073a576102e4565b80634aaf78f11461062a5780634f6ccce7146106555780634fdd43cb14610692576102e4565b806328818b961461052b5780632f745c59146105475780633ccfd60b1461058457806342842e0e1461059b578063438b6300146105c457806349a5980a14610601576102e4565b806316ba10e0116102a157806316ba10e01461040b57806318160ddd1461043457806318cae2691461045f5780631d7781651461049c5780632373ac22146104d957806323b872dd14610502576102e4565b80630116bc2d146102e957806301ffc9a71461031457806306fdde0314610351578063081812fc1461037c578063095ea7b3146103b95780631465f531146103e2575b600080fd5b3480156102f557600080fd5b506102fe610bd2565b60405161030b9190614d8a565b60405180910390f35b34801561032057600080fd5b5061033b60048036038101906103369190614802565b610be3565b6040516103489190614d8a565b60405180910390f35b34801561035d57600080fd5b50610366610d2d565b6040516103739190614dc0565b60405180910390f35b34801561038857600080fd5b506103a3600480360381019061039e919061486c565b610dbf565b6040516103b09190614d32565b60405180910390f35b3480156103c557600080fd5b506103e060048036038101906103db91906146db565b610e3b565b005b3480156103ee57600080fd5b50610409600480360381019061040491906147d9565b610ff6565b005b34801561041757600080fd5b50610432600480360381019061042d919061482b565b61107c565b005b34801561044057600080fd5b50610449611112565b6040516104569190614fc2565b60405180910390f35b34801561046b57600080fd5b5061048660048036038101906104819190614570565b61111c565b6040516104939190614fc2565b60405180910390f35b3480156104a857600080fd5b506104c360048036038101906104be9190614570565b611134565b6040516104d09190614d8a565b60405180910390f35b3480156104e557600080fd5b5061050060048036038101906104fb91906147b0565b611154565b005b34801561050e57600080fd5b50610529600480360381019061052491906145d5565b6111ec565b005b61054560048036038101906105409190614758565b6111fc565b005b34801561055357600080fd5b5061056e600480360381019061056991906146db565b61170a565b60405161057b9190614fc2565b60405180910390f35b34801561059057600080fd5b506105996118e4565b005b3480156105a757600080fd5b506105c260048036038101906105bd91906145d5565b611a0f565b005b3480156105d057600080fd5b506105eb60048036038101906105e69190614570565b611a2f565b6040516105f89190614d68565b60405180910390f35b34801561060d57600080fd5b50610628600480360381019061062391906147b0565b611b86565b005b34801561063657600080fd5b5061063f611c1f565b60405161064c9190614d8a565b60405180910390f35b34801561066157600080fd5b5061067c6004803603810190610677919061486c565b611c32565b6040516106899190614fc2565b60405180910390f35b34801561069e57600080fd5b506106b960048036038101906106b4919061482b565b611d77565b005b3480156106c757600080fd5b506106d0611e0d565b6040516106dd9190614d8a565b60405180910390f35b3480156106f257600080fd5b506106fb611e20565b6040516107089190614dc0565b60405180910390f35b34801561071d57600080fd5b50610738600480360381019061073391906147b0565b611eae565b005b34801561074657600080fd5b50610761600480360381019061075c9190614895565b611f47565b005b34801561076f57600080fd5b5061078a6004803603810190610785919061486c565b611ff2565b005b34801561079857600080fd5b506107b360048036038101906107ae919061486c565b612078565b6040516107c09190614d32565b60405180910390f35b3480156107d557600080fd5b506107f060048036038101906107eb9190614570565b61208e565b6040516107fd9190614fc2565b60405180910390f35b34801561081257600080fd5b5061081b61215e565b005b34801561082957600080fd5b50610844600480360381019061083f919061482b565b612298565b005b34801561085257600080fd5b5061085b61232e565b005b34801561086957600080fd5b506108726123d6565b60405161087f9190614d4d565b60405180910390f35b34801561089457600080fd5b5061089d6123fc565b6040516108aa9190614d32565b60405180910390f35b3480156108bf57600080fd5b506108da60048036038101906108d59190614570565b612425565b005b3480156108e857600080fd5b506108f16124e5565b6040516108fe9190614dc0565b60405180910390f35b34801561091357600080fd5b5061091c612577565b6040516109299190614da5565b60405180910390f35b34801561093e57600080fd5b5061094761257d565b6040516109549190614fc2565b60405180910390f35b6109776004803603810190610972919061486c565b612583565b005b34801561098557600080fd5b506109a0600480360381019061099b919061469f565b6128f1565b005b3480156109ae57600080fd5b506109c960048036038101906109c4919061486c565b612be9565b005b3480156109d757600080fd5b506109f260048036038101906109ed919061486c565b612c6f565b005b348015610a0057600080fd5b50610a09612cf5565b604051610a169190614fc2565b60405180910390f35b348015610a2b57600080fd5b50610a466004803603810190610a419190614624565b612cfb565b005b348015610a5457600080fd5b50610a6f6004803603810190610a6a919061486c565b612d4e565b604051610a7c9190614d8a565b60405180910390f35b348015610a9157600080fd5b50610aac6004803603810190610aa7919061486c565b612d6e565b604051610ab99190614dc0565b60405180910390f35b348015610ace57600080fd5b50610ad7612ec7565b604051610ae49190614fc2565b60405180910390f35b348015610af957600080fd5b50610b02612ecd565b604051610b0f9190614fc2565b60405180910390f35b348015610b2457600080fd5b50610b2d612ed3565b604051610b3a9190614d8a565b60405180910390f35b348015610b4f57600080fd5b50610b6a6004803603810190610b659190614599565b612ee6565b604051610b779190614d8a565b60405180910390f35b348015610b8c57600080fd5b50610ba76004803603810190610ba29190614717565b612f7a565b005b348015610bb557600080fd5b50610bd06004803603810190610bcb9190614570565b613064565b005b60168054906101000a900460ff1681565b60007f80ac58cd000000000000000000000000000000000000000000000000000000007bffffffffffffffffffffffffffffffffffffffffffffffffffffffff1916827bffffffffffffffffffffffffffffffffffffffffffffffffffffffff19161480610cae57507f5b5e139f000000000000000000000000000000000000000000000000000000007bffffffffffffffffffffffffffffffffffffffffffffffffffffffff1916827bffffffffffffffffffffffffffffffffffffffffffffffffffffffff1916145b80610d1657507f780e9d63000000000000000000000000000000000000000000000000000000007bffffffffffffffffffffffffffffffffffffffffffffffffffffffff1916827bffffffffffffffffffffffffffffffffffffffffffffffffffffffff1916145b80610d265750610d258261320d565b5b9050919050565b606060038054610d3c906152f7565b80601f0160208091040260200160405190810160405280929190818152602001828054610d68906152f7565b8015610db55780601f10610d8a57610100808354040283529160200191610db5565b820191906000526020600020905b815481529060010190602001808311610d9857829003601f168201915b5050505050905090565b6000610dca82613277565b610e00576040517fcf4700e400000000000000000000000000000000000000000000000000000000815260040160405180910390fd5b6008600083815260200190815260200160002060009054906101000a900473ffffffffffffffffffffffffffffffffffffffff169050919050565b6000610e4682612078565b90508073ffffffffffffffffffffffffffffffffffffffff168373ffffffffffffffffffffffffffffffffffffffff161415610eae576040517f943f7b8c00000000000000000000000000000000000000000000000000000000815260040160405180910390fd5b8073ffffffffffffffffffffffffffffffffffffffff16610ecd6132f4565b73ffffffffffffffffffffffffffffffffffffffff1614158015610eff5750610efd81610ef86132f4565b612ee6565b155b15610f36576040517fcfb3b94200000000000000000000000000000000000000000000000000000000815260040160405180910390fd5b600560009054906101000a900460ff16158015610f715750600a600083815260200190815260200160002060009054906101000a900460ff16155b15610fe557610f958373ffffffffffffffffffffffffffffffffffffffff166132fc565b15610fd5576040517f08c379a0000000000000000000000000000000000000000000000000000000008152600401610fcc90614e62565b60405180910390fd5b610fe083838361331f565b610ff1565b610ff083838361331f565b5b505050565b610ffe6132f4565b73ffffffffffffffffffffffffffffffffffffffff1661101c6123fc565b73ffffffffffffffffffffffffffffffffffffffff1614611072576040517f08c379a000000000000000000000000000000000000000000000000000000000815260040161106990614f22565b60405180910390fd5b8060178190555050565b6110846132f4565b73ffffffffffffffffffffffffffffffffffffffff166110a26123fc565b73ffffffffffffffffffffffffffffffffffffffff16146110f8576040517f08c379a00000000000000000000000000000000000000000000000000000000081526004016110ef90614f22565b60405180910390fd5b80600f908051906020019061110e929190614271565b5050565b6000601154905090565b60156020528060005260406000206000915090505481565b60186020528060005260406000206000915054906101000a900460ff1681565b61115c6132f4565b73ffffffffffffffffffffffffffffffffffffffff1661117a6123fc565b73ffffffffffffffffffffffffffffffffffffffff16146111d0576040517f08c379a00000000000000000000000000000000000000000000000000000000081526004016111c790614f22565b60405180910390fd5b806016806101000a81548160ff02191690831515021790555050565b6111f78383836133d1565b505050565b60168054906101000a900460ff161561124a576040517f08c379a000000000000000000000000000000000000000000000000000000000815260040161124190614e42565b60405180910390fd5b3373ffffffffffffffffffffffffffffffffffffffff163273ffffffffffffffffffffffffffffffffffffffff16146112b8576040517f08c379a00000000000000000000000000000000000000000000000000000000081526004016112af90614e22565b60405180910390fd5b6115b3816112c4611112565b6112ce9190615110565b111561130f576040517f08c379a000000000000000000000000000000000000000000000000000000000815260040161130690614f62565b60405180910390fd5b60008111611352576040517f08c379a000000000000000000000000000000000000000000000000000000000815260040161134990614de2565b60405180910390fd5b601860003373ffffffffffffffffffffffffffffffffffffffff1673ffffffffffffffffffffffffffffffffffffffff16815260200190815260200160002060009054906101000a900460ff16156113df576040517f08c379a00000000000000000000000000000000000000000000000000000000081526004016113d690614ec2565b60405180910390fd5b6113e76123fc565b73ffffffffffffffffffffffffffffffffffffffff163373ffffffffffffffffffffffffffffffffffffffff16146115445760125481111561145e576040517f08c379a000000000000000000000000000000000000000000000000000000000815260040161145590614f82565b60405180910390fd5b8060145461146c9190615197565b3410156114ae576040517f08c379a00000000000000000000000000000000000000000000000000000000081526004016114a590614f02565b60405180910390fd5b6000601560003373ffffffffffffffffffffffffffffffffffffffff1673ffffffffffffffffffffffffffffffffffffffff16815260200190815260200160002054905060135482826115019190615110565b1115611542576040517f08c379a000000000000000000000000000000000000000000000000000000000815260040161153990614ea2565b60405180910390fd5b505b6000336040516020016115579190614cd1565b6040516020818303038152906040528051906020012090506115bd848480806020026020016040519081016040528093929190818152602001838360200280828437600081840152601f19601f82011690508083019250505050505050601754836138c2565b6115fc576040517f08c379a00000000000000000000000000000000000000000000000000000000081526004016115f390614ee2565b60405180910390fd5b816011600082825461160e9190615110565b9250508190555081601560003373ffffffffffffffffffffffffffffffffffffffff1673ffffffffffffffffffffffffffffffffffffffff16815260200190815260200160002060008282546116649190615110565b9250508190555061167533836138d9565b6001601860003373ffffffffffffffffffffffffffffffffffffffff1673ffffffffffffffffffffffffffffffffffffffff16815260200190815260200160002060006101000a81548160ff0219169083151502179055507f176b02bb2d12439ff7a20b59f402cca16c76f50508b13ef3166a600eb719354a826040516116fc9190614fc2565b60405180910390a150505050565b60006117158361208e565b821061174d576040517f0ddac30e00000000000000000000000000000000000000000000000000000000815260040160405180910390fd5b6000600154905060008060005b838110156118d8576000600660008381526020019081526020016000206040518060600160405290816000820160009054906101000a900473ffffffffffffffffffffffffffffffffffffffff1673ffffffffffffffffffffffffffffffffffffffff1673ffffffffffffffffffffffffffffffffffffffff1681526020016000820160149054906101000a900467ffffffffffffffff1667ffffffffffffffff1667ffffffffffffffff16815260200160008201601c9054906101000a900460ff161515151581525050905080604001511561183757506118cb565b600073ffffffffffffffffffffffffffffffffffffffff16816000015173ffffffffffffffffffffffffffffffffffffffff161461187757806000015192505b8773ffffffffffffffffffffffffffffffffffffffff168373ffffffffffffffffffffffffffffffffffffffff1614156118c957868414156118c05781955050505050506118de565b83806001019450505b505b808060010191505061175a565b50600080fd5b92915050565b6118ec6132f4565b73ffffffffffffffffffffffffffffffffffffffff1661190a6123fc565b73ffffffffffffffffffffffffffffffffffffffff1614611960576040517f08c379a000000000000000000000000000000000000000000000000000000000815260040161195790614f22565b60405180910390fd5b60003373ffffffffffffffffffffffffffffffffffffffff164760405161198690614d1d565b60006040518083038185875af1925050503d80600081146119c3576040519150601f19603f3d011682016040523d82523d6000602084013e6119c8565b606091505b5050905080611a0c576040517f08c379a0000000000000000000000000000000000000000000000000000000008152600401611a0390614fa2565b60405180910390fd5b50565b611a2a83838360405180602001604052806000815250612cfb565b505050565b60606000611a3c8361208e565b905060008167ffffffffffffffff811115611a80577f4e487b7100000000000000000000000000000000000000000000000000000000600052604160045260246000fd5b604051908082528060200260200182016040528015611aae5781602001602082028036833780820191505090505b50905060006001905060005b8381108015611acb57506115b38211155b15611b7a576000611adb83612078565b90508673ffffffffffffffffffffffffffffffffffffffff168173ffffffffffffffffffffffffffffffffffffffff161415611b665782848381518110611b4b577f4e487b7100000000000000000000000000000000000000000000000000000000600052603260045260246000fd5b6020026020010181815250508180611b629061535a565b9250505b8280611b719061535a565b93505050611aba565b82945050505050919050565b611b8e6132f4565b73ffffffffffffffffffffffffffffffffffffffff16611bac6123fc565b73ffffffffffffffffffffffffffffffffffffffff1614611c02576040517f08c379a0000000000000000000000000000000000000000000000000000000008152600401611bf990614f22565b60405180910390fd5b80601660146101000a81548160ff02191690831515021790555050565b600560009054906101000a900460ff1681565b60008060015490506000805b82811015611d3f576000600660008381526020019081526020016000206040518060600160405290816000820160009054906101000a900473ffffffffffffffffffffffffffffffffffffffff1673ffffffffffffffffffffffffffffffffffffffff1673ffffffffffffffffffffffffffffffffffffffff1681526020016000820160149054906101000a900467ffffffffffffffff1667ffffffffffffffff1667ffffffffffffffff16815260200160008201601c9054906101000a900460ff16151515158152505090508060400151611d315785831415611d285781945050505050611d72565b82806001019350505b508080600101915050611c3e565b506040517fa723001c00000000000000000000000000000000000000000000000000000000815260040160405180910390fd5b919050565b611d7f6132f4565b73ffffffffffffffffffffffffffffffffffffffff16611d9d6123fc565b73ffffffffffffffffffffffffffffffffffffffff1614611df3576040517f08c379a0000000000000000000000000000000000000000000000000000000008152600401611dea90614f22565b60405180910390fd5b8060109080519060200190611e09929190614271565b5050565b601660149054906101000a900460ff1681565b600f8054611e2d906152f7565b80601f0160208091040260200160405190810160405280929190818152602001828054611e59906152f7565b8015611ea65780601f10611e7b57610100808354040283529160200191611ea6565b820191906000526020600020905b815481529060010190602001808311611e8957829003601f168201915b505050505081565b611eb66132f4565b73ffffffffffffffffffffffffffffffffffffffff16611ed46123fc565b73ffffffffffffffffffffffffffffffffffffffff1614611f2a576040517f08c379a0000000000000000000000000000000000000000000000000000000008152600401611f2190614f22565b60405180910390fd5b80601660156101000a81548160ff02191690831515021790555050565b611f4f6132f4565b73ffffffffffffffffffffffffffffffffffffffff16611f6d6123fc565b73ffffffffffffffffffffffffffffffffffffffff1614611fc3576040517f08c379a0000000000000000000000000000000000000000000000000000000008152600401611fba90614f22565b60405180910390fd5b80600a600084815260200190815260200160002060006101000a81548160ff0219169083151502179055505050565b611ffa6132f4565b73ffffffffffffffffffffffffffffffffffffffff166120186123fc565b73ffffffffffffffffffffffffffffffffffffffff161461206e576040517f08c379a000000000000000000000000000000000000000000000000000000000815260040161206590614f22565b60405180910390fd5b8060128190555050565b6000612083826138f7565b600001519050919050565b60008073ffffffffffffffffffffffffffffffffffffffff168273ffffffffffffffffffffffffffffffffffffffff1614156120f6576040517f8f4eb60400000000000000000000000000000000000000000000000000000000815260040160405180910390fd5b600760008373ffffffffffffffffffffffffffffffffffffffff1673ffffffffffffffffffffffffffffffffffffffff16815260200190815260200160002060000160009054906101000a900467ffffffffffffffff1667ffffffffffffffff169050919050565b6121666132f4565b73ffffffffffffffffffffffffffffffffffffffff166121846123fc565b73ffffffffffffffffffffffffffffffffffffffff16146121da576040517f08c379a00000000000000000000000000000000000000000000000000000000081526004016121d190614f22565b60405180910390fd5b600073ffffffffffffffffffffffffffffffffffffffff1660008054906101000a900473ffffffffffffffffffffffffffffffffffffffff1673ffffffffffffffffffffffffffffffffffffffff167f8be0079c531659141344cd1fd0a4f28419497f9722a3daafe3b4186f6b6457e060405160405180910390a360008060006101000a81548173ffffffffffffffffffffffffffffffffffffffff021916908373ffffffffffffffffffffffffffffffffffffffff160217905550565b6122a06132f4565b73ffffffffffffffffffffffffffffffffffffffff166122be6123fc565b73ffffffffffffffffffffffffffffffffffffffff1614612314576040517f08c379a000000000000000000000000000000000000000000000000000000000815260040161230b90614f22565b60405180910390fd5b80600e908051906020019061232a929190614271565b5050565b6123366132f4565b73ffffffffffffffffffffffffffffffffffffffff166123546123fc565b73ffffffffffffffffffffffffffffffffffffffff16146123aa576040517f08c379a00000000000000000000000000000000000000000000000000000000081526004016123a190614f22565b60405180910390fd5b600560009054906101000a900460ff1615600560006101000a81548160ff021916908315150217905550565b601660009054906101000a900473ffffffffffffffffffffffffffffffffffffffff1681565b60008060009054906101000a900473ffffffffffffffffffffffffffffffffffffffff16905090565b61242d6132f4565b73ffffffffffffffffffffffffffffffffffffffff1661244b6123fc565b73ffffffffffffffffffffffffffffffffffffffff16146124a1576040517f08c379a000000000000000000000000000000000000000000000000000000000815260040161249890614f22565b60405180910390fd5b80601660006101000a81548173ffffffffffffffffffffffffffffffffffffffff021916908373ffffffffffffffffffffffffffffffffffffffff16021790555050565b6060600480546124f4906152f7565b80601f0160208091040260200160405190810160405280929190818152602001828054612520906152f7565b801561256d5780601f106125425761010080835404028352916020019161256d565b820191906000526020600020905b81548152906001019060200180831161255057829003601f168201915b5050505050905090565b60175481565b60145481565b60168054906101000a900460ff16156125d1576040517f08c379a00000000000000000000000000000000000000000000000000000000081526004016125c890614e42565b60405180910390fd5b3373ffffffffffffffffffffffffffffffffffffffff163273ffffffffffffffffffffffffffffffffffffffff161461263f576040517f08c379a000000000000000000000000000000000000000000000000000000000815260040161263690614e22565b60405180910390fd5b6115b38161264b611112565b6126559190615110565b1115612696576040517f08c379a000000000000000000000000000000000000000000000000000000000815260040161268d90614f62565b60405180910390fd5b600081116126d9576040517f08c379a00000000000000000000000000000000000000000000000000000000081526004016126d090614de2565b60405180910390fd5b6126e16123fc565b73ffffffffffffffffffffffffffffffffffffffff163373ffffffffffffffffffffffffffffffffffffffff161461283e57601254811115612758576040517f08c379a000000000000000000000000000000000000000000000000000000000815260040161274f90614f82565b60405180910390fd5b806014546127669190615197565b3410156127a8576040517f08c379a000000000000000000000000000000000000000000000000000000000815260040161279f90614f02565b60405180910390fd5b6000601560003373ffffffffffffffffffffffffffffffffffffffff1673ffffffffffffffffffffffffffffffffffffffff16815260200190815260200160002054905060135482826127fb9190615110565b111561283c576040517f08c379a000000000000000000000000000000000000000000000000000000000815260040161283390614ea2565b60405180910390fd5b505b80601160008282546128509190615110565b9250508190555080601560003373ffffffffffffffffffffffffffffffffffffffff1673ffffffffffffffffffffffffffffffffffffffff16815260200190815260200160002060008282546128a69190615110565b925050819055506128b733826138d9565b7f176b02bb2d12439ff7a20b59f402cca16c76f50508b13ef3166a600eb719354a816040516128e69190614fc2565b60405180910390a150565b6128f96132f4565b73ffffffffffffffffffffffffffffffffffffffff168273ffffffffffffffffffffffffffffffffffffffff16141561295e576040517fb06307db00000000000000000000000000000000000000000000000000000000815260040160405180910390fd5b600560009054906101000a900460ff16612add576129918273ffffffffffffffffffffffffffffffffffffffff166132fc565b156129d1576040517f08c379a00000000000000000000000000000000000000000000000000000000081526004016129c890614e62565b60405180910390fd5b80600960006129de6132f4565b73ffffffffffffffffffffffffffffffffffffffff1673ffffffffffffffffffffffffffffffffffffffff16815260200190815260200160002060008473ffffffffffffffffffffffffffffffffffffffff1673ffffffffffffffffffffffffffffffffffffffff16815260200190815260200160002060006101000a81548160ff0219169083151502179055508173ffffffffffffffffffffffffffffffffffffffff16612a8b6132f4565b73ffffffffffffffffffffffffffffffffffffffff167f17307eab39ab6107e8899845ad3d59bd9653f200f220920489ca2b5937696c3183604051612ad09190614d8a565b60405180910390a3612be5565b8060096000612aea6132f4565b73ffffffffffffffffffffffffffffffffffffffff1673ffffffffffffffffffffffffffffffffffffffff16815260200190815260200160002060008473ffffffffffffffffffffffffffffffffffffffff1673ffffffffffffffffffffffffffffffffffffffff16815260200190815260200160002060006101000a81548160ff0219169083151502179055508173ffffffffffffffffffffffffffffffffffffffff16612b976132f4565b73ffffffffffffffffffffffffffffffffffffffff167f17307eab39ab6107e8899845ad3d59bd9653f200f220920489ca2b5937696c3183604051612bdc9190614d8a565b60405180910390a35b5050565b612bf16132f4565b73ffffffffffffffffffffffffffffffffffffffff16612c0f6123fc565b73ffffffffffffffffffffffffffffffffffffffff1614612c65576040517f08c379a0000000000000000000000000000000000000000000000000000000008152600401612c5c90614f22565b60405180910390fd5b8060148190555050565b612c776132f4565b73ffffffffffffffffffffffffffffffffffffffff16612c956123fc565b73ffffffffffffffffffffffffffffffffffffffff1614612ceb576040517f08c379a0000000000000000000000000000000000000000000000000000000008152600401612ce290614f22565b60405180910390fd5b8060138190555050565b60135481565b612d068484846133d1565b612d1284848484613b73565b612d48576040517fd1a57ed600000000000000000000000000000000000000000000000000000000815260040160405180910390fd5b50505050565b600a6020528060005260406000206000915054906101000a900460ff1681565b6060612d7982613277565b612db8576040517f08c379a0000000000000000000000000000000000000000000000000000000008152600401612daf90614f42565b60405180910390fd5b60001515601660149054906101000a900460ff1615151415612e665760108054612de1906152f7565b80601f0160208091040260200160405190810160405280929190818152602001828054612e0d906152f7565b8015612e5a5780601f10612e2f57610100808354040283529160200191612e5a565b820191906000526020600020905b815481529060010190602001808311612e3d57829003601f168201915b50505050509050612ec2565b6000612e70613c2a565b90506000815111612e905760405180602001604052806000815250612ebe565b80612e9a84613cbc565b600f604051602001612eae93929190614cec565b6040516020818303038152906040525b9150505b919050565b6115b381565b60125481565b601660159054906101000a900460ff1681565b6000600960008473ffffffffffffffffffffffffffffffffffffffff1673ffffffffffffffffffffffffffffffffffffffff16815260200190815260200160002060008373ffffffffffffffffffffffffffffffffffffffff1673ffffffffffffffffffffffffffffffffffffffff16815260200190815260200160002060009054906101000a900460ff16905092915050565b612f826132f4565b73ffffffffffffffffffffffffffffffffffffffff16612fa06123fc565b73ffffffffffffffffffffffffffffffffffffffff1614612ff6576040517f08c379a0000000000000000000000000000000000000000000000000000000008152600401612fed90614f22565b60405180910390fd5b60005b81518110156130605761304d82828151811061303e577f4e487b7100000000000000000000000000000000000000000000000000000000600052603260045260246000fd5b602002602001015160016138d9565b80806130589061535a565b915050612ff9565b5050565b61306c6132f4565b73ffffffffffffffffffffffffffffffffffffffff1661308a6123fc565b73ffffffffffffffffffffffffffffffffffffffff16146130e0576040517f08c379a00000000000000000000000000000000000000000000000000000000081526004016130d790614f22565b60405180910390fd5b600073ffffffffffffffffffffffffffffffffffffffff168173ffffffffffffffffffffffffffffffffffffffff161415613150576040517f08c379a000000000000000000000000000000000000000000000000000000000815260040161314790614e02565b60405180910390fd5b8073ffffffffffffffffffffffffffffffffffffffff1660008054906101000a900473ffffffffffffffffffffffffffffffffffffffff1673ffffffffffffffffffffffffffffffffffffffff167f8be0079c531659141344cd1fd0a4f28419497f9722a3daafe3b4186f6b6457e060405160405180910390a3806000806101000a81548173ffffffffffffffffffffffffffffffffffffffff021916908373ffffffffffffffffffffffffffffffffffffffff16021790555050565b60007f01ffc9a7000000000000000000000000000000000000000000000000000000007bffffffffffffffffffffffffffffffffffffffffffffffffffffffff1916827bffffffffffffffffffffffffffffffffffffffffffffffffffffffff1916149050919050565b60008082116132bb576040517f08c379a00000000000000000000000000000000000000000000000000000000081526004016132b290614e82565b60405180910390fd5b600154821080156132ed575060066000838152602001908152602001600020600001601c9054906101000a900460ff16155b9050919050565b600033905090565b6000808273ffffffffffffffffffffffffffffffffffffffff163b119050919050565b826008600084815260200190815260200160002060006101000a81548173ffffffffffffffffffffffffffffffffffffffff021916908373ffffffffffffffffffffffffffffffffffffffff160217905550818373ffffffffffffffffffffffffffffffffffffffff168273ffffffffffffffffffffffffffffffffffffffff167f8c5be1e5ebec7d5bd14f71427d1e84f3dd0314c0f7b2291e5b200ac8c7c3b92560405160405180910390a4505050565b60006133dc826138f7565b90506000816000015173ffffffffffffffffffffffffffffffffffffffff166134036132f4565b73ffffffffffffffffffffffffffffffffffffffff161480613436575061343582600001516134306132f4565b612ee6565b5b8061347b57506134446132f4565b73ffffffffffffffffffffffffffffffffffffffff1661346384610dbf565b73ffffffffffffffffffffffffffffffffffffffff16145b9050806134b4576040517f59c896be00000000000000000000000000000000000000000000000000000000815260040160405180910390fd5b8473ffffffffffffffffffffffffffffffffffffffff16826000015173ffffffffffffffffffffffffffffffffffffffff161461351d576040517fa114810000000000000000000000000000000000000000000000000000000000815260040160405180910390fd5b600073ffffffffffffffffffffffffffffffffffffffff168473ffffffffffffffffffffffffffffffffffffffff161415613584576040517fea553b3400000000000000000000000000000000000000000000000000000000815260040160405180910390fd5b6135918585856001613e69565b6135a1600084846000015161331f565b6001600760008773ffffffffffffffffffffffffffffffffffffffff1673ffffffffffffffffffffffffffffffffffffffff16815260200190815260200160002060000160008282829054906101000a900467ffffffffffffffff160392506101000a81548167ffffffffffffffff021916908367ffffffffffffffff1602179055506001600760008673ffffffffffffffffffffffffffffffffffffffff1673ffffffffffffffffffffffffffffffffffffffff16815260200190815260200160002060000160008282829054906101000a900467ffffffffffffffff160192506101000a81548167ffffffffffffffff021916908367ffffffffffffffff160217905550836006600085815260200190815260200160002060000160006101000a81548173ffffffffffffffffffffffffffffffffffffffff021916908373ffffffffffffffffffffffffffffffffffffffff160217905550426006600085815260200190815260200160002060000160146101000a81548167ffffffffffffffff021916908367ffffffffffffffff1602179055506000600184019050600073ffffffffffffffffffffffffffffffffffffffff166006600083815260200190815260200160002060000160009054906101000a900473ffffffffffffffffffffffffffffffffffffffff1673ffffffffffffffffffffffffffffffffffffffff161415613852576001548110156138515782600001516006600083815260200190815260200160002060000160006101000a81548173ffffffffffffffffffffffffffffffffffffffff021916908373ffffffffffffffffffffffffffffffffffffffff16021790555082602001516006600083815260200190815260200160002060000160146101000a81548167ffffffffffffffff021916908367ffffffffffffffff1602179055505b5b50828473ffffffffffffffffffffffffffffffffffffffff168673ffffffffffffffffffffffffffffffffffffffff167fddf252ad1be2c89b69c2b068fc378daa952ba7f163c4a11628f55a4df523b3ef60405160405180910390a46138bb8585856001613e6f565b5050505050565b6000826138cf8584613e75565b1490509392505050565b6138f3828260405180602001604052806000815250613f10565b5050565b6138ff6142f7565b6000829050600154811015613b3c576000600660008381526020019081526020016000206040518060600160405290816000820160009054906101000a900473ffffffffffffffffffffffffffffffffffffffff1673ffffffffffffffffffffffffffffffffffffffff1673ffffffffffffffffffffffffffffffffffffffff1681526020016000820160149054906101000a900467ffffffffffffffff1667ffffffffffffffff1667ffffffffffffffff16815260200160008201601c9054906101000a900460ff16151515158152505090508060400151613b3a57600073ffffffffffffffffffffffffffffffffffffffff16816000015173ffffffffffffffffffffffffffffffffffffffff1614613a1e578092505050613b6e565b5b600115613b3957818060019003925050600660008381526020019081526020016000206040518060600160405290816000820160009054906101000a900473ffffffffffffffffffffffffffffffffffffffff1673ffffffffffffffffffffffffffffffffffffffff1673ffffffffffffffffffffffffffffffffffffffff1681526020016000820160149054906101000a900467ffffffffffffffff1667ffffffffffffffff1667ffffffffffffffff16815260200160008201601c9054906101000a900460ff1615151515815250509050600073ffffffffffffffffffffffffffffffffffffffff16816000015173ffffffffffffffffffffffffffffffffffffffff1614613b34578092505050613b6e565b613a1f565b5b505b6040517fdf2d9b4200000000000000000000000000000000000000000000000000000000815260040160405180910390fd5b919050565b6000600560009054906101000a900460ff16158015613bb05750600a600084815260200190815260200160002060009054906101000a900460ff16155b15613c1d57613bd48473ffffffffffffffffffffffffffffffffffffffff166132fc565b15613c14576040517f08c379a0000000000000000000000000000000000000000000000000000000008152600401613c0b90614e62565b60405180910390fd5b60019050613c22565b600190505b949350505050565b6060600e8054613c39906152f7565b80601f0160208091040260200160405190810160405280929190818152602001828054613c65906152f7565b8015613cb25780601f10613c8757610100808354040283529160200191613cb2565b820191906000526020600020905b815481529060010190602001808311613c9557829003601f168201915b5050505050905090565b60606000821415613d04576040518060400160405280600181526020017f30000000000000000000000000000000000000000000000000000000000000008152509050613e64565b600082905060005b60008214613d36578080613d1f9061535a565b915050600a82613d2f9190615166565b9150613d0c565b60008167ffffffffffffffff811115613d78577f4e487b7100000000000000000000000000000000000000000000000000000000600052604160045260246000fd5b6040519080825280601f01601f191660200182016040528015613daa5781602001600182028036833780820191505090505b5090505b60008514613e5d57600182613dc391906151f1565b9150600a85613dd291906153c7565b6030613dde9190615110565b60f81b818381518110613e1a577f4e487b7100000000000000000000000000000000000000000000000000000000600052603260045260246000fd5b60200101907effffffffffffffffffffffffffffffffffffffffffffffffffffffffffffff1916908160001a905350600a85613e569190615166565b9450613dae565b8093505050505b919050565b50505050565b50505050565b60008082905060005b8451811015613f05576000858281518110613ec2577f4e487b7100000000000000000000000000000000000000000000000000000000600052603260045260246000fd5b60200260200101519050808311613ee457613edd8382613f22565b9250613ef1565b613eee8184613f22565b92505b508080613efd9061535a565b915050613e7e565b508091505092915050565b613f1d8383836001613f39565b505050565b600082600052816020526040600020905092915050565b60006001549050600073ffffffffffffffffffffffffffffffffffffffff168573ffffffffffffffffffffffffffffffffffffffff161415613fa7576040517f2e07630000000000000000000000000000000000000000000000000000000000815260040160405180910390fd5b6000841415613fe2576040517fb562e8dd00000000000000000000000000000000000000000000000000000000815260040160405180910390fd5b613fef6000868387613e69565b83600760008773ffffffffffffffffffffffffffffffffffffffff1673ffffffffffffffffffffffffffffffffffffffff16815260200190815260200160002060000160008282829054906101000a900467ffffffffffffffff160192506101000a81548167ffffffffffffffff021916908367ffffffffffffffff16021790555083600760008773ffffffffffffffffffffffffffffffffffffffff1673ffffffffffffffffffffffffffffffffffffffff16815260200190815260200160002060000160088282829054906101000a900467ffffffffffffffff160192506101000a81548167ffffffffffffffff021916908367ffffffffffffffff160217905550846006600083815260200190815260200160002060000160006101000a81548173ffffffffffffffffffffffffffffffffffffffff021916908373ffffffffffffffffffffffffffffffffffffffff160217905550426006600083815260200190815260200160002060000160146101000a81548167ffffffffffffffff021916908367ffffffffffffffff160217905550600081905060005b8581101561425457818773ffffffffffffffffffffffffffffffffffffffff16600073ffffffffffffffffffffffffffffffffffffffff167fddf252ad1be2c89b69c2b068fc378daa952ba7f163c4a11628f55a4df523b3ef60405160405180910390a483801561420857506142066000888488613b73565b155b1561423f576040517fd1a57ed600000000000000000000000000000000000000000000000000000000815260040160405180910390fd5b8180600101925050808060010191505061418d565b50806001819055505061426a6000868387613e6f565b5050505050565b82805461427d906152f7565b90600052602060002090601f01602090048101928261429f57600085556142e6565b82601f106142b857805160ff19168380011785556142e6565b828001600101855582156142e6579182015b828111156142e55782518255916020019190600101906142ca565b5b5090506142f3919061433a565b5090565b6040518060600160405280600073ffffffffffffffffffffffffffffffffffffffff168152602001600067ffffffffffffffff1681526020016000151581525090565b5b8082111561435357600081600090555060010161433b565b5090565b600061436a61436584615002565b614fdd565b9050808382526020820190508285602086028201111561438957600080fd5b60005b858110156143b9578161439f888261443f565b84526020840193506020830192505060018101905061438c565b5050509392505050565b60006143d66143d18461502e565b614fdd565b9050828152602081018484840111156143ee57600080fd5b6143f98482856152b5565b509392505050565b600061441461440f8461505f565b614fdd565b90508281526020810184848401111561442c57600080fd5b6144378482856152b5565b509392505050565b60008135905061444e81615820565b92915050565b600082601f83011261446557600080fd5b8135614475848260208601614357565b91505092915050565b60008083601f84011261449057600080fd5b8235905067ffffffffffffffff8111156144a957600080fd5b6020830191508360208202830111156144c157600080fd5b9250929050565b6000813590506144d781615837565b92915050565b6000813590506144ec8161584e565b92915050565b60008135905061450181615865565b92915050565b600082601f83011261451857600080fd5b81356145288482602086016143c3565b91505092915050565b600082601f83011261454257600080fd5b8135614552848260208601614401565b91505092915050565b60008135905061456a8161587c565b92915050565b60006020828403121561458257600080fd5b60006145908482850161443f565b91505092915050565b600080604083850312156145ac57600080fd5b60006145ba8582860161443f565b92505060206145cb8582860161443f565b9150509250929050565b6000806000606084860312156145ea57600080fd5b60006145f88682870161443f565b93505060206146098682870161443f565b925050604061461a8682870161455b565b9150509250925092565b6000806000806080858703121561463a57600080fd5b60006146488782880161443f565b94505060206146598782880161443f565b935050604061466a8782880161455b565b925050606085013567ffffffffffffffff81111561468757600080fd5b61469387828801614507565b91505092959194509250565b600080604083850312156146b257600080fd5b60006146c08582860161443f565b92505060206146d1858286016144c8565b9150509250929050565b600080604083850312156146ee57600080fd5b60006146fc8582860161443f565b925050602061470d8582860161455b565b9150509250929050565b60006020828403121561472957600080fd5b600082013567ffffffffffffffff81111561474357600080fd5b61474f84828501614454565b91505092915050565b60008060006040848603121561476d57600080fd5b600084013567ffffffffffffffff81111561478757600080fd5b6147938682870161447e565b935093505060206147a68682870161455b565b9150509250925092565b6000602082840312156147c257600080fd5b60006147d0848285016144c8565b91505092915050565b6000602082840312156147eb57600080fd5b60006147f9848285016144dd565b91505092915050565b60006020828403121561481457600080fd5b6000614822848285016144f2565b91505092915050565b60006020828403121561483d57600080fd5b600082013567ffffffffffffffff81111561485757600080fd5b61486384828501614531565b91505092915050565b60006020828403121561487e57600080fd5b600061488c8482850161455b565b91505092915050565b600080604083850312156148a857600080fd5b60006148b68582860161455b565b92505060206148c7858286016144c8565b9150509250929050565b60006148dd8383614cb3565b60208301905092915050565b6148f281615237565b82525050565b61490181615225565b82525050565b61491861491382615225565b6153a3565b82525050565b6000614929826150b5565b61493381856150d8565b935061493e83615090565b8060005b8381101561496f57815161495688826148d1565b9750614961836150cb565b925050600181019050614942565b5085935050505092915050565b61498581615249565b82525050565b61499481615255565b82525050565b60006149a5826150c0565b6149af81856150f4565b93506149bf8185602086016152c4565b6149c8816154b4565b840191505092915050565b60006149de826150c0565b6149e88185615105565b93506149f88185602086016152c4565b80840191505092915050565b60008154614a11816152f7565b614a1b8186615105565b94506001821660008114614a365760018114614a4757614a7a565b60ff19831686528186019350614a7a565b614a50856150a0565b60005b83811015614a7257815481890152600182019150602081019050614a53565b838801955050505b50505092915050565b6000614a90602e836150f4565b9150614a9b826154d2565b604082019050919050565b6000614ab36026836150f4565b9150614abe82615521565b604082019050919050565b6000614ad66010836150f4565b9150614ae182615570565b602082019050919050565b6000614af96018836150f4565b9150614b0482615599565b602082019050919050565b6000614b1c6032836150f4565b9150614b27826155c2565b604082019050919050565b6000614b3f600f836150f4565b9150614b4a82615611565b602082019050919050565b6000614b626019836150f4565b9150614b6d8261563a565b602082019050919050565b6000614b856015836150f4565b9150614b9082615663565b602082019050919050565b6000614ba8600d836150f4565b9150614bb38261568c565b602082019050919050565b6000614bcb602f836150f4565b9150614bd6826156b5565b604082019050919050565b6000614bee6020836150f4565b9150614bf982615704565b602082019050919050565b6000614c11602f836150f4565b9150614c1c8261572d565b604082019050919050565b6000614c346016836150f4565b9150614c3f8261577c565b602082019050919050565b6000614c57602a836150f4565b9150614c62826157a5565b604082019050919050565b6000614c7a6000836150e9565b9150614c85826157f4565b600082019050919050565b6000614c9d6010836150f4565b9150614ca8826157f7565b602082019050919050565b614cbc816152ab565b82525050565b614ccb816152ab565b82525050565b6000614cdd8284614907565b60148201915081905092915050565b6000614cf882866149d3565b9150614d0482856149d3565b9150614d108284614a04565b9150819050949350505050565b6000614d2882614c6d565b9150819050919050565b6000602082019050614d4760008301846148f8565b92915050565b6000602082019050614d6260008301846148e9565b92915050565b60006020820190508181036000830152614d82818461491e565b905092915050565b6000602082019050614d9f600083018461497c565b92915050565b6000602082019050614dba600083018461498b565b92915050565b60006020820190508181036000830152614dda818461499a565b905092915050565b60006020820190508181036000830152614dfb81614a83565b9050919050565b60006020820190508181036000830152614e1b81614aa6565b9050919050565b60006020820190508181036000830152614e3b81614ac9565b9050919050565b60006020820190508181036000830152614e5b81614aec565b9050919050565b60006020820190508181036000830152614e7b81614b0f565b9050919050565b60006020820190508181036000830152614e9b81614b32565b9050919050565b60006020820190508181036000830152614ebb81614b55565b9050919050565b60006020820190508181036000830152614edb81614b78565b9050919050565b60006020820190508181036000830152614efb81614b9b565b9050919050565b60006020820190508181036000830152614f1b81614bbe565b9050919050565b60006020820190508181036000830152614f3b81614be1565b9050919050565b60006020820190508181036000830152614f5b81614c04565b9050919050565b60006020820190508181036000830152614f7b81614c27565b9050919050565b60006020820190508181036000830152614f9b81614c4a565b9050919050565b60006020820190508181036000830152614fbb81614c90565b9050919050565b6000602082019050614fd76000830184614cc2565b92915050565b6000614fe7614ff8565b9050614ff38282615329565b919050565b6000604051905090565b600067ffffffffffffffff82111561501d5761501c615485565b5b602082029050602081019050919050565b600067ffffffffffffffff82111561504957615048615485565b5b615052826154b4565b9050602081019050919050565b600067ffffffffffffffff82111561507a57615079615485565b5b615083826154b4565b9050602081019050919050565b6000819050602082019050919050565b60008190508160005260206000209050919050565b600081519050919050565b600081519050919050565b6000602082019050919050565b600082825260208201905092915050565b600081905092915050565b600082825260208201905092915050565b600081905092915050565b600061511b826152ab565b9150615126836152ab565b9250827fffffffffffffffffffffffffffffffffffffffffffffffffffffffffffffffff0382111561515b5761515a6153f8565b5b828201905092915050565b6000615171826152ab565b915061517c836152ab565b92508261518c5761518b615427565b5b828204905092915050565b60006151a2826152ab565b91506151ad836152ab565b9250817fffffffffffffffffffffffffffffffffffffffffffffffffffffffffffffffff04831182151516156151e6576151e56153f8565b5b828202905092915050565b60006151fc826152ab565b9150615207836152ab565b92508282101561521a576152196153f8565b5b828203905092915050565b60006152308261528b565b9050919050565b60006152428261528b565b9050919050565b60008115159050919050565b6000819050919050565b60007fffffffff0000000000000000000000000000000000000000000000000000000082169050919050565b600073ffffffffffffffffffffffffffffffffffffffff82169050919050565b6000819050919050565b82818337600083830152505050565b60005b838110156152e25780820151818401526020810190506152c7565b838111156152f1576000848401525b50505050565b6000600282049050600182168061530f57607f821691505b6020821081141561532357615322615456565b5b50919050565b615332826154b4565b810181811067ffffffffffffffff8211171561535157615350615485565b5b80604052505050565b6000615365826152ab565b91507fffffffffffffffffffffffffffffffffffffffffffffffffffffffffffffffff821415615398576153976153f8565b5b600182019050919050565b60006153ae826153b5565b9050919050565b60006153c0826154c5565b9050919050565b60006153d2826152ab565b91506153dd836152ab565b9250826153ed576153ec615427565b5b828206905092915050565b7f4e487b7100000000000000000000000000000000000000000000000000000000600052601160045260246000fd5b7f4e487b7100000000000000000000000000000000000000000000000000000000600052601260045260246000fd5b7f4e487b7100000000000000000000000000000000000000000000000000000000600052602260045260246000fd5b7f4e487b7100000000000000000000000000000000000000000000000000000000600052604160045260246000fd5b6000601f19601f8301169050919050565b60008160601b9050919050565b7f4d696e696d756d2031204e46542068617320746f206265206d696e746564207060008201527f6572207472616e73616374696f6e000000000000000000000000000000000000602082015250565b7f4f776e61626c653a206e6577206f776e657220697320746865207a65726f206160008201527f6464726573730000000000000000000000000000000000000000000000000000602082015250565b7f436f6e74726163742044656e6965642e00000000000000000000000000000000600082015250565b7f5075626c6963206d696e74206e6f7420656e61626c6564210000000000000000600082015250565b7f546f6b656e207472616e7366657220746f20636f6e747261637420616464726560008201527f7373206973206e6f7420616c6c6f7765642e0000000000000000000000000000602082015250565b7f496e76616c696420546f6b656e49640000000000000000000000000000000000600082015250565b7f6d61782070657220616464726573732065786365656465642100000000000000600082015250565b7f4d696e7420616c726561647920636c61696d6564210000000000000000000000600082015250565b7f50726f6f6620496e76616c696400000000000000000000000000000000000000600082015250565b7f45746865722073656e7420776974682074686973207472616e73616374696f6e60008201527f206973206e6f7420636f72726563740000000000000000000000000000000000602082015250565b7f4f776e61626c653a2063616c6c6572206973206e6f7420746865206f776e6572600082015250565b7f4552433732314d657461646174613a2055524920717565727920666f72206e6f60008201527f6e6578697374656e7420746f6b656e0000000000000000000000000000000000602082015250565b7f45786365656473206d6178696d756d20737570706c7900000000000000000000600082015250565b7f4d6178696d756d204e4654732063616e206265206d696e74656420706572207460008201527f72616e73616374696f6e00000000000000000000000000000000000000000000602082015250565b50565b7f5472616e73666572206661696c65642e00000000000000000000000000000000600082015250565b61582981615225565b811461583457600080fd5b50565b61584081615249565b811461584b57600080fd5b50565b61585781615255565b811461586257600080fd5b50565b61586e8161525f565b811461587957600080fd5b50565b615885816152ab565b811461589057600080fd5b5056fea2646970667358221220ba9ebdd8dd3c1cbfbbfe3d209e21c1d180a7a1d49f8c489d8680b6e836dadb5d64736f6c63430008040033",
  "linkReferences": {},
  "deployedLinkReferences": {}
}