{
  "_format": "hh-sol-artifact-1",
  "contractName": "FelineSoulmate",
  "sourceName": "contracts/felinesoulmate.sol",
  "abi": [
    {
      "inputs": [],
      "stateMutability": "nonpayable",
      "type": "constructor"
    },
    {
      "inputs": [],
      "name": "ApprovalCallerNotOwnerNorApproved",
      "type": "error"
    },
    {
      "inputs": [],
      "name": "ApprovalQueryForNonexistentToken",
      "type": "error"
    },
    {
      "inputs": [],
      "name": "ApprovalToCurrentOwner",
      "type": "error"
    },
    {
      "inputs": [],
      "name": "ApproveToCaller",
      "type": "error"
    },
    {
      "inputs": [],
      "name": "BalanceQueryForZeroAddress",
      "type": "error"
    },
    {
      "inputs": [],
      "name": "MintToZeroAddress",
      "type": "error"
    },
    {
      "inputs": [],
      "name": "MintZeroQuantity",
      "type": "error"
    },
    {
      "inputs": [],
      "name": "OwnerIndexOutOfBounds",
      "type": "error"
    },
    {
      "inputs": [],
      "name": "OwnerQueryForNonexistentToken",
      "type": "error"
    },
    {
      "inputs": [],
      "name": "TokenIndexOutOfBounds",
      "type": "error"
    },
    {
      "inputs": [],
      "name": "TransferCallerNotOwnerNorApproved",
      "type": "error"
    },
    {
      "inputs": [],
      "name": "TransferFromIncorrectOwner",
      "type": "error"
    },
    {
      "inputs": [],
      "name": "TransferToNonERC721ReceiverImplementer",
      "type": "error"
    },
    {
      "inputs": [],
      "name": "TransferToZeroAddress",
      "type": "error"
    },
    {
      "anonymous": false,
      "inputs": [
        {
          "indexed": true,
          "internalType": "address",
          "name": "owner",
          "type": "address"
        },
        {
          "indexed": true,
          "internalType": "address",
          "name": "approved",
          "type": "address"
        },
        {
          "indexed": true,
          "internalType": "uint256",
          "name": "tokenId",
          "type": "uint256"
        }
      ],
      "name": "Approval",
      "type": "event"
    },
    {
      "anonymous": false,
      "inputs": [
        {
          "indexed": true,
          "internalType": "address",
          "name": "owner",
          "type": "address"
        },
        {
          "indexed": true,
          "internalType": "address",
          "name": "operator",
          "type": "address"
        },
        {
          "indexed": false,
          "internalType": "bool",
          "name": "approved",
          "type": "bool"
        }
      ],
      "name": "ApprovalForAll",
      "type": "event"
    },
    {
      "anonymous": false,
      "inputs": [
        {
          "indexed": false,
          "internalType": "uint256",
          "name": "totalMinted",
          "type": "uint256"
        }
      ],
      "name": "Minted",
      "type": "event"
    },
    {
      "anonymous": false,
      "inputs": [
        {
          "indexed": true,
          "internalType": "address",
          "name": "previousOwner",
          "type": "address"
        },
        {
          "indexed": true,
          "internalType": "address",
          "name": "newOwner",
          "type": "address"
        }
      ],
      "name": "OwnershipTransferred",
      "type": "event"
    },
    {
      "anonymous": false,
      "inputs": [
        {
          "indexed": true,
          "internalType": "address",
          "name": "from",
          "type": "address"
        },
        {
          "indexed": true,
          "internalType": "address",
          "name": "to",
          "type": "address"
        },
        {
          "indexed": true,
          "internalType": "uint256",
          "name": "tokenId",
          "type": "uint256"
        }
      ],
      "name": "Transfer",
      "type": "event"
    },
    {
      "inputs": [
        {
          "internalType": "uint256",
          "name": "",
          "type": "uint256"
        }
      ],
      "name": "_transferToContract",
      "outputs": [
        {
          "internalType": "bool",
          "name": "",
          "type": "bool"
        }
      ],
      "stateMutability": "view",
      "type": "function"
    },
    {
      "inputs": [
        {
          "internalType": "address",
          "name": "",
          "type": "address"
        }
      ],
      "name": "addressMintedBalance",
      "outputs": [
        {
          "internalType": "uint256",
          "name": "",
          "type": "uint256"
        }
      ],
      "stateMutability": "view",
      "type": "function"
    },
    {
      "inputs": [],
      "name": "allowedToContract",
      "outputs": [
        {
          "internalType": "bool",
          "name": "",
          "type": "bool"
        }
      ],
      "stateMutability": "view",
      "type": "function"
    },
    {
      "inputs": [
        {
          "internalType": "address",
          "name": "to",
          "type": "address"
        },
        {
          "internalType": "uint256",
          "name": "tokenId",
          "type": "uint256"
        }
      ],
      "name": "approve",
      "outputs": [],
      "stateMutability": "nonpayable",
      "type": "function"
    },
    {
      "inputs": [
        {
          "internalType": "address",
          "name": "owner",
          "type": "address"
        }
      ],
      "name": "balanceOf",
      "outputs": [
        {
          "internalType": "uint256",
          "name": "",
          "type": "uint256"
        }
      ],
      "stateMutability": "view",
      "type": "function"
    },
    {
      "inputs": [
        {
          "internalType": "uint256",
          "name": "_newPrice",
          "type": "uint256"
        }
      ],
      "name": "changePrice",
      "outputs": [],
      "stateMutability": "nonpayable",
      "type": "function"
    },
    {
      "inputs": [
        {
          "internalType": "uint256",
          "name": "tokenId",
          "type": "uint256"
        }
      ],
      "name": "getApproved",
      "outputs": [
        {
          "internalType": "address",
          "name": "",
          "type": "address"
        }
      ],
      "stateMutability": "view",
      "type": "function"
    },
    {
      "inputs": [
        {
          "internalType": "address",
          "name": "owner",
          "type": "address"
        },
        {
          "internalType": "address",
          "name": "operator",
          "type": "address"
        }
      ],
      "name": "isApprovedForAll",
      "outputs": [
        {
          "internalType": "bool",
          "name": "",
          "type": "bool"
        }
      ],
      "stateMutability": "view",
      "type": "function"
    },
    {
      "inputs": [],
      "name": "isPrivateMintEnabled",
      "outputs": [
        {
          "internalType": "bool",
          "name": "",
          "type": "bool"
        }
      ],
      "stateMutability": "view",
      "type": "function"
    },
    {
      "inputs": [],
      "name": "isPublicMintEnabled",
      "outputs": [
        {
          "internalType": "bool",
          "name": "",
          "type": "bool"
        }
      ],
      "stateMutability": "view",
      "type": "function"
    },
    {
      "inputs": [],
      "name": "isRevealed",
      "outputs": [
        {
          "internalType": "bool",
          "name": "",
          "type": "bool"
        }
      ],
      "stateMutability": "view",
      "type": "function"
    },
    {
      "inputs": [],
      "name": "maxMintPerTx",
      "outputs": [
        {
          "internalType": "uint256",
          "name": "",
          "type": "uint256"
        }
      ],
      "stateMutability": "view",
      "type": "function"
    },
    {
      "inputs": [],
      "name": "maxMintPerWallet",
      "outputs": [
        {
          "internalType": "uint256",
          "name": "",
          "type": "uint256"
        }
      ],
      "stateMutability": "view",
      "type": "function"
    },
    {
      "inputs": [],
      "name": "maxSupply",
      "outputs": [
        {
          "internalType": "uint256",
          "name": "",
          "type": "uint256"
        }
      ],
      "stateMutability": "view",
      "type": "function"
    },
    {
      "inputs": [
        {
          "internalType": "uint256",
          "name": "_count",
          "type": "uint256"
        }
      ],
      "name": "mint",
      "outputs": [],
      "stateMutability": "payable",
      "type": "function"
    },
    {
      "inputs": [],
      "name": "name",
      "outputs": [
        {
          "internalType": "string",
          "name": "",
          "type": "string"
        }
      ],
      "stateMutability": "view",
      "type": "function"
    },
    {
      "inputs": [],
      "name": "owner",
      "outputs": [
        {
          "internalType": "address",
          "name": "",
          "type": "address"
        }
      ],
      "stateMutability": "view",
      "type": "function"
    },
    {
      "inputs": [
        {
          "internalType": "uint256",
          "name": "tokenId",
          "type": "uint256"
        }
      ],
      "name": "ownerOf",
      "outputs": [
        {
          "internalType": "address",
          "name": "",
          "type": "address"
        }
      ],
      "stateMutability": "view",
      "type": "function"
    },
    {
      "inputs": [],
      "name": "price",
      "outputs": [
        {
          "internalType": "uint256",
          "name": "",
          "type": "uint256"
        }
      ],
      "stateMutability": "view",
      "type": "function"
    },
    {
      "inputs": [
        {
          "internalType": "bytes32[]",
          "name": "_merkleProof",
          "type": "bytes32[]"
        },
        {
          "internalType": "uint256",
          "name": "_count",
          "type": "uint256"
        }
      ],
      "name": "privateMint",
      "outputs": [],
      "stateMutability": "payable",
      "type": "function"
    },
    {
      "inputs": [],
      "name": "privateMintMerkleRoot",
      "outputs": [
        {
          "internalType": "bytes32",
          "name": "",
          "type": "bytes32"
        }
      ],
      "stateMutability": "view",
      "type": "function"
    },
    {
      "inputs": [
        {
          "internalType": "address",
          "name": "",
          "type": "address"
        }
      ],
      "name": "privateMintParticipants",
      "outputs": [
        {
          "internalType": "bool",
          "name": "",
          "type": "bool"
        }
      ],
      "stateMutability": "view",
      "type": "function"
    },
    {
      "inputs": [],
      "name": "renounceOwnership",
      "outputs": [],
      "stateMutability": "nonpayable",
      "type": "function"
    },
    {
      "inputs": [
        {
          "internalType": "address",
          "name": "from",
          "type": "address"
        },
        {
          "internalType": "address",
          "name": "to",
          "type": "address"
        },
        {
          "internalType": "uint256",
          "name": "tokenId",
          "type": "uint256"
        }
      ],
      "name": "safeTransferFrom",
      "outputs": [],
      "stateMutability": "nonpayable",
      "type": "function"
    },
    {
      "inputs": [
        {
          "internalType": "address",
          "name": "from",
          "type": "address"
        },
        {
          "internalType": "address",
          "name": "to",
          "type": "address"
        },
        {
          "internalType": "uint256",
          "name": "tokenId",
          "type": "uint256"
        },
        {
          "internalType": "bytes",
          "name": "_data",
          "type": "bytes"
        }
      ],
      "name": "safeTransferFrom",
      "outputs": [],
      "stateMutability": "nonpayable",
      "type": "function"
    },
    {
      "inputs": [],
      "name": "setAllowToContract",
      "outputs": [],
      "stateMutability": "nonpayable",
      "type": "function"
    },
    {
      "inputs": [
        {
          "internalType": "uint256",
          "name": "_tokenId",
          "type": "uint256"
        },
        {
          "internalType": "bool",
          "name": "_allow",
          "type": "bool"
        }
      ],
      "name": "setAllowTokenToContract",
      "outputs": [],
      "stateMutability": "nonpayable",
      "type": "function"
    },
    {
      "inputs": [
        {
          "internalType": "address",
          "name": "operator",
          "type": "address"
        },
        {
          "internalType": "bool",
          "name": "approved",
          "type": "bool"
        }
      ],
      "name": "setApprovalForAll",
      "outputs": [],
      "stateMutability": "nonpayable",
      "type": "function"
    },
    {
      "inputs": [
        {
          "internalType": "string",
          "name": "_hiddenMetadataUri",
          "type": "string"
        }
      ],
      "name": "setHiddenMetadataUri",
      "outputs": [],
      "stateMutability": "nonpayable",
      "type": "function"
    },
    {
      "inputs": [
        {
          "internalType": "bool",
          "name": "isPrivateMintEnabled_",
          "type": "bool"
        }
      ],
      "name": "setIsPrivateMintEnabled",
      "outputs": [],
      "stateMutability": "nonpayable",
      "type": "function"
    },
    {
      "inputs": [
        {
          "internalType": "bool",
          "name": "isPublicMintEnabled_",
          "type": "bool"
        }
      ],
      "name": "setIsPublicMintEnabled",
      "outputs": [],
      "stateMutability": "nonpayable",
      "type": "function"
    },
    {
      "inputs": [
        {
          "internalType": "bool",
          "name": "_state",
          "type": "bool"
        }
      ],
      "name": "setIsRevealed",
      "outputs": [],
      "stateMutability": "nonpayable",
      "type": "function"
    },
    {
      "inputs": [
        {
          "internalType": "uint256",
          "name": "_maxMintPerTx",
          "type": "uint256"
        }
      ],
      "name": "setMaxMintPerTx",
      "outputs": [],
      "stateMutability": "nonpayable",
      "type": "function"
    },
    {
      "inputs": [
        {
          "internalType": "uint256",
          "name": "_maxMintPerWallet",
          "type": "uint256"
        }
      ],
      "name": "setMaxMintPerWallet",
      "outputs": [],
      "stateMutability": "nonpayable",
      "type": "function"
    },
    {
      "inputs": [
        {
          "internalType": "bytes32",
          "name": "_privateMintMerkleRoot",
          "type": "bytes32"
        }
      ],
      "name": "setPrivateMintMerkleRoot",
      "outputs": [],
      "stateMutability": "nonpayable",
      "type": "function"
    },
    {
      "inputs": [
        {
          "internalType": "string",
          "name": "_uriPrefix",
          "type": "string"
        }
      ],
      "name": "setUriPrefix",
      "outputs": [],
      "stateMutability": "nonpayable",
      "type": "function"
    },
    {
      "inputs": [
        {
          "internalType": "string",
          "name": "_uriSuffix",
          "type": "string"
        }
      ],
      "name": "setUriSuffix",
      "outputs": [],
      "stateMutability": "nonpayable",
      "type": "function"
    },
    {
      "inputs": [
        {
          "internalType": "address",
          "name": "withdrawWalletAddress_",
          "type": "address"
        }
      ],
      "name": "setWithdrawWallet",
      "outputs": [],
      "stateMutability": "nonpayable",
      "type": "function"
    },
    {
      "inputs": [
        {
          "internalType": "bytes4",
          "name": "interfaceId",
          "type": "bytes4"
        }
      ],
      "name": "supportsInterface",
      "outputs": [
        {
          "internalType": "bool",
          "name": "",
          "type": "bool"
        }
      ],
      "stateMutability": "view",
      "type": "function"
    },
    {
      "inputs": [],
      "name": "symbol",
      "outputs": [
        {
          "internalType": "string",
          "name": "",
          "type": "string"
        }
      ],
      "stateMutability": "view",
      "type": "function"
    },
    {
      "inputs": [
        {
          "internalType": "address[]",
          "name": "tos",
          "type": "address[]"
        }
      ],
      "name": "teamMint",
      "outputs": [],
      "stateMutability": "nonpayable",
      "type": "function"
    },
    {
      "inputs": [
        {
          "internalType": "uint256",
          "name": "index",
          "type": "uint256"
        }
      ],
      "name": "tokenByIndex",
      "outputs": [
        {
          "internalType": "uint256",
          "name": "",
          "type": "uint256"
        }
      ],
      "stateMutability": "view",
      "type": "function"
    },
    {
      "inputs": [
        {
          "internalType": "address",
          "name": "owner",
          "type": "address"
        },
        {
          "internalType": "uint256",
          "name": "index",
          "type": "uint256"
        }
      ],
      "name": "tokenOfOwnerByIndex",
      "outputs": [
        {
          "internalType": "uint256",
          "name": "",
          "type": "uint256"
        }
      ],
      "stateMutability": "view",
      "type": "function"
    },
    {
      "inputs": [
        {
          "internalType": "uint256",
          "name": "_tokenId",
          "type": "uint256"
        }
      ],
      "name": "tokenURI",
      "outputs": [
        {
          "internalType": "string",
          "name": "",
          "type": "string"
        }
      ],
      "stateMutability": "nonpayable",
      "type": "function"
    },
    {
      "inputs": [],
      "name": "totalSupply",
      "outputs": [
        {
          "internalType": "uint256",
          "name": "",
          "type": "uint256"
        }
      ],
      "stateMutability": "view",
      "type": "function"
    },
    {
      "inputs": [
        {
          "internalType": "address",
          "name": "from",
          "type": "address"
        },
        {
          "internalType": "address",
          "name": "to",
          "type": "address"
        },
        {
          "internalType": "uint256",
          "name": "tokenId",
          "type": "uint256"
        }
      ],
      "name": "transferFrom",
      "outputs": [],
      "stateMutability": "nonpayable",
      "type": "function"
    },
    {
      "inputs": [
        {
          "internalType": "address",
          "name": "newOwner",
          "type": "address"
        }
      ],
      "name": "transferOwnership",
      "outputs": [],
      "stateMutability": "nonpayable",
      "type": "function"
    },
    {
      "inputs": [],
      "name": "uriSuffix",
      "outputs": [
        {
          "internalType": "string",
          "name": "",
          "type": "string"
        }
      ],
      "stateMutability": "view",
      "type": "function"
    },
    {
      "inputs": [
        {
          "internalType": "address",
          "name": "_owner",
          "type": "address"
        }
      ],
      "name": "walletOfOwner",
      "outputs": [
        {
          "internalType": "uint256[]",
          "name": "",
          "type": "uint256[]"
        }
      ],
      "stateMutability": "view",
      "type": "function"
    },
    {
      "inputs": [],
      "name": "withdraw",
      "outputs": [],
      "stateMutability": "nonpayable",
      "type": "function"
    },
    {
      "inputs": [],
      "name": "withdrawWallet",
      "outputs": [
        {
          "internalType": "address payable",
          "name": "",
          "type": "address"
        }
      ],
      "stateMutability": "view",
      "type": "function"
    }
  ],
  "bytecode": "0x6080604052600180556000600560006101000a81548160ff02191690831515021790555060405180602001604052806000815250600e90805190602001906200004a929190620003ca565b506040518060400160405280600581526020017f2e6a736f6e000000000000000000000000000000000000000000000000000000815250600f908051906020019062000098929190620003ca565b50600060115560056012556005601355662386f26fc100006014556001601660146101000a81548160ff0219169083151502179055506001601660156101000a81548160ff02191690831515021790555060006016806101000a81548160ff0219169083151502179055503480156200011057600080fd5b506040518060400160405280600e81526020017f46656c696e65536f756c6d6174650000000000000000000000000000000000008152506040518060400160405280600281526020017f465300000000000000000000000000000000000000000000000000000000000081525060006200018f620002ee60201b60201c565b9050806000806101000a81548173ffffffffffffffffffffffffffffffffffffffff021916908373ffffffffffffffffffffffffffffffffffffffff1602179055508073ffffffffffffffffffffffffffffffffffffffff16600073ffffffffffffffffffffffffffffffffffffffff167f8be0079c531659141344cd1fd0a4f28419497f9722a3daafe3b4186f6b6457e060405160405180910390a350816003908051906020019062000245929190620003ca565b5080600490805190602001906200025e929190620003ca565b50505033601660006101000a81548173ffffffffffffffffffffffffffffffffffffffff021916908373ffffffffffffffffffffffffffffffffffffffff160217905550620002e86040518060400160405280601a81526020017f697066733a2f2f5f5f4349445f5f2f68696464656e2e6a736f6e000000000000815250620002f660201b60201c565b62000562565b600033905090565b62000306620002ee60201b60201c565b73ffffffffffffffffffffffffffffffffffffffff166200032c620003a160201b60201c565b73ffffffffffffffffffffffffffffffffffffffff161462000385576040517f08c379a00000000000000000000000000000000000000000000000000000000081526004016200037c90620004a1565b60405180910390fd5b80601090805190602001906200039d929190620003ca565b5050565b60008060009054906101000a900473ffffffffffffffffffffffffffffffffffffffff16905090565b828054620003d890620004d4565b90600052602060002090601f016020900481019282620003fc576000855562000448565b82601f106200041757805160ff191683800117855562000448565b8280016001018555821562000448579182015b82811115620004475782518255916020019190600101906200042a565b5b5090506200045791906200045b565b5090565b5b80821115620004765760008160009055506001016200045c565b5090565b600062000489602083620004c3565b9150620004968262000539565b602082019050919050565b60006020820190508181036000830152620004bc816200047a565b9050919050565b600082825260208201905092915050565b60006002820490506001821680620004ed57607f821691505b602082108114156200050457620005036200050a565b5b50919050565b7f4e487b7100000000000000000000000000000000000000000000000000000000600052602260045260246000fd5b7f4f776e61626c653a2063616c6c6572206973206e6f7420746865206f776e6572600082015250565b6157d080620005726000396000f3fe6080604052600436106102e45760003560e01c8063616cdb1e11610190578063a22cb465116100dc578063c87b56dd11610095578063e80d1a1c1161006f578063e80d1a1c14610b18578063e985e9c514610b43578063f002858514610b80578063f2fde38b14610ba9576102e4565b8063c87b56dd14610a85578063d5abeb0114610ac2578063de7fcb1d14610aed576102e4565b8063a22cb46514610979578063a2b40d19146109a2578063afdf6134146109cb578063b228d925146109f4578063b88d4fde14610a1f578063c080519714610a48576102e4565b806385d178f41161014957806395d89b411161012357806395d89b41146108dc5780639e8b30eb14610907578063a035b1fe14610932578063a0712d681461095d576102e4565b806385d178f41461085d5780638da5cb5b146108885780639373f432146108b3576102e4565b8063616cdb1e146107635780636352211e1461078c57806370a08231146107c9578063715018a6146108065780637ec4a6591461081d578063801fe59b14610846576102e4565b806328818b961161024f5780634aaf78f11161020857806354214f69116101e257806354214f69146106bb5780635503a0e8146106e6578063559e75b31461071157806355a554651461073a576102e4565b80634aaf78f11461062a5780634f6ccce7146106555780634fdd43cb14610692576102e4565b806328818b961461052b5780632f745c59146105475780633ccfd60b1461058457806342842e0e1461059b578063438b6300146105c457806349a5980a14610601576102e4565b806316ba10e0116102a157806316ba10e01461040b57806318160ddd1461043457806318cae2691461045f5780631d7781651461049c5780632373ac22146104d957806323b872dd14610502576102e4565b80630116bc2d146102e957806301ffc9a71461031457806306fdde0314610351578063081812fc1461037c578063095ea7b3146103b95780631465f531146103e2575b600080fd5b3480156102f557600080fd5b506102fe610bd2565b60405161030b9190614cda565b60405180910390f35b34801561032057600080fd5b5061033b60048036038101906103369190614775565b610be3565b6040516103489190614cda565b60405180910390f35b34801561035d57600080fd5b50610366610d2d565b6040516103739190614d10565b60405180910390f35b34801561038857600080fd5b506103a3600480360381019061039e91906147df565b610dbf565b6040516103b09190614c82565b60405180910390f35b3480156103c557600080fd5b506103e060048036038101906103db919061464e565b610e3b565b005b3480156103ee57600080fd5b506104096004803603810190610404919061474c565b610ff6565b005b34801561041757600080fd5b50610432600480360381019061042d919061479e565b61107c565b005b34801561044057600080fd5b50610449611112565b6040516104569190614ef2565b60405180910390f35b34801561046b57600080fd5b50610486600480360381019061048191906144e3565b61111c565b6040516104939190614ef2565b60405180910390f35b3480156104a857600080fd5b506104c360048036038101906104be91906144e3565b611134565b6040516104d09190614cda565b60405180910390f35b3480156104e557600080fd5b5061050060048036038101906104fb9190614723565b611154565b005b34801561050e57600080fd5b5061052960048036038101906105249190614548565b6111ec565b005b610545600480360381019061054091906146cb565b6111fc565b005b34801561055357600080fd5b5061056e6004803603810190610569919061464e565b61167d565b60405161057b9190614ef2565b60405180910390f35b34801561059057600080fd5b50610599611857565b005b3480156105a757600080fd5b506105c260048036038101906105bd9190614548565b611982565b005b3480156105d057600080fd5b506105eb60048036038101906105e691906144e3565b6119a2565b6040516105f89190614cb8565b60405180910390f35b34801561060d57600080fd5b5061062860048036038101906106239190614723565b611af9565b005b34801561063657600080fd5b5061063f611b92565b60405161064c9190614cda565b60405180910390f35b34801561066157600080fd5b5061067c600480360381019061067791906147df565b611ba5565b6040516106899190614ef2565b60405180910390f35b34801561069e57600080fd5b506106b960048036038101906106b4919061479e565b611cea565b005b3480156106c757600080fd5b506106d0611d80565b6040516106dd9190614cda565b60405180910390f35b3480156106f257600080fd5b506106fb611d93565b6040516107089190614d10565b60405180910390f35b34801561071d57600080fd5b5061073860048036038101906107339190614723565b611e21565b005b34801561074657600080fd5b50610761600480360381019061075c9190614808565b611eba565b005b34801561076f57600080fd5b5061078a600480360381019061078591906147df565b611f65565b005b34801561079857600080fd5b506107b360048036038101906107ae91906147df565b611feb565b6040516107c09190614c82565b60405180910390f35b3480156107d557600080fd5b506107f060048036038101906107eb91906144e3565b612001565b6040516107fd9190614ef2565b60405180910390f35b34801561081257600080fd5b5061081b6120d1565b005b34801561082957600080fd5b50610844600480360381019061083f919061479e565b61220b565b005b34801561085257600080fd5b5061085b6122a1565b005b34801561086957600080fd5b50610872612349565b60405161087f9190614c9d565b60405180910390f35b34801561089457600080fd5b5061089d61236f565b6040516108aa9190614c82565b60405180910390f35b3480156108bf57600080fd5b506108da60048036038101906108d591906144e3565b612398565b005b3480156108e857600080fd5b506108f1612458565b6040516108fe9190614d10565b60405180910390f35b34801561091357600080fd5b5061091c6124ea565b6040516109299190614cf5565b60405180910390f35b34801561093e57600080fd5b506109476124f0565b6040516109549190614ef2565b60405180910390f35b610977600480360381019061097291906147df565b6124f6565b005b34801561098557600080fd5b506109a0600480360381019061099b9190614612565b612864565b005b3480156109ae57600080fd5b506109c960048036038101906109c491906147df565b612b5c565b005b3480156109d757600080fd5b506109f260048036038101906109ed91906147df565b612be2565b005b348015610a0057600080fd5b50610a09612c68565b604051610a169190614ef2565b60405180910390f35b348015610a2b57600080fd5b50610a466004803603810190610a419190614597565b612c6e565b005b348015610a5457600080fd5b50610a6f6004803603810190610a6a91906147df565b612cc1565b604051610a7c9190614cda565b60405180910390f35b348015610a9157600080fd5b50610aac6004803603810190610aa791906147df565b612ce1565b604051610ab99190614d10565b60405180910390f35b348015610ace57600080fd5b50610ad7612e3a565b604051610ae49190614ef2565b60405180910390f35b348015610af957600080fd5b50610b02612e40565b604051610b0f9190614ef2565b60405180910390f35b348015610b2457600080fd5b50610b2d612e46565b604051610b3a9190614cda565b60405180910390f35b348015610b4f57600080fd5b50610b6a6004803603810190610b65919061450c565b612e59565b604051610b779190614cda565b60405180910390f35b348015610b8c57600080fd5b50610ba76004803603810190610ba2919061468a565b612eed565b005b348015610bb557600080fd5b50610bd06004803603810190610bcb91906144e3565b612fd7565b005b60168054906101000a900460ff1681565b60007f80ac58cd000000000000000000000000000000000000000000000000000000007bffffffffffffffffffffffffffffffffffffffffffffffffffffffff1916827bffffffffffffffffffffffffffffffffffffffffffffffffffffffff19161480610cae57507f5b5e139f000000000000000000000000000000000000000000000000000000007bffffffffffffffffffffffffffffffffffffffffffffffffffffffff1916827bffffffffffffffffffffffffffffffffffffffffffffffffffffffff1916145b80610d1657507f780e9d63000000000000000000000000000000000000000000000000000000007bffffffffffffffffffffffffffffffffffffffffffffffffffffffff1916827bffffffffffffffffffffffffffffffffffffffffffffffffffffffff1916145b80610d265750610d2582613180565b5b9050919050565b606060038054610d3c90615227565b80601f0160208091040260200160405190810160405280929190818152602001828054610d6890615227565b8015610db55780601f10610d8a57610100808354040283529160200191610db5565b820191906000526020600020905b815481529060010190602001808311610d9857829003601f168201915b5050505050905090565b6000610dca826131ea565b610e00576040517fcf4700e400000000000000000000000000000000000000000000000000000000815260040160405180910390fd5b6008600083815260200190815260200160002060009054906101000a900473ffffffffffffffffffffffffffffffffffffffff169050919050565b6000610e4682611feb565b90508073ffffffffffffffffffffffffffffffffffffffff168373ffffffffffffffffffffffffffffffffffffffff161415610eae576040517f943f7b8c00000000000000000000000000000000000000000000000000000000815260040160405180910390fd5b8073ffffffffffffffffffffffffffffffffffffffff16610ecd613267565b73ffffffffffffffffffffffffffffffffffffffff1614158015610eff5750610efd81610ef8613267565b612e59565b155b15610f36576040517fcfb3b94200000000000000000000000000000000000000000000000000000000815260040160405180910390fd5b600560009054906101000a900460ff16158015610f715750600a600083815260200190815260200160002060009054906101000a900460ff16155b15610fe557610f958373ffffffffffffffffffffffffffffffffffffffff1661326f565b15610fd5576040517f08c379a0000000000000000000000000000000000000000000000000000000008152600401610fcc90614db2565b60405180910390fd5b610fe0838383613292565b610ff1565b610ff0838383613292565b5b505050565b610ffe613267565b73ffffffffffffffffffffffffffffffffffffffff1661101c61236f565b73ffffffffffffffffffffffffffffffffffffffff1614611072576040517f08c379a000000000000000000000000000000000000000000000000000000000815260040161106990614e52565b60405180910390fd5b8060178190555050565b611084613267565b73ffffffffffffffffffffffffffffffffffffffff166110a261236f565b73ffffffffffffffffffffffffffffffffffffffff16146110f8576040517f08c379a00000000000000000000000000000000000000000000000000000000081526004016110ef90614e52565b60405180910390fd5b80600f908051906020019061110e9291906141e4565b5050565b6000601154905090565b60156020528060005260406000206000915090505481565b60186020528060005260406000206000915054906101000a900460ff1681565b61115c613267565b73ffffffffffffffffffffffffffffffffffffffff1661117a61236f565b73ffffffffffffffffffffffffffffffffffffffff16146111d0576040517f08c379a00000000000000000000000000000000000000000000000000000000081526004016111c790614e52565b60405180910390fd5b806016806101000a81548160ff02191690831515021790555050565b6111f7838383613344565b505050565b60168054906101000a900460ff161561124a576040517f08c379a000000000000000000000000000000000000000000000000000000000815260040161124190614d92565b60405180910390fd5b3373ffffffffffffffffffffffffffffffffffffffff163273ffffffffffffffffffffffffffffffffffffffff16146112b8576040517f08c379a00000000000000000000000000000000000000000000000000000000081526004016112af90614d72565b60405180910390fd5b6115b3816112c4611112565b6112ce9190615040565b111561130f576040517f08c379a000000000000000000000000000000000000000000000000000000000815260040161130690614e92565b60405180910390fd5b60008111611352576040517f08c379a000000000000000000000000000000000000000000000000000000000815260040161134990614d32565b60405180910390fd5b61135a61236f565b73ffffffffffffffffffffffffffffffffffffffff163373ffffffffffffffffffffffffffffffffffffffff16146114b7576012548111156113d1576040517f08c379a00000000000000000000000000000000000000000000000000000000081526004016113c890614eb2565b60405180910390fd5b806014546113df91906150c7565b341015611421576040517f08c379a000000000000000000000000000000000000000000000000000000000815260040161141890614e32565b60405180910390fd5b6000601560003373ffffffffffffffffffffffffffffffffffffffff1673ffffffffffffffffffffffffffffffffffffffff16815260200190815260200160002054905060135482826114749190615040565b11156114b5576040517f08c379a00000000000000000000000000000000000000000000000000000000081526004016114ac90614df2565b60405180910390fd5b505b6000336040516020016114ca9190614c21565b604051602081830303815290604052805190602001209050611530848480806020026020016040519081016040528093929190818152602001838360200280828437600081840152601f19601f8201169050808301925050505050505060175483613835565b61156f576040517f08c379a000000000000000000000000000000000000000000000000000000000815260040161156690614e12565b60405180910390fd5b81601160008282546115819190615040565b9250508190555081601560003373ffffffffffffffffffffffffffffffffffffffff1673ffffffffffffffffffffffffffffffffffffffff16815260200190815260200160002060008282546115d79190615040565b925050819055506115e8338361384c565b6001601860003373ffffffffffffffffffffffffffffffffffffffff1673ffffffffffffffffffffffffffffffffffffffff16815260200190815260200160002060006101000a81548160ff0219169083151502179055507f176b02bb2d12439ff7a20b59f402cca16c76f50508b13ef3166a600eb719354a8260405161166f9190614ef2565b60405180910390a150505050565b600061168883612001565b82106116c0576040517f0ddac30e00000000000000000000000000000000000000000000000000000000815260040160405180910390fd5b6000600154905060008060005b8381101561184b576000600660008381526020019081526020016000206040518060600160405290816000820160009054906101000a900473ffffffffffffffffffffffffffffffffffffffff1673ffffffffffffffffffffffffffffffffffffffff1673ffffffffffffffffffffffffffffffffffffffff1681526020016000820160149054906101000a900467ffffffffffffffff1667ffffffffffffffff1667ffffffffffffffff16815260200160008201601c9054906101000a900460ff16151515158152505090508060400151156117aa575061183e565b600073ffffffffffffffffffffffffffffffffffffffff16816000015173ffffffffffffffffffffffffffffffffffffffff16146117ea57806000015192505b8773ffffffffffffffffffffffffffffffffffffffff168373ffffffffffffffffffffffffffffffffffffffff16141561183c5786841415611833578195505050505050611851565b83806001019450505b505b80806001019150506116cd565b50600080fd5b92915050565b61185f613267565b73ffffffffffffffffffffffffffffffffffffffff1661187d61236f565b73ffffffffffffffffffffffffffffffffffffffff16146118d3576040517f08c379a00000000000000000000000000000000000000000000000000000000081526004016118ca90614e52565b60405180910390fd5b60003373ffffffffffffffffffffffffffffffffffffffff16476040516118f990614c6d565b60006040518083038185875af1925050503d8060008114611936576040519150601f19603f3d011682016040523d82523d6000602084013e61193b565b606091505b505090508061197f576040517f08c379a000000000000000000000000000000000000000000000000000000000815260040161197690614ed2565b60405180910390fd5b50565b61199d83838360405180602001604052806000815250612c6e565b505050565b606060006119af83612001565b905060008167ffffffffffffffff8111156119f3577f4e487b7100000000000000000000000000000000000000000000000000000000600052604160045260246000fd5b604051908082528060200260200182016040528015611a215781602001602082028036833780820191505090505b50905060006001905060005b8381108015611a3e57506115b38211155b15611aed576000611a4e83611feb565b90508673ffffffffffffffffffffffffffffffffffffffff168173ffffffffffffffffffffffffffffffffffffffff161415611ad95782848381518110611abe577f4e487b7100000000000000000000000000000000000000000000000000000000600052603260045260246000fd5b6020026020010181815250508180611ad59061528a565b9250505b8280611ae49061528a565b93505050611a2d565b82945050505050919050565b611b01613267565b73ffffffffffffffffffffffffffffffffffffffff16611b1f61236f565b73ffffffffffffffffffffffffffffffffffffffff1614611b75576040517f08c379a0000000000000000000000000000000000000000000000000000000008152600401611b6c90614e52565b60405180910390fd5b80601660146101000a81548160ff02191690831515021790555050565b600560009054906101000a900460ff1681565b60008060015490506000805b82811015611cb2576000600660008381526020019081526020016000206040518060600160405290816000820160009054906101000a900473ffffffffffffffffffffffffffffffffffffffff1673ffffffffffffffffffffffffffffffffffffffff1673ffffffffffffffffffffffffffffffffffffffff1681526020016000820160149054906101000a900467ffffffffffffffff1667ffffffffffffffff1667ffffffffffffffff16815260200160008201601c9054906101000a900460ff16151515158152505090508060400151611ca45785831415611c9b5781945050505050611ce5565b82806001019350505b508080600101915050611bb1565b506040517fa723001c00000000000000000000000000000000000000000000000000000000815260040160405180910390fd5b919050565b611cf2613267565b73ffffffffffffffffffffffffffffffffffffffff16611d1061236f565b73ffffffffffffffffffffffffffffffffffffffff1614611d66576040517f08c379a0000000000000000000000000000000000000000000000000000000008152600401611d5d90614e52565b60405180910390fd5b8060109080519060200190611d7c9291906141e4565b5050565b601660149054906101000a900460ff1681565b600f8054611da090615227565b80601f0160208091040260200160405190810160405280929190818152602001828054611dcc90615227565b8015611e195780601f10611dee57610100808354040283529160200191611e19565b820191906000526020600020905b815481529060010190602001808311611dfc57829003601f168201915b505050505081565b611e29613267565b73ffffffffffffffffffffffffffffffffffffffff16611e4761236f565b73ffffffffffffffffffffffffffffffffffffffff1614611e9d576040517f08c379a0000000000000000000000000000000000000000000000000000000008152600401611e9490614e52565b60405180910390fd5b80601660156101000a81548160ff02191690831515021790555050565b611ec2613267565b73ffffffffffffffffffffffffffffffffffffffff16611ee061236f565b73ffffffffffffffffffffffffffffffffffffffff1614611f36576040517f08c379a0000000000000000000000000000000000000000000000000000000008152600401611f2d90614e52565b60405180910390fd5b80600a600084815260200190815260200160002060006101000a81548160ff0219169083151502179055505050565b611f6d613267565b73ffffffffffffffffffffffffffffffffffffffff16611f8b61236f565b73ffffffffffffffffffffffffffffffffffffffff1614611fe1576040517f08c379a0000000000000000000000000000000000000000000000000000000008152600401611fd890614e52565b60405180910390fd5b8060128190555050565b6000611ff68261386a565b600001519050919050565b60008073ffffffffffffffffffffffffffffffffffffffff168273ffffffffffffffffffffffffffffffffffffffff161415612069576040517f8f4eb60400000000000000000000000000000000000000000000000000000000815260040160405180910390fd5b600760008373ffffffffffffffffffffffffffffffffffffffff1673ffffffffffffffffffffffffffffffffffffffff16815260200190815260200160002060000160009054906101000a900467ffffffffffffffff1667ffffffffffffffff169050919050565b6120d9613267565b73ffffffffffffffffffffffffffffffffffffffff166120f761236f565b73ffffffffffffffffffffffffffffffffffffffff161461214d576040517f08c379a000000000000000000000000000000000000000000000000000000000815260040161214490614e52565b60405180910390fd5b600073ffffffffffffffffffffffffffffffffffffffff1660008054906101000a900473ffffffffffffffffffffffffffffffffffffffff1673ffffffffffffffffffffffffffffffffffffffff167f8be0079c531659141344cd1fd0a4f28419497f9722a3daafe3b4186f6b6457e060405160405180910390a360008060006101000a81548173ffffffffffffffffffffffffffffffffffffffff021916908373ffffffffffffffffffffffffffffffffffffffff160217905550565b612213613267565b73ffffffffffffffffffffffffffffffffffffffff1661223161236f565b73ffffffffffffffffffffffffffffffffffffffff1614612287576040517f08c379a000000000000000000000000000000000000000000000000000000000815260040161227e90614e52565b60405180910390fd5b80600e908051906020019061229d9291906141e4565b5050565b6122a9613267565b73ffffffffffffffffffffffffffffffffffffffff166122c761236f565b73ffffffffffffffffffffffffffffffffffffffff161461231d576040517f08c379a000000000000000000000000000000000000000000000000000000000815260040161231490614e52565b60405180910390fd5b600560009054906101000a900460ff1615600560006101000a81548160ff021916908315150217905550565b601660009054906101000a900473ffffffffffffffffffffffffffffffffffffffff1681565b60008060009054906101000a900473ffffffffffffffffffffffffffffffffffffffff16905090565b6123a0613267565b73ffffffffffffffffffffffffffffffffffffffff166123be61236f565b73ffffffffffffffffffffffffffffffffffffffff1614612414576040517f08c379a000000000000000000000000000000000000000000000000000000000815260040161240b90614e52565b60405180910390fd5b80601660006101000a81548173ffffffffffffffffffffffffffffffffffffffff021916908373ffffffffffffffffffffffffffffffffffffffff16021790555050565b60606004805461246790615227565b80601f016020809104026020016040519081016040528092919081815260200182805461249390615227565b80156124e05780601f106124b5576101008083540402835291602001916124e0565b820191906000526020600020905b8154815290600101906020018083116124c357829003601f168201915b5050505050905090565b60175481565b60145481565b60168054906101000a900460ff1615612544576040517f08c379a000000000000000000000000000000000000000000000000000000000815260040161253b90614d92565b60405180910390fd5b3373ffffffffffffffffffffffffffffffffffffffff163273ffffffffffffffffffffffffffffffffffffffff16146125b2576040517f08c379a00000000000000000000000000000000000000000000000000000000081526004016125a990614d72565b60405180910390fd5b6115b3816125be611112565b6125c89190615040565b1115612609576040517f08c379a000000000000000000000000000000000000000000000000000000000815260040161260090614e92565b60405180910390fd5b6000811161264c576040517f08c379a000000000000000000000000000000000000000000000000000000000815260040161264390614d32565b60405180910390fd5b61265461236f565b73ffffffffffffffffffffffffffffffffffffffff163373ffffffffffffffffffffffffffffffffffffffff16146127b1576012548111156126cb576040517f08c379a00000000000000000000000000000000000000000000000000000000081526004016126c290614eb2565b60405180910390fd5b806014546126d991906150c7565b34101561271b576040517f08c379a000000000000000000000000000000000000000000000000000000000815260040161271290614e32565b60405180910390fd5b6000601560003373ffffffffffffffffffffffffffffffffffffffff1673ffffffffffffffffffffffffffffffffffffffff168152602001908152602001600020549050601354828261276e9190615040565b11156127af576040517f08c379a00000000000000000000000000000000000000000000000000000000081526004016127a690614df2565b60405180910390fd5b505b80601160008282546127c39190615040565b9250508190555080601560003373ffffffffffffffffffffffffffffffffffffffff1673ffffffffffffffffffffffffffffffffffffffff16815260200190815260200160002060008282546128199190615040565b9250508190555061282a338261384c565b7f176b02bb2d12439ff7a20b59f402cca16c76f50508b13ef3166a600eb719354a816040516128599190614ef2565b60405180910390a150565b61286c613267565b73ffffffffffffffffffffffffffffffffffffffff168273ffffffffffffffffffffffffffffffffffffffff1614156128d1576040517fb06307db00000000000000000000000000000000000000000000000000000000815260040160405180910390fd5b600560009054906101000a900460ff16612a50576129048273ffffffffffffffffffffffffffffffffffffffff1661326f565b15612944576040517f08c379a000000000000000000000000000000000000000000000000000000000815260040161293b90614db2565b60405180910390fd5b8060096000612951613267565b73ffffffffffffffffffffffffffffffffffffffff1673ffffffffffffffffffffffffffffffffffffffff16815260200190815260200160002060008473ffffffffffffffffffffffffffffffffffffffff1673ffffffffffffffffffffffffffffffffffffffff16815260200190815260200160002060006101000a81548160ff0219169083151502179055508173ffffffffffffffffffffffffffffffffffffffff166129fe613267565b73ffffffffffffffffffffffffffffffffffffffff167f17307eab39ab6107e8899845ad3d59bd9653f200f220920489ca2b5937696c3183604051612a439190614cda565b60405180910390a3612b58565b8060096000612a5d613267565b73ffffffffffffffffffffffffffffffffffffffff1673ffffffffffffffffffffffffffffffffffffffff16815260200190815260200160002060008473ffffffffffffffffffffffffffffffffffffffff1673ffffffffffffffffffffffffffffffffffffffff16815260200190815260200160002060006101000a81548160ff0219169083151502179055508173ffffffffffffffffffffffffffffffffffffffff16612b0a613267565b73ffffffffffffffffffffffffffffffffffffffff167f17307eab39ab6107e8899845ad3d59bd9653f200f220920489ca2b5937696c3183604051612b4f9190614cda565b60405180910390a35b5050565b612b64613267565b73ffffffffffffffffffffffffffffffffffffffff16612b8261236f565b73ffffffffffffffffffffffffffffffffffffffff1614612bd8576040517f08c379a0000000000000000000000000000000000000000000000000000000008152600401612bcf90614e52565b60405180910390fd5b8060148190555050565b612bea613267565b73ffffffffffffffffffffffffffffffffffffffff16612c0861236f565b73ffffffffffffffffffffffffffffffffffffffff1614612c5e576040517f08c379a0000000000000000000000000000000000000000000000000000000008152600401612c5590614e52565b60405180910390fd5b8060138190555050565b60135481565b612c79848484613344565b612c8584848484613ae6565b612cbb576040517fd1a57ed600000000000000000000000000000000000000000000000000000000815260040160405180910390fd5b50505050565b600a6020528060005260406000206000915054906101000a900460ff1681565b6060612cec826131ea565b612d2b576040517f08c379a0000000000000000000000000000000000000000000000000000000008152600401612d2290614e72565b60405180910390fd5b60001515601660149054906101000a900460ff1615151415612dd95760108054612d5490615227565b80601f0160208091040260200160405190810160405280929190818152602001828054612d8090615227565b8015612dcd5780601f10612da257610100808354040283529160200191612dcd565b820191906000526020600020905b815481529060010190602001808311612db057829003601f168201915b50505050509050612e35565b6000612de3613b9d565b90506000815111612e035760405180602001604052806000815250612e31565b80612e0d84613c2f565b600f604051602001612e2193929190614c3c565b6040516020818303038152906040525b9150505b919050565b6115b381565b60125481565b601660159054906101000a900460ff1681565b6000600960008473ffffffffffffffffffffffffffffffffffffffff1673ffffffffffffffffffffffffffffffffffffffff16815260200190815260200160002060008373ffffffffffffffffffffffffffffffffffffffff1673ffffffffffffffffffffffffffffffffffffffff16815260200190815260200160002060009054906101000a900460ff16905092915050565b612ef5613267565b73ffffffffffffffffffffffffffffffffffffffff16612f1361236f565b73ffffffffffffffffffffffffffffffffffffffff1614612f69576040517f08c379a0000000000000000000000000000000000000000000000000000000008152600401612f6090614e52565b60405180910390fd5b60005b8151811015612fd357612fc0828281518110612fb1577f4e487b7100000000000000000000000000000000000000000000000000000000600052603260045260246000fd5b6020026020010151600161384c565b8080612fcb9061528a565b915050612f6c565b5050565b612fdf613267565b73ffffffffffffffffffffffffffffffffffffffff16612ffd61236f565b73ffffffffffffffffffffffffffffffffffffffff1614613053576040517f08c379a000000000000000000000000000000000000000000000000000000000815260040161304a90614e52565b60405180910390fd5b600073ffffffffffffffffffffffffffffffffffffffff168173ffffffffffffffffffffffffffffffffffffffff1614156130c3576040517f08c379a00000000000000000000000000000000000000000000000000000000081526004016130ba90614d52565b60405180910390fd5b8073ffffffffffffffffffffffffffffffffffffffff1660008054906101000a900473ffffffffffffffffffffffffffffffffffffffff1673ffffffffffffffffffffffffffffffffffffffff167f8be0079c531659141344cd1fd0a4f28419497f9722a3daafe3b4186f6b6457e060405160405180910390a3806000806101000a81548173ffffffffffffffffffffffffffffffffffffffff021916908373ffffffffffffffffffffffffffffffffffffffff16021790555050565b60007f01ffc9a7000000000000000000000000000000000000000000000000000000007bffffffffffffffffffffffffffffffffffffffffffffffffffffffff1916827bffffffffffffffffffffffffffffffffffffffffffffffffffffffff1916149050919050565b600080821161322e576040517f08c379a000000000000000000000000000000000000000000000000000000000815260040161322590614dd2565b60405180910390fd5b60015482108015613260575060066000838152602001908152602001600020600001601c9054906101000a900460ff16155b9050919050565b600033905090565b6000808273ffffffffffffffffffffffffffffffffffffffff163b119050919050565b826008600084815260200190815260200160002060006101000a81548173ffffffffffffffffffffffffffffffffffffffff021916908373ffffffffffffffffffffffffffffffffffffffff160217905550818373ffffffffffffffffffffffffffffffffffffffff168273ffffffffffffffffffffffffffffffffffffffff167f8c5be1e5ebec7d5bd14f71427d1e84f3dd0314c0f7b2291e5b200ac8c7c3b92560405160405180910390a4505050565b600061334f8261386a565b90506000816000015173ffffffffffffffffffffffffffffffffffffffff16613376613267565b73ffffffffffffffffffffffffffffffffffffffff1614806133a957506133a882600001516133a3613267565b612e59565b5b806133ee57506133b7613267565b73ffffffffffffffffffffffffffffffffffffffff166133d684610dbf565b73ffffffffffffffffffffffffffffffffffffffff16145b905080613427576040517f59c896be00000000000000000000000000000000000000000000000000000000815260040160405180910390fd5b8473ffffffffffffffffffffffffffffffffffffffff16826000015173ffffffffffffffffffffffffffffffffffffffff1614613490576040517fa114810000000000000000000000000000000000000000000000000000000000815260040160405180910390fd5b600073ffffffffffffffffffffffffffffffffffffffff168473ffffffffffffffffffffffffffffffffffffffff1614156134f7576040517fea553b3400000000000000000000000000000000000000000000000000000000815260040160405180910390fd5b6135048585856001613ddc565b6135146000848460000151613292565b6001600760008773ffffffffffffffffffffffffffffffffffffffff1673ffffffffffffffffffffffffffffffffffffffff16815260200190815260200160002060000160008282829054906101000a900467ffffffffffffffff160392506101000a81548167ffffffffffffffff021916908367ffffffffffffffff1602179055506001600760008673ffffffffffffffffffffffffffffffffffffffff1673ffffffffffffffffffffffffffffffffffffffff16815260200190815260200160002060000160008282829054906101000a900467ffffffffffffffff160192506101000a81548167ffffffffffffffff021916908367ffffffffffffffff160217905550836006600085815260200190815260200160002060000160006101000a81548173ffffffffffffffffffffffffffffffffffffffff021916908373ffffffffffffffffffffffffffffffffffffffff160217905550426006600085815260200190815260200160002060000160146101000a81548167ffffffffffffffff021916908367ffffffffffffffff1602179055506000600184019050600073ffffffffffffffffffffffffffffffffffffffff166006600083815260200190815260200160002060000160009054906101000a900473ffffffffffffffffffffffffffffffffffffffff1673ffffffffffffffffffffffffffffffffffffffff1614156137c5576001548110156137c45782600001516006600083815260200190815260200160002060000160006101000a81548173ffffffffffffffffffffffffffffffffffffffff021916908373ffffffffffffffffffffffffffffffffffffffff16021790555082602001516006600083815260200190815260200160002060000160146101000a81548167ffffffffffffffff021916908367ffffffffffffffff1602179055505b5b50828473ffffffffffffffffffffffffffffffffffffffff168673ffffffffffffffffffffffffffffffffffffffff167fddf252ad1be2c89b69c2b068fc378daa952ba7f163c4a11628f55a4df523b3ef60405160405180910390a461382e8585856001613de2565b5050505050565b6000826138428584613de8565b1490509392505050565b613866828260405180602001604052806000815250613e83565b5050565b61387261426a565b6000829050600154811015613aaf576000600660008381526020019081526020016000206040518060600160405290816000820160009054906101000a900473ffffffffffffffffffffffffffffffffffffffff1673ffffffffffffffffffffffffffffffffffffffff1673ffffffffffffffffffffffffffffffffffffffff1681526020016000820160149054906101000a900467ffffffffffffffff1667ffffffffffffffff1667ffffffffffffffff16815260200160008201601c9054906101000a900460ff16151515158152505090508060400151613aad57600073ffffffffffffffffffffffffffffffffffffffff16816000015173ffffffffffffffffffffffffffffffffffffffff1614613991578092505050613ae1565b5b600115613aac57818060019003925050600660008381526020019081526020016000206040518060600160405290816000820160009054906101000a900473ffffffffffffffffffffffffffffffffffffffff1673ffffffffffffffffffffffffffffffffffffffff1673ffffffffffffffffffffffffffffffffffffffff1681526020016000820160149054906101000a900467ffffffffffffffff1667ffffffffffffffff1667ffffffffffffffff16815260200160008201601c9054906101000a900460ff1615151515815250509050600073ffffffffffffffffffffffffffffffffffffffff16816000015173ffffffffffffffffffffffffffffffffffffffff1614613aa7578092505050613ae1565b613992565b5b505b6040517fdf2d9b4200000000000000000000000000000000000000000000000000000000815260040160405180910390fd5b919050565b6000600560009054906101000a900460ff16158015613b235750600a600084815260200190815260200160002060009054906101000a900460ff16155b15613b9057613b478473ffffffffffffffffffffffffffffffffffffffff1661326f565b15613b87576040517f08c379a0000000000000000000000000000000000000000000000000000000008152600401613b7e90614db2565b60405180910390fd5b60019050613b95565b600190505b949350505050565b6060600e8054613bac90615227565b80601f0160208091040260200160405190810160405280929190818152602001828054613bd890615227565b8015613c255780601f10613bfa57610100808354040283529160200191613c25565b820191906000526020600020905b815481529060010190602001808311613c0857829003601f168201915b5050505050905090565b60606000821415613c77576040518060400160405280600181526020017f30000000000000000000000000000000000000000000000000000000000000008152509050613dd7565b600082905060005b60008214613ca9578080613c929061528a565b915050600a82613ca29190615096565b9150613c7f565b60008167ffffffffffffffff811115613ceb577f4e487b7100000000000000000000000000000000000000000000000000000000600052604160045260246000fd5b6040519080825280601f01601f191660200182016040528015613d1d5781602001600182028036833780820191505090505b5090505b60008514613dd057600182613d369190615121565b9150600a85613d4591906152f7565b6030613d519190615040565b60f81b818381518110613d8d577f4e487b7100000000000000000000000000000000000000000000000000000000600052603260045260246000fd5b60200101907effffffffffffffffffffffffffffffffffffffffffffffffffffffffffffff1916908160001a905350600a85613dc99190615096565b9450613d21565b8093505050505b919050565b50505050565b50505050565b60008082905060005b8451811015613e78576000858281518110613e35577f4e487b7100000000000000000000000000000000000000000000000000000000600052603260045260246000fd5b60200260200101519050808311613e5757613e508382613e95565b9250613e64565b613e618184613e95565b92505b508080613e709061528a565b915050613df1565b508091505092915050565b613e908383836001613eac565b505050565b600082600052816020526040600020905092915050565b60006001549050600073ffffffffffffffffffffffffffffffffffffffff168573ffffffffffffffffffffffffffffffffffffffff161415613f1a576040517f2e07630000000000000000000000000000000000000000000000000000000000815260040160405180910390fd5b6000841415613f55576040517fb562e8dd00000000000000000000000000000000000000000000000000000000815260040160405180910390fd5b613f626000868387613ddc565b83600760008773ffffffffffffffffffffffffffffffffffffffff1673ffffffffffffffffffffffffffffffffffffffff16815260200190815260200160002060000160008282829054906101000a900467ffffffffffffffff160192506101000a81548167ffffffffffffffff021916908367ffffffffffffffff16021790555083600760008773ffffffffffffffffffffffffffffffffffffffff1673ffffffffffffffffffffffffffffffffffffffff16815260200190815260200160002060000160088282829054906101000a900467ffffffffffffffff160192506101000a81548167ffffffffffffffff021916908367ffffffffffffffff160217905550846006600083815260200190815260200160002060000160006101000a81548173ffffffffffffffffffffffffffffffffffffffff021916908373ffffffffffffffffffffffffffffffffffffffff160217905550426006600083815260200190815260200160002060000160146101000a81548167ffffffffffffffff021916908367ffffffffffffffff160217905550600081905060005b858110156141c757818773ffffffffffffffffffffffffffffffffffffffff16600073ffffffffffffffffffffffffffffffffffffffff167fddf252ad1be2c89b69c2b068fc378daa952ba7f163c4a11628f55a4df523b3ef60405160405180910390a483801561417b57506141796000888488613ae6565b155b156141b2576040517fd1a57ed600000000000000000000000000000000000000000000000000000000815260040160405180910390fd5b81806001019250508080600101915050614100565b5080600181905550506141dd6000868387613de2565b5050505050565b8280546141f090615227565b90600052602060002090601f0160209004810192826142125760008555614259565b82601f1061422b57805160ff1916838001178555614259565b82800160010185558215614259579182015b8281111561425857825182559160200191906001019061423d565b5b50905061426691906142ad565b5090565b6040518060600160405280600073ffffffffffffffffffffffffffffffffffffffff168152602001600067ffffffffffffffff1681526020016000151581525090565b5b808211156142c65760008160009055506001016142ae565b5090565b60006142dd6142d884614f32565b614f0d565b905080838252602082019050828560208602820111156142fc57600080fd5b60005b8581101561432c578161431288826143b2565b8452602084019350602083019250506001810190506142ff565b5050509392505050565b600061434961434484614f5e565b614f0d565b90508281526020810184848401111561436157600080fd5b61436c8482856151e5565b509392505050565b600061438761438284614f8f565b614f0d565b90508281526020810184848401111561439f57600080fd5b6143aa8482856151e5565b509392505050565b6000813590506143c181615727565b92915050565b600082601f8301126143d857600080fd5b81356143e88482602086016142ca565b91505092915050565b60008083601f84011261440357600080fd5b8235905067ffffffffffffffff81111561441c57600080fd5b60208301915083602082028301111561443457600080fd5b9250929050565b60008135905061444a8161573e565b92915050565b60008135905061445f81615755565b92915050565b6000813590506144748161576c565b92915050565b600082601f83011261448b57600080fd5b813561449b848260208601614336565b91505092915050565b600082601f8301126144b557600080fd5b81356144c5848260208601614374565b91505092915050565b6000813590506144dd81615783565b92915050565b6000602082840312156144f557600080fd5b6000614503848285016143b2565b91505092915050565b6000806040838503121561451f57600080fd5b600061452d858286016143b2565b925050602061453e858286016143b2565b9150509250929050565b60008060006060848603121561455d57600080fd5b600061456b868287016143b2565b935050602061457c868287016143b2565b925050604061458d868287016144ce565b9150509250925092565b600080600080608085870312156145ad57600080fd5b60006145bb878288016143b2565b94505060206145cc878288016143b2565b93505060406145dd878288016144ce565b925050606085013567ffffffffffffffff8111156145fa57600080fd5b6146068782880161447a565b91505092959194509250565b6000806040838503121561462557600080fd5b6000614633858286016143b2565b92505060206146448582860161443b565b9150509250929050565b6000806040838503121561466157600080fd5b600061466f858286016143b2565b9250506020614680858286016144ce565b9150509250929050565b60006020828403121561469c57600080fd5b600082013567ffffffffffffffff8111156146b657600080fd5b6146c2848285016143c7565b91505092915050565b6000806000604084860312156146e057600080fd5b600084013567ffffffffffffffff8111156146fa57600080fd5b614706868287016143f1565b93509350506020614719868287016144ce565b9150509250925092565b60006020828403121561473557600080fd5b60006147438482850161443b565b91505092915050565b60006020828403121561475e57600080fd5b600061476c84828501614450565b91505092915050565b60006020828403121561478757600080fd5b600061479584828501614465565b91505092915050565b6000602082840312156147b057600080fd5b600082013567ffffffffffffffff8111156147ca57600080fd5b6147d6848285016144a4565b91505092915050565b6000602082840312156147f157600080fd5b60006147ff848285016144ce565b91505092915050565b6000806040838503121561481b57600080fd5b6000614829858286016144ce565b925050602061483a8582860161443b565b9150509250929050565b60006148508383614c03565b60208301905092915050565b61486581615167565b82525050565b61487481615155565b82525050565b61488b61488682615155565b6152d3565b82525050565b600061489c82614fe5565b6148a68185615008565b93506148b183614fc0565b8060005b838110156148e25781516148c98882614844565b97506148d483614ffb565b9250506001810190506148b5565b5085935050505092915050565b6148f881615179565b82525050565b61490781615185565b82525050565b600061491882614ff0565b6149228185615024565b93506149328185602086016151f4565b61493b816153e4565b840191505092915050565b600061495182614ff0565b61495b8185615035565b935061496b8185602086016151f4565b80840191505092915050565b6000815461498481615227565b61498e8186615035565b945060018216600081146149a957600181146149ba576149ed565b60ff198316865281860193506149ed565b6149c385614fd0565b60005b838110156149e5578154818901526001820191506020810190506149c6565b838801955050505b50505092915050565b6000614a03602e83615024565b9150614a0e82615402565b604082019050919050565b6000614a26602683615024565b9150614a3182615451565b604082019050919050565b6000614a49601083615024565b9150614a54826154a0565b602082019050919050565b6000614a6c601883615024565b9150614a77826154c9565b602082019050919050565b6000614a8f603283615024565b9150614a9a826154f2565b604082019050919050565b6000614ab2600f83615024565b9150614abd82615541565b602082019050919050565b6000614ad5601983615024565b9150614ae08261556a565b602082019050919050565b6000614af8600d83615024565b9150614b0382615593565b602082019050919050565b6000614b1b602f83615024565b9150614b26826155bc565b604082019050919050565b6000614b3e602083615024565b9150614b498261560b565b602082019050919050565b6000614b61602f83615024565b9150614b6c82615634565b604082019050919050565b6000614b84601683615024565b9150614b8f82615683565b602082019050919050565b6000614ba7602a83615024565b9150614bb2826156ac565b604082019050919050565b6000614bca600083615019565b9150614bd5826156fb565b600082019050919050565b6000614bed601083615024565b9150614bf8826156fe565b602082019050919050565b614c0c816151db565b82525050565b614c1b816151db565b82525050565b6000614c2d828461487a565b60148201915081905092915050565b6000614c488286614946565b9150614c548285614946565b9150614c608284614977565b9150819050949350505050565b6000614c7882614bbd565b9150819050919050565b6000602082019050614c97600083018461486b565b92915050565b6000602082019050614cb2600083018461485c565b92915050565b60006020820190508181036000830152614cd28184614891565b905092915050565b6000602082019050614cef60008301846148ef565b92915050565b6000602082019050614d0a60008301846148fe565b92915050565b60006020820190508181036000830152614d2a818461490d565b905092915050565b60006020820190508181036000830152614d4b816149f6565b9050919050565b60006020820190508181036000830152614d6b81614a19565b9050919050565b60006020820190508181036000830152614d8b81614a3c565b9050919050565b60006020820190508181036000830152614dab81614a5f565b9050919050565b60006020820190508181036000830152614dcb81614a82565b9050919050565b60006020820190508181036000830152614deb81614aa5565b9050919050565b60006020820190508181036000830152614e0b81614ac8565b9050919050565b60006020820190508181036000830152614e2b81614aeb565b9050919050565b60006020820190508181036000830152614e4b81614b0e565b9050919050565b60006020820190508181036000830152614e6b81614b31565b9050919050565b60006020820190508181036000830152614e8b81614b54565b9050919050565b60006020820190508181036000830152614eab81614b77565b9050919050565b60006020820190508181036000830152614ecb81614b9a565b9050919050565b60006020820190508181036000830152614eeb81614be0565b9050919050565b6000602082019050614f076000830184614c12565b92915050565b6000614f17614f28565b9050614f238282615259565b919050565b6000604051905090565b600067ffffffffffffffff821115614f4d57614f4c6153b5565b5b602082029050602081019050919050565b600067ffffffffffffffff821115614f7957614f786153b5565b5b614f82826153e4565b9050602081019050919050565b600067ffffffffffffffff821115614faa57614fa96153b5565b5b614fb3826153e4565b9050602081019050919050565b6000819050602082019050919050565b60008190508160005260206000209050919050565b600081519050919050565b600081519050919050565b6000602082019050919050565b600082825260208201905092915050565b600081905092915050565b600082825260208201905092915050565b600081905092915050565b600061504b826151db565b9150615056836151db565b9250827fffffffffffffffffffffffffffffffffffffffffffffffffffffffffffffffff0382111561508b5761508a615328565b5b828201905092915050565b60006150a1826151db565b91506150ac836151db565b9250826150bc576150bb615357565b5b828204905092915050565b60006150d2826151db565b91506150dd836151db565b9250817fffffffffffffffffffffffffffffffffffffffffffffffffffffffffffffffff048311821515161561511657615115615328565b5b828202905092915050565b600061512c826151db565b9150615137836151db565b92508282101561514a57615149615328565b5b828203905092915050565b6000615160826151bb565b9050919050565b6000615172826151bb565b9050919050565b60008115159050919050565b6000819050919050565b60007fffffffff0000000000000000000000000000000000000000000000000000000082169050919050565b600073ffffffffffffffffffffffffffffffffffffffff82169050919050565b6000819050919050565b82818337600083830152505050565b60005b838110156152125780820151818401526020810190506151f7565b83811115615221576000848401525b50505050565b6000600282049050600182168061523f57607f821691505b6020821081141561525357615252615386565b5b50919050565b615262826153e4565b810181811067ffffffffffffffff82111715615281576152806153b5565b5b80604052505050565b6000615295826151db565b91507fffffffffffffffffffffffffffffffffffffffffffffffffffffffffffffffff8214156152c8576152c7615328565b5b600182019050919050565b60006152de826152e5565b9050919050565b60006152f0826153f5565b9050919050565b6000615302826151db565b915061530d836151db565b92508261531d5761531c615357565b5b828206905092915050565b7f4e487b7100000000000000000000000000000000000000000000000000000000600052601160045260246000fd5b7f4e487b7100000000000000000000000000000000000000000000000000000000600052601260045260246000fd5b7f4e487b7100000000000000000000000000000000000000000000000000000000600052602260045260246000fd5b7f4e487b7100000000000000000000000000000000000000000000000000000000600052604160045260246000fd5b6000601f19601f8301169050919050565b60008160601b9050919050565b7f4d696e696d756d2031204e46542068617320746f206265206d696e746564207060008201527f6572207472616e73616374696f6e000000000000000000000000000000000000602082015250565b7f4f776e61626c653a206e6577206f776e657220697320746865207a65726f206160008201527f6464726573730000000000000000000000000000000000000000000000000000602082015250565b7f436f6e74726163742044656e6965642e00000000000000000000000000000000600082015250565b7f5075626c6963206d696e74206e6f7420656e61626c6564210000000000000000600082015250565b7f546f6b656e207472616e7366657220746f20636f6e747261637420616464726560008201527f7373206973206e6f7420616c6c6f7765642e0000000000000000000000000000602082015250565b7f496e76616c696420546f6b656e49640000000000000000000000000000000000600082015250565b7f6d61782070657220616464726573732065786365656465642100000000000000600082015250565b7f50726f6f6620496e76616c696400000000000000000000000000000000000000600082015250565b7f45746865722073656e7420776974682074686973207472616e73616374696f6e60008201527f206973206e6f7420636f72726563740000000000000000000000000000000000602082015250565b7f4f776e61626c653a2063616c6c6572206973206e6f7420746865206f776e6572600082015250565b7f4552433732314d657461646174613a2055524920717565727920666f72206e6f60008201527f6e6578697374656e7420746f6b656e0000000000000000000000000000000000602082015250565b7f45786365656473206d6178696d756d20737570706c7900000000000000000000600082015250565b7f4d6178696d756d204e4654732063616e206265206d696e74656420706572207460008201527f72616e73616374696f6e00000000000000000000000000000000000000000000602082015250565b50565b7f5472616e73666572206661696c65642e00000000000000000000000000000000600082015250565b61573081615155565b811461573b57600080fd5b50565b61574781615179565b811461575257600080fd5b50565b61575e81615185565b811461576957600080fd5b50565b6157758161518f565b811461578057600080fd5b50565b61578c816151db565b811461579757600080fd5b5056fea2646970667358221220c2e1898aada9001b9a35e795b98dd20e026787b88305e5c61700b9d030c0a2ff64736f6c63430008040033",
  "linkReferences": {},
  "deployedLinkReferences": {}
}