{
  "_format": "hh-sol-artifact-1",
  "contractName": "FelineSoulmate",
  "sourceName": "contracts/felinesoulmate.sol",
  "abi": [
    {
      "inputs": [],
      "stateMutability": "nonpayable",
      "type": "constructor"
    },
    {
      "inputs": [],
      "name": "ApprovalCallerNotOwnerNorApproved",
      "type": "error"
    },
    {
      "inputs": [],
      "name": "ApprovalQueryForNonexistentToken",
      "type": "error"
    },
    {
      "inputs": [],
      "name": "ApprovalToCurrentOwner",
      "type": "error"
    },
    {
      "inputs": [],
      "name": "ApproveToCaller",
      "type": "error"
    },
    {
      "inputs": [],
      "name": "BalanceQueryForZeroAddress",
      "type": "error"
    },
    {
      "inputs": [],
      "name": "MintToZeroAddress",
      "type": "error"
    },
    {
      "inputs": [],
      "name": "MintZeroQuantity",
      "type": "error"
    },
    {
      "inputs": [],
      "name": "OwnerIndexOutOfBounds",
      "type": "error"
    },
    {
      "inputs": [],
      "name": "OwnerQueryForNonexistentToken",
      "type": "error"
    },
    {
      "inputs": [],
      "name": "TokenIndexOutOfBounds",
      "type": "error"
    },
    {
      "inputs": [],
      "name": "TransferCallerNotOwnerNorApproved",
      "type": "error"
    },
    {
      "inputs": [],
      "name": "TransferFromIncorrectOwner",
      "type": "error"
    },
    {
      "inputs": [],
      "name": "TransferToNonERC721ReceiverImplementer",
      "type": "error"
    },
    {
      "inputs": [],
      "name": "TransferToZeroAddress",
      "type": "error"
    },
    {
      "anonymous": false,
      "inputs": [
        {
          "indexed": true,
          "internalType": "address",
          "name": "owner",
          "type": "address"
        },
        {
          "indexed": true,
          "internalType": "address",
          "name": "approved",
          "type": "address"
        },
        {
          "indexed": true,
          "internalType": "uint256",
          "name": "tokenId",
          "type": "uint256"
        }
      ],
      "name": "Approval",
      "type": "event"
    },
    {
      "anonymous": false,
      "inputs": [
        {
          "indexed": true,
          "internalType": "address",
          "name": "owner",
          "type": "address"
        },
        {
          "indexed": true,
          "internalType": "address",
          "name": "operator",
          "type": "address"
        },
        {
          "indexed": false,
          "internalType": "bool",
          "name": "approved",
          "type": "bool"
        }
      ],
      "name": "ApprovalForAll",
      "type": "event"
    },
    {
      "anonymous": false,
      "inputs": [
        {
          "indexed": false,
          "internalType": "uint256",
          "name": "totalMinted",
          "type": "uint256"
        }
      ],
      "name": "Minted",
      "type": "event"
    },
    {
      "anonymous": false,
      "inputs": [
        {
          "indexed": true,
          "internalType": "address",
          "name": "previousOwner",
          "type": "address"
        },
        {
          "indexed": true,
          "internalType": "address",
          "name": "newOwner",
          "type": "address"
        }
      ],
      "name": "OwnershipTransferred",
      "type": "event"
    },
    {
      "anonymous": false,
      "inputs": [
        {
          "indexed": true,
          "internalType": "address",
          "name": "from",
          "type": "address"
        },
        {
          "indexed": true,
          "internalType": "address",
          "name": "to",
          "type": "address"
        },
        {
          "indexed": true,
          "internalType": "uint256",
          "name": "tokenId",
          "type": "uint256"
        }
      ],
      "name": "Transfer",
      "type": "event"
    },
    {
      "inputs": [
        {
          "internalType": "uint256",
          "name": "",
          "type": "uint256"
        }
      ],
      "name": "_transferToContract",
      "outputs": [
        {
          "internalType": "bool",
          "name": "",
          "type": "bool"
        }
      ],
      "stateMutability": "view",
      "type": "function"
    },
    {
      "inputs": [
        {
          "internalType": "address",
          "name": "",
          "type": "address"
        }
      ],
      "name": "addressMintedBalance",
      "outputs": [
        {
          "internalType": "uint256",
          "name": "",
          "type": "uint256"
        }
      ],
      "stateMutability": "view",
      "type": "function"
    },
    {
      "inputs": [],
      "name": "allowedToContract",
      "outputs": [
        {
          "internalType": "bool",
          "name": "",
          "type": "bool"
        }
      ],
      "stateMutability": "view",
      "type": "function"
    },
    {
      "inputs": [
        {
          "internalType": "address",
          "name": "to",
          "type": "address"
        },
        {
          "internalType": "uint256",
          "name": "tokenId",
          "type": "uint256"
        }
      ],
      "name": "approve",
      "outputs": [],
      "stateMutability": "nonpayable",
      "type": "function"
    },
    {
      "inputs": [
        {
          "internalType": "address",
          "name": "owner",
          "type": "address"
        }
      ],
      "name": "balanceOf",
      "outputs": [
        {
          "internalType": "uint256",
          "name": "",
          "type": "uint256"
        }
      ],
      "stateMutability": "view",
      "type": "function"
    },
    {
      "inputs": [
        {
          "internalType": "uint256",
          "name": "_newMaxMintPerTx",
          "type": "uint256"
        }
      ],
      "name": "changeMaxMintPerTx",
      "outputs": [],
      "stateMutability": "nonpayable",
      "type": "function"
    },
    {
      "inputs": [
        {
          "internalType": "uint256",
          "name": "_newMaxMintPerWallet",
          "type": "uint256"
        }
      ],
      "name": "changeMaxMintPerWallet",
      "outputs": [],
      "stateMutability": "nonpayable",
      "type": "function"
    },
    {
      "inputs": [
        {
          "internalType": "uint256",
          "name": "_newMaxSupply",
          "type": "uint256"
        }
      ],
      "name": "changeMaxSupply",
      "outputs": [],
      "stateMutability": "nonpayable",
      "type": "function"
    },
    {
      "inputs": [
        {
          "internalType": "uint256",
          "name": "_newPrice",
          "type": "uint256"
        }
      ],
      "name": "changePrice",
      "outputs": [],
      "stateMutability": "nonpayable",
      "type": "function"
    },
    {
      "inputs": [
        {
          "internalType": "uint256",
          "name": "tokenId",
          "type": "uint256"
        }
      ],
      "name": "getApproved",
      "outputs": [
        {
          "internalType": "address",
          "name": "",
          "type": "address"
        }
      ],
      "stateMutability": "view",
      "type": "function"
    },
    {
      "inputs": [],
      "name": "getTokenUrl",
      "outputs": [
        {
          "internalType": "string",
          "name": "",
          "type": "string"
        }
      ],
      "stateMutability": "view",
      "type": "function"
    },
    {
      "inputs": [
        {
          "internalType": "address",
          "name": "owner",
          "type": "address"
        },
        {
          "internalType": "address",
          "name": "operator",
          "type": "address"
        }
      ],
      "name": "isApprovedForAll",
      "outputs": [
        {
          "internalType": "bool",
          "name": "",
          "type": "bool"
        }
      ],
      "stateMutability": "view",
      "type": "function"
    },
    {
      "inputs": [],
      "name": "isPrivateMintEnabled",
      "outputs": [
        {
          "internalType": "bool",
          "name": "",
          "type": "bool"
        }
      ],
      "stateMutability": "view",
      "type": "function"
    },
    {
      "inputs": [],
      "name": "isPublicMintEnabled",
      "outputs": [
        {
          "internalType": "bool",
          "name": "",
          "type": "bool"
        }
      ],
      "stateMutability": "view",
      "type": "function"
    },
    {
      "inputs": [],
      "name": "isRevealed",
      "outputs": [
        {
          "internalType": "bool",
          "name": "",
          "type": "bool"
        }
      ],
      "stateMutability": "view",
      "type": "function"
    },
    {
      "inputs": [],
      "name": "maxMintPerTx",
      "outputs": [
        {
          "internalType": "uint256",
          "name": "",
          "type": "uint256"
        }
      ],
      "stateMutability": "view",
      "type": "function"
    },
    {
      "inputs": [],
      "name": "maxMintPerWallet",
      "outputs": [
        {
          "internalType": "uint256",
          "name": "",
          "type": "uint256"
        }
      ],
      "stateMutability": "view",
      "type": "function"
    },
    {
      "inputs": [],
      "name": "maxSupply",
      "outputs": [
        {
          "internalType": "uint256",
          "name": "",
          "type": "uint256"
        }
      ],
      "stateMutability": "view",
      "type": "function"
    },
    {
      "inputs": [
        {
          "internalType": "uint256",
          "name": "_count",
          "type": "uint256"
        }
      ],
      "name": "mint",
      "outputs": [],
      "stateMutability": "payable",
      "type": "function"
    },
    {
      "inputs": [],
      "name": "name",
      "outputs": [
        {
          "internalType": "string",
          "name": "",
          "type": "string"
        }
      ],
      "stateMutability": "view",
      "type": "function"
    },
    {
      "inputs": [],
      "name": "owner",
      "outputs": [
        {
          "internalType": "address",
          "name": "",
          "type": "address"
        }
      ],
      "stateMutability": "view",
      "type": "function"
    },
    {
      "inputs": [
        {
          "internalType": "uint256",
          "name": "tokenId",
          "type": "uint256"
        }
      ],
      "name": "ownerOf",
      "outputs": [
        {
          "internalType": "address",
          "name": "",
          "type": "address"
        }
      ],
      "stateMutability": "view",
      "type": "function"
    },
    {
      "inputs": [],
      "name": "price",
      "outputs": [
        {
          "internalType": "uint256",
          "name": "",
          "type": "uint256"
        }
      ],
      "stateMutability": "view",
      "type": "function"
    },
    {
      "inputs": [
        {
          "internalType": "bytes32[]",
          "name": "_merkleProof",
          "type": "bytes32[]"
        },
        {
          "internalType": "uint256",
          "name": "_count",
          "type": "uint256"
        }
      ],
      "name": "privateMint",
      "outputs": [],
      "stateMutability": "payable",
      "type": "function"
    },
    {
      "inputs": [],
      "name": "privateMintMerkleRoot",
      "outputs": [
        {
          "internalType": "bytes32",
          "name": "",
          "type": "bytes32"
        }
      ],
      "stateMutability": "view",
      "type": "function"
    },
    {
      "inputs": [
        {
          "internalType": "address",
          "name": "",
          "type": "address"
        }
      ],
      "name": "privateMintParticipants",
      "outputs": [
        {
          "internalType": "bool",
          "name": "",
          "type": "bool"
        }
      ],
      "stateMutability": "view",
      "type": "function"
    },
    {
      "inputs": [],
      "name": "renounceOwnership",
      "outputs": [],
      "stateMutability": "nonpayable",
      "type": "function"
    },
    {
      "inputs": [
        {
          "internalType": "address",
          "name": "from",
          "type": "address"
        },
        {
          "internalType": "address",
          "name": "to",
          "type": "address"
        },
        {
          "internalType": "uint256",
          "name": "tokenId",
          "type": "uint256"
        }
      ],
      "name": "safeTransferFrom",
      "outputs": [],
      "stateMutability": "nonpayable",
      "type": "function"
    },
    {
      "inputs": [
        {
          "internalType": "address",
          "name": "from",
          "type": "address"
        },
        {
          "internalType": "address",
          "name": "to",
          "type": "address"
        },
        {
          "internalType": "uint256",
          "name": "tokenId",
          "type": "uint256"
        },
        {
          "internalType": "bytes",
          "name": "_data",
          "type": "bytes"
        }
      ],
      "name": "safeTransferFrom",
      "outputs": [],
      "stateMutability": "nonpayable",
      "type": "function"
    },
    {
      "inputs": [],
      "name": "setAllowToContract",
      "outputs": [],
      "stateMutability": "nonpayable",
      "type": "function"
    },
    {
      "inputs": [
        {
          "internalType": "uint256",
          "name": "_tokenId",
          "type": "uint256"
        },
        {
          "internalType": "bool",
          "name": "_allow",
          "type": "bool"
        }
      ],
      "name": "setAllowTokenToContract",
      "outputs": [],
      "stateMutability": "nonpayable",
      "type": "function"
    },
    {
      "inputs": [
        {
          "internalType": "address",
          "name": "operator",
          "type": "address"
        },
        {
          "internalType": "bool",
          "name": "approved",
          "type": "bool"
        }
      ],
      "name": "setApprovalForAll",
      "outputs": [],
      "stateMutability": "nonpayable",
      "type": "function"
    },
    {
      "inputs": [
        {
          "internalType": "string",
          "name": "_hiddenMetadataUri",
          "type": "string"
        }
      ],
      "name": "setHiddenMetadataUri",
      "outputs": [],
      "stateMutability": "nonpayable",
      "type": "function"
    },
    {
      "inputs": [
        {
          "internalType": "bool",
          "name": "isPrivateMintEnabled_",
          "type": "bool"
        }
      ],
      "name": "setIsPrivateMintEnabled",
      "outputs": [],
      "stateMutability": "nonpayable",
      "type": "function"
    },
    {
      "inputs": [
        {
          "internalType": "bool",
          "name": "isPublicMintEnabled_",
          "type": "bool"
        }
      ],
      "name": "setIsPublicMintEnabled",
      "outputs": [],
      "stateMutability": "nonpayable",
      "type": "function"
    },
    {
      "inputs": [
        {
          "internalType": "bool",
          "name": "_state",
          "type": "bool"
        }
      ],
      "name": "setIsRevealed",
      "outputs": [],
      "stateMutability": "nonpayable",
      "type": "function"
    },
    {
      "inputs": [
        {
          "internalType": "bytes32",
          "name": "_privateMintMerkleRoot",
          "type": "bytes32"
        }
      ],
      "name": "setPrivateMintMerkleRoot",
      "outputs": [],
      "stateMutability": "nonpayable",
      "type": "function"
    },
    {
      "inputs": [
        {
          "internalType": "string",
          "name": "_uriPrefix",
          "type": "string"
        }
      ],
      "name": "setUriPrefix",
      "outputs": [],
      "stateMutability": "nonpayable",
      "type": "function"
    },
    {
      "inputs": [
        {
          "internalType": "string",
          "name": "_uriSuffix",
          "type": "string"
        }
      ],
      "name": "setUriSuffix",
      "outputs": [],
      "stateMutability": "nonpayable",
      "type": "function"
    },
    {
      "inputs": [
        {
          "internalType": "address",
          "name": "withdrawWalletAddress_",
          "type": "address"
        }
      ],
      "name": "setWithdrawWallet",
      "outputs": [],
      "stateMutability": "nonpayable",
      "type": "function"
    },
    {
      "inputs": [
        {
          "internalType": "bytes4",
          "name": "interfaceId",
          "type": "bytes4"
        }
      ],
      "name": "supportsInterface",
      "outputs": [
        {
          "internalType": "bool",
          "name": "",
          "type": "bool"
        }
      ],
      "stateMutability": "view",
      "type": "function"
    },
    {
      "inputs": [],
      "name": "symbol",
      "outputs": [
        {
          "internalType": "string",
          "name": "",
          "type": "string"
        }
      ],
      "stateMutability": "view",
      "type": "function"
    },
    {
      "inputs": [
        {
          "internalType": "address[]",
          "name": "tos",
          "type": "address[]"
        }
      ],
      "name": "teamMint",
      "outputs": [],
      "stateMutability": "nonpayable",
      "type": "function"
    },
    {
      "inputs": [
        {
          "internalType": "uint256",
          "name": "index",
          "type": "uint256"
        }
      ],
      "name": "tokenByIndex",
      "outputs": [
        {
          "internalType": "uint256",
          "name": "",
          "type": "uint256"
        }
      ],
      "stateMutability": "view",
      "type": "function"
    },
    {
      "inputs": [
        {
          "internalType": "address",
          "name": "owner",
          "type": "address"
        },
        {
          "internalType": "uint256",
          "name": "index",
          "type": "uint256"
        }
      ],
      "name": "tokenOfOwnerByIndex",
      "outputs": [
        {
          "internalType": "uint256",
          "name": "",
          "type": "uint256"
        }
      ],
      "stateMutability": "view",
      "type": "function"
    },
    {
      "inputs": [
        {
          "internalType": "uint256",
          "name": "_tokenId",
          "type": "uint256"
        }
      ],
      "name": "tokenURI",
      "outputs": [
        {
          "internalType": "string",
          "name": "",
          "type": "string"
        }
      ],
      "stateMutability": "nonpayable",
      "type": "function"
    },
    {
      "inputs": [],
      "name": "totalSupply",
      "outputs": [
        {
          "internalType": "uint256",
          "name": "",
          "type": "uint256"
        }
      ],
      "stateMutability": "view",
      "type": "function"
    },
    {
      "inputs": [
        {
          "internalType": "address",
          "name": "from",
          "type": "address"
        },
        {
          "internalType": "address",
          "name": "to",
          "type": "address"
        },
        {
          "internalType": "uint256",
          "name": "tokenId",
          "type": "uint256"
        }
      ],
      "name": "transferFrom",
      "outputs": [],
      "stateMutability": "nonpayable",
      "type": "function"
    },
    {
      "inputs": [
        {
          "internalType": "address",
          "name": "newOwner",
          "type": "address"
        }
      ],
      "name": "transferOwnership",
      "outputs": [],
      "stateMutability": "nonpayable",
      "type": "function"
    },
    {
      "inputs": [],
      "name": "uriSuffix",
      "outputs": [
        {
          "internalType": "string",
          "name": "",
          "type": "string"
        }
      ],
      "stateMutability": "view",
      "type": "function"
    },
    {
      "inputs": [
        {
          "internalType": "address",
          "name": "_owner",
          "type": "address"
        }
      ],
      "name": "walletOfOwner",
      "outputs": [
        {
          "internalType": "uint256[]",
          "name": "",
          "type": "uint256[]"
        }
      ],
      "stateMutability": "view",
      "type": "function"
    },
    {
      "inputs": [],
      "name": "withdraw",
      "outputs": [],
      "stateMutability": "nonpayable",
      "type": "function"
    },
    {
      "inputs": [],
      "name": "withdrawWallet",
      "outputs": [
        {
          "internalType": "address payable",
          "name": "",
          "type": "address"
        }
      ],
      "stateMutability": "view",
      "type": "function"
    }
  ],
  "bytecode": "0x6080604052600180556000600560006101000a81548160ff02191690831515021790555060405180602001604052806000815250600e90805190602001906200004a929190620003d2565b506040518060400160405280600581526020017f2e6a736f6e000000000000000000000000000000000000000000000000000000815250600f908051906020019062000098929190620003d2565b506115b360115560006012556005601355600560145567016345785d8a00006015556001601760146101000a81548160ff0219169083151502179055506001601760156101000a81548160ff0219169083151502179055506000601760166101000a81548160ff0219169083151502179055503480156200011857600080fd5b506040518060400160405280600e81526020017f46656c696e65536f756c6d6174650000000000000000000000000000000000008152506040518060400160405280600281526020017f4653000000000000000000000000000000000000000000000000000000000000815250600062000197620002f660201b60201c565b9050806000806101000a81548173ffffffffffffffffffffffffffffffffffffffff021916908373ffffffffffffffffffffffffffffffffffffffff1602179055508073ffffffffffffffffffffffffffffffffffffffff16600073ffffffffffffffffffffffffffffffffffffffff167f8be0079c531659141344cd1fd0a4f28419497f9722a3daafe3b4186f6b6457e060405160405180910390a35081600390805190602001906200024d929190620003d2565b50806004908051906020019062000266929190620003d2565b50505033601760006101000a81548173ffffffffffffffffffffffffffffffffffffffff021916908373ffffffffffffffffffffffffffffffffffffffff160217905550620002f06040518060400160405280601a81526020017f697066733a2f2f5f5f4349445f5f2f68696464656e2e6a736f6e000000000000815250620002fe60201b60201c565b6200056a565b600033905090565b6200030e620002f660201b60201c565b73ffffffffffffffffffffffffffffffffffffffff1662000334620003a960201b60201c565b73ffffffffffffffffffffffffffffffffffffffff16146200038d576040517f08c379a00000000000000000000000000000000000000000000000000000000081526004016200038490620004a9565b60405180910390fd5b8060109080519060200190620003a5929190620003d2565b5050565b60008060009054906101000a900473ffffffffffffffffffffffffffffffffffffffff16905090565b828054620003e090620004dc565b90600052602060002090601f01602090048101928262000404576000855562000450565b82601f106200041f57805160ff191683800117855562000450565b8280016001018555821562000450579182015b828111156200044f57825182559160200191906001019062000432565b5b5090506200045f919062000463565b5090565b5b808211156200047e57600081600090555060010162000464565b5090565b600062000491602083620004cb565b91506200049e8262000541565b602082019050919050565b60006020820190508181036000830152620004c48162000482565b9050919050565b600082825260208201905092915050565b60006002820490506001821680620004f557607f821691505b602082108114156200050c576200050b62000512565b5b50919050565b7f4e487b7100000000000000000000000000000000000000000000000000000000600052602260045260246000fd5b7f4f776e61626c653a2063616c6c6572206973206e6f7420746865206f776e6572600082015250565b615abf806200057a6000396000f3fe60806040526004361061031a5760003560e01c806355a55465116101ab578063a0712d68116100f7578063c87b56dd11610095578063e80d1a1c1161006f578063e80d1a1c14610ba2578063e985e9c514610bcd578063f002858514610c0a578063f2fde38b14610c335761031a565b8063c87b56dd14610b0f578063d5abeb0114610b4c578063de7fcb1d14610b775761031a565b8063ac2e3397116100d1578063ac2e339714610a53578063b228d92514610a7e578063b88d4fde14610aa9578063c080519714610ad25761031a565b8063a0712d68146109e5578063a22cb46514610a01578063a2b40d1914610a2a5761031a565b806385d178f41161016457806395d89b411161013e57806395d89b411461093b5780639ad01e6f146109665780639e8b30eb1461098f578063a035b1fe146109ba5761031a565b806385d178f4146108bc5780638da5cb5b146108e75780639373f432146109125761031a565b806355a55465146107c25780636352211e146107eb57806370a0823114610828578063715018a6146108655780637ec4a6591461087c578063801fe59b146108a55761031a565b806328818b961161026a57806349a5980a116102235780634fdd43cb116101fd5780634fdd43cb1461071a57806354214f69146107435780635503a0e81461076e578063559e75b3146107995761031a565b806349a5980a146106895780634aaf78f1146106b25780634f6ccce7146106dd5761031a565b806328818b961461058a5780632f745c59146105a65780633ccfd60b146105e3578063404c7cdd146105fa57806342842e0e14610623578063438b63001461064c5761031a565b80631465f531116102d757806318cae269116102b157806318cae269146104be5780631d778165146104fb5780632373ac221461053857806323b872dd146105615761031a565b80631465f5311461044157806316ba10e01461046a57806318160ddd146104935761031a565b80630116bc2d1461031f57806301ffc9a71461034a57806306fdde0314610387578063081812fc146103b257806308ea9265146103ef578063095ea7b314610418575b600080fd5b34801561032b57600080fd5b50610334610c5c565b6040516103419190614f80565b60405180910390f35b34801561035657600080fd5b50610371600480360381019061036c91906149f8565b610c6f565b60405161037e9190614f80565b60405180910390f35b34801561039357600080fd5b5061039c610db9565b6040516103a99190614fb6565b60405180910390f35b3480156103be57600080fd5b506103d960048036038101906103d49190614a62565b610e4b565b6040516103e69190614f28565b60405180910390f35b3480156103fb57600080fd5b5061041660048036038101906104119190614a62565b610ec7565b005b34801561042457600080fd5b5061043f600480360381019061043a91906148d1565b610f4d565b005b34801561044d57600080fd5b50610468600480360381019061046391906149cf565b611108565b005b34801561047657600080fd5b50610491600480360381019061048c9190614a21565b61118e565b005b34801561049f57600080fd5b506104a8611224565b6040516104b591906151b8565b60405180910390f35b3480156104ca57600080fd5b506104e560048036038101906104e09190614766565b61122e565b6040516104f291906151b8565b60405180910390f35b34801561050757600080fd5b50610522600480360381019061051d9190614766565b611246565b60405161052f9190614f80565b60405180910390f35b34801561054457600080fd5b5061055f600480360381019061055a91906149a6565b611266565b005b34801561056d57600080fd5b50610588600480360381019061058391906147cb565b6112ff565b005b6105a4600480360381019061059f919061494e565b61130f565b005b3480156105b257600080fd5b506105cd60048036038101906105c891906148d1565b61181f565b6040516105da91906151b8565b60405180910390f35b3480156105ef57600080fd5b506105f86119f9565b005b34801561060657600080fd5b50610621600480360381019061061c9190614a62565b611b46565b005b34801561062f57600080fd5b5061064a600480360381019061064591906147cb565b611bcc565b005b34801561065857600080fd5b50610673600480360381019061066e9190614766565b611bec565b6040516106809190614f5e565b60405180910390f35b34801561069557600080fd5b506106b060048036038101906106ab91906149a6565b611d43565b005b3480156106be57600080fd5b506106c7611ddc565b6040516106d49190614f80565b60405180910390f35b3480156106e957600080fd5b5061070460048036038101906106ff9190614a62565b611def565b60405161071191906151b8565b60405180910390f35b34801561072657600080fd5b50610741600480360381019061073c9190614a21565b611f34565b005b34801561074f57600080fd5b50610758611fca565b6040516107659190614f80565b60405180910390f35b34801561077a57600080fd5b50610783611fdd565b6040516107909190614fb6565b60405180910390f35b3480156107a557600080fd5b506107c060048036038101906107bb91906149a6565b61206b565b005b3480156107ce57600080fd5b506107e960048036038101906107e49190614a8b565b612104565b005b3480156107f757600080fd5b50610812600480360381019061080d9190614a62565b6121af565b60405161081f9190614f28565b60405180910390f35b34801561083457600080fd5b5061084f600480360381019061084a9190614766565b6121c5565b60405161085c91906151b8565b60405180910390f35b34801561087157600080fd5b5061087a612295565b005b34801561088857600080fd5b506108a3600480360381019061089e9190614a21565b6123cf565b005b3480156108b157600080fd5b506108ba612465565b005b3480156108c857600080fd5b506108d161250d565b6040516108de9190614f43565b60405180910390f35b3480156108f357600080fd5b506108fc612533565b6040516109099190614f28565b60405180910390f35b34801561091e57600080fd5b5061093960048036038101906109349190614766565b61255c565b005b34801561094757600080fd5b5061095061261c565b60405161095d9190614fb6565b60405180910390f35b34801561097257600080fd5b5061098d60048036038101906109889190614a62565b6126ae565b005b34801561099b57600080fd5b506109a4612734565b6040516109b19190614f9b565b60405180910390f35b3480156109c657600080fd5b506109cf61273a565b6040516109dc91906151b8565b60405180910390f35b6109ff60048036038101906109fa9190614a62565b612740565b005b348015610a0d57600080fd5b50610a286004803603810190610a239190614895565b612aaf565b005b348015610a3657600080fd5b50610a516004803603810190610a4c9190614a62565b612da7565b005b348015610a5f57600080fd5b50610a68612e2d565b604051610a759190614fb6565b60405180910390f35b348015610a8a57600080fd5b50610a93612eeb565b604051610aa091906151b8565b60405180910390f35b348015610ab557600080fd5b50610ad06004803603810190610acb919061481a565b612ef1565b005b348015610ade57600080fd5b50610af96004803603810190610af49190614a62565b612f44565b604051610b069190614f80565b60405180910390f35b348015610b1b57600080fd5b50610b366004803603810190610b319190614a62565b612f64565b604051610b439190614fb6565b60405180910390f35b348015610b5857600080fd5b50610b616130bd565b604051610b6e91906151b8565b60405180910390f35b348015610b8357600080fd5b50610b8c6130c3565b604051610b9991906151b8565b60405180910390f35b348015610bae57600080fd5b50610bb76130c9565b604051610bc49190614f80565b60405180910390f35b348015610bd957600080fd5b50610bf46004803603810190610bef919061478f565b6130dc565b604051610c019190614f80565b60405180910390f35b348015610c1657600080fd5b50610c316004803603810190610c2c919061490d565b613170565b005b348015610c3f57600080fd5b50610c5a6004803603810190610c559190614766565b61325a565b005b601760169054906101000a900460ff1681565b60007f80ac58cd000000000000000000000000000000000000000000000000000000007bffffffffffffffffffffffffffffffffffffffffffffffffffffffff1916827bffffffffffffffffffffffffffffffffffffffffffffffffffffffff19161480610d3a57507f5b5e139f000000000000000000000000000000000000000000000000000000007bffffffffffffffffffffffffffffffffffffffffffffffffffffffff1916827bffffffffffffffffffffffffffffffffffffffffffffffffffffffff1916145b80610da257507f780e9d63000000000000000000000000000000000000000000000000000000007bffffffffffffffffffffffffffffffffffffffffffffffffffffffff1916827bffffffffffffffffffffffffffffffffffffffffffffffffffffffff1916145b80610db25750610db182613403565b5b9050919050565b606060038054610dc8906154ed565b80601f0160208091040260200160405190810160405280929190818152602001828054610df4906154ed565b8015610e415780601f10610e1657610100808354040283529160200191610e41565b820191906000526020600020905b815481529060010190602001808311610e2457829003601f168201915b5050505050905090565b6000610e568261346d565b610e8c576040517fcf4700e400000000000000000000000000000000000000000000000000000000815260040160405180910390fd5b6008600083815260200190815260200160002060009054906101000a900473ffffffffffffffffffffffffffffffffffffffff169050919050565b610ecf6134ea565b73ffffffffffffffffffffffffffffffffffffffff16610eed612533565b73ffffffffffffffffffffffffffffffffffffffff1614610f43576040517f08c379a0000000000000000000000000000000000000000000000000000000008152600401610f3a90615118565b60405180910390fd5b8060148190555050565b6000610f58826121af565b90508073ffffffffffffffffffffffffffffffffffffffff168373ffffffffffffffffffffffffffffffffffffffff161415610fc0576040517f943f7b8c00000000000000000000000000000000000000000000000000000000815260040160405180910390fd5b8073ffffffffffffffffffffffffffffffffffffffff16610fdf6134ea565b73ffffffffffffffffffffffffffffffffffffffff1614158015611011575061100f8161100a6134ea565b6130dc565b155b15611048576040517fcfb3b94200000000000000000000000000000000000000000000000000000000815260040160405180910390fd5b600560009054906101000a900460ff161580156110835750600a600083815260200190815260200160002060009054906101000a900460ff16155b156110f7576110a78373ffffffffffffffffffffffffffffffffffffffff166134f2565b156110e7576040517f08c379a00000000000000000000000000000000000000000000000000000000081526004016110de90615058565b60405180910390fd5b6110f2838383613515565b611103565b611102838383613515565b5b505050565b6111106134ea565b73ffffffffffffffffffffffffffffffffffffffff1661112e612533565b73ffffffffffffffffffffffffffffffffffffffff1614611184576040517f08c379a000000000000000000000000000000000000000000000000000000000815260040161117b90615118565b60405180910390fd5b8060188190555050565b6111966134ea565b73ffffffffffffffffffffffffffffffffffffffff166111b4612533565b73ffffffffffffffffffffffffffffffffffffffff161461120a576040517f08c379a000000000000000000000000000000000000000000000000000000000815260040161120190615118565b60405180910390fd5b80600f9080519060200190611220929190614467565b5050565b6000601254905090565b60166020528060005260406000206000915090505481565b60196020528060005260406000206000915054906101000a900460ff1681565b61126e6134ea565b73ffffffffffffffffffffffffffffffffffffffff1661128c612533565b73ffffffffffffffffffffffffffffffffffffffff16146112e2576040517f08c379a00000000000000000000000000000000000000000000000000000000081526004016112d990615118565b60405180910390fd5b80601760166101000a81548160ff02191690831515021790555050565b61130a8383836135c7565b505050565b601760169054906101000a900460ff161561135f576040517f08c379a000000000000000000000000000000000000000000000000000000000815260040161135690615038565b60405180910390fd5b3373ffffffffffffffffffffffffffffffffffffffff163273ffffffffffffffffffffffffffffffffffffffff16146113cd576040517f08c379a00000000000000000000000000000000000000000000000000000000081526004016113c490615018565b60405180910390fd5b601154816113d9611224565b6113e39190615306565b1115611424576040517f08c379a000000000000000000000000000000000000000000000000000000000815260040161141b90615158565b60405180910390fd5b60008111611467576040517f08c379a000000000000000000000000000000000000000000000000000000000815260040161145e90614fd8565b60405180910390fd5b601960003373ffffffffffffffffffffffffffffffffffffffff1673ffffffffffffffffffffffffffffffffffffffff16815260200190815260200160002060009054906101000a900460ff16156114f4576040517f08c379a00000000000000000000000000000000000000000000000000000000081526004016114eb906150b8565b60405180910390fd5b6114fc612533565b73ffffffffffffffffffffffffffffffffffffffff163373ffffffffffffffffffffffffffffffffffffffff161461165957601354811115611573576040517f08c379a000000000000000000000000000000000000000000000000000000000815260040161156a90615178565b60405180910390fd5b80601554611581919061538d565b3410156115c3576040517f08c379a00000000000000000000000000000000000000000000000000000000081526004016115ba906150f8565b60405180910390fd5b6000601660003373ffffffffffffffffffffffffffffffffffffffff1673ffffffffffffffffffffffffffffffffffffffff16815260200190815260200160002054905060145482826116169190615306565b1115611657576040517f08c379a000000000000000000000000000000000000000000000000000000000815260040161164e90615098565b60405180910390fd5b505b60003360405160200161166c9190614ec7565b6040516020818303038152906040528051906020012090506116d2848480806020026020016040519081016040528093929190818152602001838360200280828437600081840152601f19601f8201169050808301925050505050505060185483613ab8565b611711576040517f08c379a0000000000000000000000000000000000000000000000000000000008152600401611708906150d8565b60405180910390fd5b81601260008282546117239190615306565b9250508190555081601660003373ffffffffffffffffffffffffffffffffffffffff1673ffffffffffffffffffffffffffffffffffffffff16815260200190815260200160002060008282546117799190615306565b9250508190555061178a3383613acf565b6001601960003373ffffffffffffffffffffffffffffffffffffffff1673ffffffffffffffffffffffffffffffffffffffff16815260200190815260200160002060006101000a81548160ff0219169083151502179055507f176b02bb2d12439ff7a20b59f402cca16c76f50508b13ef3166a600eb719354a8260405161181191906151b8565b60405180910390a150505050565b600061182a836121c5565b8210611862576040517f0ddac30e00000000000000000000000000000000000000000000000000000000815260040160405180910390fd5b6000600154905060008060005b838110156119ed576000600660008381526020019081526020016000206040518060600160405290816000820160009054906101000a900473ffffffffffffffffffffffffffffffffffffffff1673ffffffffffffffffffffffffffffffffffffffff1673ffffffffffffffffffffffffffffffffffffffff1681526020016000820160149054906101000a900467ffffffffffffffff1667ffffffffffffffff1667ffffffffffffffff16815260200160008201601c9054906101000a900460ff161515151581525050905080604001511561194c57506119e0565b600073ffffffffffffffffffffffffffffffffffffffff16816000015173ffffffffffffffffffffffffffffffffffffffff161461198c57806000015192505b8773ffffffffffffffffffffffffffffffffffffffff168373ffffffffffffffffffffffffffffffffffffffff1614156119de57868414156119d55781955050505050506119f3565b83806001019450505b505b808060010191505061186f565b50600080fd5b92915050565b611a016134ea565b73ffffffffffffffffffffffffffffffffffffffff16611a1f612533565b73ffffffffffffffffffffffffffffffffffffffff1614611a75576040517f08c379a0000000000000000000000000000000000000000000000000000000008152600401611a6c90615118565b60405180910390fd5b6000601760009054906101000a900473ffffffffffffffffffffffffffffffffffffffff1673ffffffffffffffffffffffffffffffffffffffff1647604051611abd90614f13565b60006040518083038185875af1925050503d8060008114611afa576040519150601f19603f3d011682016040523d82523d6000602084013e611aff565b606091505b5050905080611b43576040517f08c379a0000000000000000000000000000000000000000000000000000000008152600401611b3a90615198565b60405180910390fd5b50565b611b4e6134ea565b73ffffffffffffffffffffffffffffffffffffffff16611b6c612533565b73ffffffffffffffffffffffffffffffffffffffff1614611bc2576040517f08c379a0000000000000000000000000000000000000000000000000000000008152600401611bb990615118565b60405180910390fd5b8060118190555050565b611be783838360405180602001604052806000815250612ef1565b505050565b60606000611bf9836121c5565b905060008167ffffffffffffffff811115611c3d577f4e487b7100000000000000000000000000000000000000000000000000000000600052604160045260246000fd5b604051908082528060200260200182016040528015611c6b5781602001602082028036833780820191505090505b50905060006001905060005b8381108015611c8857506011548211155b15611d37576000611c98836121af565b90508673ffffffffffffffffffffffffffffffffffffffff168173ffffffffffffffffffffffffffffffffffffffff161415611d235782848381518110611d08577f4e487b7100000000000000000000000000000000000000000000000000000000600052603260045260246000fd5b6020026020010181815250508180611d1f90615550565b9250505b8280611d2e90615550565b93505050611c77565b82945050505050919050565b611d4b6134ea565b73ffffffffffffffffffffffffffffffffffffffff16611d69612533565b73ffffffffffffffffffffffffffffffffffffffff1614611dbf576040517f08c379a0000000000000000000000000000000000000000000000000000000008152600401611db690615118565b60405180910390fd5b80601760146101000a81548160ff02191690831515021790555050565b600560009054906101000a900460ff1681565b60008060015490506000805b82811015611efc576000600660008381526020019081526020016000206040518060600160405290816000820160009054906101000a900473ffffffffffffffffffffffffffffffffffffffff1673ffffffffffffffffffffffffffffffffffffffff1673ffffffffffffffffffffffffffffffffffffffff1681526020016000820160149054906101000a900467ffffffffffffffff1667ffffffffffffffff1667ffffffffffffffff16815260200160008201601c9054906101000a900460ff16151515158152505090508060400151611eee5785831415611ee55781945050505050611f2f565b82806001019350505b508080600101915050611dfb565b506040517fa723001c00000000000000000000000000000000000000000000000000000000815260040160405180910390fd5b919050565b611f3c6134ea565b73ffffffffffffffffffffffffffffffffffffffff16611f5a612533565b73ffffffffffffffffffffffffffffffffffffffff1614611fb0576040517f08c379a0000000000000000000000000000000000000000000000000000000008152600401611fa790615118565b60405180910390fd5b8060109080519060200190611fc6929190614467565b5050565b601760149054906101000a900460ff1681565b600f8054611fea906154ed565b80601f0160208091040260200160405190810160405280929190818152602001828054612016906154ed565b80156120635780601f1061203857610100808354040283529160200191612063565b820191906000526020600020905b81548152906001019060200180831161204657829003601f168201915b505050505081565b6120736134ea565b73ffffffffffffffffffffffffffffffffffffffff16612091612533565b73ffffffffffffffffffffffffffffffffffffffff16146120e7576040517f08c379a00000000000000000000000000000000000000000000000000000000081526004016120de90615118565b60405180910390fd5b80601760156101000a81548160ff02191690831515021790555050565b61210c6134ea565b73ffffffffffffffffffffffffffffffffffffffff1661212a612533565b73ffffffffffffffffffffffffffffffffffffffff1614612180576040517f08c379a000000000000000000000000000000000000000000000000000000000815260040161217790615118565b60405180910390fd5b80600a600084815260200190815260200160002060006101000a81548160ff0219169083151502179055505050565b60006121ba82613aed565b600001519050919050565b60008073ffffffffffffffffffffffffffffffffffffffff168273ffffffffffffffffffffffffffffffffffffffff16141561222d576040517f8f4eb60400000000000000000000000000000000000000000000000000000000815260040160405180910390fd5b600760008373ffffffffffffffffffffffffffffffffffffffff1673ffffffffffffffffffffffffffffffffffffffff16815260200190815260200160002060000160009054906101000a900467ffffffffffffffff1667ffffffffffffffff169050919050565b61229d6134ea565b73ffffffffffffffffffffffffffffffffffffffff166122bb612533565b73ffffffffffffffffffffffffffffffffffffffff1614612311576040517f08c379a000000000000000000000000000000000000000000000000000000000815260040161230890615118565b60405180910390fd5b600073ffffffffffffffffffffffffffffffffffffffff1660008054906101000a900473ffffffffffffffffffffffffffffffffffffffff1673ffffffffffffffffffffffffffffffffffffffff167f8be0079c531659141344cd1fd0a4f28419497f9722a3daafe3b4186f6b6457e060405160405180910390a360008060006101000a81548173ffffffffffffffffffffffffffffffffffffffff021916908373ffffffffffffffffffffffffffffffffffffffff160217905550565b6123d76134ea565b73ffffffffffffffffffffffffffffffffffffffff166123f5612533565b73ffffffffffffffffffffffffffffffffffffffff161461244b576040517f08c379a000000000000000000000000000000000000000000000000000000000815260040161244290615118565b60405180910390fd5b80600e9080519060200190612461929190614467565b5050565b61246d6134ea565b73ffffffffffffffffffffffffffffffffffffffff1661248b612533565b73ffffffffffffffffffffffffffffffffffffffff16146124e1576040517f08c379a00000000000000000000000000000000000000000000000000000000081526004016124d890615118565b60405180910390fd5b600560009054906101000a900460ff1615600560006101000a81548160ff021916908315150217905550565b601760009054906101000a900473ffffffffffffffffffffffffffffffffffffffff1681565b60008060009054906101000a900473ffffffffffffffffffffffffffffffffffffffff16905090565b6125646134ea565b73ffffffffffffffffffffffffffffffffffffffff16612582612533565b73ffffffffffffffffffffffffffffffffffffffff16146125d8576040517f08c379a00000000000000000000000000000000000000000000000000000000081526004016125cf90615118565b60405180910390fd5b80601760006101000a81548173ffffffffffffffffffffffffffffffffffffffff021916908373ffffffffffffffffffffffffffffffffffffffff16021790555050565b60606004805461262b906154ed565b80601f0160208091040260200160405190810160405280929190818152602001828054612657906154ed565b80156126a45780601f10612679576101008083540402835291602001916126a4565b820191906000526020600020905b81548152906001019060200180831161268757829003601f168201915b5050505050905090565b6126b66134ea565b73ffffffffffffffffffffffffffffffffffffffff166126d4612533565b73ffffffffffffffffffffffffffffffffffffffff161461272a576040517f08c379a000000000000000000000000000000000000000000000000000000000815260040161272190615118565b60405180910390fd5b8060138190555050565b60185481565b60155481565b601760169054906101000a900460ff1661278f576040517f08c379a000000000000000000000000000000000000000000000000000000000815260040161278690615038565b60405180910390fd5b3373ffffffffffffffffffffffffffffffffffffffff163273ffffffffffffffffffffffffffffffffffffffff16146127fd576040517f08c379a00000000000000000000000000000000000000000000000000000000081526004016127f490615018565b60405180910390fd5b60115481612809611224565b6128139190615306565b1115612854576040517f08c379a000000000000000000000000000000000000000000000000000000000815260040161284b90615158565b60405180910390fd5b60008111612897576040517f08c379a000000000000000000000000000000000000000000000000000000000815260040161288e90614fd8565b60405180910390fd5b61289f612533565b73ffffffffffffffffffffffffffffffffffffffff163373ffffffffffffffffffffffffffffffffffffffff16146129fc57601354811115612916576040517f08c379a000000000000000000000000000000000000000000000000000000000815260040161290d90615178565b60405180910390fd5b80601554612924919061538d565b341015612966576040517f08c379a000000000000000000000000000000000000000000000000000000000815260040161295d906150f8565b60405180910390fd5b6000601660003373ffffffffffffffffffffffffffffffffffffffff1673ffffffffffffffffffffffffffffffffffffffff16815260200190815260200160002054905060145482826129b99190615306565b11156129fa576040517f08c379a00000000000000000000000000000000000000000000000000000000081526004016129f190615098565b60405180910390fd5b505b8060126000828254612a0e9190615306565b9250508190555080601660003373ffffffffffffffffffffffffffffffffffffffff1673ffffffffffffffffffffffffffffffffffffffff1681526020019081526020016000206000828254612a649190615306565b92505081905550612a753382613acf565b7f176b02bb2d12439ff7a20b59f402cca16c76f50508b13ef3166a600eb719354a81604051612aa491906151b8565b60405180910390a150565b612ab76134ea565b73ffffffffffffffffffffffffffffffffffffffff168273ffffffffffffffffffffffffffffffffffffffff161415612b1c576040517fb06307db00000000000000000000000000000000000000000000000000000000815260040160405180910390fd5b600560009054906101000a900460ff16612c9b57612b4f8273ffffffffffffffffffffffffffffffffffffffff166134f2565b15612b8f576040517f08c379a0000000000000000000000000000000000000000000000000000000008152600401612b8690615058565b60405180910390fd5b8060096000612b9c6134ea565b73ffffffffffffffffffffffffffffffffffffffff1673ffffffffffffffffffffffffffffffffffffffff16815260200190815260200160002060008473ffffffffffffffffffffffffffffffffffffffff1673ffffffffffffffffffffffffffffffffffffffff16815260200190815260200160002060006101000a81548160ff0219169083151502179055508173ffffffffffffffffffffffffffffffffffffffff16612c496134ea565b73ffffffffffffffffffffffffffffffffffffffff167f17307eab39ab6107e8899845ad3d59bd9653f200f220920489ca2b5937696c3183604051612c8e9190614f80565b60405180910390a3612da3565b8060096000612ca86134ea565b73ffffffffffffffffffffffffffffffffffffffff1673ffffffffffffffffffffffffffffffffffffffff16815260200190815260200160002060008473ffffffffffffffffffffffffffffffffffffffff1673ffffffffffffffffffffffffffffffffffffffff16815260200190815260200160002060006101000a81548160ff0219169083151502179055508173ffffffffffffffffffffffffffffffffffffffff16612d556134ea565b73ffffffffffffffffffffffffffffffffffffffff167f17307eab39ab6107e8899845ad3d59bd9653f200f220920489ca2b5937696c3183604051612d9a9190614f80565b60405180910390a35b5050565b612daf6134ea565b73ffffffffffffffffffffffffffffffffffffffff16612dcd612533565b73ffffffffffffffffffffffffffffffffffffffff1614612e23576040517f08c379a0000000000000000000000000000000000000000000000000000000008152600401612e1a90615118565b60405180910390fd5b8060158190555050565b606060001515601760149054906101000a900460ff1615151415612edd5760108054612e58906154ed565b80601f0160208091040260200160405190810160405280929190818152602001828054612e84906154ed565b8015612ed15780601f10612ea657610100808354040283529160200191612ed1565b820191906000526020600020905b815481529060010190602001808311612eb457829003601f168201915b50505050509050612ee8565b612ee5613d69565b90505b90565b60145481565b612efc8484846135c7565b612f0884848484613dfb565b612f3e576040517fd1a57ed600000000000000000000000000000000000000000000000000000000815260040160405180910390fd5b50505050565b600a6020528060005260406000206000915054906101000a900460ff1681565b6060612f6f8261346d565b612fae576040517f08c379a0000000000000000000000000000000000000000000000000000000008152600401612fa590615138565b60405180910390fd5b60001515601760149054906101000a900460ff161515141561305c5760108054612fd7906154ed565b80601f0160208091040260200160405190810160405280929190818152602001828054613003906154ed565b80156130505780601f1061302557610100808354040283529160200191613050565b820191906000526020600020905b81548152906001019060200180831161303357829003601f168201915b505050505090506130b8565b6000613066613d69565b9050600081511161308657604051806020016040528060008152506130b4565b8061309084613eb2565b600f6040516020016130a493929190614ee2565b6040516020818303038152906040525b9150505b919050565b60115481565b60135481565b601760159054906101000a900460ff1681565b6000600960008473ffffffffffffffffffffffffffffffffffffffff1673ffffffffffffffffffffffffffffffffffffffff16815260200190815260200160002060008373ffffffffffffffffffffffffffffffffffffffff1673ffffffffffffffffffffffffffffffffffffffff16815260200190815260200160002060009054906101000a900460ff16905092915050565b6131786134ea565b73ffffffffffffffffffffffffffffffffffffffff16613196612533565b73ffffffffffffffffffffffffffffffffffffffff16146131ec576040517f08c379a00000000000000000000000000000000000000000000000000000000081526004016131e390615118565b60405180910390fd5b60005b815181101561325657613243828281518110613234577f4e487b7100000000000000000000000000000000000000000000000000000000600052603260045260246000fd5b60200260200101516001613acf565b808061324e90615550565b9150506131ef565b5050565b6132626134ea565b73ffffffffffffffffffffffffffffffffffffffff16613280612533565b73ffffffffffffffffffffffffffffffffffffffff16146132d6576040517f08c379a00000000000000000000000000000000000000000000000000000000081526004016132cd90615118565b60405180910390fd5b600073ffffffffffffffffffffffffffffffffffffffff168173ffffffffffffffffffffffffffffffffffffffff161415613346576040517f08c379a000000000000000000000000000000000000000000000000000000000815260040161333d90614ff8565b60405180910390fd5b8073ffffffffffffffffffffffffffffffffffffffff1660008054906101000a900473ffffffffffffffffffffffffffffffffffffffff1673ffffffffffffffffffffffffffffffffffffffff167f8be0079c531659141344cd1fd0a4f28419497f9722a3daafe3b4186f6b6457e060405160405180910390a3806000806101000a81548173ffffffffffffffffffffffffffffffffffffffff021916908373ffffffffffffffffffffffffffffffffffffffff16021790555050565b60007f01ffc9a7000000000000000000000000000000000000000000000000000000007bffffffffffffffffffffffffffffffffffffffffffffffffffffffff1916827bffffffffffffffffffffffffffffffffffffffffffffffffffffffff1916149050919050565b60008082116134b1576040517f08c379a00000000000000000000000000000000000000000000000000000000081526004016134a890615078565b60405180910390fd5b600154821080156134e3575060066000838152602001908152602001600020600001601c9054906101000a900460ff16155b9050919050565b600033905090565b6000808273ffffffffffffffffffffffffffffffffffffffff163b119050919050565b826008600084815260200190815260200160002060006101000a81548173ffffffffffffffffffffffffffffffffffffffff021916908373ffffffffffffffffffffffffffffffffffffffff160217905550818373ffffffffffffffffffffffffffffffffffffffff168273ffffffffffffffffffffffffffffffffffffffff167f8c5be1e5ebec7d5bd14f71427d1e84f3dd0314c0f7b2291e5b200ac8c7c3b92560405160405180910390a4505050565b60006135d282613aed565b90506000816000015173ffffffffffffffffffffffffffffffffffffffff166135f96134ea565b73ffffffffffffffffffffffffffffffffffffffff16148061362c575061362b82600001516136266134ea565b6130dc565b5b80613671575061363a6134ea565b73ffffffffffffffffffffffffffffffffffffffff1661365984610e4b565b73ffffffffffffffffffffffffffffffffffffffff16145b9050806136aa576040517f59c896be00000000000000000000000000000000000000000000000000000000815260040160405180910390fd5b8473ffffffffffffffffffffffffffffffffffffffff16826000015173ffffffffffffffffffffffffffffffffffffffff1614613713576040517fa114810000000000000000000000000000000000000000000000000000000000815260040160405180910390fd5b600073ffffffffffffffffffffffffffffffffffffffff168473ffffffffffffffffffffffffffffffffffffffff16141561377a576040517fea553b3400000000000000000000000000000000000000000000000000000000815260040160405180910390fd5b613787858585600161405f565b6137976000848460000151613515565b6001600760008773ffffffffffffffffffffffffffffffffffffffff1673ffffffffffffffffffffffffffffffffffffffff16815260200190815260200160002060000160008282829054906101000a900467ffffffffffffffff160392506101000a81548167ffffffffffffffff021916908367ffffffffffffffff1602179055506001600760008673ffffffffffffffffffffffffffffffffffffffff1673ffffffffffffffffffffffffffffffffffffffff16815260200190815260200160002060000160008282829054906101000a900467ffffffffffffffff160192506101000a81548167ffffffffffffffff021916908367ffffffffffffffff160217905550836006600085815260200190815260200160002060000160006101000a81548173ffffffffffffffffffffffffffffffffffffffff021916908373ffffffffffffffffffffffffffffffffffffffff160217905550426006600085815260200190815260200160002060000160146101000a81548167ffffffffffffffff021916908367ffffffffffffffff1602179055506000600184019050600073ffffffffffffffffffffffffffffffffffffffff166006600083815260200190815260200160002060000160009054906101000a900473ffffffffffffffffffffffffffffffffffffffff1673ffffffffffffffffffffffffffffffffffffffff161415613a4857600154811015613a475782600001516006600083815260200190815260200160002060000160006101000a81548173ffffffffffffffffffffffffffffffffffffffff021916908373ffffffffffffffffffffffffffffffffffffffff16021790555082602001516006600083815260200190815260200160002060000160146101000a81548167ffffffffffffffff021916908367ffffffffffffffff1602179055505b5b50828473ffffffffffffffffffffffffffffffffffffffff168673ffffffffffffffffffffffffffffffffffffffff167fddf252ad1be2c89b69c2b068fc378daa952ba7f163c4a11628f55a4df523b3ef60405160405180910390a4613ab18585856001614065565b5050505050565b600082613ac5858461406b565b1490509392505050565b613ae9828260405180602001604052806000815250614106565b5050565b613af56144ed565b6000829050600154811015613d32576000600660008381526020019081526020016000206040518060600160405290816000820160009054906101000a900473ffffffffffffffffffffffffffffffffffffffff1673ffffffffffffffffffffffffffffffffffffffff1673ffffffffffffffffffffffffffffffffffffffff1681526020016000820160149054906101000a900467ffffffffffffffff1667ffffffffffffffff1667ffffffffffffffff16815260200160008201601c9054906101000a900460ff16151515158152505090508060400151613d3057600073ffffffffffffffffffffffffffffffffffffffff16816000015173ffffffffffffffffffffffffffffffffffffffff1614613c14578092505050613d64565b5b600115613d2f57818060019003925050600660008381526020019081526020016000206040518060600160405290816000820160009054906101000a900473ffffffffffffffffffffffffffffffffffffffff1673ffffffffffffffffffffffffffffffffffffffff1673ffffffffffffffffffffffffffffffffffffffff1681526020016000820160149054906101000a900467ffffffffffffffff1667ffffffffffffffff1667ffffffffffffffff16815260200160008201601c9054906101000a900460ff1615151515815250509050600073ffffffffffffffffffffffffffffffffffffffff16816000015173ffffffffffffffffffffffffffffffffffffffff1614613d2a578092505050613d64565b613c15565b5b505b6040517fdf2d9b4200000000000000000000000000000000000000000000000000000000815260040160405180910390fd5b919050565b6060600e8054613d78906154ed565b80601f0160208091040260200160405190810160405280929190818152602001828054613da4906154ed565b8015613df15780601f10613dc657610100808354040283529160200191613df1565b820191906000526020600020905b815481529060010190602001808311613dd457829003601f168201915b5050505050905090565b6000600560009054906101000a900460ff16158015613e385750600a600084815260200190815260200160002060009054906101000a900460ff16155b15613ea557613e5c8473ffffffffffffffffffffffffffffffffffffffff166134f2565b15613e9c576040517f08c379a0000000000000000000000000000000000000000000000000000000008152600401613e9390615058565b60405180910390fd5b60019050613eaa565b600190505b949350505050565b60606000821415613efa576040518060400160405280600181526020017f3000000000000000000000000000000000000000000000000000000000000000815250905061405a565b600082905060005b60008214613f2c578080613f1590615550565b915050600a82613f25919061535c565b9150613f02565b60008167ffffffffffffffff811115613f6e577f4e487b7100000000000000000000000000000000000000000000000000000000600052604160045260246000fd5b6040519080825280601f01601f191660200182016040528015613fa05781602001600182028036833780820191505090505b5090505b6000851461405357600182613fb991906153e7565b9150600a85613fc891906155bd565b6030613fd49190615306565b60f81b818381518110614010577f4e487b7100000000000000000000000000000000000000000000000000000000600052603260045260246000fd5b60200101907effffffffffffffffffffffffffffffffffffffffffffffffffffffffffffff1916908160001a905350600a8561404c919061535c565b9450613fa4565b8093505050505b919050565b50505050565b50505050565b60008082905060005b84518110156140fb5760008582815181106140b8577f4e487b7100000000000000000000000000000000000000000000000000000000600052603260045260246000fd5b602002602001015190508083116140da576140d38382614118565b92506140e7565b6140e48184614118565b92505b5080806140f390615550565b915050614074565b508091505092915050565b614113838383600161412f565b505050565b600082600052816020526040600020905092915050565b60006001549050600073ffffffffffffffffffffffffffffffffffffffff168573ffffffffffffffffffffffffffffffffffffffff16141561419d576040517f2e07630000000000000000000000000000000000000000000000000000000000815260040160405180910390fd5b60008414156141d8576040517fb562e8dd00000000000000000000000000000000000000000000000000000000815260040160405180910390fd5b6141e5600086838761405f565b83600760008773ffffffffffffffffffffffffffffffffffffffff1673ffffffffffffffffffffffffffffffffffffffff16815260200190815260200160002060000160008282829054906101000a900467ffffffffffffffff160192506101000a81548167ffffffffffffffff021916908367ffffffffffffffff16021790555083600760008773ffffffffffffffffffffffffffffffffffffffff1673ffffffffffffffffffffffffffffffffffffffff16815260200190815260200160002060000160088282829054906101000a900467ffffffffffffffff160192506101000a81548167ffffffffffffffff021916908367ffffffffffffffff160217905550846006600083815260200190815260200160002060000160006101000a81548173ffffffffffffffffffffffffffffffffffffffff021916908373ffffffffffffffffffffffffffffffffffffffff160217905550426006600083815260200190815260200160002060000160146101000a81548167ffffffffffffffff021916908367ffffffffffffffff160217905550600081905060005b8581101561444a57818773ffffffffffffffffffffffffffffffffffffffff16600073ffffffffffffffffffffffffffffffffffffffff167fddf252ad1be2c89b69c2b068fc378daa952ba7f163c4a11628f55a4df523b3ef60405160405180910390a48380156143fe57506143fc6000888488613dfb565b155b15614435576040517fd1a57ed600000000000000000000000000000000000000000000000000000000815260040160405180910390fd5b81806001019250508080600101915050614383565b5080600181905550506144606000868387614065565b5050505050565b828054614473906154ed565b90600052602060002090601f01602090048101928261449557600085556144dc565b82601f106144ae57805160ff19168380011785556144dc565b828001600101855582156144dc579182015b828111156144db5782518255916020019190600101906144c0565b5b5090506144e99190614530565b5090565b6040518060600160405280600073ffffffffffffffffffffffffffffffffffffffff168152602001600067ffffffffffffffff1681526020016000151581525090565b5b80821115614549576000816000905550600101614531565b5090565b600061456061455b846151f8565b6151d3565b9050808382526020820190508285602086028201111561457f57600080fd5b60005b858110156145af57816145958882614635565b845260208401935060208301925050600181019050614582565b5050509392505050565b60006145cc6145c784615224565b6151d3565b9050828152602081018484840111156145e457600080fd5b6145ef8482856154ab565b509392505050565b600061460a61460584615255565b6151d3565b90508281526020810184848401111561462257600080fd5b61462d8482856154ab565b509392505050565b60008135905061464481615a16565b92915050565b600082601f83011261465b57600080fd5b813561466b84826020860161454d565b91505092915050565b60008083601f84011261468657600080fd5b8235905067ffffffffffffffff81111561469f57600080fd5b6020830191508360208202830111156146b757600080fd5b9250929050565b6000813590506146cd81615a2d565b92915050565b6000813590506146e281615a44565b92915050565b6000813590506146f781615a5b565b92915050565b600082601f83011261470e57600080fd5b813561471e8482602086016145b9565b91505092915050565b600082601f83011261473857600080fd5b81356147488482602086016145f7565b91505092915050565b60008135905061476081615a72565b92915050565b60006020828403121561477857600080fd5b600061478684828501614635565b91505092915050565b600080604083850312156147a257600080fd5b60006147b085828601614635565b92505060206147c185828601614635565b9150509250929050565b6000806000606084860312156147e057600080fd5b60006147ee86828701614635565b93505060206147ff86828701614635565b925050604061481086828701614751565b9150509250925092565b6000806000806080858703121561483057600080fd5b600061483e87828801614635565b945050602061484f87828801614635565b935050604061486087828801614751565b925050606085013567ffffffffffffffff81111561487d57600080fd5b614889878288016146fd565b91505092959194509250565b600080604083850312156148a857600080fd5b60006148b685828601614635565b92505060206148c7858286016146be565b9150509250929050565b600080604083850312156148e457600080fd5b60006148f285828601614635565b925050602061490385828601614751565b9150509250929050565b60006020828403121561491f57600080fd5b600082013567ffffffffffffffff81111561493957600080fd5b6149458482850161464a565b91505092915050565b60008060006040848603121561496357600080fd5b600084013567ffffffffffffffff81111561497d57600080fd5b61498986828701614674565b9350935050602061499c86828701614751565b9150509250925092565b6000602082840312156149b857600080fd5b60006149c6848285016146be565b91505092915050565b6000602082840312156149e157600080fd5b60006149ef848285016146d3565b91505092915050565b600060208284031215614a0a57600080fd5b6000614a18848285016146e8565b91505092915050565b600060208284031215614a3357600080fd5b600082013567ffffffffffffffff811115614a4d57600080fd5b614a5984828501614727565b91505092915050565b600060208284031215614a7457600080fd5b6000614a8284828501614751565b91505092915050565b60008060408385031215614a9e57600080fd5b6000614aac85828601614751565b9250506020614abd858286016146be565b9150509250929050565b6000614ad38383614ea9565b60208301905092915050565b614ae88161542d565b82525050565b614af78161541b565b82525050565b614b0e614b098261541b565b615599565b82525050565b6000614b1f826152ab565b614b2981856152ce565b9350614b3483615286565b8060005b83811015614b65578151614b4c8882614ac7565b9750614b57836152c1565b925050600181019050614b38565b5085935050505092915050565b614b7b8161543f565b82525050565b614b8a8161544b565b82525050565b6000614b9b826152b6565b614ba581856152ea565b9350614bb58185602086016154ba565b614bbe816156aa565b840191505092915050565b6000614bd4826152b6565b614bde81856152fb565b9350614bee8185602086016154ba565b80840191505092915050565b60008154614c07816154ed565b614c1181866152fb565b94506001821660008114614c2c5760018114614c3d57614c70565b60ff19831686528186019350614c70565b614c4685615296565b60005b83811015614c6857815481890152600182019150602081019050614c49565b838801955050505b50505092915050565b6000614c86602e836152ea565b9150614c91826156c8565b604082019050919050565b6000614ca96026836152ea565b9150614cb482615717565b604082019050919050565b6000614ccc6010836152ea565b9150614cd782615766565b602082019050919050565b6000614cef6018836152ea565b9150614cfa8261578f565b602082019050919050565b6000614d126032836152ea565b9150614d1d826157b8565b604082019050919050565b6000614d35600f836152ea565b9150614d4082615807565b602082019050919050565b6000614d586019836152ea565b9150614d6382615830565b602082019050919050565b6000614d7b6015836152ea565b9150614d8682615859565b602082019050919050565b6000614d9e600d836152ea565b9150614da982615882565b602082019050919050565b6000614dc1602f836152ea565b9150614dcc826158ab565b604082019050919050565b6000614de46020836152ea565b9150614def826158fa565b602082019050919050565b6000614e07602f836152ea565b9150614e1282615923565b604082019050919050565b6000614e2a6016836152ea565b9150614e3582615972565b602082019050919050565b6000614e4d602a836152ea565b9150614e588261599b565b604082019050919050565b6000614e706000836152df565b9150614e7b826159ea565b600082019050919050565b6000614e936010836152ea565b9150614e9e826159ed565b602082019050919050565b614eb2816154a1565b82525050565b614ec1816154a1565b82525050565b6000614ed38284614afd565b60148201915081905092915050565b6000614eee8286614bc9565b9150614efa8285614bc9565b9150614f068284614bfa565b9150819050949350505050565b6000614f1e82614e63565b9150819050919050565b6000602082019050614f3d6000830184614aee565b92915050565b6000602082019050614f586000830184614adf565b92915050565b60006020820190508181036000830152614f788184614b14565b905092915050565b6000602082019050614f956000830184614b72565b92915050565b6000602082019050614fb06000830184614b81565b92915050565b60006020820190508181036000830152614fd08184614b90565b905092915050565b60006020820190508181036000830152614ff181614c79565b9050919050565b6000602082019050818103600083015261501181614c9c565b9050919050565b6000602082019050818103600083015261503181614cbf565b9050919050565b6000602082019050818103600083015261505181614ce2565b9050919050565b6000602082019050818103600083015261507181614d05565b9050919050565b6000602082019050818103600083015261509181614d28565b9050919050565b600060208201905081810360008301526150b181614d4b565b9050919050565b600060208201905081810360008301526150d181614d6e565b9050919050565b600060208201905081810360008301526150f181614d91565b9050919050565b6000602082019050818103600083015261511181614db4565b9050919050565b6000602082019050818103600083015261513181614dd7565b9050919050565b6000602082019050818103600083015261515181614dfa565b9050919050565b6000602082019050818103600083015261517181614e1d565b9050919050565b6000602082019050818103600083015261519181614e40565b9050919050565b600060208201905081810360008301526151b181614e86565b9050919050565b60006020820190506151cd6000830184614eb8565b92915050565b60006151dd6151ee565b90506151e9828261551f565b919050565b6000604051905090565b600067ffffffffffffffff8211156152135761521261567b565b5b602082029050602081019050919050565b600067ffffffffffffffff82111561523f5761523e61567b565b5b615248826156aa565b9050602081019050919050565b600067ffffffffffffffff8211156152705761526f61567b565b5b615279826156aa565b9050602081019050919050565b6000819050602082019050919050565b60008190508160005260206000209050919050565b600081519050919050565b600081519050919050565b6000602082019050919050565b600082825260208201905092915050565b600081905092915050565b600082825260208201905092915050565b600081905092915050565b6000615311826154a1565b915061531c836154a1565b9250827fffffffffffffffffffffffffffffffffffffffffffffffffffffffffffffffff03821115615351576153506155ee565b5b828201905092915050565b6000615367826154a1565b9150615372836154a1565b9250826153825761538161561d565b5b828204905092915050565b6000615398826154a1565b91506153a3836154a1565b9250817fffffffffffffffffffffffffffffffffffffffffffffffffffffffffffffffff04831182151516156153dc576153db6155ee565b5b828202905092915050565b60006153f2826154a1565b91506153fd836154a1565b9250828210156154105761540f6155ee565b5b828203905092915050565b600061542682615481565b9050919050565b600061543882615481565b9050919050565b60008115159050919050565b6000819050919050565b60007fffffffff0000000000000000000000000000000000000000000000000000000082169050919050565b600073ffffffffffffffffffffffffffffffffffffffff82169050919050565b6000819050919050565b82818337600083830152505050565b60005b838110156154d85780820151818401526020810190506154bd565b838111156154e7576000848401525b50505050565b6000600282049050600182168061550557607f821691505b602082108114156155195761551861564c565b5b50919050565b615528826156aa565b810181811067ffffffffffffffff821117156155475761554661567b565b5b80604052505050565b600061555b826154a1565b91507fffffffffffffffffffffffffffffffffffffffffffffffffffffffffffffffff82141561558e5761558d6155ee565b5b600182019050919050565b60006155a4826155ab565b9050919050565b60006155b6826156bb565b9050919050565b60006155c8826154a1565b91506155d3836154a1565b9250826155e3576155e261561d565b5b828206905092915050565b7f4e487b7100000000000000000000000000000000000000000000000000000000600052601160045260246000fd5b7f4e487b7100000000000000000000000000000000000000000000000000000000600052601260045260246000fd5b7f4e487b7100000000000000000000000000000000000000000000000000000000600052602260045260246000fd5b7f4e487b7100000000000000000000000000000000000000000000000000000000600052604160045260246000fd5b6000601f19601f8301169050919050565b60008160601b9050919050565b7f4d696e696d756d2031204e46542068617320746f206265206d696e746564207060008201527f6572207472616e73616374696f6e000000000000000000000000000000000000602082015250565b7f4f776e61626c653a206e6577206f776e657220697320746865207a65726f206160008201527f6464726573730000000000000000000000000000000000000000000000000000602082015250565b7f436f6e74726163742044656e6965642e00000000000000000000000000000000600082015250565b7f5075626c6963206d696e74206e6f7420656e61626c6564210000000000000000600082015250565b7f546f6b656e207472616e7366657220746f20636f6e747261637420616464726560008201527f7373206973206e6f7420616c6c6f7765642e0000000000000000000000000000602082015250565b7f496e76616c696420546f6b656e49640000000000000000000000000000000000600082015250565b7f6d61782070657220616464726573732065786365656465642100000000000000600082015250565b7f4d696e7420616c726561647920636c61696d6564210000000000000000000000600082015250565b7f50726f6f6620496e76616c696400000000000000000000000000000000000000600082015250565b7f45746865722073656e7420776974682074686973207472616e73616374696f6e60008201527f206973206e6f7420636f72726563740000000000000000000000000000000000602082015250565b7f4f776e61626c653a2063616c6c6572206973206e6f7420746865206f776e6572600082015250565b7f4552433732314d657461646174613a2055524920717565727920666f72206e6f60008201527f6e6578697374656e7420746f6b656e0000000000000000000000000000000000602082015250565b7f45786365656473206d6178696d756d20737570706c7900000000000000000000600082015250565b7f4d6178696d756d204e4654732063616e206265206d696e74656420706572207460008201527f72616e73616374696f6e00000000000000000000000000000000000000000000602082015250565b50565b7f5472616e73666572206661696c65642e00000000000000000000000000000000600082015250565b615a1f8161541b565b8114615a2a57600080fd5b50565b615a368161543f565b8114615a4157600080fd5b50565b615a4d8161544b565b8114615a5857600080fd5b50565b615a6481615455565b8114615a6f57600080fd5b50565b615a7b816154a1565b8114615a8657600080fd5b5056fea2646970667358221220f492108e080e9c0266e880053cb655febd3a1279f83680633953e374cdd24af864736f6c63430008040033",
  "linkReferences": {},
  "deployedLinkReferences": {}
}